{
  "contractName": "Credentials",
  "abi": [
    {
      "constant": true,
      "inputs": [
        {
          "name": "",
          "type": "uint256"
        }
      ],
      "name": "credentials",
      "outputs": [
        {
          "name": "name",
          "type": "bytes32"
        },
        {
          "name": "url",
          "type": "bytes32"
        },
        {
          "name": "isActive",
          "type": "bool"
        },
        {
          "name": "fee",
          "type": "uint256"
        }
      ],
      "payable": false,
      "stateMutability": "view",
      "type": "function"
    },
    {
      "anonymous": false,
      "inputs": [
        {
          "indexed": false,
          "name": "name",
          "type": "bytes32"
        },
        {
          "indexed": false,
          "name": "url",
          "type": "bytes32"
        },
        {
          "indexed": false,
          "name": "isActive",
          "type": "bytes32"
        },
        {
          "indexed": false,
          "name": "fee",
          "type": "uint256"
        }
      ],
      "name": "NewCredential",
      "type": "event"
    },
    {
      "constant": true,
      "inputs": [
        {
          "name": "_id",
          "type": "uint256"
        }
      ],
      "name": "getCredentialById",
      "outputs": [
        {
          "name": "name",
          "type": "bytes32"
        },
        {
          "name": "url",
          "type": "bytes32"
        },
        {
          "name": "fee",
          "type": "uint256"
        }
      ],
      "payable": false,
      "stateMutability": "view",
      "type": "function"
    },
    {
      "constant": true,
      "inputs": [
        {
          "name": "_name",
          "type": "bytes32"
        }
      ],
      "name": "getCredentialByName",
      "outputs": [
        {
          "name": "name",
          "type": "bytes32"
        },
        {
          "name": "url",
          "type": "bytes32"
        },
        {
          "name": "fee",
          "type": "uint256"
        }
      ],
      "payable": false,
      "stateMutability": "view",
      "type": "function"
    },
    {
      "constant": true,
      "inputs": [],
      "name": "getCredentialList",
      "outputs": [
        {
          "name": "",
          "type": "bytes32[]"
        }
      ],
      "payable": false,
      "stateMutability": "view",
      "type": "function"
    }
  ],
  "bytecode": "0x6060604052341561000f57600080fd5b6104858061001e6000396000f300606060405260043610610062576000357c0100000000000000000000000000000000000000000000000000000000900463ffffffff1680633ef39e2a146100675780637c4a27f3146100bc578063cf021c8a14610115578063e0574e3f1461017f575b600080fd5b341561007257600080fd5b61008860048080359060200190919050506101df565b6040518084600019166000191681526020018360001916600019168152602001828152602001935050505060405180910390f35b34156100c757600080fd5b6100e1600480803560001916906020019091905050610266565b6040518084600019166000191681526020018360001916600019168152602001828152602001935050505060405180910390f35b341561012057600080fd5b61012861033b565b6040518080602001828103825283818151815260200191508051906020019060200280838360005b8381101561016b578082015181840152602081019050610150565b505050509050019250505060405180910390f35b341561018a57600080fd5b6101a060048080359060200190919050506103f9565b60405180856000191660001916815260200184600019166000191681526020018315151515815260200182815260200194505050505060405180910390f35b60008060008080549050841015156101f657600080fd5b60008481548110151561020557fe5b90600052602060002090600402016000015460008581548110151561022657fe5b90600052602060002090600402016001015460008681548110151561024757fe5b9060005260206000209060040201600301549250925092509193909250565b6000806000806001600086600019166000191681526020019081526020016000205490506000808281548110151561029a57fe5b906000526020600020905050602060ff161115156102b757600080fd5b600080549050811015156102ca57600080fd5b6000818154811015156102d957fe5b9060005260206000209060040201600001546000828154811015156102fa57fe5b90600052602060002090600402016001015460008381548110151561031b57fe5b906000526020600020906004020160030154935093509350509193909250565b610343610445565b61034b610445565b6000806000805490501015151561036157600080fd5b6000805490506040518059106103745750595b90808252806020026020018201604052509150600090505b600160008054905003811115156103f1576000818154811015156103ac57fe5b90600052602060002090600402016000015482828151811015156103cc57fe5b906020019060200201906000191690816000191681525050808060010191505061038c565b819250505090565b60008181548110151561040857fe5b90600052602060002090600402016000915090508060000154908060010154908060020160009054906101000a900460ff16908060030154905084565b6020604051908101604052806000815250905600a165627a7a723058204d7fad0f38f64ccb41f9d34173b732af861c9f39cc6a2ff3acbb4019b3f5bc010029",
  "source": "pragma solidity ^0.4.19;\r\n\r\nimport \"./myutils.sol\";\r\n\r\ncontract Credentials is MyUtils {\r\n\r\n    // Events\r\n    event NewCredential(bytes32 name, bytes32 url,  bytes32 isActive, uint fee);\r\n\r\n    // Structs\r\n    struct Credential {\r\n        bytes32 name;\r\n        bytes32 url;\r\n        bool isActive;\r\n        uint fee;\r\n    }\r\n\r\n    Credential[] public credentials;\r\n    mapping(bytes32 => uint) internal credentialIdByName;\r\n\r\n    // Purpose  : To hold add a credential to the list of available credentials\r\n    function addCredential(bytes32 _name, bytes32 _url,  bool _isActive, uint _fee) internal returns (uint) {\r\n        require(credentialIdByName[_name] == 0);\r\n        uint id = 0;\r\n        id = credentials.push(Credential(_name, _url,_isActive,_fee))-1;\r\n        credentialIdByName[_name] = id;\r\n        return id;\r\n    }\r\n\r\n    // Purpose  : To retrieve a credential by the id\r\n    function getCredentialById(uint _id) public view returns (bytes32 name, bytes32 url, uint fee) {\r\n        require(_id < credentials.length);\r\n        return (credentials[_id].name, credentials[_id].url, credentials[_id].fee); \r\n    }\r\n\r\n    function getCredentialByName(bytes32 _name) public view returns (bytes32 name, bytes32 url, uint fee) {\r\n        uint _id = credentialIdByName[_name];\r\n        require(credentials[_id].name.length > 0);\r\n        require(_id < credentials.length);\r\n        return (credentials[_id].name, credentials[_id].url, credentials[_id].fee); \r\n    }\r\n\r\n    function getCredentialList() public view returns (bytes32[]) {\r\n        require(credentials.length >= 0);\r\n        bytes32[] memory  names = new bytes32[](credentials.length);\r\n        for (uint i = 0; i <= credentials.length-1; i++) {\r\n            names[i] = credentials[i].name;\r\n        }\r\n        return (names);\r\n    }\r\n\r\n    function stringToBytes32(string memory source) internal pure returns (bytes32 result) {\r\n        bytes memory tempEmptyStringTest = bytes(source);\r\n        if (tempEmptyStringTest.length == 0) {\r\n            return 0x0;\r\n        }\r\n        assembly {result := mload(add(source, 32))}\r\n    }\r\n\r\n}",
  "sourcePath": "D:\\GitHub\\pirl-project01\\truffle\\contracts\\Credentials.sol",
  "compiler": {
    "name": "solc",
    "version": "0.4.21+commit.dfe3193c.Emscripten.clang"
  },
  "schemaVersion": "2.0.0",
  "updatedAt": "2018-05-10T00:47:53.838Z"
}