{
  "contractName": "Credentials",
  "abi": [
    {
      "constant": true,
      "inputs": [
        {
          "name": "",
          "type": "uint256"
        }
      ],
      "name": "credentials",
      "outputs": [
        {
          "name": "name",
          "type": "bytes32"
        },
        {
          "name": "url",
          "type": "bytes32"
        },
        {
          "name": "isActive",
          "type": "bool"
        },
        {
          "name": "fee",
          "type": "uint256"
        },
        {
          "name": "agencyId",
          "type": "uint256"
        }
      ],
      "payable": false,
      "stateMutability": "view",
      "type": "function"
    },
    {
      "anonymous": false,
      "inputs": [
        {
          "indexed": false,
          "name": "name",
          "type": "bytes32"
        },
        {
          "indexed": false,
          "name": "url",
          "type": "bytes32"
        },
        {
          "indexed": false,
          "name": "isActive",
          "type": "bytes32"
        },
        {
          "indexed": false,
          "name": "fee",
          "type": "uint256"
        }
      ],
      "name": "NewCredential",
      "type": "event"
    },
    {
      "constant": false,
      "inputs": [
        {
          "name": "_name",
          "type": "string"
        },
        {
          "name": "_url",
          "type": "string"
        },
        {
          "name": "_fee",
          "type": "uint256"
        },
        {
          "name": "_agencyId",
          "type": "uint256"
        }
      ],
      "name": "addCredential",
      "outputs": [],
      "payable": false,
      "stateMutability": "nonpayable",
      "type": "function"
    },
    {
      "constant": true,
      "inputs": [
        {
          "name": "_id",
          "type": "uint256"
        }
      ],
      "name": "getCredentialById",
      "outputs": [
        {
          "name": "name",
          "type": "bytes32"
        },
        {
          "name": "url",
          "type": "bytes32"
        },
        {
          "name": "fee",
          "type": "uint256"
        }
      ],
      "payable": false,
      "stateMutability": "view",
      "type": "function"
    },
    {
      "constant": true,
      "inputs": [
        {
          "name": "_agencyId",
          "type": "uint256"
        }
      ],
      "name": "getCredentialListByAgencyId",
      "outputs": [
        {
          "name": "",
          "type": "bytes32[]"
        },
        {
          "name": "",
          "type": "uint256[]"
        }
      ],
      "payable": false,
      "stateMutability": "view",
      "type": "function"
    }
  ],
  "bytecode": "0x608060405234801561001057600080fd5b506106b9806100206000396000f300608060405260043610610062576000357c0100000000000000000000000000000000000000000000000000000000900463ffffffff1680632f98a923146100675780633ef39e2a1461012a578063e0574e3f14610189578063f9406534146101fa575b600080fd5b34801561007357600080fd5b50610128600480360381019080803590602001908201803590602001908080601f0160208091040260200160405190810160405280939291908181526020018383808284378201915050505050509192919290803590602001908201803590602001908080601f016020809104026020016040519081016040528093929190818152602001838380828437820191505050505050919291929080359060200190929190803590602001909291905050506102c4565b005b34801561013657600080fd5b506101556004803603810190808035906020019092919050505061042d565b6040518084600019166000191681526020018360001916600019168152602001828152602001935050505060405180910390f35b34801561019557600080fd5b506101b4600480360381019080803590602001909291905050506104b4565b6040518086600019166000191681526020018560001916600019168152602001841515151581526020018381526020018281526020019550505050505060405180910390f35b34801561020657600080fd5b5061022560048036038101908080359060200190929190505050610506565b604051808060200180602001838103835285818151815260200191508051906020019060200280838360005b8381101561026c578082015181840152602081019050610251565b50505050905001838103825284818151815260200191508051906020019060200280838360005b838110156102ae578082015181840152602081019050610293565b5050505090500194505050505060405180910390f35b600080600160006102d488610662565b60001916600019168152602001908152602001600020541415156102f757600080fd5b600090506001600060a06040519081016040528061031489610662565b60001916815260200161032688610662565b6000191681526020016001151581526020018681526020018581525090806001815401808255809150509060018203906000526020600020906005020160009091929091909150600082015181600001906000191690556020820151816001019060001916905560408201518160020160006101000a81548160ff0219169083151502179055506060820151816003015560808201518160040155505003905080600160006103d488610662565b600019166000191681526020019081526020016000208190555060016002600084815260200190815260200160002060008282540192505081905560026000848152602001908152602001600020819055505050505050565b600080600080805490508410151561044457600080fd5b60008481548110151561045357fe5b90600052602060002090600502016000015460008581548110151561047457fe5b90600052602060002090600502016001015460008681548110151561049557fe5b9060005260206000209060050201600301549250925092509193909250565b6000818154811015156104c357fe5b90600052602060002090600502016000915090508060000154908060010154908060020160009054906101000a900460ff16908060030154908060040154905085565b60608060608060008060026000888152602001908152602001600020546040519080825280602002602001820160405280156105515781602001602082028038833980820191505090505b50935060026000888152602001908152602001600020546040519080825280602002602001820160405280156105965781602001602082028038833980820191505090505b50925060009150600090505b6001600080549050038111151561065357866000828154811015156105c357fe5b9060005260206000209060050201600401541415610646576000818154811015156105ea57fe5b906000526020600020906005020160000154848381518110151561060a57fe5b90602001906020020190600019169081600019168152505080838381518110151561063157fe5b90602001906020020181815250506001820191505b80806001019150506105a2565b83839550955050505050915091565b6000606082905060008151141561067f5760006001029150610687565b602083015191505b509190505600a165627a7a723058201828529ad00ff26521e7b8b210bf201ba78a3f5292df13063ed6256ff37295e20029",
  "source": "pragma solidity ^0.4.19;\r\n\r\n\r\ncontract Credentials {\r\n\r\n    // Events\r\n    event NewCredential(bytes32 name, bytes32 url,  bytes32 isActive, uint fee);\r\n\r\n    // Structs\r\n    struct Credential {\r\n        bytes32 name;\r\n        bytes32 url;\r\n        bool isActive;\r\n        uint fee;\r\n        uint agencyId;\r\n    }\r\n\r\n    Credential[] public credentials;\r\n    mapping(bytes32 => uint) internal credentialIdByName;\r\n    mapping(uint => uint) internal credentialCountByAgencyId;\r\n\r\n    // Purpose  : To hold add a credential to the list of available credentials\r\n    function addCredential(string _name, string _url, uint _fee, uint _agencyId) public {\r\n        require(credentialIdByName[stringToBytes32(_name)] == 0);\r\n        uint id = 0;\r\n        id = credentials.push(Credential(stringToBytes32(_name), stringToBytes32(_url),true,_fee, _agencyId))-1;\r\n        credentialIdByName[stringToBytes32(_name)] = id;\r\n        credentialCountByAgencyId[_agencyId] = credentialCountByAgencyId[_agencyId] += 1;\r\n    }\r\n\r\n    // Purpose  : To retrieve a credential by the id\r\n    function getCredentialById(uint _id) public view returns (bytes32 name, bytes32 url, uint fee) {\r\n        require(_id < credentials.length);\r\n        return (credentials[_id].name, credentials[_id].url, credentials[_id].fee); \r\n    }\r\n\r\n    function getCredentialListByAgencyId(uint _agencyId) public view returns (bytes32[], uint[]) {\r\n        bytes32[] memory  names = new bytes32[](credentialCountByAgencyId[_agencyId]);\r\n        uint[] memory  ids = new uint[](credentialCountByAgencyId[_agencyId]);\r\n        uint index = 0;\r\n        for (uint i = 0; i <= credentials.length-1; i++) {\r\n            if (credentials[i].agencyId == _agencyId) {\r\n                names[index] = credentials[i].name;\r\n                ids[index] = i;\r\n                index += 1;\r\n            }\r\n        }\r\n        return (names,ids);\r\n    }\r\n\r\n    function stringToBytes32(string memory source) internal pure returns (bytes32 result) {\r\n        bytes memory tempEmptyStringTest = bytes(source);\r\n        if (tempEmptyStringTest.length == 0) {\r\n            return 0x0;\r\n        }\r\n        assembly {result := mload(add(source, 32))}\r\n    }\r\n\r\n}",
  "sourcePath": "D:\\GitHub\\pirl-project01\\truffle\\contracts\\Credentials.sol",
  "compiler": {
    "name": "solc",
    "version": "0.4.23+commit.124ca40d.Emscripten.clang"
  },
  "schemaVersion": "2.0.0",
  "updatedAt": "2018-05-20T01:26:19.411Z"
}