{
  "contractName": "Credentials",
  "abi": [
    {
      "constant": true,
      "inputs": [
        {
          "name": "",
          "type": "uint256"
        }
      ],
      "name": "credentials",
      "outputs": [
        {
          "name": "name",
          "type": "bytes32"
        },
        {
          "name": "url",
          "type": "bytes32"
        },
        {
          "name": "isActive",
          "type": "bool"
        },
        {
          "name": "fee",
          "type": "uint256"
        }
      ],
      "payable": false,
      "stateMutability": "view",
      "type": "function"
    },
    {
      "anonymous": false,
      "inputs": [
        {
          "indexed": false,
          "name": "name",
          "type": "bytes32"
        },
        {
          "indexed": false,
          "name": "url",
          "type": "bytes32"
        },
        {
          "indexed": false,
          "name": "isActive",
          "type": "bytes32"
        },
        {
          "indexed": false,
          "name": "fee",
          "type": "uint256"
        }
      ],
      "name": "NewCredential",
      "type": "event"
    },
    {
      "constant": false,
      "inputs": [
        {
          "name": "_name",
          "type": "string"
        },
        {
          "name": "_url",
          "type": "string"
        },
        {
          "name": "_fee",
          "type": "uint256"
        }
      ],
      "name": "addCredential",
      "outputs": [
        {
          "name": "",
          "type": "uint256"
        }
      ],
      "payable": false,
      "stateMutability": "nonpayable",
      "type": "function"
    },
    {
      "constant": true,
      "inputs": [
        {
          "name": "_id",
          "type": "uint256"
        }
      ],
      "name": "getCredentialById",
      "outputs": [
        {
          "name": "name",
          "type": "bytes32"
        },
        {
          "name": "url",
          "type": "bytes32"
        },
        {
          "name": "fee",
          "type": "uint256"
        }
      ],
      "payable": false,
      "stateMutability": "view",
      "type": "function"
    },
    {
      "constant": true,
      "inputs": [
        {
          "name": "_name",
          "type": "string"
        }
      ],
      "name": "getCredentialByName",
      "outputs": [
        {
          "name": "name",
          "type": "bytes32"
        },
        {
          "name": "url",
          "type": "bytes32"
        },
        {
          "name": "fee",
          "type": "uint256"
        }
      ],
      "payable": false,
      "stateMutability": "view",
      "type": "function"
    },
    {
      "constant": true,
      "inputs": [],
      "name": "getCredentialList",
      "outputs": [
        {
          "name": "",
          "type": "bytes32[]"
        }
      ],
      "payable": false,
      "stateMutability": "view",
      "type": "function"
    }
  ],
  "bytecode": "0x6060604052341561000f57600080fd5b6107708061001e6000396000f30060606040526004361061006d576000357c0100000000000000000000000000000000000000000000000000000000900463ffffffff1680632b2b12c5146100725780633ef39e2a1461012f578063cf021c8a14610184578063e0574e3f146101ee578063eed0e87e1461024e575b600080fd5b341561007d57600080fd5b610119600480803590602001908201803590602001908080601f0160208091040260200160405190810160405280939291908181526020018383808284378201915050505050509190803590602001908201803590602001908080601f016020809104026020016040519081016040528093929190818152602001838380828437820191505050505050919080359060200190919050506102dd565b6040518082815260200191505060405180910390f35b341561013a57600080fd5b6101506004808035906020019091905050610400565b6040518084600019166000191681526020018360001916600019168152602001828152602001935050505060405180910390f35b341561018f57600080fd5b610197610487565b6040518080602001828103825283818151815260200191508051906020019060200280838360005b838110156101da5780820151818401526020810190506101bf565b505050509050019250505060405180910390f35b34156101f957600080fd5b61020f6004808035906020019091905050610545565b60405180856000191660001916815260200184600019166000191681526020018315151515815260200182815260200194505050505060405180910390f35b341561025957600080fd5b6102a9600480803590602001908201803590602001908080601f01602080910402602001604051908101604052809392919081815260200183838082843782019150505050505091905050610591565b6040518084600019166000191681526020018360001916600019168152602001828152602001935050505060405180910390f35b6000806000600160006102ef8861066e565b600019166000191681526020019081526020016000205414151561031257600080fd5b6000905060016000805480600101828161032c919061069f565b916000526020600020906004020160006080604051908101604052806103518b61066e565b6000191681526020016103638a61066e565b600019168152602001600115158152602001888152509091909150600082015181600001906000191690556020820151816001019060001916905560408201518160020160006101000a81548160ff02191690831515021790555060608201518160030155505003905080600160006103db8861066e565b6000191660001916815260200190815260200160002081905550809150509392505050565b600080600080805490508410151561041757600080fd5b60008481548110151561042657fe5b90600052602060002090600402016000015460008581548110151561044757fe5b90600052602060002090600402016001015460008681548110151561046857fe5b9060005260206000209060040201600301549250925092509193909250565b61048f6106d1565b6104976106d1565b600080600080549050101515156104ad57600080fd5b6000805490506040518059106104c05750595b90808252806020026020018201604052509150600090505b6001600080549050038111151561053d576000818154811015156104f857fe5b906000526020600020906004020160000154828281518110151561051857fe5b90602001906020020190600019169081600019168152505080806001019150506104d8565b819250505090565b60008181548110151561055457fe5b90600052602060002090600402016000915090508060000154908060010154908060020160009054906101000a900460ff16908060030154905084565b600080600080600160006105a48761066e565b60001916600019168152602001908152602001600020549050600080828154811015156105cd57fe5b906000526020600020905050602060ff161115156105ea57600080fd5b600080549050811015156105fd57600080fd5b60008181548110151561060c57fe5b90600052602060002090600402016000015460008281548110151561062d57fe5b90600052602060002090600402016001015460008381548110151561064e57fe5b906000526020600020906004020160030154935093509350509193909250565b60006106786106e5565b8290506000815114156106915760006001029150610699565b602083015191505b50919050565b8154818355818115116106cc576004028160040283600052602060002091820191016106cb91906106f9565b5b505050565b602060405190810160405280600081525090565b602060405190810160405280600081525090565b61074191905b8082111561073d5760008082016000905560018201600090556002820160006101000a81549060ff02191690556003820160009055506004016106ff565b5090565b905600a165627a7a72305820caced53d089f31edbb1e2f14478fee7570715ef3aa9db9850d85339ff07d38670029",
  "source": "pragma solidity ^0.4.19;\r\n\r\nimport \"./myutils.sol\";\r\n\r\ncontract Credentials is MyUtils {\r\n\r\n    // Events\r\n    event NewCredential(bytes32 name, bytes32 url,  bytes32 isActive, uint fee);\r\n\r\n    // Structs\r\n    struct Credential {\r\n        bytes32 name;\r\n        bytes32 url;\r\n        bool isActive;\r\n        uint fee;\r\n    }\r\n\r\n    Credential[] public credentials;\r\n    mapping(bytes32 => uint) internal credentialIdByName;\r\n\r\n    // Purpose  : To hold add a credential to the list of available credentials\r\n    function addCredential(string _name, string _url, uint _fee) public returns (uint) {\r\n        require(credentialIdByName[stringToBytes32(_name)] == 0);\r\n        uint id = 0;\r\n        id = credentials.push(Credential(stringToBytes32(_name), stringToBytes32(_url),true,_fee))-1;\r\n        credentialIdByName[stringToBytes32(_name)] = id;\r\n        return id;\r\n    }\r\n\r\n    // Purpose  : To retrieve a credential by the id\r\n    function getCredentialById(uint _id) public view returns (bytes32 name, bytes32 url, uint fee) {\r\n        require(_id < credentials.length);\r\n        return (credentials[_id].name, credentials[_id].url, credentials[_id].fee); \r\n    }\r\n\r\n    function getCredentialByName(string _name) public view returns (bytes32 name, bytes32 url, uint fee) {\r\n        uint _id = credentialIdByName[stringToBytes32(_name)];\r\n        require(credentials[_id].name.length > 0);\r\n        require(_id < credentials.length);\r\n        return (credentials[_id].name, credentials[_id].url, credentials[_id].fee); \r\n    }\r\n\r\n    function getCredentialList() public view returns (bytes32[]) {\r\n        require(credentials.length >= 0);\r\n        bytes32[] memory  names = new bytes32[](credentials.length);\r\n        for (uint i = 0; i <= credentials.length-1; i++) {\r\n            names[i] = credentials[i].name;\r\n        }\r\n        return (names);\r\n    }\r\n\r\n    function stringToBytes32(string memory source) internal pure returns (bytes32 result) {\r\n        bytes memory tempEmptyStringTest = bytes(source);\r\n        if (tempEmptyStringTest.length == 0) {\r\n            return 0x0;\r\n        }\r\n        assembly {result := mload(add(source, 32))}\r\n    }\r\n\r\n}",
  "sourcePath": "D:\\GitHub\\pirl-project01\\truffle\\contracts\\Credentials.sol",
  "compiler": {
    "name": "solc",
    "version": "0.4.21+commit.dfe3193c.Emscripten.clang"
  },
  "schemaVersion": "2.0.0",
  "updatedAt": "2018-05-12T01:16:29.614Z"
}