{
  "contractName": "Credentials",
  "abi": [
    {
      "constant": true,
      "inputs": [],
      "name": "owner",
      "outputs": [
        {
          "name": "",
          "type": "address"
        }
      ],
      "payable": false,
      "stateMutability": "view",
      "type": "function"
    },
    {
      "constant": true,
      "inputs": [
        {
          "name": "",
          "type": "uint256"
        }
      ],
      "name": "credentials",
      "outputs": [
        {
          "name": "name",
          "type": "bytes32"
        },
        {
          "name": "url",
          "type": "bytes32"
        },
        {
          "name": "isActive",
          "type": "bool"
        },
        {
          "name": "fee",
          "type": "uint256"
        },
        {
          "name": "agencyId",
          "type": "uint256"
        }
      ],
      "payable": false,
      "stateMutability": "view",
      "type": "function"
    },
    {
      "inputs": [],
      "payable": false,
      "stateMutability": "nonpayable",
      "type": "constructor"
    },
    {
      "payable": true,
      "stateMutability": "payable",
      "type": "fallback"
    },
    {
      "anonymous": false,
      "inputs": [
        {
          "indexed": false,
          "name": "name",
          "type": "bytes32"
        },
        {
          "indexed": false,
          "name": "url",
          "type": "bytes32"
        },
        {
          "indexed": false,
          "name": "isActive",
          "type": "bytes32"
        },
        {
          "indexed": false,
          "name": "fee",
          "type": "uint256"
        }
      ],
      "name": "NewCredential",
      "type": "event"
    },
    {
      "anonymous": false,
      "inputs": [
        {
          "indexed": false,
          "name": "_from",
          "type": "address"
        },
        {
          "indexed": false,
          "name": "value",
          "type": "uint256"
        }
      ],
      "name": "DepositCredentials",
      "type": "event"
    },
    {
      "anonymous": false,
      "inputs": [
        {
          "indexed": false,
          "name": "_to",
          "type": "address"
        },
        {
          "indexed": false,
          "name": "_amount",
          "type": "uint256"
        }
      ],
      "name": "WithdrawCredentials",
      "type": "event"
    },
    {
      "anonymous": false,
      "inputs": [
        {
          "indexed": false,
          "name": "_remainingBalance",
          "type": "uint256"
        }
      ],
      "name": "BalanceCredentials",
      "type": "event"
    },
    {
      "constant": false,
      "inputs": [
        {
          "name": "_amount",
          "type": "uint256"
        }
      ],
      "name": "withdraw",
      "outputs": [],
      "payable": false,
      "stateMutability": "nonpayable",
      "type": "function"
    },
    {
      "constant": false,
      "inputs": [
        {
          "name": "_name",
          "type": "string"
        },
        {
          "name": "_url",
          "type": "string"
        },
        {
          "name": "_fee",
          "type": "uint256"
        },
        {
          "name": "_agencyId",
          "type": "uint256"
        }
      ],
      "name": "addCredential",
      "outputs": [],
      "payable": false,
      "stateMutability": "nonpayable",
      "type": "function"
    },
    {
      "constant": false,
      "inputs": [
        {
          "name": "credentialId",
          "type": "uint256"
        },
        {
          "name": "_name",
          "type": "string"
        },
        {
          "name": "_url",
          "type": "string"
        },
        {
          "name": "_fee",
          "type": "uint256"
        },
        {
          "name": "_isActive",
          "type": "bool"
        }
      ],
      "name": "updateCredentialById",
      "outputs": [],
      "payable": false,
      "stateMutability": "nonpayable",
      "type": "function"
    },
    {
      "constant": true,
      "inputs": [
        {
          "name": "_id",
          "type": "uint256"
        }
      ],
      "name": "getCredentialById",
      "outputs": [
        {
          "name": "name",
          "type": "bytes32"
        },
        {
          "name": "url",
          "type": "bytes32"
        },
        {
          "name": "fee",
          "type": "uint256"
        }
      ],
      "payable": false,
      "stateMutability": "view",
      "type": "function"
    },
    {
      "constant": true,
      "inputs": [
        {
          "name": "_agencyId",
          "type": "uint256"
        }
      ],
      "name": "getCredentialListByAgencyId",
      "outputs": [
        {
          "name": "",
          "type": "bytes32[]"
        },
        {
          "name": "",
          "type": "uint256[]"
        }
      ],
      "payable": false,
      "stateMutability": "view",
      "type": "function"
    },
    {
      "constant": false,
      "inputs": [],
      "name": "destroy",
      "outputs": [],
      "payable": false,
      "stateMutability": "nonpayable",
      "type": "function"
    }
  ],
  "bytecode": "0x608060405234801561001057600080fd5b50336000806101000a81548173ffffffffffffffffffffffffffffffffffffffff021916908373ffffffffffffffffffffffffffffffffffffffff1602179055506100d86040805190810160405280600f81526020017f526f6f742043726564656e7469616c00000000000000000000000000000000008152506040805190810160405280600e81526020017f687474703a2f2f7069726c2e696f000000000000000000000000000000000000815250600a60006100dd640100000000026401000000009004565b6102ac565b600080600260006100fc88610281640100000000026401000000009004565b600019166000191681526020019081526020016000205414151561011f57600080fd5b6000905060018060a06040519081016040528061014a89610281640100000000026401000000009004565b60001916815260200161016b88610281640100000000026401000000009004565b6000191681526020016001151581526020018681526020018581525090806001815401808255809150509060018203906000526020600020906005020160009091929091909150600082015181600001906000191690556020820151816001019060001916905560408201518160020160006101000a81548160ff02191690831515021790555060608201518160030155608082015181600401555050039050806002600061022888610281640100000000026401000000009004565b600019166000191681526020019081526020016000208190555060016003600084815260200190815260200160002060008282540192505081905560036000848152602001908152602001600020819055505050505050565b6000606082905060008151141561029e57600060010291506102a6565b602083015191505b50919050565b610c9c806102bb6000396000f30060806040526004361061008e576000357c0100000000000000000000000000000000000000000000000000000000900463ffffffff1680632e1a7d4d146101535780632f98a923146101805780633ef39e2a14610243578063533c7e91146102a257806383197ef0146103715780638da5cb5b14610388578063e0574e3f146103df578063f940653414610450575b6000341115610151577fd86e9f2cd166e816ede4d073979878db6afb6483b432c4eb5f04b3feb9089b983334604051808373ffffffffffffffffffffffffffffffffffffffff1673ffffffffffffffffffffffffffffffffffffffff1681526020018281526020019250505060405180910390a17f8271c7156426048b9e90e072a5499cf4cf52572e5d82f1c0d635176dc15b554e3073ffffffffffffffffffffffffffffffffffffffff16316040518082815260200191505060405180910390a15b005b34801561015f57600080fd5b5061017e6004803603810190808035906020019092919050505061051a565b005b34801561018c57600080fd5b50610241600480360381019080803590602001908201803590602001908080601f0160208091040260200160405190810160405280939291908181526020018383808284378201915050505050509192919290803590602001908201803590602001908080601f016020809104026020016040519081016040528093929190818152602001838380828437820191505050505050919291929080359060200190929190803590602001909291905050506106d3565b005b34801561024f57600080fd5b5061026e6004803603810190808035906020019092919050505061083b565b6040518084600019166000191681526020018360001916600019168152602001828152602001935050505060405180910390f35b3480156102ae57600080fd5b5061036f60048036038101908080359060200190929190803590602001908201803590602001908080601f0160208091040260200160405190810160405280939291908181526020018383808284378201915050505050509192919290803590602001908201803590602001908080601f0160208091040260200160405190810160405280939291908181526020018383808284378201915050505050509192919290803590602001909291908035151590602001909291905050506108c3565b005b34801561037d57600080fd5b506103866109c0565b005b34801561039457600080fd5b5061039d610a3d565b604051808273ffffffffffffffffffffffffffffffffffffffff1673ffffffffffffffffffffffffffffffffffffffff16815260200191505060405180910390f35b3480156103eb57600080fd5b5061040a60048036038101908080359060200190929190505050610a62565b6040518086600019166000191681526020018560001916600019168152602001841515151581526020018381526020018281526020019550505050505060405180910390f35b34801561045c57600080fd5b5061047b60048036038101908080359060200190929190505050610ab4565b604051808060200180602001838103835285818151815260200191508051906020019060200280838360005b838110156104c25780820151818401526020810190506104a7565b50505050905001838103825284818151815260200191508051906020019060200280838360005b838110156105045780820151818401526020810190506104e9565b5050505090500194505050505060405180910390f35b6000809054906101000a900473ffffffffffffffffffffffffffffffffffffffff1673ffffffffffffffffffffffffffffffffffffffff163373ffffffffffffffffffffffffffffffffffffffff1614151561057557600080fd5b60003073ffffffffffffffffffffffffffffffffffffffff163111151561059b57600080fd5b6000811115156105aa57600080fd5b803073ffffffffffffffffffffffffffffffffffffffff1631101515156105d057600080fd5b3373ffffffffffffffffffffffffffffffffffffffff166108fc829081150290604051600060405180830381858888f19350505050158015610616573d6000803e3d6000fd5b507f915f83543a0c63b92c7dc40e35d74323e393b7532ebb6ea62a67274a25b520203382604051808373ffffffffffffffffffffffffffffffffffffffff1673ffffffffffffffffffffffffffffffffffffffff1681526020018281526020019250505060405180910390a17f8271c7156426048b9e90e072a5499cf4cf52572e5d82f1c0d635176dc15b554e3073ffffffffffffffffffffffffffffffffffffffff16316040518082815260200191505060405180910390a150565b600080600260006106e388610c45565b600019166000191681526020019081526020016000205414151561070657600080fd5b6000905060018060a06040519081016040528061072289610c45565b60001916815260200161073488610c45565b6000191681526020016001151581526020018681526020018581525090806001815401808255809150509060018203906000526020600020906005020160009091929091909150600082015181600001906000191690556020820151816001019060001916905560408201518160020160006101000a81548160ff0219169083151502179055506060820151816003015560808201518160040155505003905080600260006107e288610c45565b600019166000191681526020019081526020016000208190555060016003600084815260200190815260200160002060008282540192505081905560036000848152602001908152602001600020819055505050505050565b60008060006001805490508410151561085357600080fd5b60018481548110151561086257fe5b90600052602060002090600502016000015460018581548110151561088357fe5b9060005260206000209060050201600101546001868154811015156108a457fe5b9060005260206000209060050201600301549250925092509193909250565b6000851115156108d257600080fd5b6108db84610c45565b6001868154811015156108ea57fe5b9060005260206000209060050201600001816000191690555061090c83610c45565b60018681548110151561091b57fe5b906000526020600020906005020160010181600019169055508160018681548110151561094457fe5b9060005260206000209060050201600301819055508060018681548110151561096957fe5b906000526020600020906005020160020160006101000a81548160ff021916908315150217905550846002600061099f87610c45565b60001916600019168152602001908152602001600020819055505050505050565b6000809054906101000a900473ffffffffffffffffffffffffffffffffffffffff1673ffffffffffffffffffffffffffffffffffffffff163373ffffffffffffffffffffffffffffffffffffffff16141515610a1b57600080fd5b610a3b3073ffffffffffffffffffffffffffffffffffffffff163161051a565b565b6000809054906101000a900473ffffffffffffffffffffffffffffffffffffffff1681565b600181815481101515610a7157fe5b90600052602060002090600502016000915090508060000154908060010154908060020160009054906101000a900460ff16908060030154908060040154905085565b6060806060806000806003600088815260200190815260200160002054604051908082528060200260200182016040528015610aff5781602001602082028038833980820191505090505b5093506003600088815260200190815260200160002054604051908082528060200260200182016040528015610b445781602001602082028038833980820191505090505b50925060009150600090505b600180805490500381111515610c365786600182815481101515610b7057fe5b906000526020600020906005020160040154148015610bb95750600181815481101515610b9957fe5b906000526020600020906005020160020160009054906101000a900460ff165b15610c2957600181815481101515610bcd57fe5b9060005260206000209060050201600001548483815181101515610bed57fe5b906020019060200201906000191690816000191681525050808383815181101515610c1457fe5b90602001906020020181815250506001820191505b8080600101915050610b50565b83839550955050505050915091565b60006060829050600081511415610c625760006001029150610c6a565b602083015191505b509190505600a165627a7a72305820ff59d16dd04e5398d155eb13853f38df3073c59ed5d049878ad761d9b2ddf5e30029",
  "source": "pragma solidity ^0.4.19;\r\n\r\n\r\ncontract Credentials {\r\n\r\n    // Events\r\n    event NewCredential(bytes32 name, bytes32 url,  bytes32 isActive, uint fee);\r\n    event DepositCredentials(address _from, uint value);\r\n    event WithdrawCredentials(address _to, uint _amount);\r\n    event BalanceCredentials(uint _remainingBalance);\r\n\r\n    // Structs\r\n    struct Credential {\r\n        bytes32 name;\r\n        bytes32 url;\r\n        bool isActive;\r\n        uint fee;\r\n        uint agencyId;\r\n    }\r\n\r\n    address public owner;\r\n    Credential[] public credentials;\r\n    mapping(bytes32 => uint) internal credentialIdByName;\r\n    mapping(uint => uint) internal credentialCountByAgencyId;\r\n\r\n    // Register a root agency\r\n    constructor() public {\r\n        owner = msg.sender;\r\n        addCredential(\"Root Credential\",\"http://pirl.io\",10,0);\r\n    }\r\n\r\n    modifier onlyOwner() {\r\n        require(msg.sender == owner);\r\n        _;\r\n    }\r\n\r\n    // Purpose  : Fallback Function\r\n    function() public payable {\r\n        if (msg.value > 0) {\r\n            emit DepositCredentials(msg.sender, msg.value);\r\n            emit BalanceCredentials(address(this).balance);\r\n        }\r\n    }\r\n\r\n    // Purpose  : For the owner to withdraw some funds.\r\n    function withdraw(uint _amount) public onlyOwner {\r\n        require(address(this).balance > 0);\r\n        require(_amount > 0);\r\n        require(address(this).balance >= _amount);\r\n        address(msg.sender).transfer(_amount);\r\n        emit WithdrawCredentials(msg.sender, _amount);\r\n        emit BalanceCredentials(address(this).balance);\r\n    }\r\n\r\n    // Purpose  : To hold add a credential to the list of available credentials\r\n    function addCredential(string _name, string _url, uint _fee, uint _agencyId) public {\r\n        require(credentialIdByName[stringToBytes32(_name)] == 0);\r\n        uint id = 0;\r\n        id = credentials.push(Credential(stringToBytes32(_name), stringToBytes32(_url),true,_fee, _agencyId))-1;\r\n        credentialIdByName[stringToBytes32(_name)] = id;\r\n        credentialCountByAgencyId[_agencyId] = credentialCountByAgencyId[_agencyId] += 1;\r\n    }\r\n\r\n    function updateCredentialById(uint credentialId, string _name, string _url, uint _fee, bool _isActive) public {\r\n        require(credentialId > 0);\r\n        credentials[credentialId].name = stringToBytes32(_name);\r\n        credentials[credentialId].url = stringToBytes32(_url);\r\n        credentials[credentialId].fee = _fee;\r\n        credentials[credentialId].isActive = _isActive;\r\n        credentialIdByName[stringToBytes32(_name)] = credentialId;\r\n    }\r\n\r\n    // Purpose  : To retrieve a credential by the id\r\n    function getCredentialById(uint _id) public view returns (bytes32 name, bytes32 url, uint fee) {\r\n        require(_id < credentials.length);\r\n        return (credentials[_id].name, credentials[_id].url, credentials[_id].fee); \r\n    }\r\n\r\n    function getCredentialListByAgencyId(uint _agencyId) public view returns (bytes32[], uint[]) {\r\n        bytes32[] memory  names = new bytes32[](credentialCountByAgencyId[_agencyId]);\r\n        uint[] memory  ids = new uint[](credentialCountByAgencyId[_agencyId]);\r\n        uint index = 0;\r\n        for (uint i = 0; i <= credentials.length-1; i++) {\r\n            if (credentials[i].agencyId == _agencyId && credentials[i].isActive) {\r\n                names[index] = credentials[i].name;\r\n                ids[index] = i;\r\n                index += 1;\r\n            }\r\n        }\r\n        return (names,ids);\r\n    }\r\n\r\n    function stringToBytes32(string memory source) internal pure returns (bytes32 result) {\r\n        bytes memory tempEmptyStringTest = bytes(source);\r\n        if (tempEmptyStringTest.length == 0) {\r\n            return 0x0;\r\n        }\r\n        assembly {result := mload(add(source, 32))}\r\n    }\r\n\r\n\r\n    // Purpsoe  : Owners with draw all pirl from contract.  Shutting contract down.\r\n    function destroy() public onlyOwner {\r\n        withdraw(address(this).balance);\r\n    }\r\n\r\n}",
  "sourcePath": "C:\\Development\\PIRL\\MicroCredentials\\truffle\\contracts\\Credentials.sol",
  "compiler": {
    "name": "solc",
    "version": "0.4.24+commit.e67f0147.Emscripten.clang"
  },
  "schemaVersion": "2.0.0",
  "updatedAt": "2018-06-12T16:16:17.902Z"
}