{
  "contractName": "Credentials",
  "abi": [
    {
      "constant": true,
      "inputs": [
        {
          "name": "",
          "type": "uint256"
        }
      ],
      "name": "credentials",
      "outputs": [
        {
          "name": "name",
          "type": "bytes32"
        },
        {
          "name": "url",
          "type": "bytes32"
        },
        {
          "name": "isActive",
          "type": "bool"
        },
        {
          "name": "fee",
          "type": "uint256"
        }
      ],
      "payable": false,
      "stateMutability": "view",
      "type": "function"
    },
    {
      "anonymous": false,
      "inputs": [
        {
          "indexed": false,
          "name": "name",
          "type": "bytes32"
        },
        {
          "indexed": false,
          "name": "url",
          "type": "bytes32"
        },
        {
          "indexed": false,
          "name": "isActive",
          "type": "bytes32"
        },
        {
          "indexed": false,
          "name": "fee",
          "type": "uint256"
        }
      ],
      "name": "NewCredential",
      "type": "event"
    },
    {
      "constant": false,
      "inputs": [
        {
          "name": "_name",
          "type": "string"
        },
        {
          "name": "_url",
          "type": "string"
        },
        {
          "name": "_fee",
          "type": "uint256"
        },
        {
          "name": "_agencyId",
          "type": "uint256"
        }
      ],
      "name": "addCredential",
      "outputs": [
        {
          "name": "",
          "type": "uint256"
        }
      ],
      "payable": false,
      "stateMutability": "nonpayable",
      "type": "function"
    },
    {
      "constant": true,
      "inputs": [
        {
          "name": "_id",
          "type": "uint256"
        }
      ],
      "name": "getCredentialById",
      "outputs": [
        {
          "name": "name",
          "type": "bytes32"
        },
        {
          "name": "url",
          "type": "bytes32"
        },
        {
          "name": "fee",
          "type": "uint256"
        }
      ],
      "payable": false,
      "stateMutability": "view",
      "type": "function"
    },
    {
      "constant": true,
      "inputs": [
        {
          "name": "_name",
          "type": "string"
        }
      ],
      "name": "getCredentialByName",
      "outputs": [
        {
          "name": "name",
          "type": "bytes32"
        },
        {
          "name": "url",
          "type": "bytes32"
        },
        {
          "name": "fee",
          "type": "uint256"
        }
      ],
      "payable": false,
      "stateMutability": "view",
      "type": "function"
    },
    {
      "constant": true,
      "inputs": [],
      "name": "getCredentialList",
      "outputs": [
        {
          "name": "",
          "type": "bytes32[]"
        }
      ],
      "payable": false,
      "stateMutability": "view",
      "type": "function"
    },
    {
      "constant": true,
      "inputs": [
        {
          "name": "_address",
          "type": "address"
        }
      ],
      "name": "getCredentialListByAgencyAddress",
      "outputs": [
        {
          "name": "",
          "type": "bytes32[]"
        }
      ],
      "payable": false,
      "stateMutability": "view",
      "type": "function"
    }
  ],
  "bytecode": "0x608060405234801561001057600080fd5b50610874806100206000396000f300608060405260043610610078576000357c0100000000000000000000000000000000000000000000000000000000900463ffffffff1680632f98a9231461007d5780633ef39e2a14610154578063640863b1146101b3578063cf021c8a1461024b578063e0574e3f146102b7578063eed0e87e14610321575b600080fd5b34801561008957600080fd5b5061013e600480360381019080803590602001908201803590602001908080601f0160208091040260200160405190810160405280939291908181526020018383808284378201915050505050509192919290803590602001908201803590602001908080601f016020809104026020016040519081016040528093929190818152602001838380828437820191505050505050919291929080359060200190929190803590602001909291905050506103bc565b6040518082815260200191505060405180910390f35b34801561016057600080fd5b5061017f600480360381019080803590602001909291905050506104fc565b6040518084600019166000191681526020018360001916600019168152602001828152602001935050505060405180910390f35b3480156101bf57600080fd5b506101f4600480360381019080803573ffffffffffffffffffffffffffffffffffffffff169060200190929190505050610583565b6040518080602001828103825283818151815260200191508051906020019060200280838360005b8381101561023757808201518184015260208101905061021c565b505050509050019250505060405180910390f35b34801561025757600080fd5b50610260610632565b6040518080602001828103825283818151815260200191508051906020019060200280838360005b838110156102a3578082015181840152602081019050610288565b505050509050019250505060405180910390f35b3480156102c357600080fd5b506102e2600480360381019080803590602001909291905050506106f4565b60405180856000191660001916815260200184600019166000191681526020018315151515815260200182815260200194505050505060405180910390f35b34801561032d57600080fd5b50610388600480360381019080803590602001908201803590602001908080601f0160208091040260200160405190810160405280939291908181526020018383808284378201915050505050509192919290505050610740565b6040518084600019166000191681526020018360001916600019168152602001828152602001935050505060405180910390f35b6000806000600160006103ce8961081d565b60001916600019168152602001908152602001600020541415156103f157600080fd5b600090506001600060806040519081016040528061040e8a61081d565b6000191681526020016104208961081d565b6000191681526020016001151581526020018781525090806001815401808255809150509060018203906000526020600020906004020160009091929091909150600082015181600001906000191690556020820151816001019060001916905560408201518160020160006101000a81548160ff02191690831515021790555060608201518160030155505003905080600160006104be8961081d565b600019166000191681526020019081526020016000208190555080600360008581526020019081526020016000208190555080915050949350505050565b600080600080805490508410151561051357600080fd5b60008481548110151561052257fe5b90600052602060002090600402016000015460008581548110151561054357fe5b90600052602060002090600402016001015460008681548110151561056457fe5b9060005260206000209060040201600301549250925092509193909250565b606080600080805490506040519080825280602002602001820160405280156105bb5781602001602082028038833980820191505090505b509150600090505b60016000805490500381111515610628576000818154811015156105e357fe5b906000526020600020906004020160000154828281518110151561060357fe5b90602001906020020190600019169081600019168152505080806001019150506105c3565b8192505050919050565b6060806000806000805490501015151561064b57600080fd5b60008054905060405190808252806020026020018201604052801561067f5781602001602082028038833980820191505090505b509150600090505b600160008054905003811115156106ec576000818154811015156106a757fe5b90600052602060002090600402016000015482828151811015156106c757fe5b9060200190602002019060001916908160001916815250508080600101915050610687565b819250505090565b60008181548110151561070357fe5b90600052602060002090600402016000915090508060000154908060010154908060020160009054906101000a900460ff16908060030154905084565b600080600080600160006107538761081d565b600019166000191681526020019081526020016000205490506000808281548110151561077c57fe5b906000526020600020905050602060ff1611151561079957600080fd5b600080549050811015156107ac57600080fd5b6000818154811015156107bb57fe5b9060005260206000209060040201600001546000828154811015156107dc57fe5b9060005260206000209060040201600101546000838154811015156107fd57fe5b906000526020600020906004020160030154935093509350509193909250565b6000606082905060008151141561083a5760006001029150610842565b602083015191505b509190505600a165627a7a72305820bb3cbf2185fe7db8cb6b2af06f79e96550b261136f42d110ab7e381ab5e3ae410029",
  "source": "pragma solidity ^0.4.19;\r\n\r\n\r\ncontract Credentials {\r\n\r\n    // Events\r\n    event NewCredential(bytes32 name, bytes32 url,  bytes32 isActive, uint fee);\r\n\r\n    // Structs\r\n    struct Credential {\r\n        bytes32 name;\r\n        bytes32 url;\r\n        bool isActive;\r\n        uint fee;\r\n    }\r\n\r\n    Credential[] public credentials;\r\n    mapping(bytes32 => uint) internal credentialIdByName;\r\n    mapping(address => uint) internal agencyCredentialsByAddress;\r\n    mapping(uint => uint) internal agencyCredentialsByAgencyId;\r\n\r\n    // Purpose  : To hold add a credential to the list of available credentials\r\n    function addCredential(string _name, string _url, uint _fee, uint _agencyId) public returns (uint) {\r\n        require(credentialIdByName[stringToBytes32(_name)] == 0);\r\n        uint id = 0;\r\n        id = credentials.push(Credential(stringToBytes32(_name), stringToBytes32(_url),true,_fee))-1;\r\n        credentialIdByName[stringToBytes32(_name)] = id;\r\n        agencyCredentialsByAgencyId[_agencyId] = id;\r\n        return id;\r\n    }\r\n\r\n    // Purpose  : To retrieve a credential by the id\r\n    function getCredentialById(uint _id) public view returns (bytes32 name, bytes32 url, uint fee) {\r\n        require(_id < credentials.length);\r\n        return (credentials[_id].name, credentials[_id].url, credentials[_id].fee); \r\n    }\r\n\r\n    function getCredentialByName(string _name) public view returns (bytes32 name, bytes32 url, uint fee) {\r\n        uint _id = credentialIdByName[stringToBytes32(_name)];\r\n        require(credentials[_id].name.length > 0);\r\n        require(_id < credentials.length);\r\n        return (credentials[_id].name, credentials[_id].url, credentials[_id].fee); \r\n    }\r\n\r\n    function getCredentialList() public view  returns (bytes32[]) {\r\n        require(credentials.length >= 0);\r\n        bytes32[] memory  names = new bytes32[](credentials.length);\r\n        for (uint i = 0; i <= credentials.length-1; i++) {\r\n            names[i] = credentials[i].name;\r\n        }\r\n        return (names);\r\n    }\r\n\r\n    function getCredentialListByAgencyAddress(address _address) public view returns (bytes32[]) {\r\n        bytes32[] memory  names = new bytes32[](credentials.length);\r\n        for (uint i = 0; i <= credentials.length-1; i++) {\r\n            names[i] = credentials[i].name;\r\n        }\r\n        return (names);\r\n    }\r\n\r\n    function stringToBytes32(string memory source) internal pure returns (bytes32 result) {\r\n        bytes memory tempEmptyStringTest = bytes(source);\r\n        if (tempEmptyStringTest.length == 0) {\r\n            return 0x0;\r\n        }\r\n        assembly {result := mload(add(source, 32))}\r\n    }\r\n\r\n}",
  "sourcePath": "D:\\GitHub\\pirl-project01\\truffle\\contracts\\Credentials.sol",
  "compiler": {
    "name": "solc",
    "version": "0.4.23+commit.124ca40d.Emscripten.clang"
  },
  "schemaVersion": "2.0.0",
  "updatedAt": "2018-05-19T00:06:03.984Z"
}