{
  "contractName": "Factory",
  "abi": [
    {
      "constant": false,
      "inputs": [],
      "name": "deployNewContract",
      "outputs": [
        {
          "name": "",
          "type": "bool"
        }
      ],
      "payable": false,
      "stateMutability": "nonpayable",
      "type": "function"
    },
    {
      "constant": true,
      "inputs": [],
      "name": "getContractAddress",
      "outputs": [
        {
          "name": "",
          "type": "address"
        }
      ],
      "payable": false,
      "stateMutability": "view",
      "type": "function"
    }
  ],
  "bytecode": "0x6060604052341561000f57600080fd5b610c4b8061001e6000396000f30060606040526004361061004c576000357c0100000000000000000000000000000000000000000000000000000000900463ffffffff16806332a2c5d01461005157806396e9df8d146100a6575b600080fd5b341561005c57600080fd5b6100646100d3565b604051808273ffffffffffffffffffffffffffffffffffffffff1673ffffffffffffffffffffffffffffffffffffffff16815260200191505060405180910390f35b34156100b157600080fd5b6100b9610139565b604051808215151515815260200191505060405180910390f35b60008060003373ffffffffffffffffffffffffffffffffffffffff1673ffffffffffffffffffffffffffffffffffffffff16815260200190815260200160002060009054906101000a900473ffffffffffffffffffffffffffffffffffffffff16905090565b600080600073ffffffffffffffffffffffffffffffffffffffff166000803373ffffffffffffffffffffffffffffffffffffffff1673ffffffffffffffffffffffffffffffffffffffff16815260200190815260200160002060009054906101000a900473ffffffffffffffffffffffffffffffffffffffff1673ffffffffffffffffffffffffffffffffffffffff161415156101d557600080fd5b336101de6102b1565b808273ffffffffffffffffffffffffffffffffffffffff1673ffffffffffffffffffffffffffffffffffffffff168152602001915050604051809103906000f080151561022a57600080fd5b9050806000803373ffffffffffffffffffffffffffffffffffffffff1673ffffffffffffffffffffffffffffffffffffffff16815260200190815260200160002060006101000a81548173ffffffffffffffffffffffffffffffffffffffff021916908373ffffffffffffffffffffffffffffffffffffffff160217905550600191505090565b60405161095e806102c28339019056006060604052341561000f57600080fd5b60405160208061095e8339810160405280805190602001909190505080600560006101000a81548173ffffffffffffffffffffffffffffffffffffffff021916908373ffffffffffffffffffffffffffffffffffffffff16021790555033600660006101000a81548173ffffffffffffffffffffffffffffffffffffffff021916908373ffffffffffffffffffffffffffffffffffffffff160217905550506108a1806100bd6000396000f30060606040526004361061008e576000357c0100000000000000000000000000000000000000000000000000000000900463ffffffff1680630ee2cb101461009357806320ed2edb146100e85780633a1fa7491461012357806342f7d3fb1461016f5780635dd3d2b8146101aa578063893d20e8146101e5578063a304146e1461023a578063acc795c314610275575b600080fd5b341561009e57600080fd5b6100a66102b0565b604051808273ffffffffffffffffffffffffffffffffffffffff1673ffffffffffffffffffffffffffffffffffffffff16815260200191505060405180910390f35b34156100f357600080fd5b61010960048080359060200190919050506102da565b604051808215151515815260200191505060405180910390f35b341561012e57600080fd5b61015560048080356000191690602001909190803560001916906020019091905050610411565b604051808215151515815260200191505060405180910390f35b341561017a57600080fd5b6101906004808035906020019091905050610518565b604051808215151515815260200191505060405180910390f35b34156101b557600080fd5b6101cb60048080359060200190919050506105e5565b604051808215151515815260200191505060405180910390f35b34156101f057600080fd5b6101f8610694565b604051808273ffffffffffffffffffffffffffffffffffffffff1673ffffffffffffffffffffffffffffffffffffffff16815260200191505060405180910390f35b341561024557600080fd5b61025b60048080359060200190919050506106be565b604051808215151515815260200191505060405180910390f35b341561028057600080fd5b6102966004808035906020019091905050610727565b604051808215151515815260200191505060405180910390f35b6000600660009054906101000a900473ffffffffffffffffffffffffffffffffffffffff16905090565b6000600560009054906101000a900473ffffffffffffffffffffffffffffffffffffffff1673ffffffffffffffffffffffffffffffffffffffff163373ffffffffffffffffffffffffffffffffffffffff1614151561033857600080fd5b6008805490508210151561034b57600080fd5b60088281548110151561035a57fe5b906000526020600020906006020160030160019054906101000a900460ff1615151561038557600080fd5b600160088381548110151561039657fe5b906000526020600020906006020160030160016101000a81548160ff021916908315150217905550436008838154811015156103ce57fe5b906000526020600020906006020160040181905550426008838154811015156103f357fe5b90600052602060002090600602016005018190555060019050919050565b600061041b6107d6565b600560009054906101000a900473ffffffffffffffffffffffffffffffffffffffff1673ffffffffffffffffffffffffffffffffffffffff163373ffffffffffffffffffffffffffffffffffffffff1614151561047757600080fd5b6060604051908101604052808560001916815260200184600019168152602001600115158152509050600780548060010182816104b49190610800565b91600052602060002090600302016000839091909150600082015181600001906000191690556020820151816001019060001916905560408201518160020160006101000a81548160ff021916908315150217905550505050600191505092915050565b60006007805490508210151561052d57600080fd5b6001151560078381548110151561054057fe5b906000526020600020906003020160020160009054906101000a900460ff16151514151561056d57600080fd5b7f267106db54186fe2fb5c823fe43b36caaaa749cd24c93ed33494045a2a254cd033600160088054905003604051808373ffffffffffffffffffffffffffffffffffffffff1673ffffffffffffffffffffffffffffffffffffffff1681526020018281526020019250505060405180910390a1919050565b6000600560009054906101000a900473ffffffffffffffffffffffffffffffffffffffff1673ffffffffffffffffffffffffffffffffffffffff163373ffffffffffffffffffffffffffffffffffffffff1614151561064357600080fd5b6007805490508210151561065657600080fd5b600160078381548110151561066757fe5b906000526020600020906003020160020160006101000a81548160ff021916908315150217905550919050565b6000600560009054906101000a900473ffffffffffffffffffffffffffffffffffffffff16905090565b6000600560009054906101000a900473ffffffffffffffffffffffffffffffffffffffff1673ffffffffffffffffffffffffffffffffffffffff163373ffffffffffffffffffffffffffffffffffffffff1614151561071c57600080fd5b600180149050919050565b6000600560009054906101000a900473ffffffffffffffffffffffffffffffffffffffff1673ffffffffffffffffffffffffffffffffffffffff163373ffffffffffffffffffffffffffffffffffffffff1614151561078557600080fd5b6007805490508210151561079857600080fd5b60006007838154811015156107a957fe5b906000526020600020906003020160020160006101000a81548160ff021916908315150217905550919050565b60606040519081016040528060008019168152602001600080191681526020016000151581525090565b81548183558181151161082d5760030281600302836000526020600020918201910161082c9190610832565b5b505050565b61087291905b8082111561086e5760008082016000905560018201600090556002820160006101000a81549060ff021916905550600301610838565b5090565b905600a165627a7a723058208523cf7e1da7f506b27041933018c6737a2657f9f217f40a4e2b4007ae1f35a10029a165627a7a723058202927d48b4c9882309065793b98fa4503b2f9572ad9eb2c04312d4aeb806054d30029",
  "source": "pragma solidity ^0.4.19;\r\n\r\n\r\ncontract App  {\r\n\r\n    string nameOfAgency;\r\n    string agencyDescription;\r\n    string addressOfAgency;\r\n    string websiteOfAgency;\r\n    string emailOfAgency;\r\n    address owner;\r\n    address creator;\r\n\r\n    modifier onlyOwner() {\r\n        require(msg.sender == owner);\r\n        _;\r\n    }\r\n\r\n    //the type of credential, that the agency can define\r\n    struct Credential {\r\n        bytes32 requirements;\r\n        bytes32 name;\r\n        bool active;\r\n    }\r\n\r\n    //application for approving a credential, from an application and then approved by agency\r\n    struct CredentialApplication {\r\n        bytes32 requirements;\r\n        bytes32 name;\r\n        uint typeOfCredential;\r\n        bool received;\r\n        bool approved;\r\n        uint blockApproved;\r\n        uint timeApproved;\r\n    }\r\n\r\n    Credential[] credentialList;\r\n    CredentialApplication[] credentials;\r\n\r\n    event CredentialSubmitted(address sender, uint credentialNumber);\r\n    event CredentialReceived(address sender, uint credentialNumber);\r\n\r\n    function App(address _owner) public {\r\n        owner = _owner;\r\n        creator = msg.sender;\r\n    }\r\n\r\n    function getOwner() constant public returns (address){\r\n        return owner;\r\n    }\r\n\r\n    function getCreator() constant public returns (address){\r\n        return creator;\r\n    }\r\n\r\n    //submit a micro credential for approval by agency\r\n    function submitMicroCredential(uint cred) public returns (bool){\r\n        require(cred<credentialList.length);\r\n        require(credentialList[cred].active == true);\r\n        //submitting a credential should include some documentation/photos, right?\r\n        //this could be a great usecase for the Pirl masternode system, namely the masternodes \r\n        //will store the files for a period of time, at least until the agency has fetched the data themselves\r\n        //after the data has been fetched from the (storage) masternodes, the owner should perhaps call a function\r\n        //called \"credentialReceived\", acknowledging that the credential application has been seen, data has been received\r\n        //and the process for approval is submitted\r\n\r\n        emit CredentialSubmitted(msg.sender,credentials.length-1);\r\n    }\r\n\r\n    //the agency creates a type of credential\r\n    function createCredential(bytes32 requirements, bytes32 name) public onlyOwner returns (bool){\r\n        Credential memory cred = Credential(requirements,name,true);\r\n        credentialList.push(cred);\r\n        return true;\r\n    }\r\n\r\n    //option to disable a credential\r\n    function disableCredential(uint cred) public onlyOwner returns (bool){\r\n        require(cred<credentialList.length);\r\n        credentialList[cred].active = false;\r\n    }\r\n\r\n    //option to enable a credential\r\n    function enableCredential(uint cred) public onlyOwner returns (bool){\r\n        require(cred<credentialList.length);\r\n        credentialList[cred].active = true;\r\n    }\r\n\r\n    //should be called by the agency when they have received the credential\r\n    //this function could be necessary if the supporting files are stored on storage masternodes\r\n    //the agency then calls this function when they have downloaded the files\r\n    function credentialReceived(uint index) public constant onlyOwner returns (bool){\r\n        // TO DO:  Write it\r\n        return (1==1);\r\n    }\r\n\r\n\r\n    //function to approve a submitted credential\r\n    function approveCredential(uint index) public onlyOwner returns (bool) {\r\n        require(index<credentials.length);\r\n        require(!credentials[index].approved);\r\n        credentials[index].approved = true;\r\n        credentials[index].blockApproved = block.number;\r\n        credentials[index].timeApproved = block.timestamp;\r\n        return true;\r\n    }\r\n\r\n}\r\n\r\n\r\ncontract Factory {\r\n\r\n    mapping (address=>address) apps;\r\n\r\n    function deployNewContract() public returns (bool){\r\n        require(apps[msg.sender]==address(0));\r\n        App app = new App(msg.sender);\r\n        apps[msg.sender] = address(app);\r\n        return true;\r\n    }\r\n\r\n    function getContractAddress() constant public returns (address) {\r\n        return apps[msg.sender];\r\n    }\r\n\r\n}",
  "sourcePath": "D:\\GitHub\\pirl-project01\\truffle\\contracts\\Factory.sol",
  "compiler": {
    "name": "solc",
    "version": "0.4.21+commit.dfe3193c.Emscripten.clang"
  },
  "schemaVersion": "2.0.0",
  "updatedAt": "2018-04-25T01:03:22.429Z"
}