{
  "contractName": "Files",
  "abi": [
    {
      "constant": true,
      "inputs": [
        {
          "name": "",
          "type": "uint256"
        }
      ],
      "name": "files",
      "outputs": [
        {
          "name": "name",
          "type": "bytes32"
        },
        {
          "name": "url",
          "type": "bytes32"
        },
        {
          "name": "pirlFileHash",
          "type": "bytes32"
        },
        {
          "name": "isActive",
          "type": "bool"
        },
        {
          "name": "userId",
          "type": "uint256"
        },
        {
          "name": "userSubmissionId",
          "type": "uint256"
        },
        {
          "name": "agencyId",
          "type": "uint256"
        }
      ],
      "payable": false,
      "stateMutability": "view",
      "type": "function"
    },
    {
      "anonymous": false,
      "inputs": [
        {
          "indexed": false,
          "name": "name",
          "type": "bytes32"
        },
        {
          "indexed": false,
          "name": "url",
          "type": "bytes32"
        },
        {
          "indexed": false,
          "name": "pirlFileHash",
          "type": "bytes32"
        },
        {
          "indexed": false,
          "name": "isActive",
          "type": "bool"
        },
        {
          "indexed": false,
          "name": "userId",
          "type": "uint256"
        },
        {
          "indexed": false,
          "name": "userSubmissionId",
          "type": "uint256"
        },
        {
          "indexed": false,
          "name": "agencyId",
          "type": "uint256"
        }
      ],
      "name": "NewFile",
      "type": "event"
    },
    {
      "anonymous": false,
      "inputs": [
        {
          "indexed": false,
          "name": "name",
          "type": "bytes32"
        },
        {
          "indexed": false,
          "name": "url",
          "type": "bytes32"
        },
        {
          "indexed": false,
          "name": "pirlFileHash",
          "type": "bytes32"
        },
        {
          "indexed": false,
          "name": "isActive",
          "type": "bool"
        },
        {
          "indexed": false,
          "name": "userId",
          "type": "uint256"
        },
        {
          "indexed": false,
          "name": "userSubmissionId",
          "type": "uint256"
        },
        {
          "indexed": false,
          "name": "agencyId",
          "type": "uint256"
        }
      ],
      "name": "UpdateFile",
      "type": "event"
    },
    {
      "constant": false,
      "inputs": [
        {
          "name": "_name",
          "type": "string"
        },
        {
          "name": "_url",
          "type": "string"
        },
        {
          "name": "_pirlFileHash",
          "type": "string"
        },
        {
          "name": "_userId",
          "type": "uint256"
        },
        {
          "name": "_agencyId",
          "type": "uint256"
        }
      ],
      "name": "addFile",
      "outputs": [],
      "payable": false,
      "stateMutability": "nonpayable",
      "type": "function"
    },
    {
      "constant": false,
      "inputs": [
        {
          "name": "_fileId",
          "type": "uint256"
        },
        {
          "name": "_name",
          "type": "string"
        },
        {
          "name": "_url",
          "type": "string"
        },
        {
          "name": "_pirlFileHash",
          "type": "string"
        },
        {
          "name": "_isActive",
          "type": "bool"
        },
        {
          "name": "_userId",
          "type": "uint256"
        },
        {
          "name": "_userSubmissionId",
          "type": "uint256"
        },
        {
          "name": "_agencyId",
          "type": "uint256"
        }
      ],
      "name": "updateFile",
      "outputs": [],
      "payable": false,
      "stateMutability": "nonpayable",
      "type": "function"
    },
    {
      "constant": true,
      "inputs": [
        {
          "name": "_id",
          "type": "uint256"
        }
      ],
      "name": "getFileById",
      "outputs": [
        {
          "name": "",
          "type": "bytes32"
        },
        {
          "name": "",
          "type": "bytes32"
        },
        {
          "name": "",
          "type": "bytes32"
        },
        {
          "name": "",
          "type": "bool"
        },
        {
          "name": "",
          "type": "uint256"
        },
        {
          "name": "",
          "type": "uint256"
        }
      ],
      "payable": false,
      "stateMutability": "view",
      "type": "function"
    },
    {
      "constant": true,
      "inputs": [
        {
          "name": "_agencyId",
          "type": "uint256"
        }
      ],
      "name": "getFileListByAgencyId",
      "outputs": [
        {
          "name": "",
          "type": "bytes32[]"
        },
        {
          "name": "",
          "type": "uint256[]"
        }
      ],
      "payable": false,
      "stateMutability": "view",
      "type": "function"
    },
    {
      "constant": true,
      "inputs": [
        {
          "name": "_userId",
          "type": "uint256"
        }
      ],
      "name": "getFileListByUserId",
      "outputs": [
        {
          "name": "",
          "type": "bytes32[]"
        },
        {
          "name": "",
          "type": "uint256[]"
        }
      ],
      "payable": false,
      "stateMutability": "view",
      "type": "function"
    },
    {
      "constant": true,
      "inputs": [
        {
          "name": "_userSubmissionId",
          "type": "uint256"
        }
      ],
      "name": "getFileListByUserSubmissionId",
      "outputs": [
        {
          "name": "",
          "type": "bytes32[]"
        },
        {
          "name": "",
          "type": "uint256[]"
        }
      ],
      "payable": false,
      "stateMutability": "view",
      "type": "function"
    }
  ],
  "bytecode": "0x608060405234801561001057600080fd5b50611505806100206000396000f300608060405260043610610083576000357c0100000000000000000000000000000000000000000000000000000000900463ffffffff168063202a2ef21461008857806326c69e7e146101b1578063784350421461027b578063a25fa5ba14610345578063d999d2651461040f578063e4e6025e14610518578063f4c714b414610598575b600080fd5b34801561009457600080fd5b506101af60048036038101908080359060200190929190803590602001908201803590602001908080601f0160208091040260200160405190810160405280939291908181526020018383808284378201915050505050509192919290803590602001908201803590602001908080601f0160208091040260200160405190810160405280939291908181526020018383808284378201915050505050509192919290803590602001908201803590602001908080601f016020809104026020016040519081016040528093929190818152602001838380828437820191505050505050919291929080351515906020019092919080359060200190929190803590602001909291908035906020019092919050505061061f565b005b3480156101bd57600080fd5b506101dc60048036038101908080359060200190929190505050610936565b604051808060200180602001838103835285818151815260200191508051906020019060200280838360005b83811015610223578082015181840152602081019050610208565b50505050905001838103825284818151815260200191508051906020019060200280838360005b8381101561026557808201518184015260208101905061024a565b5050505090500194505050505060405180910390f35b34801561028757600080fd5b506102a660048036038101908080359060200190929190505050610a92565b604051808060200180602001838103835285818151815260200191508051906020019060200280838360005b838110156102ed5780820151818401526020810190506102d2565b50505050905001838103825284818151815260200191508051906020019060200280838360005b8381101561032f578082015181840152602081019050610314565b5050505090500194505050505060405180910390f35b34801561035157600080fd5b5061037060048036038101908080359060200190929190505050610bee565b604051808060200180602001838103835285818151815260200191508051906020019060200280838360005b838110156103b757808201518184015260208101905061039c565b50505050905001838103825284818151815260200191508051906020019060200280838360005b838110156103f95780820151818401526020810190506103de565b5050505090500194505050505060405180910390f35b34801561041b57600080fd5b50610516600480360381019080803590602001908201803590602001908080601f0160208091040260200160405190810160405280939291908181526020018383808284378201915050505050509192919290803590602001908201803590602001908080601f0160208091040260200160405190810160405280939291908181526020018383808284378201915050505050509192919290803590602001908201803590602001908080601f01602080910402602001604051908101604052809392919081815260200183838082843782019150505050505091929192908035906020019092919080359060200190929190505050610d4a565b005b34801561052457600080fd5b5061054360048036038101908080359060200190929190505050610fb0565b6040518087600019166000191681526020018660001916600019168152602001856000191660001916815260200184151515158152602001838152602001828152602001965050505050505060405180910390f35b3480156105a457600080fd5b506105c3600480360381019080803590602001909291905050506110b4565b604051808860001916600019168152602001876000191660001916815260200186600019166000191681526020018515151515815260200184815260200183815260200182815260200197505050505050505060405180910390f35b600088118015610633575060008054905088105b151561063e57600080fd5b600083118061064d5750600081115b151561065857600080fd5b8260008981548110151561066857fe5b90600052602060002090600702016004015414806106a557508060008981548110151561069157fe5b906000526020600020906007020160060154145b15156106b057600080fd5b600080898154811015156106c057fe5b9060005260206000209060070201600501541480156106df5750600082115b1561071d5760016005600084815260200190815260200160002060008282540192505081905560056000848152602001908152602001600020819055505b61072687611112565b60008981548110151561073557fe5b9060005260206000209060070201600001816000191690555061075786611112565b60008981548110151561076657fe5b9060005260206000209060070201600101816000191690555061078885611112565b60008981548110151561079757fe5b90600052602060002090600702016002018160001916905550836000898154811015156107c057fe5b906000526020600020906007020160030160006101000a81548160ff021916908315150217905550826000898154811015156107f857fe5b9060005260206000209060070201600401819055508160008981548110151561081d57fe5b9060005260206000209060070201600501819055508060008981548110151561084257fe5b90600052602060002090600702016006018190555060016108628661113d565b111561089157876001600061087688611112565b60001916600019168152602001908152602001600020819055505b7f0f65c9faf39732d7bbda918628bde99286b15b15600802bc001616af7348a0236108bb88611112565b6108c488611112565b6108cd88611112565b87878787604051808860001916600019168152602001876000191660001916815260200186600019166000191681526020018515151515815260200184815260200183815260200182815260200197505050505050505060405180910390a15050505050505050565b60608060608060008060036000888152602001908152602001600020546040519080825280602002602001820160405280156109815781602001602082028038833980820191505090505b50935060036000888152602001908152602001600020546040519080825280602002602001820160405280156109c65781602001602082028038833980820191505090505b50925060009150600090505b60016000805490500381111515610a8357866000828154811015156109f357fe5b9060005260206000209060070201600401541415610a7657600081815481101515610a1a57fe5b9060005260206000209060070201600001548483815181101515610a3a57fe5b906020019060200201906000191690816000191681525050808383815181101515610a6157fe5b90602001906020020181815250506001820191505b80806001019150506109d2565b83839550955050505050915091565b6060806060806000806004600088815260200190815260200160002054604051908082528060200260200182016040528015610add5781602001602082028038833980820191505090505b5093506004600088815260200190815260200160002054604051908082528060200260200182016040528015610b225781602001602082028038833980820191505090505b50925060009150600090505b60016000805490500381111515610bdf5786600082815481101515610b4f57fe5b9060005260206000209060070201600601541415610bd257600081815481101515610b7657fe5b9060005260206000209060070201600001548483815181101515610b9657fe5b906020019060200201906000191690816000191681525050808383815181101515610bbd57fe5b90602001906020020181815250506001820191505b8080600101915050610b2e565b83839550955050505050915091565b6060806060806000806005600088815260200190815260200160002054604051908082528060200260200182016040528015610c395781602001602082028038833980820191505090505b5093506005600088815260200190815260200160002054604051908082528060200260200182016040528015610c7e5781602001602082028038833980820191505090505b50925060009150600090505b60016000805490500381111515610d3b5786600082815481101515610cab57fe5b9060005260206000209060070201600401541415610d2e57600081815481101515610cd257fe5b9060005260206000209060070201600001548483815181101515610cf257fe5b906020019060200201906000191690816000191681525050808383815181101515610d1957fe5b90602001906020020181815250506001820191505b8080600101915050610c8a565b83839550955050505050915091565b60008090506001600060e060405190810160405280610d688a611112565b600019168152602001610d7a89611112565b600019168152602001610d8c88611112565b60001916815260200160011515815260200186815260200160008152602001858152509080600181540180825580915050906001820390600052602060002090600702016000909192909190915060008201518160000190600019169055602082015181600101906000191690556040820151816002019060001916905560608201518160030160006101000a81548160ff0219169083151502179055506080820151816004015560a0820151816005015560c0820151816006015550500390506001610e588561113d565b1115610e87578060016000610e6c87611112565b60001916600019168152602001908152602001600020819055505b6000831115610ec95760016003600084815260200190815260200160002060008282540192505081905560036000858152602001908152602001600020819055505b6000821115610f0b5760016004600084815260200190815260200160002060008282540192505081905560046000848152602001908152602001600020819055505b7f9343fd175ec8befed5c0d717a69f365d0873f5a1eccab6199e23b40fdcefef6b610f3587611112565b610f3e87611112565b610f4787611112565b600187600088604051808860001916600019168152602001876000191660001916815260200186600019166000191681526020018515151515815260200184815260200183815260200182815260200197505050505050505060405180910390a1505050505050565b60008060008060008060008054905087101515610fcc57600080fd5b600087815481101515610fdb57fe5b906000526020600020906007020160000154600088815481101515610ffc57fe5b90600052602060002090600702016001015460008981548110151561101d57fe5b90600052602060002090600702016002015460008a81548110151561103e57fe5b906000526020600020906007020160030160009054906101000a900460ff1660008b81548110151561106c57fe5b90600052602060002090600702016004015460008c81548110151561108d57fe5b90600052602060002090600702016006015495509550955095509550955091939550919395565b6000818154811015156110c357fe5b90600052602060002090600702016000915090508060000154908060010154908060020154908060030160009054906101000a900460ff16908060040154908060050154908060060154905087565b6000606082905060008151141561112f5760006001029150611137565b602083015191505b50919050565b6000806060600091508390505b80518210156114d25760007f0100000000000000000000000000000000000000000000000000000000000000026007828481518110151561118757fe5b9060200101517f010000000000000000000000000000000000000000000000000000000000000090047f0100000000000000000000000000000000000000000000000000000000000000027effffffffffffffffffffffffffffffffffffffffffffffffffffffffffffff19169060020a90047effffffffffffffffffffffffffffffffffffffffffffffffffffffffffffff1916141561122d576001820191506114c5565b60067f0100000000000000000000000000000000000000000000000000000000000000026005828481518110151561126157fe5b9060200101517f010000000000000000000000000000000000000000000000000000000000000090047f0100000000000000000000000000000000000000000000000000000000000000027effffffffffffffffffffffffffffffffffffffffffffffffffffffffffffff19169060020a90047effffffffffffffffffffffffffffffffffffffffffffffffffffffffffffff19161415611307576002820191506114c4565b600e7f0100000000000000000000000000000000000000000000000000000000000000026004828481518110151561133b57fe5b9060200101517f010000000000000000000000000000000000000000000000000000000000000090047f0100000000000000000000000000000000000000000000000000000000000000027effffffffffffffffffffffffffffffffffffffffffffffffffffffffffffff19169060020a90047effffffffffffffffffffffffffffffffffffffffffffffffffffffffffffff191614156113e1576003820191506114c3565b601e7f0100000000000000000000000000000000000000000000000000000000000000026003828481518110151561141557fe5b9060200101517f010000000000000000000000000000000000000000000000000000000000000090047f0100000000000000000000000000000000000000000000000000000000000000027effffffffffffffffffffffffffffffffffffffffffffffffffffffffffffff19169060020a90047effffffffffffffffffffffffffffffffffffffffffffffffffffffffffffff191614156114bb576004820191506114c2565b6001820191505b5b5b5b828060010193505061114a565b50509190505600a165627a7a72305820ec09cb2172a10f02bb30cc82a76f15893039b8959e9095d37da19389dad5dc4b0029",
  "source": "pragma solidity ^0.4.19;\r\n\r\ncontract Files {\r\n\r\n    // Events\r\n    event NewFile(bytes32 name, \r\n    bytes32 url, \r\n    bytes32 pirlFileHash, \r\n    bool isActive, \r\n    uint userId, \r\n    uint userSubmissionId, \r\n    uint agencyId);\r\n\r\n    event UpdateFile(bytes32 name, \r\n    bytes32 url, \r\n    bytes32 pirlFileHash, \r\n    bool isActive, \r\n    uint userId, \r\n    uint userSubmissionId,\r\n    uint agencyId);\r\n\r\n    // Structs\r\n    struct File {\r\n        bytes32 name;\r\n        bytes32 url;\r\n        bytes32 pirlFileHash;\r\n        bool isActive;\r\n        uint userId;\r\n        uint userSubmissionId;\r\n        uint agencyId;\r\n    }\r\n\r\n    File[] public files;\r\n    mapping(bytes32 => uint) internal fileIdByHash;\r\n    mapping(uint => bytes32) internal fileNameById;\r\n    mapping(uint => uint) internal fileCountByUserId;\r\n    mapping(uint => uint) internal fileCountByAgencyId;\r\n    mapping(uint => uint) internal fileCountByUserSubmissionId;\r\n\r\n    // Purpose  : To hold add a credential to the list of available credentials\r\n    // Note     : Only agencies and users can upload files.  The file can be updated to\r\n    //            include a userSubmissionId when it is attached to a UserSubmission.\r\n    function addFile(string _name, string _url, string _pirlFileHash, uint _userId, uint _agencyId) public {\r\n        uint id = 0;\r\n        \r\n        id = files.push(File(\r\n            stringToBytes32(_name), \r\n            stringToBytes32(_url),\r\n            stringToBytes32(_pirlFileHash),\r\n            true,\r\n            _userId,\r\n            0, \r\n            _agencyId))-1;\r\n\r\n        if (utfStringLength(_pirlFileHash) > 1)\r\n            fileIdByHash[stringToBytes32(_pirlFileHash)] = id;\r\n        if (_userId > 0)\r\n            fileCountByUserId[_userId] = fileCountByUserId[_agencyId] += 1;\r\n        if (_agencyId > 0)\r\n            fileCountByAgencyId[_agencyId] = fileCountByAgencyId[_agencyId] += 1;\r\n\r\n        emit NewFile(\r\n            stringToBytes32(_name), \r\n            stringToBytes32(_url),\r\n            stringToBytes32(_pirlFileHash),\r\n            true,\r\n            _userId,\r\n            0, \r\n            _agencyId\r\n        );\r\n    }\r\n\r\n    // Purpose  : To update file info.  For the most part, this will be called to:\r\n    //            Put a hash, once that becomes available.\r\n    //            Put a UserSubmissionId to link it to a submission.\r\n    function updateFile(\r\n        uint _fileId, \r\n        string _name, \r\n        string _url, \r\n        string _pirlFileHash, \r\n        bool _isActive, \r\n        uint _userId, \r\n        uint _userSubmissionId, \r\n        uint _agencyId) public {\r\n\r\n        require(_fileId > 0 && _fileId < files.length);\r\n        require(_userId > 0 || _agencyId > 0);\r\n        require((files[_fileId].userId == _userId) || (files[_fileId].agencyId == _agencyId));\r\n        \r\n        if (files[_fileId].userSubmissionId == 0 && _userSubmissionId > 0)\r\n            fileCountByUserSubmissionId[_userSubmissionId] = fileCountByUserSubmissionId[_userSubmissionId] += 1;\r\n\r\n        files[_fileId].name = stringToBytes32(_name);\r\n        files[_fileId].url = stringToBytes32(_url);\r\n        files[_fileId].pirlFileHash = stringToBytes32(_pirlFileHash);\r\n        files[_fileId].isActive = _isActive;\r\n        files[_fileId].userId = _userId;\r\n        files[_fileId].userSubmissionId = _userSubmissionId;\r\n        files[_fileId].agencyId = _agencyId;\r\n\r\n        if (utfStringLength(_pirlFileHash) > 1)\r\n            fileIdByHash[stringToBytes32(_pirlFileHash)] = _fileId;\r\n\r\n        emit UpdateFile(\r\n            stringToBytes32(_name), \r\n            stringToBytes32(_url),\r\n            stringToBytes32(_pirlFileHash),\r\n            _isActive,\r\n            _userId,\r\n            _userSubmissionId,\r\n            _agencyId\r\n        );\r\n    }\r\n\r\n    // Purpose  : To retrieve a credential by the id\r\n    function getFileById(uint _id) public view returns (bytes32, bytes32, bytes32, bool, uint, uint) {\r\n        require(_id < files.length);\r\n        return (files[_id].name, \r\n            files[_id].url, \r\n            files[_id].pirlFileHash, \r\n            files[_id].isActive, \r\n            files[_id].userId, \r\n            files[_id].agencyId); \r\n\r\n    }\r\n\r\n    function getFileListByAgencyId(uint _agencyId) public view returns (bytes32[], uint[]) {\r\n        bytes32[] memory  names = new bytes32[](fileCountByAgencyId[_agencyId]);\r\n        uint[] memory  ids = new uint[](fileCountByAgencyId[_agencyId]);\r\n        uint index = 0;\r\n        for (uint i = 0; i <= files.length-1; i++) {\r\n            if (files[i].agencyId == _agencyId) {\r\n                names[index] = files[i].name;\r\n                ids[index] = i;\r\n                index += 1;\r\n            }\r\n        }\r\n        return (names,ids);\r\n    }\r\n\r\n    function getFileListByUserId(uint _userId) public view returns (bytes32[], uint[]) {\r\n        bytes32[] memory  names = new bytes32[](fileCountByUserId[_userId]);\r\n        uint[] memory  ids = new uint[](fileCountByUserId[_userId]);\r\n        uint index = 0;\r\n        for (uint i = 0; i <= files.length-1; i++) {\r\n            if (files[i].userId == _userId) {\r\n                names[index] = files[i].name;\r\n                ids[index] = i;\r\n                index += 1;\r\n            }\r\n        }\r\n        return (names,ids);\r\n    }\r\n\r\n    function getFileListByUserSubmissionId(uint _userSubmissionId) public view returns (bytes32[], uint[]) {\r\n        bytes32[] memory  names = new bytes32[](fileCountByUserSubmissionId[_userSubmissionId]);\r\n        uint[] memory  ids = new uint[](fileCountByUserSubmissionId[_userSubmissionId]);\r\n        uint index = 0;\r\n        for (uint i = 0; i <= files.length-1; i++) {\r\n            if (files[i].userId == _userSubmissionId) {\r\n                names[index] = files[i].name;\r\n                ids[index] = i;\r\n                index += 1;\r\n            }\r\n        }\r\n        return (names,ids);\r\n    }\r\n\r\n    function stringToBytes32(string memory source) internal pure returns (bytes32 result) {\r\n        bytes memory tempEmptyStringTest = bytes(source);\r\n        if (tempEmptyStringTest.length == 0) {\r\n            return 0x0;\r\n        }\r\n        assembly {result := mload(add(source, 32))}\r\n    }\r\n\r\n    function utfStringLength(string str) pure internal\r\n    returns (uint length)\r\n    {\r\n        uint i=0;\r\n        bytes memory string_rep = bytes(str);\r\n\r\n        while (i<string_rep.length)\r\n        {\r\n            if (string_rep[i]>>7==0)\r\n                i+=1;\r\n            else if (string_rep[i]>>5==0x6)\r\n                i+=2;\r\n            else if (string_rep[i]>>4==0xE)\r\n                i+=3;\r\n            else if (string_rep[i]>>3==0x1E)\r\n                i+=4;\r\n            else\r\n                //For safety\r\n                i+=1;\r\n\r\n            length++;\r\n        }\r\n    }\r\n\r\n}",
  "sourcePath": "D:\\GitHub\\pirl-project01\\truffle\\contracts\\Files.sol",
  "compiler": {
    "name": "solc",
    "version": "0.4.23+commit.124ca40d.Emscripten.clang"
  },
  "schemaVersion": "2.0.0",
  "updatedAt": "2018-05-19T17:40:54.844Z"
}