{
  "contractName": "Files",
  "abi": [
    {
      "constant": true,
      "inputs": [
        {
          "name": "",
          "type": "uint256"
        }
      ],
      "name": "files",
      "outputs": [
        {
          "name": "name",
          "type": "bytes32"
        },
        {
          "name": "url",
          "type": "bytes32"
        },
        {
          "name": "pirlFileHash",
          "type": "bytes32"
        },
        {
          "name": "isActive",
          "type": "bool"
        },
        {
          "name": "userId",
          "type": "uint256"
        },
        {
          "name": "userSubmissionId",
          "type": "uint256"
        },
        {
          "name": "agencyId",
          "type": "uint256"
        }
      ],
      "payable": false,
      "stateMutability": "view",
      "type": "function"
    },
    {
      "anonymous": false,
      "inputs": [
        {
          "indexed": false,
          "name": "name",
          "type": "string"
        },
        {
          "indexed": false,
          "name": "url",
          "type": "string"
        },
        {
          "indexed": false,
          "name": "pirlFileHash",
          "type": "string"
        },
        {
          "indexed": false,
          "name": "isActive",
          "type": "bool"
        },
        {
          "indexed": false,
          "name": "userId",
          "type": "uint256"
        },
        {
          "indexed": false,
          "name": "userSubmissionId",
          "type": "uint256"
        },
        {
          "indexed": false,
          "name": "agencyId",
          "type": "uint256"
        }
      ],
      "name": "NewFile",
      "type": "event"
    },
    {
      "anonymous": false,
      "inputs": [
        {
          "indexed": false,
          "name": "name",
          "type": "string"
        },
        {
          "indexed": false,
          "name": "url",
          "type": "string"
        },
        {
          "indexed": false,
          "name": "pirlFileHash",
          "type": "string"
        },
        {
          "indexed": false,
          "name": "isActive",
          "type": "bool"
        },
        {
          "indexed": false,
          "name": "userId",
          "type": "uint256"
        },
        {
          "indexed": false,
          "name": "userSubmissionId",
          "type": "uint256"
        },
        {
          "indexed": false,
          "name": "agencyId",
          "type": "uint256"
        }
      ],
      "name": "UpdateFile",
      "type": "event"
    },
    {
      "constant": false,
      "inputs": [
        {
          "name": "_name",
          "type": "string"
        },
        {
          "name": "_url",
          "type": "string"
        },
        {
          "name": "_pirlFileHash",
          "type": "string"
        },
        {
          "name": "_userId",
          "type": "uint256"
        },
        {
          "name": "_agencyId",
          "type": "uint256"
        }
      ],
      "name": "addFile",
      "outputs": [],
      "payable": false,
      "stateMutability": "nonpayable",
      "type": "function"
    },
    {
      "constant": false,
      "inputs": [
        {
          "name": "_fileId",
          "type": "uint256"
        },
        {
          "name": "_name",
          "type": "string"
        },
        {
          "name": "_url",
          "type": "string"
        },
        {
          "name": "_pirlFileHash",
          "type": "string"
        },
        {
          "name": "_isActive",
          "type": "bool"
        },
        {
          "name": "_userId",
          "type": "uint256"
        },
        {
          "name": "_userSubmissionId",
          "type": "uint256"
        },
        {
          "name": "_agencyId",
          "type": "uint256"
        }
      ],
      "name": "updateFile",
      "outputs": [],
      "payable": false,
      "stateMutability": "nonpayable",
      "type": "function"
    },
    {
      "constant": true,
      "inputs": [
        {
          "name": "_id",
          "type": "uint256"
        }
      ],
      "name": "getFileById",
      "outputs": [
        {
          "name": "",
          "type": "bytes32"
        },
        {
          "name": "",
          "type": "bytes32"
        },
        {
          "name": "",
          "type": "bytes32"
        },
        {
          "name": "",
          "type": "bool"
        },
        {
          "name": "",
          "type": "uint256"
        },
        {
          "name": "",
          "type": "uint256"
        }
      ],
      "payable": false,
      "stateMutability": "view",
      "type": "function"
    },
    {
      "constant": true,
      "inputs": [
        {
          "name": "_agencyId",
          "type": "uint256"
        }
      ],
      "name": "getFileListByAgencyId",
      "outputs": [
        {
          "name": "",
          "type": "bytes32[]"
        },
        {
          "name": "",
          "type": "uint256[]"
        }
      ],
      "payable": false,
      "stateMutability": "view",
      "type": "function"
    },
    {
      "constant": true,
      "inputs": [
        {
          "name": "_userId",
          "type": "uint256"
        }
      ],
      "name": "getFileListByUserId",
      "outputs": [
        {
          "name": "",
          "type": "bytes32[]"
        },
        {
          "name": "",
          "type": "uint256[]"
        }
      ],
      "payable": false,
      "stateMutability": "view",
      "type": "function"
    },
    {
      "constant": true,
      "inputs": [
        {
          "name": "_userSubmissionId",
          "type": "uint256"
        }
      ],
      "name": "getFileListByUserSubmissionId",
      "outputs": [
        {
          "name": "",
          "type": "bytes32[]"
        },
        {
          "name": "",
          "type": "uint256[]"
        }
      ],
      "payable": false,
      "stateMutability": "view",
      "type": "function"
    }
  ],
  "bytecode": "0x608060405234801561001057600080fd5b50611723806100206000396000f300608060405260043610610083576000357c0100000000000000000000000000000000000000000000000000000000900463ffffffff168063202a2ef21461008857806326c69e7e146101b1578063784350421461027b578063a25fa5ba14610345578063d999d2651461040f578063e4e6025e14610518578063f4c714b414610598575b600080fd5b34801561009457600080fd5b506101af60048036038101908080359060200190929190803590602001908201803590602001908080601f0160208091040260200160405190810160405280939291908181526020018383808284378201915050505050509192919290803590602001908201803590602001908080601f0160208091040260200160405190810160405280939291908181526020018383808284378201915050505050509192919290803590602001908201803590602001908080601f016020809104026020016040519081016040528093929190818152602001838380828437820191505050505050919291929080351515906020019092919080359060200190929190803590602001909291908035906020019092919050505061061f565b005b3480156101bd57600080fd5b506101dc60048036038101908080359060200190929190505050610a35565b604051808060200180602001838103835285818151815260200191508051906020019060200280838360005b83811015610223578082015181840152602081019050610208565b50505050905001838103825284818151815260200191508051906020019060200280838360005b8381101561026557808201518184015260208101905061024a565b5050505090500194505050505060405180910390f35b34801561028757600080fd5b506102a660048036038101908080359060200190929190505050610b91565b604051808060200180602001838103835285818151815260200191508051906020019060200280838360005b838110156102ed5780820151818401526020810190506102d2565b50505050905001838103825284818151815260200191508051906020019060200280838360005b8381101561032f578082015181840152602081019050610314565b5050505090500194505050505060405180910390f35b34801561035157600080fd5b5061037060048036038101908080359060200190929190505050610ced565b604051808060200180602001838103835285818151815260200191508051906020019060200280838360005b838110156103b757808201518184015260208101905061039c565b50505050905001838103825284818151815260200191508051906020019060200280838360005b838110156103f95780820151818401526020810190506103de565b5050505090500194505050505060405180910390f35b34801561041b57600080fd5b50610516600480360381019080803590602001908201803590602001908080601f0160208091040260200160405190810160405280939291908181526020018383808284378201915050505050509192919290803590602001908201803590602001908080601f0160208091040260200160405190810160405280939291908181526020018383808284378201915050505050509192919290803590602001908201803590602001908080601f01602080910402602001604051908101604052809392919081815260200183838082843782019150505050505091929192908035906020019092919080359060200190929190505050610e49565b005b34801561052457600080fd5b50610543600480360381019080803590602001909291905050506111ce565b6040518087600019166000191681526020018660001916600019168152602001856000191660001916815260200184151515158152602001838152602001828152602001965050505050505060405180910390f35b3480156105a457600080fd5b506105c3600480360381019080803590602001909291905050506112d2565b604051808860001916600019168152602001876000191660001916815260200186600019166000191681526020018515151515815260200184815260200183815260200182815260200197505050505050505060405180910390f35b600088118015610633575060008054905088105b151561063e57600080fd5b600083118061064d5750600081115b151561065857600080fd5b8260008981548110151561066857fe5b90600052602060002090600702016004015414806106a557508060008981548110151561069157fe5b906000526020600020906007020160060154145b15156106b057600080fd5b600080898154811015156106c057fe5b9060005260206000209060070201600501541480156106df5750600082115b1561071d5760016005600084815260200190815260200160002060008282540192505081905560056000848152602001908152602001600020819055505b61072687611330565b60008981548110151561073557fe5b9060005260206000209060070201600001816000191690555061075786611330565b60008981548110151561076657fe5b9060005260206000209060070201600101816000191690555061078885611330565b60008981548110151561079757fe5b90600052602060002090600702016002018160001916905550836000898154811015156107c057fe5b906000526020600020906007020160030160006101000a81548160ff021916908315150217905550826000898154811015156107f857fe5b9060005260206000209060070201600401819055508160008981548110151561081d57fe5b9060005260206000209060070201600501819055508060008981548110151561084257fe5b90600052602060002090600702016006018190555060016108628661135b565b111561089157876001600061087688611330565b60001916600019168152602001908152602001600020819055505b7f93ef8e50f06350135b0059a5cf10ee345b3b3233f3b46872bdb460994192d22587878787878787604051808060200180602001806020018815151515815260200187815260200186815260200185815260200184810384528b818151815260200191508051906020019080838360005b8381101561091d578082015181840152602081019050610902565b50505050905090810190601f16801561094a5780820380516001836020036101000a031916815260200191505b5084810383528a818151815260200191508051906020019080838360005b83811015610983578082015181840152602081019050610968565b50505050905090810190601f1680156109b05780820380516001836020036101000a031916815260200191505b50848103825289818151815260200191508051906020019080838360005b838110156109e95780820151818401526020810190506109ce565b50505050905090810190601f168015610a165780820380516001836020036101000a031916815260200191505b509a505050505050505050505060405180910390a15050505050505050565b6060806060806000806003600088815260200190815260200160002054604051908082528060200260200182016040528015610a805781602001602082028038833980820191505090505b5093506003600088815260200190815260200160002054604051908082528060200260200182016040528015610ac55781602001602082028038833980820191505090505b50925060009150600090505b60016000805490500381111515610b825786600082815481101515610af257fe5b9060005260206000209060070201600401541415610b7557600081815481101515610b1957fe5b9060005260206000209060070201600001548483815181101515610b3957fe5b906020019060200201906000191690816000191681525050808383815181101515610b6057fe5b90602001906020020181815250506001820191505b8080600101915050610ad1565b83839550955050505050915091565b6060806060806000806004600088815260200190815260200160002054604051908082528060200260200182016040528015610bdc5781602001602082028038833980820191505090505b5093506004600088815260200190815260200160002054604051908082528060200260200182016040528015610c215781602001602082028038833980820191505090505b50925060009150600090505b60016000805490500381111515610cde5786600082815481101515610c4e57fe5b9060005260206000209060070201600601541415610cd157600081815481101515610c7557fe5b9060005260206000209060070201600001548483815181101515610c9557fe5b906020019060200201906000191690816000191681525050808383815181101515610cbc57fe5b90602001906020020181815250506001820191505b8080600101915050610c2d565b83839550955050505050915091565b6060806060806000806005600088815260200190815260200160002054604051908082528060200260200182016040528015610d385781602001602082028038833980820191505090505b5093506005600088815260200190815260200160002054604051908082528060200260200182016040528015610d7d5781602001602082028038833980820191505090505b50925060009150600090505b60016000805490500381111515610e3a5786600082815481101515610daa57fe5b9060005260206000209060070201600401541415610e2d57600081815481101515610dd157fe5b9060005260206000209060070201600001548483815181101515610df157fe5b906020019060200201906000191690816000191681525050808383815181101515610e1857fe5b90602001906020020181815250506001820191505b8080600101915050610d89565b83839550955050505050915091565b600080821180610e595750600083115b1515610e6457600080fd5b6001600060e060405190810160405280610e7d8a611330565b600019168152602001610e8f89611330565b600019168152602001610ea188611330565b60001916815260200160011515815260200186815260200160008152602001858152509080600181540180825580915050906001820390600052602060002090600702016000909192909190915060008201518160000190600019169055602082015181600101906000191690556040820151816002019060001916905560608201518160030160006101000a81548160ff0219169083151502179055506080820151816004015560a0820151816005015560c082015181600601555050505060016000805490500390506001610f778561135b565b1115610fa6578060016000610f8b87611330565b60001916600019168152602001908152602001600020819055505b6000831115610fe85760016003600085815260200190815260200160002060008282540192505081905560036000858152602001908152602001600020819055505b600082111561102a5760016004600084815260200190815260200160002060008282540192505081905560046000848152602001908152602001600020819055505b7f2bc98c33019cba3c8f93d1f3410e489f060334733e12b84d21b3b5d9f994886d868686600187600088604051808060200180602001806020018815151515815260200187815260200186815260200185815260200184810384528b818151815260200191508051906020019080838360005b838110156110b857808201518184015260208101905061109d565b50505050905090810190601f1680156110e55780820380516001836020036101000a031916815260200191505b5084810383528a818151815260200191508051906020019080838360005b8381101561111e578082015181840152602081019050611103565b50505050905090810190601f16801561114b5780820380516001836020036101000a031916815260200191505b50848103825289818151815260200191508051906020019080838360005b83811015611184578082015181840152602081019050611169565b50505050905090810190601f1680156111b15780820380516001836020036101000a031916815260200191505b509a505050505050505050505060405180910390a1505050505050565b600080600080600080600080549050871015156111ea57600080fd5b6000878154811015156111f957fe5b90600052602060002090600702016000015460008881548110151561121a57fe5b90600052602060002090600702016001015460008981548110151561123b57fe5b90600052602060002090600702016002015460008a81548110151561125c57fe5b906000526020600020906007020160030160009054906101000a900460ff1660008b81548110151561128a57fe5b90600052602060002090600702016004015460008c8154811015156112ab57fe5b90600052602060002090600702016006015495509550955095509550955091939550919395565b6000818154811015156112e157fe5b90600052602060002090600702016000915090508060000154908060010154908060020154908060030160009054906101000a900460ff16908060040154908060050154908060060154905087565b6000606082905060008151141561134d5760006001029150611355565b602083015191505b50919050565b6000806060600091508390505b80518210156116f05760007f010000000000000000000000000000000000000000000000000000000000000002600782848151811015156113a557fe5b9060200101517f010000000000000000000000000000000000000000000000000000000000000090047f0100000000000000000000000000000000000000000000000000000000000000027effffffffffffffffffffffffffffffffffffffffffffffffffffffffffffff19169060020a90047effffffffffffffffffffffffffffffffffffffffffffffffffffffffffffff1916141561144b576001820191506116e3565b60067f0100000000000000000000000000000000000000000000000000000000000000026005828481518110151561147f57fe5b9060200101517f010000000000000000000000000000000000000000000000000000000000000090047f0100000000000000000000000000000000000000000000000000000000000000027effffffffffffffffffffffffffffffffffffffffffffffffffffffffffffff19169060020a90047effffffffffffffffffffffffffffffffffffffffffffffffffffffffffffff19161415611525576002820191506116e2565b600e7f0100000000000000000000000000000000000000000000000000000000000000026004828481518110151561155957fe5b9060200101517f010000000000000000000000000000000000000000000000000000000000000090047f0100000000000000000000000000000000000000000000000000000000000000027effffffffffffffffffffffffffffffffffffffffffffffffffffffffffffff19169060020a90047effffffffffffffffffffffffffffffffffffffffffffffffffffffffffffff191614156115ff576003820191506116e1565b601e7f0100000000000000000000000000000000000000000000000000000000000000026003828481518110151561163357fe5b9060200101517f010000000000000000000000000000000000000000000000000000000000000090047f0100000000000000000000000000000000000000000000000000000000000000027effffffffffffffffffffffffffffffffffffffffffffffffffffffffffffff19169060020a90047effffffffffffffffffffffffffffffffffffffffffffffffffffffffffffff191614156116d9576004820191506116e0565b6001820191505b5b5b5b8280600101935050611368565b50509190505600a165627a7a723058202c27eec52983309d7ec97ded5d80acac9b520163af6370b5e963c5a80bd3179f0029",
  "source": "pragma solidity ^0.4.23;\r\n\r\ncontract Files {\r\n\r\n    //Events\r\n    event NewFile(\r\n    string name, \r\n    string url, \r\n    string pirlFileHash, \r\n    bool isActive, \r\n    uint userId, \r\n    uint userSubmissionId, \r\n    uint agencyId);\r\n\r\n    event UpdateFile(\r\n    string name, \r\n    string url, \r\n    string pirlFileHash, \r\n    bool isActive, \r\n    uint userId, \r\n    uint userSubmissionId,\r\n    uint agencyId);\r\n\r\n    // Structs\r\n    struct File {\r\n        bytes32 name;\r\n        bytes32 url;\r\n        bytes32 pirlFileHash;\r\n        bool isActive;\r\n        uint userId;\r\n        uint userSubmissionId;\r\n        uint agencyId;\r\n    }\r\n\r\n    File[] public files;\r\n    mapping(bytes32 => uint) internal fileIdByHash;\r\n    mapping(uint => bytes32) internal fileNameById;\r\n    mapping(uint => uint) internal fileCountByUserId;\r\n    mapping(uint => uint) internal fileCountByAgencyId;\r\n    mapping(uint => uint) internal fileCountByUserSubmissionId;\r\n\r\n    // Purpose  : To hold add a credential to the list of available credentials\r\n    // Note     : Only agencies and users can upload files.  The file can be updated to\r\n    //            include a userSubmissionId when it is attached to a UserSubmission.\r\n    function addFile(string _name, string _url, string _pirlFileHash, uint _userId, uint _agencyId) public {\r\n        require(_agencyId > 0 || _userId > 0);\r\n        files.push(File(\r\n            stringToBytes32(_name), \r\n            stringToBytes32(_url),\r\n            stringToBytes32(_pirlFileHash),\r\n            true,\r\n            _userId,\r\n            0, \r\n            _agencyId))-1;\r\n\r\n        uint id = files.length-1;\r\n        if (utfStringLength(_pirlFileHash) > 1)\r\n           fileIdByHash[stringToBytes32(_pirlFileHash)] = id;\r\n        if (_userId > 0)\r\n           fileCountByUserId[_userId] = fileCountByUserId[_userId] += 1;\r\n        if (_agencyId > 0) {\r\n            fileCountByAgencyId[_agencyId] = fileCountByAgencyId[_agencyId] += 1;\r\n        }\r\n\r\n        emit NewFile(\r\n            _name, \r\n            _url,\r\n            _pirlFileHash,\r\n            true,\r\n            _userId,\r\n            0, \r\n            _agencyId\r\n        );\r\n    }\r\n\r\n    // Purpose  : To update file info.  For the most part, this will be called to:\r\n    //            Put a hash, once that becomes available.\r\n    //            Put a UserSubmissionId to link it to a submission.\r\n    function updateFile(\r\n        uint _fileId, \r\n        string _name, \r\n        string _url, \r\n        string _pirlFileHash, \r\n        bool _isActive, \r\n        uint _userId, \r\n        uint _userSubmissionId, \r\n        uint _agencyId) public {\r\n\r\n        require(_fileId > 0 && _fileId < files.length);\r\n        require(_userId > 0 || _agencyId > 0);\r\n        require((files[_fileId].userId == _userId) || (files[_fileId].agencyId == _agencyId));\r\n        \r\n        if (files[_fileId].userSubmissionId == 0 && _userSubmissionId > 0)\r\n           fileCountByUserSubmissionId[_userSubmissionId] = fileCountByUserSubmissionId[_userSubmissionId] += 1;\r\n\r\n        files[_fileId].name = stringToBytes32(_name);\r\n        files[_fileId].url = stringToBytes32(_url);\r\n        files[_fileId].pirlFileHash = stringToBytes32(_pirlFileHash);\r\n        files[_fileId].isActive = _isActive;\r\n        files[_fileId].userId = _userId;\r\n        files[_fileId].userSubmissionId = _userSubmissionId;\r\n        files[_fileId].agencyId = _agencyId;\r\n\r\n        if (utfStringLength(_pirlFileHash) > 1)\r\n           fileIdByHash[stringToBytes32(_pirlFileHash)] = _fileId;\r\n\r\n        emit UpdateFile(\r\n            _name, \r\n            _url,\r\n            _pirlFileHash,\r\n            _isActive,\r\n            _userId,\r\n            _userSubmissionId,\r\n            _agencyId\r\n        );\r\n    }\r\n\r\n    // Purpose  : To retrieve a credential by the id\r\n    function getFileById(uint _id) public view returns (bytes32, bytes32, bytes32, bool, uint, uint) {\r\n        require(_id < files.length);\r\n        return (files[_id].name, \r\n            files[_id].url, \r\n            files[_id].pirlFileHash, \r\n            files[_id].isActive, \r\n            files[_id].userId, \r\n            files[_id].agencyId); \r\n    }\r\n\r\n    function getFileListByAgencyId(uint _agencyId) public view returns (bytes32[], uint[]) {\r\n        bytes32[] memory  names = new bytes32[](fileCountByAgencyId[_agencyId]);\r\n        uint[] memory  ids = new uint[](fileCountByAgencyId[_agencyId]);\r\n        uint index = 0;\r\n        for (uint i = 0; i <= files.length-1; i++) {\r\n            if (files[i].agencyId == _agencyId) {\r\n                names[index] = files[i].name;\r\n                ids[index] = i;\r\n                index += 1;\r\n            }\r\n        }\r\n        return (names,ids);\r\n    }\r\n\r\n    function getFileListByUserId(uint _userId) public view returns (bytes32[], uint[]) {\r\n        bytes32[] memory  names = new bytes32[](fileCountByUserId[_userId]);\r\n        uint[] memory  ids = new uint[](fileCountByUserId[_userId]);\r\n        uint index = 0;\r\n        for (uint i = 0; i <= files.length-1; i++) {\r\n            if (files[i].userId == _userId) {\r\n                names[index] = files[i].name;\r\n                ids[index] = i;\r\n                index += 1;\r\n            }\r\n        }\r\n        return (names,ids);\r\n    }\r\n\r\n    function getFileListByUserSubmissionId(uint _userSubmissionId) public view returns (bytes32[], uint[]) {\r\n        bytes32[] memory  names = new bytes32[](fileCountByUserSubmissionId[_userSubmissionId]);\r\n        uint[] memory  ids = new uint[](fileCountByUserSubmissionId[_userSubmissionId]);\r\n        uint index = 0;\r\n        for (uint i = 0; i <= files.length-1; i++) {\r\n            if (files[i].userId == _userSubmissionId) {\r\n                names[index] = files[i].name;\r\n                ids[index] = i;\r\n                index += 1;\r\n            }\r\n        }\r\n        return (names,ids);\r\n    }\r\n\r\n    function stringToBytes32(string memory source) internal pure returns (bytes32 result) {\r\n        bytes memory tempEmptyStringTest = bytes(source);\r\n        if (tempEmptyStringTest.length == 0) {\r\n            return 0x0;\r\n        }\r\n        assembly {result := mload(add(source, 32))}\r\n    }\r\n\r\n    function utfStringLength(string str) pure internal\r\n    returns (uint length)\r\n    {\r\n        uint i=0;\r\n        bytes memory string_rep = bytes(str);\r\n\r\n        while (i<string_rep.length)\r\n        {\r\n            if (string_rep[i]>>7==0)\r\n                i+=1;\r\n            else if (string_rep[i]>>5==0x6)\r\n                i+=2;\r\n            else if (string_rep[i]>>4==0xE)\r\n                i+=3;\r\n            else if (string_rep[i]>>3==0x1E)\r\n                i+=4;\r\n            else\r\n                //For safety\r\n                i+=1;\r\n\r\n            length++;\r\n        }\r\n    }\r\n\r\n}",
  "sourcePath": "D:\\GitHub\\pirl-project01\\truffle\\contracts\\Files.sol",
  "compiler": {
    "name": "solc",
    "version": "0.4.23+commit.124ca40d.Emscripten.clang"
  },
  "schemaVersion": "2.0.0",
  "updatedAt": "2018-05-20T01:26:19.421Z"
}