{
  "contractName": "Files",
  "abi": [
    {
      "constant": true,
      "inputs": [],
      "name": "owner",
      "outputs": [
        {
          "name": "",
          "type": "address"
        }
      ],
      "payable": false,
      "stateMutability": "view",
      "type": "function"
    },
    {
      "constant": true,
      "inputs": [
        {
          "name": "",
          "type": "uint256"
        }
      ],
      "name": "files",
      "outputs": [
        {
          "name": "name",
          "type": "bytes32"
        },
        {
          "name": "url",
          "type": "bytes32"
        },
        {
          "name": "pirlFileHash",
          "type": "bytes32"
        },
        {
          "name": "isActive",
          "type": "bool"
        },
        {
          "name": "userId",
          "type": "uint256"
        },
        {
          "name": "userSubmissionId",
          "type": "uint256"
        },
        {
          "name": "agencyId",
          "type": "uint256"
        }
      ],
      "payable": false,
      "stateMutability": "view",
      "type": "function"
    },
    {
      "inputs": [],
      "payable": false,
      "stateMutability": "nonpayable",
      "type": "constructor"
    },
    {
      "payable": true,
      "stateMutability": "payable",
      "type": "fallback"
    },
    {
      "anonymous": false,
      "inputs": [
        {
          "indexed": false,
          "name": "name",
          "type": "string"
        },
        {
          "indexed": false,
          "name": "url",
          "type": "string"
        },
        {
          "indexed": false,
          "name": "pirlFileHash",
          "type": "string"
        },
        {
          "indexed": false,
          "name": "isActive",
          "type": "bool"
        },
        {
          "indexed": false,
          "name": "userId",
          "type": "uint256"
        },
        {
          "indexed": false,
          "name": "userSubmissionId",
          "type": "uint256"
        },
        {
          "indexed": false,
          "name": "agencyId",
          "type": "uint256"
        }
      ],
      "name": "NewFile",
      "type": "event"
    },
    {
      "anonymous": false,
      "inputs": [
        {
          "indexed": false,
          "name": "name",
          "type": "string"
        },
        {
          "indexed": false,
          "name": "url",
          "type": "string"
        },
        {
          "indexed": false,
          "name": "pirlFileHash",
          "type": "string"
        },
        {
          "indexed": false,
          "name": "isActive",
          "type": "bool"
        },
        {
          "indexed": false,
          "name": "userId",
          "type": "uint256"
        },
        {
          "indexed": false,
          "name": "userSubmissionId",
          "type": "uint256"
        },
        {
          "indexed": false,
          "name": "agencyId",
          "type": "uint256"
        }
      ],
      "name": "UpdateFile",
      "type": "event"
    },
    {
      "anonymous": false,
      "inputs": [
        {
          "indexed": false,
          "name": "_from",
          "type": "address"
        },
        {
          "indexed": false,
          "name": "value",
          "type": "uint256"
        }
      ],
      "name": "DepositFiles",
      "type": "event"
    },
    {
      "anonymous": false,
      "inputs": [
        {
          "indexed": false,
          "name": "_to",
          "type": "address"
        },
        {
          "indexed": false,
          "name": "_amount",
          "type": "uint256"
        }
      ],
      "name": "WithdrawFiles",
      "type": "event"
    },
    {
      "anonymous": false,
      "inputs": [
        {
          "indexed": false,
          "name": "_remainingBalance",
          "type": "uint256"
        }
      ],
      "name": "BalanceFiles",
      "type": "event"
    },
    {
      "constant": false,
      "inputs": [
        {
          "name": "_amount",
          "type": "uint256"
        }
      ],
      "name": "withdraw",
      "outputs": [],
      "payable": false,
      "stateMutability": "nonpayable",
      "type": "function"
    },
    {
      "constant": false,
      "inputs": [
        {
          "name": "_name",
          "type": "string"
        },
        {
          "name": "_url",
          "type": "string"
        },
        {
          "name": "_pirlFileHash",
          "type": "string"
        },
        {
          "name": "_userId",
          "type": "uint256"
        },
        {
          "name": "_agencyId",
          "type": "uint256"
        }
      ],
      "name": "addFile",
      "outputs": [],
      "payable": false,
      "stateMutability": "nonpayable",
      "type": "function"
    },
    {
      "constant": false,
      "inputs": [
        {
          "name": "_fileId",
          "type": "uint256"
        },
        {
          "name": "_name",
          "type": "string"
        },
        {
          "name": "_url",
          "type": "string"
        },
        {
          "name": "_pirlFileHash",
          "type": "string"
        },
        {
          "name": "_isActive",
          "type": "bool"
        },
        {
          "name": "_userId",
          "type": "uint256"
        },
        {
          "name": "_userSubmissionId",
          "type": "uint256"
        },
        {
          "name": "_agencyId",
          "type": "uint256"
        }
      ],
      "name": "updateFileById",
      "outputs": [],
      "payable": false,
      "stateMutability": "nonpayable",
      "type": "function"
    },
    {
      "constant": true,
      "inputs": [
        {
          "name": "_id",
          "type": "uint256"
        }
      ],
      "name": "getFileById",
      "outputs": [
        {
          "name": "",
          "type": "bytes32"
        },
        {
          "name": "",
          "type": "bytes32"
        },
        {
          "name": "",
          "type": "bytes32"
        },
        {
          "name": "",
          "type": "bool"
        },
        {
          "name": "",
          "type": "uint256"
        },
        {
          "name": "",
          "type": "uint256"
        },
        {
          "name": "",
          "type": "uint256"
        }
      ],
      "payable": false,
      "stateMutability": "view",
      "type": "function"
    },
    {
      "constant": true,
      "inputs": [
        {
          "name": "_agencyId",
          "type": "uint256"
        }
      ],
      "name": "getFileListByAgencyId",
      "outputs": [
        {
          "name": "",
          "type": "bytes32[]"
        },
        {
          "name": "",
          "type": "uint256[]"
        }
      ],
      "payable": false,
      "stateMutability": "view",
      "type": "function"
    },
    {
      "constant": true,
      "inputs": [
        {
          "name": "_userId",
          "type": "uint256"
        }
      ],
      "name": "getFileListByUserId",
      "outputs": [
        {
          "name": "",
          "type": "bytes32[]"
        },
        {
          "name": "",
          "type": "uint256[]"
        }
      ],
      "payable": false,
      "stateMutability": "view",
      "type": "function"
    },
    {
      "constant": true,
      "inputs": [
        {
          "name": "_userSubmissionId",
          "type": "uint256"
        }
      ],
      "name": "getFileListByUserSubmissionId",
      "outputs": [
        {
          "name": "",
          "type": "bytes32[]"
        },
        {
          "name": "",
          "type": "uint256[]"
        }
      ],
      "payable": false,
      "stateMutability": "view",
      "type": "function"
    },
    {
      "constant": false,
      "inputs": [],
      "name": "destroy",
      "outputs": [],
      "payable": false,
      "stateMutability": "nonpayable",
      "type": "function"
    }
  ],
  "bytecode": "0x60806040523480156200001157600080fd5b50336000806101000a81548173ffffffffffffffffffffffffffffffffffffffff021916908373ffffffffffffffffffffffffffffffffffffffff160217905550620000eb6040805190810160405280600981526020017f526f6f742046696c6500000000000000000000000000000000000000000000008152506040805190810160405280600f81526020017f7777772e536f6d6555726c2e436f6d00000000000000000000000000000000008152506020604051908101604052806000815250600080620000f1640100000000026401000000009004565b62000893565b600060018060e0604051908101604052806200011c8a620004bc640100000000026401000000009004565b6000191681526020016200013f89620004bc640100000000026401000000009004565b6000191681526020016200016288620004bc640100000000026401000000009004565b60001916815260200160011515815260200186815260200160008152602001858152509080600181540180825580915050906001820390600052602060002090600702016000909192909190915060008201518160000190600019169055602082015181600101906000191690556040820151816002019060001916905560608201518160030160006101000a81548160ff0219169083151502179055506080820151816004015560a0820151816005015560c08201518160060155505050506001808054905003905060016200024885620004e9640100000000026401000000009004565b1115620002895780600260006200026e87620004bc640100000000026401000000009004565b60001916600019168152602001908152602001600020819055505b6000831115620002cc5760016004600085815260200190815260200160002060008282540192505081905560046000858152602001908152602001600020819055505b60008211156200030f5760016005600084815260200190815260200160002060008282540192505081905560056000848152602001908152602001600020819055505b7f2bc98c33019cba3c8f93d1f3410e489f060334733e12b84d21b3b5d9f994886d868686600187600088604051808060200180602001806020018815151515815260200187815260200186815260200185815260200184810384528b818151815260200191508051906020019080838360005b838110156200039f57808201518184015260208101905062000382565b50505050905090810190601f168015620003cd5780820380516001836020036101000a031916815260200191505b5084810383528a818151815260200191508051906020019080838360005b8381101562000408578082015181840152602081019050620003eb565b50505050905090810190601f168015620004365780820380516001836020036101000a031916815260200191505b50848103825289818151815260200191508051906020019080838360005b838110156200047157808201518184015260208101905062000454565b50505050905090810190601f1680156200049f5780820380516001836020036101000a031916815260200191505b509a505050505050505050505060405180910390a1505050505050565b60006060829050600081511415620004db5760006001029150620004e3565b602083015191505b50919050565b6000806060600091508390505b80518210156200088c5760007f010000000000000000000000000000000000000000000000000000000000000002600782848151811015156200053557fe5b9060200101517f010000000000000000000000000000000000000000000000000000000000000090047f0100000000000000000000000000000000000000000000000000000000000000027effffffffffffffffffffffffffffffffffffffffffffffffffffffffffffff19169060020a90047effffffffffffffffffffffffffffffffffffffffffffffffffffffffffffff19161415620005dd576001820191506200087e565b60067f010000000000000000000000000000000000000000000000000000000000000002600582848151811015156200061257fe5b9060200101517f010000000000000000000000000000000000000000000000000000000000000090047f0100000000000000000000000000000000000000000000000000000000000000027effffffffffffffffffffffffffffffffffffffffffffffffffffffffffffff19169060020a90047effffffffffffffffffffffffffffffffffffffffffffffffffffffffffffff19161415620006ba576002820191506200087d565b600e7f01000000000000000000000000000000000000000000000000000000000000000260048284815181101515620006ef57fe5b9060200101517f010000000000000000000000000000000000000000000000000000000000000090047f0100000000000000000000000000000000000000000000000000000000000000027effffffffffffffffffffffffffffffffffffffffffffffffffffffffffffff19169060020a90047effffffffffffffffffffffffffffffffffffffffffffffffffffffffffffff1916141562000797576003820191506200087c565b601e7f01000000000000000000000000000000000000000000000000000000000000000260038284815181101515620007cc57fe5b9060200101517f010000000000000000000000000000000000000000000000000000000000000090047f0100000000000000000000000000000000000000000000000000000000000000027effffffffffffffffffffffffffffffffffffffffffffffffffffffffffffff19169060020a90047effffffffffffffffffffffffffffffffffffffffffffffffffffffffffffff1916141562000874576004820191506200087b565b6001820191505b5b5b5b8280600101935050620004f6565b5050919050565b611ae680620008a36000396000f3006080604052600436106100a4576000357c0100000000000000000000000000000000000000000000000000000000900463ffffffff16806326c69e7e146101695780632e1a7d4d14610233578063784350421461026057806383197ef01461032a5780638da5cb5b146103415780638fd0c94514610398578063a25fa5ba146104c1578063d999d2651461058b578063e4e6025e14610694578063f4c714b41461071b575b6000341115610167577f447ebb35bbd0203e80c33c326d8c1615084a49823878326ac37b4159f73bdd783334604051808373ffffffffffffffffffffffffffffffffffffffff1673ffffffffffffffffffffffffffffffffffffffff1681526020018281526020019250505060405180910390a17f87942aed17aa77824134d8945f1f1508fce4dee863d350cc807f96d357dbb7553073ffffffffffffffffffffffffffffffffffffffff16316040518082815260200191505060405180910390a15b005b34801561017557600080fd5b50610194600480360381019080803590602001909291905050506107a2565b604051808060200180602001838103835285818151815260200191508051906020019060200280838360005b838110156101db5780820151818401526020810190506101c0565b50505050905001838103825284818151815260200191508051906020019060200280838360005b8381101561021d578082015181840152602081019050610202565b5050505090500194505050505060405180910390f35b34801561023f57600080fd5b5061025e600480360381019080803590602001909291905050506108fd565b005b34801561026c57600080fd5b5061028b60048036038101908080359060200190929190505050610ab6565b604051808060200180602001838103835285818151815260200191508051906020019060200280838360005b838110156102d25780820151818401526020810190506102b7565b50505050905001838103825284818151815260200191508051906020019060200280838360005b838110156103145780820151818401526020810190506102f9565b5050505090500194505050505060405180910390f35b34801561033657600080fd5b5061033f610c11565b005b34801561034d57600080fd5b50610356610c8e565b604051808273ffffffffffffffffffffffffffffffffffffffff1673ffffffffffffffffffffffffffffffffffffffff16815260200191505060405180910390f35b3480156103a457600080fd5b506104bf60048036038101908080359060200190929190803590602001908201803590602001908080601f0160208091040260200160405190810160405280939291908181526020018383808284378201915050505050509192919290803590602001908201803590602001908080601f0160208091040260200160405190810160405280939291908181526020018383808284378201915050505050509192919290803590602001908201803590602001908080601f0160208091040260200160405190810160405280939291908181526020018383808284378201915050505050509192919290803515159060200190929190803590602001909291908035906020019092919080359060200190929190505050610cb3565b005b3480156104cd57600080fd5b506104ec600480360381019080803590602001909291905050506110a5565b604051808060200180602001838103835285818151815260200191508051906020019060200280838360005b83811015610533578082015181840152602081019050610518565b50505050905001838103825284818151815260200191508051906020019060200280838360005b8381101561057557808201518184015260208101905061055a565b5050505090500194505050505060405180910390f35b34801561059757600080fd5b50610692600480360381019080803590602001908201803590602001908080601f0160208091040260200160405190810160405280939291908181526020018383808284378201915050505050509192919290803590602001908201803590602001908080601f0160208091040260200160405190810160405280939291908181526020018383808284378201915050505050509192919290803590602001908201803590602001908080601f01602080910402602001604051908101604052809392919081815260200183838082843782019150505050505091929192908035906020019092919080359060200190929190505050611200565b005b3480156106a057600080fd5b506106bf6004803603810190808035906020019092919050505061156a565b604051808860001916600019168152602001876000191660001916815260200186600019166000191681526020018515151515815260200184815260200183815260200182815260200197505050505050505060405180910390f35b34801561072757600080fd5b5061074660048036038101908080359060200190929190505050611695565b604051808860001916600019168152602001876000191660001916815260200186600019166000191681526020018515151515815260200184815260200183815260200182815260200197505050505050505060405180910390f35b60608060608060008060046000888152602001908152602001600020546040519080825280602002602001820160405280156107ed5781602001602082028038833980820191505090505b50935060046000888152602001908152602001600020546040519080825280602002602001820160405280156108325781602001602082028038833980820191505090505b50925060009150600090505b6001808054905003811115156108ee578660018281548110151561085e57fe5b90600052602060002090600702016004015414156108e15760018181548110151561088557fe5b90600052602060002090600702016000015484838151811015156108a557fe5b9060200190602002019060001916908160001916815250508083838151811015156108cc57fe5b90602001906020020181815250506001820191505b808060010191505061083e565b83839550955050505050915091565b6000809054906101000a900473ffffffffffffffffffffffffffffffffffffffff1673ffffffffffffffffffffffffffffffffffffffff163373ffffffffffffffffffffffffffffffffffffffff1614151561095857600080fd5b60003073ffffffffffffffffffffffffffffffffffffffff163111151561097e57600080fd5b60008111151561098d57600080fd5b803073ffffffffffffffffffffffffffffffffffffffff1631101515156109b357600080fd5b3373ffffffffffffffffffffffffffffffffffffffff166108fc829081150290604051600060405180830381858888f193505050501580156109f9573d6000803e3d6000fd5b507fe41661e9163825df540fd76c9b8f8d4414d318c7a072961320267c2329a762893382604051808373ffffffffffffffffffffffffffffffffffffffff1673ffffffffffffffffffffffffffffffffffffffff1681526020018281526020019250505060405180910390a17f87942aed17aa77824134d8945f1f1508fce4dee863d350cc807f96d357dbb7553073ffffffffffffffffffffffffffffffffffffffff16316040518082815260200191505060405180910390a150565b6060806060806000806005600088815260200190815260200160002054604051908082528060200260200182016040528015610b015781602001602082028038833980820191505090505b5093506005600088815260200190815260200160002054604051908082528060200260200182016040528015610b465781602001602082028038833980820191505090505b50925060009150600090505b600180805490500381111515610c025786600182815481101515610b7257fe5b9060005260206000209060070201600601541415610bf557600181815481101515610b9957fe5b9060005260206000209060070201600001548483815181101515610bb957fe5b906020019060200201906000191690816000191681525050808383815181101515610be057fe5b90602001906020020181815250506001820191505b8080600101915050610b52565b83839550955050505050915091565b6000809054906101000a900473ffffffffffffffffffffffffffffffffffffffff1673ffffffffffffffffffffffffffffffffffffffff163373ffffffffffffffffffffffffffffffffffffffff16141515610c6c57600080fd5b610c8c3073ffffffffffffffffffffffffffffffffffffffff16316108fd565b565b6000809054906101000a900473ffffffffffffffffffffffffffffffffffffffff1681565b600088118015610cc7575060018054905088105b1515610cd257600080fd5b6000831180610ce15750600081115b1515610cec57600080fd5b82600189815481101515610cfc57fe5b9060005260206000209060070201600401541480610d39575080600189815481101515610d2557fe5b906000526020600020906007020160060154145b1515610d4457600080fd5b6000600189815481101515610d5557fe5b906000526020600020906007020160050154148015610d745750600082115b15610db25760016006600084815260200190815260200160002060008282540192505081905560066000848152602001908152602001600020819055505b610dbb876116f3565b600189815481101515610dca57fe5b90600052602060002090600702016000018160001916905550610dec866116f3565b600189815481101515610dfb57fe5b90600052602060002090600702016001018160001916905550610e1d856116f3565b600189815481101515610e2c57fe5b9060005260206000209060070201600201816000191690555083600189815481101515610e5557fe5b906000526020600020906007020160030160006101000a81548160ff02191690831515021790555082600189815481101515610e8d57fe5b90600052602060002090600702016004018190555081600189815481101515610eb257fe5b9060005260206000209060070201600501819055506001610ed28661171e565b1115610f01578760026000610ee6886116f3565b60001916600019168152602001908152602001600020819055505b7f93ef8e50f06350135b0059a5cf10ee345b3b3233f3b46872bdb460994192d22587878787878787604051808060200180602001806020018815151515815260200187815260200186815260200185815260200184810384528b818151815260200191508051906020019080838360005b83811015610f8d578082015181840152602081019050610f72565b50505050905090810190601f168015610fba5780820380516001836020036101000a031916815260200191505b5084810383528a818151815260200191508051906020019080838360005b83811015610ff3578082015181840152602081019050610fd8565b50505050905090810190601f1680156110205780820380516001836020036101000a031916815260200191505b50848103825289818151815260200191508051906020019080838360005b8381101561105957808201518184015260208101905061103e565b50505050905090810190601f1680156110865780820380516001836020036101000a031916815260200191505b509a505050505050505050505060405180910390a15050505050505050565b60608060608060008060066000888152602001908152602001600020546040519080825280602002602001820160405280156110f05781602001602082028038833980820191505090505b50935060066000888152602001908152602001600020546040519080825280602002602001820160405280156111355781602001602082028038833980820191505090505b50925060009150600090505b6001808054905003811115156111f1578660018281548110151561116157fe5b90600052602060002090600702016004015414156111e45760018181548110151561118857fe5b90600052602060002090600702016000015484838151811015156111a857fe5b9060200190602002019060001916908160001916815250508083838151811015156111cf57fe5b90602001906020020181815250506001820191505b8080600101915050611141565b83839550955050505050915091565b600060018060e06040519081016040528061121a8a6116f3565b60001916815260200161122c896116f3565b60001916815260200161123e886116f3565b60001916815260200160011515815260200186815260200160008152602001858152509080600181540180825580915050906001820390600052602060002090600702016000909192909190915060008201518160000190600019169055602082015181600101906000191690556040820151816002019060001916905560608201518160030160006101000a81548160ff0219169083151502179055506080820151816004015560a0820151816005015560c08201518160060155505050506001808054905003905060016113138561171e565b1115611342578060026000611327876116f3565b60001916600019168152602001908152602001600020819055505b60008311156113845760016004600085815260200190815260200160002060008282540192505081905560046000858152602001908152602001600020819055505b60008211156113c65760016005600084815260200190815260200160002060008282540192505081905560056000848152602001908152602001600020819055505b7f2bc98c33019cba3c8f93d1f3410e489f060334733e12b84d21b3b5d9f994886d868686600187600088604051808060200180602001806020018815151515815260200187815260200186815260200185815260200184810384528b818151815260200191508051906020019080838360005b83811015611454578082015181840152602081019050611439565b50505050905090810190601f1680156114815780820380516001836020036101000a031916815260200191505b5084810383528a818151815260200191508051906020019080838360005b838110156114ba57808201518184015260208101905061149f565b50505050905090810190601f1680156114e75780820380516001836020036101000a031916815260200191505b50848103825289818151815260200191508051906020019080838360005b83811015611520578082015181840152602081019050611505565b50505050905090810190601f16801561154d5780820380516001836020036101000a031916815260200191505b509a505050505050505050505060405180910390a1505050505050565b60008060008060008060006001805490508810151561158857600080fd5b60018881548110151561159757fe5b9060005260206000209060070201600001546001898154811015156115b857fe5b90600052602060002090600702016001015460018a8154811015156115d957fe5b90600052602060002090600702016002015460018b8154811015156115fa57fe5b906000526020600020906007020160030160009054906101000a900460ff1660018c81548110151561162857fe5b90600052602060002090600702016004015460018d81548110151561164957fe5b90600052602060002090600702016005015460018e81548110151561166a57fe5b9060005260206000209060070201600601549650965096509650965096509650919395979092949650565b6001818154811015156116a457fe5b90600052602060002090600702016000915090508060000154908060010154908060020154908060030160009054906101000a900460ff16908060040154908060050154908060060154905087565b600060608290506000815114156117105760006001029150611718565b602083015191505b50919050565b6000806060600091508390505b8051821015611ab35760007f0100000000000000000000000000000000000000000000000000000000000000026007828481518110151561176857fe5b9060200101517f010000000000000000000000000000000000000000000000000000000000000090047f0100000000000000000000000000000000000000000000000000000000000000027effffffffffffffffffffffffffffffffffffffffffffffffffffffffffffff19169060020a90047effffffffffffffffffffffffffffffffffffffffffffffffffffffffffffff1916141561180e57600182019150611aa6565b60067f0100000000000000000000000000000000000000000000000000000000000000026005828481518110151561184257fe5b9060200101517f010000000000000000000000000000000000000000000000000000000000000090047f0100000000000000000000000000000000000000000000000000000000000000027effffffffffffffffffffffffffffffffffffffffffffffffffffffffffffff19169060020a90047effffffffffffffffffffffffffffffffffffffffffffffffffffffffffffff191614156118e857600282019150611aa5565b600e7f0100000000000000000000000000000000000000000000000000000000000000026004828481518110151561191c57fe5b9060200101517f010000000000000000000000000000000000000000000000000000000000000090047f0100000000000000000000000000000000000000000000000000000000000000027effffffffffffffffffffffffffffffffffffffffffffffffffffffffffffff19169060020a90047effffffffffffffffffffffffffffffffffffffffffffffffffffffffffffff191614156119c257600382019150611aa4565b601e7f010000000000000000000000000000000000000000000000000000000000000002600382848151811015156119f657fe5b9060200101517f010000000000000000000000000000000000000000000000000000000000000090047f0100000000000000000000000000000000000000000000000000000000000000027effffffffffffffffffffffffffffffffffffffffffffffffffffffffffffff19169060020a90047effffffffffffffffffffffffffffffffffffffffffffffffffffffffffffff19161415611a9c57600482019150611aa3565b6001820191505b5b5b5b828060010193505061172b565b50509190505600a165627a7a72305820dd5657cb6dfeaf9187073388c32f93dc4f2b46a101031de000fe5f774f1c4dc00029",
  "source": "pragma solidity ^0.4.23;\r\n\r\n\r\ncontract Files {\r\n\r\n    //Events\r\n    event NewFile(\r\n    string name, \r\n    string url, \r\n    string pirlFileHash, \r\n    bool isActive, \r\n    uint userId, \r\n    uint userSubmissionId, \r\n    uint agencyId);\r\n\r\n    event UpdateFile(\r\n    string name, \r\n    string url, \r\n    string pirlFileHash, \r\n    bool isActive, \r\n    uint userId, \r\n    uint userSubmissionId,\r\n    uint agencyId);\r\n\r\n    event DepositFiles(address _from, uint value);\r\n    event WithdrawFiles(address _to, uint _amount);\r\n    event BalanceFiles(uint _remainingBalance);\r\n\r\n    // Structs\r\n    struct File {\r\n        bytes32 name;\r\n        bytes32 url;\r\n        bytes32 pirlFileHash;\r\n        bool isActive;\r\n        uint userId;\r\n        uint userSubmissionId;\r\n        uint agencyId;\r\n    }\r\n\r\n    address public owner;\r\n    File[] public files;\r\n    mapping(bytes32 => uint) internal fileIdByHash;\r\n    mapping(uint => bytes32) internal fileNameById;\r\n    mapping(uint => uint) internal fileCountByUserId;\r\n    mapping(uint => uint) internal fileCountByAgencyId;\r\n    mapping(uint => uint) internal fileCountByUserSubmissionId;\r\n\r\n    // Register a root file\r\n    constructor() public {\r\n        owner = msg.sender;\r\n        addFile(\"Root File\",\"www.SomeUrl.Com\",\"\",0,0);\r\n    }\r\n\r\n    modifier onlyOwner() {\r\n        require(msg.sender == owner);\r\n        _;\r\n    }\r\n\r\n    // Purpose  : Fallback Function\r\n    function() public payable {\r\n        if (msg.value > 0) {\r\n            emit DepositFiles(msg.sender, msg.value);\r\n            emit BalanceFiles(address(this).balance);\r\n        }\r\n    }\r\n\r\n    // Purpose  : For the owner to withdraw some funds.\r\n    function withdraw(uint _amount) public onlyOwner {\r\n        require(address(this).balance > 0);\r\n        require(_amount > 0);\r\n        require(address(this).balance >= _amount);\r\n        address(msg.sender).transfer(_amount);\r\n        emit WithdrawFiles(msg.sender, _amount);\r\n        emit BalanceFiles(address(this).balance);\r\n    }\r\n\r\n    // Purpose  : To hold add a credential to the list of available credentials\r\n    // Note     : Only agencies and users can upload files.  The file can be updated to\r\n    //            include a userSubmissionId when it is attached to a UserSubmission.\r\n    function addFile(string _name, string _url, string _pirlFileHash, uint _userId, uint _agencyId) public {\r\n        //require(_agencyId > 0 || _userId > 0);\r\n        files.push(File(\r\n            stringToBytes32(_name), \r\n            stringToBytes32(_url),\r\n            stringToBytes32(_pirlFileHash),\r\n            true,\r\n            _userId,\r\n            0, \r\n            _agencyId))-1;\r\n\r\n        uint id = files.length-1;\r\n        if (utfStringLength(_pirlFileHash) > 1)\r\n           fileIdByHash[stringToBytes32(_pirlFileHash)] = id;\r\n        if (_userId > 0)\r\n           fileCountByUserId[_userId] = fileCountByUserId[_userId] += 1;\r\n        if (_agencyId > 0) {\r\n            fileCountByAgencyId[_agencyId] = fileCountByAgencyId[_agencyId] += 1;\r\n        }\r\n\r\n        emit NewFile(\r\n            _name, \r\n            _url,\r\n            _pirlFileHash,\r\n            true,\r\n            _userId,\r\n            0, \r\n            _agencyId\r\n        );\r\n    }\r\n\r\n    // Purpose  : To update file info.  For the most part, this will be called to:\r\n    //            Put a hash, once that becomes available.\r\n    //            Put a UserSubmissionId to link it to a submission.\r\n    function updateFileById(\r\n        uint _fileId, \r\n        string _name, \r\n        string _url, \r\n        string _pirlFileHash, \r\n        bool _isActive, \r\n        uint _userId, \r\n        uint _userSubmissionId, \r\n        uint _agencyId) public {\r\n\r\n        require(_fileId > 0 && _fileId < files.length);\r\n        require(_userId > 0 || _agencyId > 0);\r\n        require((files[_fileId].userId == _userId) || (files[_fileId].agencyId == _agencyId));\r\n        \r\n        if (files[_fileId].userSubmissionId == 0 && _userSubmissionId > 0)\r\n           fileCountByUserSubmissionId[_userSubmissionId] = fileCountByUserSubmissionId[_userSubmissionId] += 1;\r\n\r\n        files[_fileId].name = stringToBytes32(_name);\r\n        files[_fileId].url = stringToBytes32(_url);\r\n        files[_fileId].pirlFileHash = stringToBytes32(_pirlFileHash);\r\n        files[_fileId].isActive = _isActive;\r\n        files[_fileId].userId = _userId;\r\n        files[_fileId].userSubmissionId = _userSubmissionId;\r\n\r\n        if (utfStringLength(_pirlFileHash) > 1)\r\n           fileIdByHash[stringToBytes32(_pirlFileHash)] = _fileId;\r\n\r\n        emit UpdateFile(\r\n            _name, \r\n            _url,\r\n            _pirlFileHash,\r\n            _isActive,\r\n            _userId,\r\n            _userSubmissionId,\r\n            _agencyId\r\n        );\r\n    }\r\n\r\n    // Purpose  : To retrieve a credential by the id\r\n    function getFileById(uint _id) public view returns (bytes32, bytes32, bytes32, bool, uint, uint, uint) {\r\n        require(_id < files.length);\r\n        return (files[_id].name, \r\n            files[_id].url, \r\n            files[_id].pirlFileHash, \r\n            files[_id].isActive, \r\n            files[_id].userId, \r\n            files[_id].userSubmissionId, \r\n            files[_id].agencyId); \r\n    }\r\n\r\n    function getFileListByAgencyId(uint _agencyId) public view returns (bytes32[], uint[]) {\r\n        bytes32[] memory  names = new bytes32[](fileCountByAgencyId[_agencyId]);\r\n        uint[] memory  ids = new uint[](fileCountByAgencyId[_agencyId]);\r\n        uint index = 0;\r\n        for (uint i = 0; i <= files.length-1; i++) {\r\n            if (files[i].agencyId == _agencyId) {\r\n                names[index] = files[i].name;\r\n                ids[index] = i;\r\n                index += 1;\r\n            }\r\n        }\r\n        return (names,ids);\r\n    }\r\n\r\n    function getFileListByUserId(uint _userId) public view returns (bytes32[], uint[]) {\r\n        bytes32[] memory  names = new bytes32[](fileCountByUserId[_userId]);\r\n        uint[] memory  ids = new uint[](fileCountByUserId[_userId]);\r\n        uint index = 0;\r\n        for (uint i = 0; i <= files.length-1; i++) {\r\n            if (files[i].userId == _userId) {\r\n                names[index] = files[i].name;\r\n                ids[index] = i;\r\n                index += 1;\r\n            }\r\n        }\r\n        return (names,ids);\r\n    }\r\n\r\n    function getFileListByUserSubmissionId(uint _userSubmissionId) public view returns (bytes32[], uint[]) {\r\n        bytes32[] memory  names = new bytes32[](fileCountByUserSubmissionId[_userSubmissionId]);\r\n        uint[] memory  ids = new uint[](fileCountByUserSubmissionId[_userSubmissionId]);\r\n        uint index = 0;\r\n        for (uint i = 0; i <= files.length-1; i++) {\r\n            if (files[i].userId == _userSubmissionId) {\r\n                names[index] = files[i].name;\r\n                ids[index] = i;\r\n                index += 1;\r\n            }\r\n        }\r\n        return (names,ids);\r\n    }\r\n\r\n    function utfStringLength(string str) pure internal\r\n    returns (uint length)\r\n    {\r\n        uint i=0;\r\n        bytes memory string_rep = bytes(str);\r\n\r\n        while (i<string_rep.length)\r\n        {\r\n            if (string_rep[i]>>7==0)\r\n                i+=1;\r\n            else if (string_rep[i]>>5==0x6)\r\n                i+=2;\r\n            else if (string_rep[i]>>4==0xE)\r\n                i+=3;\r\n            else if (string_rep[i]>>3==0x1E)\r\n                i+=4;\r\n            else\r\n                //For safety\r\n                i+=1;\r\n\r\n            length++;\r\n        }\r\n    }\r\n\r\n    function stringToBytes32(string memory source) internal pure returns (bytes32 result) {\r\n        bytes memory tempEmptyStringTest = bytes(source);\r\n        if (tempEmptyStringTest.length == 0) {\r\n            return 0x0;\r\n        }\r\n        assembly {result := mload(add(source, 32))}\r\n    }\r\n\r\n    // Purpsoe  : Owners with draw all pirl from contract.  Shutting contract down.\r\n    function destroy() public onlyOwner {\r\n        withdraw(address(this).balance);\r\n    }\r\n\r\n}",
  "sourcePath": "D:\\GitHub\\pirl-project01\\truffle\\contracts\\Files.sol",
  "compiler": {
    "name": "solc",
    "version": "0.4.23+commit.124ca40d.Emscripten.clang"
  },
  "schemaVersion": "2.0.0",
  "updatedAt": "2018-05-22T02:36:53.212Z"
}