{
  "contractName": "MicroCredential",
  "abi": [
    {
      "constant": true,
      "inputs": [
        {
          "name": "_email",
          "type": "string"
        }
      ],
      "name": "getUserByEmail",
      "outputs": [
        {
          "name": "",
          "type": "bytes32"
        },
        {
          "name": "",
          "type": "bytes32"
        },
        {
          "name": "",
          "type": "bytes32"
        },
        {
          "name": "",
          "type": "bool"
        },
        {
          "name": "",
          "type": "uint256"
        }
      ],
      "payable": false,
      "stateMutability": "view",
      "type": "function"
    },
    {
      "constant": false,
      "inputs": [
        {
          "name": "_fileId",
          "type": "uint256"
        },
        {
          "name": "_name",
          "type": "string"
        },
        {
          "name": "_url",
          "type": "string"
        },
        {
          "name": "_pirlFileHash",
          "type": "string"
        },
        {
          "name": "_isActive",
          "type": "bool"
        },
        {
          "name": "_userId",
          "type": "uint256"
        },
        {
          "name": "_userSubmissionId",
          "type": "uint256"
        },
        {
          "name": "_agencyId",
          "type": "uint256"
        }
      ],
      "name": "updateFile",
      "outputs": [],
      "payable": false,
      "stateMutability": "nonpayable",
      "type": "function"
    },
    {
      "constant": true,
      "inputs": [
        {
          "name": "_userId",
          "type": "uint256"
        }
      ],
      "name": "getFileListByUserId",
      "outputs": [
        {
          "name": "",
          "type": "bytes32[]"
        },
        {
          "name": "",
          "type": "uint256[]"
        }
      ],
      "payable": false,
      "stateMutability": "view",
      "type": "function"
    },
    {
      "constant": true,
      "inputs": [],
      "name": "getMyId",
      "outputs": [
        {
          "name": "",
          "type": "uint256"
        }
      ],
      "payable": false,
      "stateMutability": "view",
      "type": "function"
    },
    {
      "constant": false,
      "inputs": [
        {
          "name": "_name",
          "type": "string"
        },
        {
          "name": "_url",
          "type": "string"
        },
        {
          "name": "_fee",
          "type": "uint256"
        },
        {
          "name": "_agencyId",
          "type": "uint256"
        }
      ],
      "name": "addCredential",
      "outputs": [],
      "payable": false,
      "stateMutability": "nonpayable",
      "type": "function"
    },
    {
      "constant": true,
      "inputs": [
        {
          "name": "",
          "type": "uint256"
        }
      ],
      "name": "users",
      "outputs": [
        {
          "name": "firstName",
          "type": "bytes32"
        },
        {
          "name": "lastName",
          "type": "bytes32"
        },
        {
          "name": "email",
          "type": "bytes32"
        },
        {
          "name": "isActive",
          "type": "bool"
        }
      ],
      "payable": false,
      "stateMutability": "view",
      "type": "function"
    },
    {
      "constant": true,
      "inputs": [
        {
          "name": "",
          "type": "uint256"
        }
      ],
      "name": "agencies",
      "outputs": [
        {
          "name": "agencyName",
          "type": "bytes32"
        },
        {
          "name": "website",
          "type": "bytes32"
        },
        {
          "name": "firstName",
          "type": "bytes32"
        },
        {
          "name": "lastName",
          "type": "bytes32"
        },
        {
          "name": "email",
          "type": "bytes32"
        },
        {
          "name": "isActive",
          "type": "bool"
        },
        {
          "name": "exists",
          "type": "bool"
        }
      ],
      "payable": false,
      "stateMutability": "view",
      "type": "function"
    },
    {
      "constant": true,
      "inputs": [
        {
          "name": "_id",
          "type": "uint256"
        }
      ],
      "name": "getCredentialById",
      "outputs": [
        {
          "name": "name",
          "type": "bytes32"
        },
        {
          "name": "url",
          "type": "bytes32"
        },
        {
          "name": "fee",
          "type": "uint256"
        }
      ],
      "payable": false,
      "stateMutability": "view",
      "type": "function"
    },
    {
      "constant": false,
      "inputs": [
        {
          "name": "_firstName",
          "type": "string"
        },
        {
          "name": "_lastName",
          "type": "string"
        },
        {
          "name": "_email",
          "type": "string"
        }
      ],
      "name": "updateUser",
      "outputs": [],
      "payable": false,
      "stateMutability": "nonpayable",
      "type": "function"
    },
    {
      "constant": true,
      "inputs": [
        {
          "name": "_address",
          "type": "address"
        }
      ],
      "name": "getUserByAddress",
      "outputs": [
        {
          "name": "",
          "type": "bytes32"
        },
        {
          "name": "",
          "type": "bytes32"
        },
        {
          "name": "",
          "type": "bytes32"
        },
        {
          "name": "",
          "type": "bool"
        },
        {
          "name": "",
          "type": "uint256"
        }
      ],
      "payable": false,
      "stateMutability": "view",
      "type": "function"
    },
    {
      "constant": true,
      "inputs": [
        {
          "name": "_id",
          "type": "uint256"
        }
      ],
      "name": "getUserById",
      "outputs": [
        {
          "name": "",
          "type": "bytes32"
        },
        {
          "name": "",
          "type": "bytes32"
        },
        {
          "name": "",
          "type": "bytes32"
        },
        {
          "name": "",
          "type": "bool"
        },
        {
          "name": "",
          "type": "uint256"
        }
      ],
      "payable": false,
      "stateMutability": "view",
      "type": "function"
    },
    {
      "constant": true,
      "inputs": [
        {
          "name": "_agencyId",
          "type": "uint256"
        }
      ],
      "name": "getFileListByAgencyId",
      "outputs": [
        {
          "name": "",
          "type": "bytes32[]"
        },
        {
          "name": "",
          "type": "uint256[]"
        }
      ],
      "payable": false,
      "stateMutability": "view",
      "type": "function"
    },
    {
      "constant": true,
      "inputs": [
        {
          "name": "_email",
          "type": "string"
        }
      ],
      "name": "getIdByEmail",
      "outputs": [
        {
          "name": "",
          "type": "uint256"
        }
      ],
      "payable": false,
      "stateMutability": "view",
      "type": "function"
    },
    {
      "constant": true,
      "inputs": [],
      "name": "owner",
      "outputs": [
        {
          "name": "",
          "type": "address"
        }
      ],
      "payable": false,
      "stateMutability": "view",
      "type": "function"
    },
    {
      "constant": false,
      "inputs": [
        {
          "name": "_firstName",
          "type": "string"
        },
        {
          "name": "_lastName",
          "type": "string"
        },
        {
          "name": "_email",
          "type": "string"
        }
      ],
      "name": "addUser",
      "outputs": [],
      "payable": false,
      "stateMutability": "nonpayable",
      "type": "function"
    },
    {
      "constant": true,
      "inputs": [
        {
          "name": "_userSubmissionId",
          "type": "uint256"
        }
      ],
      "name": "getFileListByUserSubmissionId",
      "outputs": [
        {
          "name": "",
          "type": "bytes32[]"
        },
        {
          "name": "",
          "type": "uint256[]"
        }
      ],
      "payable": false,
      "stateMutability": "view",
      "type": "function"
    },
    {
      "constant": true,
      "inputs": [],
      "name": "getUserList",
      "outputs": [
        {
          "name": "",
          "type": "bytes32[]"
        },
        {
          "name": "",
          "type": "bytes32[]"
        },
        {
          "name": "",
          "type": "bytes32[]"
        },
        {
          "name": "",
          "type": "bool[]"
        }
      ],
      "payable": false,
      "stateMutability": "view",
      "type": "function"
    },
    {
      "constant": false,
      "inputs": [
        {
          "name": "_name",
          "type": "string"
        },
        {
          "name": "_url",
          "type": "string"
        },
        {
          "name": "_pirlFileHash",
          "type": "string"
        },
        {
          "name": "_userId",
          "type": "uint256"
        },
        {
          "name": "_agencyId",
          "type": "uint256"
        }
      ],
      "name": "addFile",
      "outputs": [],
      "payable": false,
      "stateMutability": "nonpayable",
      "type": "function"
    },
    {
      "constant": true,
      "inputs": [
        {
          "name": "_address",
          "type": "address"
        }
      ],
      "name": "addressIsUser",
      "outputs": [
        {
          "name": "",
          "type": "bool"
        }
      ],
      "payable": false,
      "stateMutability": "view",
      "type": "function"
    },
    {
      "constant": true,
      "inputs": [
        {
          "name": "_address",
          "type": "address"
        }
      ],
      "name": "getIdByAddress",
      "outputs": [
        {
          "name": "",
          "type": "uint256"
        }
      ],
      "payable": false,
      "stateMutability": "view",
      "type": "function"
    },
    {
      "constant": true,
      "inputs": [
        {
          "name": "",
          "type": "uint256"
        }
      ],
      "name": "credentials",
      "outputs": [
        {
          "name": "name",
          "type": "bytes32"
        },
        {
          "name": "url",
          "type": "bytes32"
        },
        {
          "name": "isActive",
          "type": "bool"
        },
        {
          "name": "fee",
          "type": "uint256"
        },
        {
          "name": "agencyId",
          "type": "uint256"
        }
      ],
      "payable": false,
      "stateMutability": "view",
      "type": "function"
    },
    {
      "constant": true,
      "inputs": [
        {
          "name": "_id",
          "type": "uint256"
        }
      ],
      "name": "getFileById",
      "outputs": [
        {
          "name": "",
          "type": "bytes32"
        },
        {
          "name": "",
          "type": "bytes32"
        },
        {
          "name": "",
          "type": "bytes32"
        },
        {
          "name": "",
          "type": "bool"
        },
        {
          "name": "",
          "type": "uint256"
        },
        {
          "name": "",
          "type": "uint256"
        }
      ],
      "payable": false,
      "stateMutability": "view",
      "type": "function"
    },
    {
      "constant": false,
      "inputs": [
        {
          "name": "newOwner",
          "type": "address"
        }
      ],
      "name": "transferOwnership",
      "outputs": [],
      "payable": false,
      "stateMutability": "nonpayable",
      "type": "function"
    },
    {
      "constant": true,
      "inputs": [
        {
          "name": "",
          "type": "uint256"
        }
      ],
      "name": "files",
      "outputs": [
        {
          "name": "name",
          "type": "bytes32"
        },
        {
          "name": "url",
          "type": "bytes32"
        },
        {
          "name": "pirlFileHash",
          "type": "bytes32"
        },
        {
          "name": "isActive",
          "type": "bool"
        },
        {
          "name": "userId",
          "type": "uint256"
        },
        {
          "name": "userSubmissionId",
          "type": "uint256"
        },
        {
          "name": "agencyId",
          "type": "uint256"
        }
      ],
      "payable": false,
      "stateMutability": "view",
      "type": "function"
    },
    {
      "constant": true,
      "inputs": [
        {
          "name": "_agencyId",
          "type": "uint256"
        }
      ],
      "name": "getCredentialListByAgencyId",
      "outputs": [
        {
          "name": "",
          "type": "bytes32[]"
        },
        {
          "name": "",
          "type": "uint256[]"
        }
      ],
      "payable": false,
      "stateMutability": "view",
      "type": "function"
    },
    {
      "inputs": [],
      "payable": false,
      "stateMutability": "nonpayable",
      "type": "constructor"
    },
    {
      "payable": true,
      "stateMutability": "payable",
      "type": "fallback"
    },
    {
      "anonymous": false,
      "inputs": [
        {
          "indexed": false,
          "name": "_from",
          "type": "address"
        },
        {
          "indexed": false,
          "name": "value",
          "type": "uint256"
        }
      ],
      "name": "Deposit",
      "type": "event"
    },
    {
      "anonymous": false,
      "inputs": [
        {
          "indexed": false,
          "name": "_to",
          "type": "address"
        },
        {
          "indexed": false,
          "name": "_amount",
          "type": "uint256"
        }
      ],
      "name": "Withdraw",
      "type": "event"
    },
    {
      "anonymous": false,
      "inputs": [
        {
          "indexed": false,
          "name": "_remainingBalance",
          "type": "uint256"
        }
      ],
      "name": "Balance",
      "type": "event"
    },
    {
      "anonymous": false,
      "inputs": [
        {
          "indexed": false,
          "name": "name",
          "type": "bytes32"
        },
        {
          "indexed": false,
          "name": "url",
          "type": "bytes32"
        },
        {
          "indexed": false,
          "name": "pirlFileHash",
          "type": "bytes32"
        },
        {
          "indexed": false,
          "name": "isActive",
          "type": "bool"
        },
        {
          "indexed": false,
          "name": "userId",
          "type": "uint256"
        },
        {
          "indexed": false,
          "name": "userSubmissionId",
          "type": "uint256"
        },
        {
          "indexed": false,
          "name": "agencyId",
          "type": "uint256"
        }
      ],
      "name": "NewFile",
      "type": "event"
    },
    {
      "anonymous": false,
      "inputs": [
        {
          "indexed": false,
          "name": "name",
          "type": "bytes32"
        },
        {
          "indexed": false,
          "name": "url",
          "type": "bytes32"
        },
        {
          "indexed": false,
          "name": "pirlFileHash",
          "type": "bytes32"
        },
        {
          "indexed": false,
          "name": "isActive",
          "type": "bool"
        },
        {
          "indexed": false,
          "name": "userId",
          "type": "uint256"
        },
        {
          "indexed": false,
          "name": "userSubmissionId",
          "type": "uint256"
        },
        {
          "indexed": false,
          "name": "agencyId",
          "type": "uint256"
        }
      ],
      "name": "UpdateFile",
      "type": "event"
    },
    {
      "anonymous": false,
      "inputs": [
        {
          "indexed": false,
          "name": "id",
          "type": "uint256"
        },
        {
          "indexed": false,
          "name": "firstName",
          "type": "string"
        },
        {
          "indexed": false,
          "name": "lastName",
          "type": "string"
        },
        {
          "indexed": false,
          "name": "email",
          "type": "string"
        },
        {
          "indexed": false,
          "name": "userAddress",
          "type": "address"
        }
      ],
      "name": "NewUser",
      "type": "event"
    },
    {
      "anonymous": false,
      "inputs": [
        {
          "indexed": false,
          "name": "id",
          "type": "uint256"
        },
        {
          "indexed": false,
          "name": "firstName",
          "type": "string"
        },
        {
          "indexed": false,
          "name": "lastName",
          "type": "string"
        },
        {
          "indexed": false,
          "name": "email",
          "type": "string"
        },
        {
          "indexed": false,
          "name": "userAddress",
          "type": "address"
        }
      ],
      "name": "UpdateUser",
      "type": "event"
    },
    {
      "anonymous": false,
      "inputs": [
        {
          "indexed": false,
          "name": "name",
          "type": "bytes32"
        },
        {
          "indexed": false,
          "name": "url",
          "type": "bytes32"
        },
        {
          "indexed": false,
          "name": "isActive",
          "type": "bytes32"
        },
        {
          "indexed": false,
          "name": "fee",
          "type": "uint256"
        }
      ],
      "name": "NewCredential",
      "type": "event"
    },
    {
      "anonymous": false,
      "inputs": [
        {
          "indexed": true,
          "name": "previousOwner",
          "type": "address"
        },
        {
          "indexed": true,
          "name": "newOwner",
          "type": "address"
        }
      ],
      "name": "OwnershipTransferred",
      "type": "event"
    },
    {
      "constant": false,
      "inputs": [
        {
          "name": "_amount",
          "type": "uint256"
        }
      ],
      "name": "withdraw",
      "outputs": [],
      "payable": false,
      "stateMutability": "nonpayable",
      "type": "function"
    },
    {
      "constant": false,
      "inputs": [
        {
          "name": "_agencyName",
          "type": "string"
        },
        {
          "name": "_website",
          "type": "string"
        },
        {
          "name": "_firstName",
          "type": "string"
        },
        {
          "name": "_lastName",
          "type": "string"
        },
        {
          "name": "_email",
          "type": "string"
        }
      ],
      "name": "registerAgency",
      "outputs": [],
      "payable": true,
      "stateMutability": "payable",
      "type": "function"
    },
    {
      "constant": false,
      "inputs": [
        {
          "name": "_agencyName",
          "type": "string"
        },
        {
          "name": "_website",
          "type": "string"
        },
        {
          "name": "_firstName",
          "type": "string"
        },
        {
          "name": "_lastName",
          "type": "string"
        },
        {
          "name": "_email",
          "type": "string"
        }
      ],
      "name": "updateAgencyInfo",
      "outputs": [],
      "payable": false,
      "stateMutability": "nonpayable",
      "type": "function"
    },
    {
      "constant": true,
      "inputs": [],
      "name": "getAgencyCount",
      "outputs": [
        {
          "name": "",
          "type": "uint256"
        }
      ],
      "payable": false,
      "stateMutability": "view",
      "type": "function"
    },
    {
      "constant": true,
      "inputs": [
        {
          "name": "_agencyName",
          "type": "string"
        }
      ],
      "name": "getAgencyInfo",
      "outputs": [
        {
          "name": "",
          "type": "bytes32"
        },
        {
          "name": "",
          "type": "bytes32"
        },
        {
          "name": "",
          "type": "bytes32"
        },
        {
          "name": "",
          "type": "bytes32"
        },
        {
          "name": "",
          "type": "bytes32"
        },
        {
          "name": "",
          "type": "bool"
        },
        {
          "name": "",
          "type": "uint256"
        }
      ],
      "payable": false,
      "stateMutability": "view",
      "type": "function"
    },
    {
      "constant": true,
      "inputs": [
        {
          "name": "_address",
          "type": "address"
        }
      ],
      "name": "getAgencyInfoByAddress",
      "outputs": [
        {
          "name": "",
          "type": "bytes32"
        },
        {
          "name": "",
          "type": "bytes32"
        },
        {
          "name": "",
          "type": "bytes32"
        },
        {
          "name": "",
          "type": "bytes32"
        },
        {
          "name": "",
          "type": "bytes32"
        },
        {
          "name": "",
          "type": "bool"
        },
        {
          "name": "",
          "type": "uint256"
        }
      ],
      "payable": false,
      "stateMutability": "view",
      "type": "function"
    },
    {
      "constant": true,
      "inputs": [
        {
          "name": "_id",
          "type": "uint256"
        }
      ],
      "name": "getAgencyInfoById",
      "outputs": [
        {
          "name": "",
          "type": "bytes32"
        },
        {
          "name": "",
          "type": "bytes32"
        },
        {
          "name": "",
          "type": "bytes32"
        },
        {
          "name": "",
          "type": "bytes32"
        },
        {
          "name": "",
          "type": "bytes32"
        },
        {
          "name": "",
          "type": "bool"
        },
        {
          "name": "",
          "type": "uint256"
        }
      ],
      "payable": false,
      "stateMutability": "view",
      "type": "function"
    },
    {
      "constant": true,
      "inputs": [
        {
          "name": "_address",
          "type": "address"
        }
      ],
      "name": "getAgencyIdByAddress",
      "outputs": [
        {
          "name": "",
          "type": "uint256"
        }
      ],
      "payable": false,
      "stateMutability": "view",
      "type": "function"
    },
    {
      "constant": false,
      "inputs": [],
      "name": "setAgencyInactive",
      "outputs": [],
      "payable": false,
      "stateMutability": "nonpayable",
      "type": "function"
    },
    {
      "constant": false,
      "inputs": [],
      "name": "setAgencyActive",
      "outputs": [],
      "payable": false,
      "stateMutability": "nonpayable",
      "type": "function"
    },
    {
      "constant": true,
      "inputs": [],
      "name": "getContractBalance",
      "outputs": [
        {
          "name": "",
          "type": "uint256"
        }
      ],
      "payable": false,
      "stateMutability": "view",
      "type": "function"
    },
    {
      "constant": true,
      "inputs": [
        {
          "name": "_address",
          "type": "address"
        }
      ],
      "name": "addressIsAgency",
      "outputs": [
        {
          "name": "",
          "type": "bool"
        }
      ],
      "payable": false,
      "stateMutability": "view",
      "type": "function"
    },
    {
      "constant": true,
      "inputs": [],
      "name": "getAgencies",
      "outputs": [
        {
          "name": "",
          "type": "bytes32[]"
        },
        {
          "name": "",
          "type": "uint256[]"
        }
      ],
      "payable": false,
      "stateMutability": "view",
      "type": "function"
    },
    {
      "constant": false,
      "inputs": [],
      "name": "destroy",
      "outputs": [],
      "payable": false,
      "stateMutability": "nonpayable",
      "type": "function"
    }
  ],
  "bytecode": "0x608060405260006007556001600e5560006012553480156200002057600080fd5b50336000806101000a81548173ffffffffffffffffffffffffffffffffffffffff021916908373ffffffffffffffffffffffffffffffffffffffff160217905550620001886040805190810160405280600b81526020017f526f6f74204167656e63790000000000000000000000000000000000000000008152506040805190810160405280600e81526020017f687474703a2f2f7069726c2e696f0000000000000000000000000000000000008152506040805190810160405280600481526020017f4d696b65000000000000000000000000000000000000000000000000000000008152506040805190810160405280600681526020017f4d757270687900000000000000000000000000000000000000000000000000008152506040805190810160405280601481526020017f6d6d7572706879333834407961686f6f2e636f6d0000000000000000000000008152506200036b640100000000026401000000009004565b620002436040805190810160405280600481526020017f726f6f74000000000000000000000000000000000000000000000000000000008152506040805190810160405280600481526020017f75736572000000000000000000000000000000000000000000000000000000008152506040805190810160405280601481526020017f6d6d7572706879333834407961686f6f2e636f6d000000000000000000000000815250620005c1640100000000026401000000009004565b620002cc6040805190810160405280600f81526020017f726f6f742063726564656e7469616c00000000000000000000000000000000008152506040805190810160405280600e81526020017f687474703a2f2f7069726c2e696f00000000000000000000000000000000000081525060646000620009a8640100000000026401000000009004565b620003656040805190810160405280600e81526020017f726f6f742066696c65206e616d650000000000000000000000000000000000008152506040805190810160405280600e81526020017f687474703a2f2f7069726c2e696f000000000000000000000000000000000000815250602060405190810160405280600081525060008062000b55640100000000026401000000009004565b6200121d565b600080620003888762000e46640100000000026401000000009004565b1115156200039557600080fd5b600f60e060405190810160405280620003bd89620011f0640100000000026401000000009004565b600019168152602001620003e088620011f0640100000000026401000000009004565b6000191681526020016200040387620011f0640100000000026401000000009004565b6000191681526020016200042686620011f0640100000000026401000000009004565b6000191681526020016200044985620011f0640100000000026401000000009004565b6000191681526020016001151581526020016001151581525090806001815401808255809150509060018203906000526020600020906006020160009091929091909150600082015181600001906000191690556020820151816001019060001916905560408201518160020190600019169055606082015181600301906000191690556080820151816004019060001916905560a08201518160050160006101000a81548160ff02191690831515021790555060c08201518160050160016101000a81548160ff0219169083151502179055505050506001600f80549050039050600160126000828254019250508190555080601060006200055b89620011f0640100000000026401000000009004565b600019166000191681526020019081526020016000208190555080601160003373ffffffffffffffffffffffffffffffffffffffff1673ffffffffffffffffffffffffffffffffffffffff16815260200190815260200160002081905550505050505050565b60008060056000620005e285620011f0640100000000026401000000009004565b60001916600019168152602001908152602001600020541415156200060657600080fd5b6000600660003373ffffffffffffffffffffffffffffffffffffffff1673ffffffffffffffffffffffffffffffffffffffff168152602001908152602001600020541415156200065557600080fd5b60009050600160046080604051908101604052806200068388620011f0640100000000026401000000009004565b600019168152602001620006a687620011f0640100000000026401000000009004565b600019168152602001620006c986620011f0640100000000026401000000009004565b600019168152602001600115158152509080600181540180825580915050906001820390600052602060002090600402016000909192909190915060008201518160000190600019169055602082015181600101906000191690556040820151816002019060001916905560608201518160030160006101000a81548160ff021916908315150217905550505003905080600560006200077885620011f0640100000000026401000000009004565b600019166000191681526020019081526020016000208190555080600660003373ffffffffffffffffffffffffffffffffffffffff1673ffffffffffffffffffffffffffffffffffffffff1681526020019081526020016000208190555060016007600082825401925050819055507f023a8bc2c2a7585292c8d76a6c38d4001ebdb3df730965277bc4d0e94f2647518185858533604051808681526020018060200180602001806020018573ffffffffffffffffffffffffffffffffffffffff1673ffffffffffffffffffffffffffffffffffffffff168152602001848103845288818151815260200191508051906020019080838360005b838110156200088f57808201518184015260208101905062000872565b50505050905090810190601f168015620008bd5780820380516001836020036101000a031916815260200191505b50848103835287818151815260200191508051906020019080838360005b83811015620008f8578082015181840152602081019050620008db565b50505050905090810190601f168015620009265780820380516001836020036101000a031916815260200191505b50848103825286818151815260200191508051906020019080838360005b838110156200096157808201518184015260208101905062000944565b50505050905090810190601f1680156200098f5780820380516001836020036101000a031916815260200191505b509850505050505050505060405180910390a150505050565b60008060026000620009c988620011f0640100000000026401000000009004565b6000191660001916815260200190815260200160002054141515620009ed57600080fd5b6000905060018060a06040519081016040528062000a1a89620011f0640100000000026401000000009004565b60001916815260200162000a3d88620011f0640100000000026401000000009004565b6000191681526020016001151581526020018681526020018581525090806001815401808255809150509060018203906000526020600020906005020160009091929091909150600082015181600001906000191690556020820151816001019060001916905560408201518160020160006101000a81548160ff02191690831515021790555060608201518160030155608082015181600401555050039050806002600062000afc88620011f0640100000000026401000000009004565b600019166000191681526020019081526020016000208190555060016003600084815260200190815260200160002060008282540192505081905560036000848152602001908152602001600020819055505050505050565b60008090506001600860e06040519081016040528062000b848a620011f0640100000000026401000000009004565b60001916815260200162000ba789620011f0640100000000026401000000009004565b60001916815260200162000bca88620011f0640100000000026401000000009004565b60001916815260200160011515815260200186815260200160008152602001858152509080600181540180825580915050906001820390600052602060002090600702016000909192909190915060008201518160000190600019169055602082015181600101906000191690556040820151816002019060001916905560608201518160030160006101000a81548160ff0219169083151502179055506080820151816004015560a0820151816005015560c082015181600601555050039050600162000ca78562000e46640100000000026401000000009004565b111562000ce857806009600062000ccd87620011f0640100000000026401000000009004565b60001916600019168152602001908152602001600020819055505b600083111562000d2b576001600b6000848152602001908152602001600020600082825401925050819055600b6000858152602001908152602001600020819055505b600082111562000d6e576001600c6000848152602001908152602001600020600082825401925050819055600c6000848152602001908152602001600020819055505b7f9343fd175ec8befed5c0d717a69f365d0873f5a1eccab6199e23b40fdcefef6b62000da987620011f0640100000000026401000000009004565b62000dc387620011f0640100000000026401000000009004565b62000ddd87620011f0640100000000026401000000009004565b600187600088604051808860001916600019168152602001876000191660001916815260200186600019166000191681526020018515151515815260200184815260200183815260200182815260200197505050505050505060405180910390a1505050505050565b6000806060600091508390505b8051821015620011e95760007f0100000000000000000000000000000000000000000000000000000000000000026007828481518110151562000e9257fe5b9060200101517f010000000000000000000000000000000000000000000000000000000000000090047f0100000000000000000000000000000000000000000000000000000000000000027effffffffffffffffffffffffffffffffffffffffffffffffffffffffffffff19169060020a90047effffffffffffffffffffffffffffffffffffffffffffffffffffffffffffff1916141562000f3a57600182019150620011db565b60067f0100000000000000000000000000000000000000000000000000000000000000026005828481518110151562000f6f57fe5b9060200101517f010000000000000000000000000000000000000000000000000000000000000090047f0100000000000000000000000000000000000000000000000000000000000000027effffffffffffffffffffffffffffffffffffffffffffffffffffffffffffff19169060020a90047effffffffffffffffffffffffffffffffffffffffffffffffffffffffffffff191614156200101757600282019150620011da565b600e7f010000000000000000000000000000000000000000000000000000000000000002600482848151811015156200104c57fe5b9060200101517f010000000000000000000000000000000000000000000000000000000000000090047f0100000000000000000000000000000000000000000000000000000000000000027effffffffffffffffffffffffffffffffffffffffffffffffffffffffffffff19169060020a90047effffffffffffffffffffffffffffffffffffffffffffffffffffffffffffff19161415620010f457600382019150620011d9565b601e7f010000000000000000000000000000000000000000000000000000000000000002600382848151811015156200112957fe5b9060200101517f010000000000000000000000000000000000000000000000000000000000000090047f0100000000000000000000000000000000000000000000000000000000000000027effffffffffffffffffffffffffffffffffffffffffffffffffffffffffffff19169060020a90047effffffffffffffffffffffffffffffffffffffffffffffffffffffffffffff19161415620011d157600482019150620011d8565b6001820191505b5b5b5b828060010193505062000e53565b5050919050565b600060608290506000815114156200120f576000600102915062001217565b602083015191505b50919050565b614980806200122d6000396000f3006080604052600436106101e3576000357c0100000000000000000000000000000000000000000000000000000000900463ffffffff16806307c0d98c146102a857806318046ae11461035c578063202a2ef21461041157806326c69e7e1461053a57806327ed00ee146106045780632859b54a1461062f5780632916435b146106465780632c26eabc146106f35780632e1a7d4d1461074e5780632f98a9231461077b578063365b98b21461083e57806339b1c511146108b05780633c8d830d146109835780633ef39e2a14610a1e5780634923cc7514610a7d57806360903be614610ad457806369c212f614610bc95780636ed6da9e14610c585780636f9fb98a14610cd157806373c443ef14610cfc5780637843504214610d13578063794953bf14610ddd578063807d804514610e7457806383197ef014610ef15780638624c3ac14610f085780638da5cb5b14610f3357806395c5fed414610f8a578063a25fa5ba1461107f578063b366c5d214611149578063b8522043146112ca578063d999d2651461140e578063df97cda314611517578063dff3b49714611572578063e0574e3f146115c9578063e4e6025e1461163a578063eeef26dd146116ba578063f2fde38b1461182e578063f4c714b414611871578063f9406534146118f8575b60003411156102a6577fe1fffcc4923d04b559f4d29a8bfc6cda04eb5b0d3c460751c2402c5c5cc9109c3334604051808373ffffffffffffffffffffffffffffffffffffffff1673ffffffffffffffffffffffffffffffffffffffff1681526020018281526020019250505060405180910390a17fe8d947d7ebdd7b8b8fa2ad2022c7591418ac32d8c29c5f8a8fc9de52ffa540923073ffffffffffffffffffffffffffffffffffffffff16316040518082815260200191505060405180910390a15b005b3480156102b457600080fd5b506102bd6119c2565b604051808060200180602001838103835285818151815260200191508051906020019060200280838360005b838110156103045780820151818401526020810190506102e9565b50505050905001838103825284818151815260200191508051906020019060200280838360005b8381101561034657808201518184015260208101905061032b565b5050505090500194505050505060405180910390f35b34801561036857600080fd5b506103c3600480360381019080803590602001908201803590602001908080601f0160208091040260200160405190810160405280939291908181526020018383808284378201915050505050509192919290505050611b0e565b60405180866000191660001916815260200185600019166000191681526020018460001916600019168152602001831515151581526020018281526020019550505050505060405180910390f35b34801561041d57600080fd5b5061053860048036038101908080359060200190929190803590602001908201803590602001908080601f0160208091040260200160405190810160405280939291908181526020018383808284378201915050505050509192919290803590602001908201803590602001908080601f0160208091040260200160405190810160405280939291908181526020018383808284378201915050505050509192919290803590602001908201803590602001908080601f0160208091040260200160405190810160405280939291908181526020018383808284378201915050505050509192919290803515159060200190929190803590602001909291908035906020019092919080359060200190929190505050611c24565b005b34801561054657600080fd5b5061056560048036038101908080359060200190929190505050611f3c565b604051808060200180602001838103835285818151815260200191508051906020019060200280838360005b838110156105ac578082015181840152602081019050610591565b50505050905001838103825284818151815260200191508051906020019060200280838360005b838110156105ee5780820151818401526020810190506105d3565b5050505090500194505050505060405180910390f35b34801561061057600080fd5b50610619612098565b6040518082815260200191505060405180910390f35b34801561063b57600080fd5b5061064461212c565b005b34801561065257600080fd5b50610687600480360381019080803573ffffffffffffffffffffffffffffffffffffffff16906020019092919050505061224c565b60405180886000191660001916815260200187600019166000191681526020018660001916600019168152602001856000191660001916815260200184600019166000191681526020018315151515815260200182815260200197505050505050505060405180910390f35b3480156106ff57600080fd5b50610734600480360381019080803573ffffffffffffffffffffffffffffffffffffffff1690602001909291905050506122bd565b604051808215151515815260200191505060405180910390f35b34801561075a57600080fd5b506107796004803603810190808035906020019092919050505061230e565b005b34801561078757600080fd5b5061083c600480360381019080803590602001908201803590602001908080601f0160208091040260200160405190810160405280939291908181526020018383808284378201915050505050509192919290803590602001908201803590602001908080601f016020809104026020016040519081016040528093929190818152602001838380828437820191505050505050919291929080359060200190929190803590602001909291905050506124c7565b005b34801561084a57600080fd5b506108696004803603810190808035906020019092919050505061262f565b604051808560001916600019168152602001846000191660001916815260200183600019166000191681526020018215151515815260200194505050505060405180910390f35b3480156108bc57600080fd5b50610917600480360381019080803590602001908201803590602001908080601f016020809104026020016040519081016040528093929190818152602001838380828437820191505050505050919291929050505061267b565b60405180886000191660001916815260200187600019166000191681526020018660001916600019168152602001856000191660001916815260200184600019166000191681526020018315151515815260200182815260200197505050505050505060405180910390f35b34801561098f57600080fd5b506109ae600480360381019080803590602001909291905050506126e7565b6040518088600019166000191681526020018760001916600019168152602001866000191660001916815260200185600019166000191681526020018460001916600019168152602001831515151581526020018215151515815260200197505050505050505060405180910390f35b348015610a2a57600080fd5b50610a4960048036038101908080359060200190929190505050612752565b6040518084600019166000191681526020018360001916600019168152602001828152602001935050505060405180910390f35b348015610a8957600080fd5b50610abe600480360381019080803573ffffffffffffffffffffffffffffffffffffffff1690602001909291905050506127da565b6040518082815260200191505060405180910390f35b348015610ae057600080fd5b50610bc7600480360381019080803590602001908201803590602001908080601f0160208091040260200160405190810160405280939291908181526020018383808284378201915050505050509192919290803590602001908201803590602001908080601f0160208091040260200160405190810160405280939291908181526020018383808284378201915050505050509192919290803590602001908201803590602001908080601f0160208091040260200160405190810160405280939291908181526020018383808284378201915050505050509192919290505050612823565b005b348015610bd557600080fd5b50610c0a600480360381019080803573ffffffffffffffffffffffffffffffffffffffff169060200190929190505050612b7a565b60405180866000191660001916815260200185600019166000191681526020018460001916600019168152602001831515151581526020018281526020019550505050505060405180910390f35b348015610c6457600080fd5b50610c8360048036038101908080359060200190929190505050612ca9565b60405180866000191660001916815260200185600019166000191681526020018460001916600019168152602001831515151581526020018281526020019550505050505060405180910390f35b348015610cdd57600080fd5b50610ce6612d66565b6040518082815260200191505060405180910390f35b348015610d0857600080fd5b50610d11612de0565b005b348015610d1f57600080fd5b50610d3e60048036038101908080359060200190929190505050612f00565b604051808060200180602001838103835285818151815260200191508051906020019060200280838360005b83811015610d85578082015181840152602081019050610d6a565b50505050905001838103825284818151815260200191508051906020019060200280838360005b83811015610dc7578082015181840152602081019050610dac565b5050505090500194505050505060405180910390f35b348015610de957600080fd5b50610e086004803603810190808035906020019092919050505061305c565b60405180886000191660001916815260200187600019166000191681526020018660001916600019168152602001856000191660001916815260200184600019166000191681526020018315151515815260200182815260200197505050505050505060405180910390f35b348015610e8057600080fd5b50610edb600480360381019080803590602001908201803590602001908080601f0160208091040260200160405190810160405280939291908181526020018383808284378201915050505050509192919290505050613182565b6040518082815260200191505060405180910390f35b348015610efd57600080fd5b50610f066131f7565b005b348015610f1457600080fd5b50610f1d613274565b6040518082815260200191505060405180910390f35b348015610f3f57600080fd5b50610f4861327e565b604051808273ffffffffffffffffffffffffffffffffffffffff1673ffffffffffffffffffffffffffffffffffffffff16815260200191505060405180910390f35b348015610f9657600080fd5b5061107d600480360381019080803590602001908201803590602001908080601f0160208091040260200160405190810160405280939291908181526020018383808284378201915050505050509192919290803590602001908201803590602001908080601f0160208091040260200160405190810160405280939291908181526020018383808284378201915050505050509192919290803590602001908201803590602001908080601f01602080910402602001604051908101604052809392919081815260200183838082843782019150505050505091929192905050506132a3565b005b34801561108b57600080fd5b506110aa6004803603810190808035906020019092919050505061362a565b604051808060200180602001838103835285818151815260200191508051906020019060200280838360005b838110156110f15780820151818401526020810190506110d6565b50505050905001838103825284818151815260200191508051906020019060200280838360005b83811015611133578082015181840152602081019050611118565b5050505090500194505050505060405180910390f35b34801561115557600080fd5b506112c8600480360381019080803590602001908201803590602001908080601f0160208091040260200160405190810160405280939291908181526020018383808284378201915050505050509192919290803590602001908201803590602001908080601f0160208091040260200160405190810160405280939291908181526020018383808284378201915050505050509192919290803590602001908201803590602001908080601f0160208091040260200160405190810160405280939291908181526020018383808284378201915050505050509192919290803590602001908201803590602001908080601f0160208091040260200160405190810160405280939291908181526020018383808284378201915050505050509192919290803590602001908201803590602001908080601f0160208091040260200160405190810160405280939291908181526020018383808284378201915050505050509192919290505050613786565b005b3480156112d657600080fd5b506112df6139b7565b6040518080602001806020018060200180602001858103855289818151815260200191508051906020019060200280838360005b8381101561132e578082015181840152602081019050611313565b50505050905001858103845288818151815260200191508051906020019060200280838360005b83811015611370578082015181840152602081019050611355565b50505050905001858103835287818151815260200191508051906020019060200280838360005b838110156113b2578082015181840152602081019050611397565b50505050905001858103825286818151815260200191508051906020019060200280838360005b838110156113f45780820151818401526020810190506113d9565b505050509050019850505050505050505060405180910390f35b34801561141a57600080fd5b50611515600480360381019080803590602001908201803590602001908080601f0160208091040260200160405190810160405280939291908181526020018383808284378201915050505050509192919290803590602001908201803590602001908080601f0160208091040260200160405190810160405280939291908181526020018383808284378201915050505050509192919290803590602001908201803590602001908080601f01602080910402602001604051908101604052809392919081815260200183838082843782019150505050505091929192908035906020019092919080359060200190929190505050613bfe565b005b34801561152357600080fd5b50611558600480360381019080803573ffffffffffffffffffffffffffffffffffffffff169060200190929190505050613e64565b604051808215151515815260200191505060405180910390f35b34801561157e57600080fd5b506115b3600480360381019080803573ffffffffffffffffffffffffffffffffffffffff169060200190929190505050613eb5565b6040518082815260200191505060405180910390f35b3480156115d557600080fd5b506115f460048036038101908080359060200190929190505050613f4b565b6040518086600019166000191681526020018560001916600019168152602001841515151581526020018381526020018281526020019550505050505060405180910390f35b34801561164657600080fd5b5061166560048036038101908080359060200190929190505050613f9d565b6040518087600019166000191681526020018660001916600019168152602001856000191660001916815260200184151515158152602001838152602001828152602001965050505050505060405180910390f35b61182c600480360381019080803590602001908201803590602001908080601f0160208091040260200160405190810160405280939291908181526020018383808284378201915050505050509192919290803590602001908201803590602001908080601f0160208091040260200160405190810160405280939291908181526020018383808284378201915050505050509192919290803590602001908201803590602001908080601f0160208091040260200160405190810160405280939291908181526020018383808284378201915050505050509192919290803590602001908201803590602001908080601f0160208091040260200160405190810160405280939291908181526020018383808284378201915050505050509192919290803590602001908201803590602001908080601f01602080910402602001604051908101604052809392919081815260200183838082843782019150505050505091929192905050506140a1565b005b34801561183a57600080fd5b5061186f600480360381019080803573ffffffffffffffffffffffffffffffffffffffff16906020019092919050505061427f565b005b34801561187d57600080fd5b5061189c600480360381019080803590602001909291905050506143d4565b604051808860001916600019168152602001876000191660001916815260200186600019166000191681526020018515151515815260200184815260200183815260200182815260200197505050505050505060405180910390f35b34801561190457600080fd5b5061192360048036038101908080359060200190929190505050614432565b604051808060200180602001838103835285818151815260200191508051906020019060200280838360005b8381101561196a57808201518184015260208101905061194f565b50505050905001838103825284818151815260200191508051906020019060200280838360005b838110156119ac578082015181840152602081019050611991565b5050505090500194505050505060405180910390f35b606080606080600080600f80549050101515156119de57600080fd5b601254604051908082528060200260200182016040528015611a0f5781602001602082028038833980820191505090505b509250601254604051908082528060200260200182016040528015611a435781602001602082028038833980820191505090505b509150600090505b601254811015611b0157600f81815481101515611a6457fe5b9060005260206000209060060201600001548382815181101515611a8457fe5b90602001906020020190600019169081600019168152505060106000600f83815481101515611aaf57fe5b90600052602060002090600602016000015460001916600019168152602001908152602001600020548282815181101515611ae657fe5b90602001906020020181815250508080600101915050611a4b565b8282945094505050509091565b60008060008060008060056000611b248961458d565b600019166000191681526020019081526020016000205490506000600482815481101515611b4e57fe5b906000526020600020905050602060ff16111515611b6b57600080fd5b60048054905081101515611b7e57600080fd5b600481815481101515611b8d57fe5b906000526020600020906004020160000154600482815481101515611bae57fe5b906000526020600020906004020160010154600483815481101515611bcf57fe5b906000526020600020906004020160020154600484815481101515611bf057fe5b906000526020600020906004020160030160009054906101000a900460ff1684955095509550955095505091939590929450565b600088118015611c38575060088054905088105b1515611c4357600080fd5b6000831180611c525750600081115b1515611c5d57600080fd5b82600889815481101515611c6d57fe5b9060005260206000209060070201600401541480611caa575080600889815481101515611c9657fe5b906000526020600020906007020160060154145b1515611cb557600080fd5b6000600889815481101515611cc657fe5b906000526020600020906007020160050154148015611ce55750600082115b15611d23576001600d6000848152602001908152602001600020600082825401925050819055600d6000848152602001908152602001600020819055505b611d2c8761458d565b600889815481101515611d3b57fe5b90600052602060002090600702016000018160001916905550611d5d8661458d565b600889815481101515611d6c57fe5b90600052602060002090600702016001018160001916905550611d8e8561458d565b600889815481101515611d9d57fe5b9060005260206000209060070201600201816000191690555083600889815481101515611dc657fe5b906000526020600020906007020160030160006101000a81548160ff02191690831515021790555082600889815481101515611dfe57fe5b90600052602060002090600702016004018190555081600889815481101515611e2357fe5b90600052602060002090600702016005018190555080600889815481101515611e4857fe5b9060005260206000209060070201600601819055506001611e68866145b8565b1115611e97578760096000611e7c8861458d565b60001916600019168152602001908152602001600020819055505b7f0f65c9faf39732d7bbda918628bde99286b15b15600802bc001616af7348a023611ec18861458d565b611eca8861458d565b611ed38861458d565b87878787604051808860001916600019168152602001876000191660001916815260200186600019166000191681526020018515151515815260200184815260200183815260200182815260200197505050505050505060405180910390a15050505050505050565b606080606080600080600b600088815260200190815260200160002054604051908082528060200260200182016040528015611f875781602001602082028038833980820191505090505b509350600b600088815260200190815260200160002054604051908082528060200260200182016040528015611fcc5781602001602082028038833980820191505090505b50925060009150600090505b600160088054905003811115156120895786600882815481101515611ff957fe5b906000526020600020906007020160040154141561207c5760088181548110151561202057fe5b906000526020600020906007020160000154848381518110151561204057fe5b90602001906020020190600019169081600019168152505080838381518110151561206757fe5b90602001906020020181815250506001820191505b8080600101915050611fd8565b83839550955050505050915091565b600080600660003373ffffffffffffffffffffffffffffffffffffffff1673ffffffffffffffffffffffffffffffffffffffff168152602001908152602001600020541115156120e757600080fd5b600660003373ffffffffffffffffffffffffffffffffffffffff1673ffffffffffffffffffffffffffffffffffffffff16815260200190815260200160002054905090565b600080601160003373ffffffffffffffffffffffffffffffffffffffff1673ffffffffffffffffffffffffffffffffffffffff1681526020019081526020016000205490506001600f8281548110151561218257fe5b906000526020600020905050602060ff1611151561219f57600080fd5b601160003373ffffffffffffffffffffffffffffffffffffffff1673ffffffffffffffffffffffffffffffffffffffff1681526020019081526020016000205491506001600f838154811015156121f257fe5b906000526020600020905050602060ff1611151561220f57600080fd5b6000600f8381548110151561222057fe5b906000526020600020906006020160050160006101000a81548160ff0219169083151502179055505050565b600080600080600080600080601160008a73ffffffffffffffffffffffffffffffffffffffff1673ffffffffffffffffffffffffffffffffffffffff1681526020019081526020016000205490506122a38161305c565b975097509750975097509750975050919395979092949650565b600080601160008473ffffffffffffffffffffffffffffffffffffffff1673ffffffffffffffffffffffffffffffffffffffff16815260200190815260200160002054905060008111915050919050565b6000809054906101000a900473ffffffffffffffffffffffffffffffffffffffff1673ffffffffffffffffffffffffffffffffffffffff163373ffffffffffffffffffffffffffffffffffffffff1614151561236957600080fd5b60003073ffffffffffffffffffffffffffffffffffffffff163111151561238f57600080fd5b60008111151561239e57600080fd5b803073ffffffffffffffffffffffffffffffffffffffff1631101515156123c457600080fd5b3373ffffffffffffffffffffffffffffffffffffffff166108fc829081150290604051600060405180830381858888f1935050505015801561240a573d6000803e3d6000fd5b507f884edad9ce6fa2440d8a54cc123490eb96d2768479d49ff9c7366125a94243643382604051808373ffffffffffffffffffffffffffffffffffffffff1673ffffffffffffffffffffffffffffffffffffffff1681526020018281526020019250505060405180910390a17fe8d947d7ebdd7b8b8fa2ad2022c7591418ac32d8c29c5f8a8fc9de52ffa540923073ffffffffffffffffffffffffffffffffffffffff16316040518082815260200191505060405180910390a150565b600080600260006124d78861458d565b60001916600019168152602001908152602001600020541415156124fa57600080fd5b6000905060018060a0604051908101604052806125168961458d565b6000191681526020016125288861458d565b6000191681526020016001151581526020018681526020018581525090806001815401808255809150509060018203906000526020600020906005020160009091929091909150600082015181600001906000191690556020820151816001019060001916905560408201518160020160006101000a81548160ff0219169083151502179055506060820151816003015560808201518160040155505003905080600260006125d68861458d565b600019166000191681526020019081526020016000208190555060016003600084815260200190815260200160002060008282540192505081905560036000848152602001908152602001600020819055505050505050565b60048181548110151561263e57fe5b90600052602060002090600402016000915090508060000154908060010154908060020154908060030160009054906101000a900460ff16905084565b60008060008060008060008060006126928a6145b8565b11151561269e57600080fd5b601060006126ab8b61458d565b600019166000191681526020019081526020016000205490506126cd8161305c565b975097509750975097509750975050919395979092949650565b600f818154811015156126f657fe5b90600052602060002090600602016000915090508060000154908060010154908060020154908060030154908060040154908060050160009054906101000a900460ff16908060050160019054906101000a900460ff16905087565b60008060006001805490508410151561276a57600080fd5b60018481548110151561277957fe5b90600052602060002090600502016000015460018581548110151561279a57fe5b9060005260206000209060050201600101546001868154811015156127bb57fe5b9060005260206000209060050201600301549250925092509193909250565b6000601160008373ffffffffffffffffffffffffffffffffffffffff1673ffffffffffffffffffffffffffffffffffffffff168152602001908152602001600020549050919050565b600080600660003373ffffffffffffffffffffffffffffffffffffffff1673ffffffffffffffffffffffffffffffffffffffff168152602001908152602001600020549050600160048281548110151561287957fe5b906000526020600020905050602060ff1611151561289657600080fd5b6000600660003373ffffffffffffffffffffffffffffffffffffffff1673ffffffffffffffffffffffffffffffffffffffff168152602001908152602001600020541115156128e457600080fd5b60046128ef846145b8565b1115156128fb57600080fd5b61290433613eb5565b915061290f8561458d565b60048381548110151561291e57fe5b906000526020600020906004020160000181600019169055506129408461458d565b60048381548110151561294f57fe5b906000526020600020906004020160010181600019169055506129718361458d565b60048381548110151561298057fe5b9060005260206000209060040201600201816000191690555081600560006129a78661458d565b60001916600019168152602001908152602001600020819055507fd3923f0b3b1cec0036b68d0c3f17abc063fe21182d951342a1300cd3f98564dd8286868633604051808681526020018060200180602001806020018573ffffffffffffffffffffffffffffffffffffffff1673ffffffffffffffffffffffffffffffffffffffff168152602001848103845288818151815260200191508051906020019080838360005b83811015612a67578082015181840152602081019050612a4c565b50505050905090810190601f168015612a945780820380516001836020036101000a031916815260200191505b50848103835287818151815260200191508051906020019080838360005b83811015612acd578082015181840152602081019050612ab2565b50505050905090810190601f168015612afa5780820380516001836020036101000a031916815260200191505b50848103825286818151815260200191508051906020019080838360005b83811015612b33578082015181840152602081019050612b18565b50505050905090810190601f168015612b605780820380516001836020036101000a031916815260200191505b509850505050505050505060405180910390a15050505050565b600080600080600080600660008873ffffffffffffffffffffffffffffffffffffffff1673ffffffffffffffffffffffffffffffffffffffff1681526020019081526020016000205490506000600482815481101515612bd657fe5b906000526020600020905050602060ff16111515612bf357600080fd5b60075481101515612c0357600080fd5b600481815481101515612c1257fe5b906000526020600020906004020160000154600482815481101515612c3357fe5b906000526020600020906004020160010154600483815481101515612c5457fe5b906000526020600020906004020160020154600484815481101515612c7557fe5b906000526020600020906004020160030160009054906101000a900460ff1684955095509550955095505091939590929450565b600080600080600060075486101515612cc157600080fd5b600486815481101515612cd057fe5b906000526020600020906004020160000154600487815481101515612cf157fe5b906000526020600020906004020160010154600488815481101515612d1257fe5b906000526020600020906004020160020154600489815481101515612d3357fe5b906000526020600020906004020160030160009054906101000a900460ff16899450945094509450945091939590929450565b60008060009054906101000a900473ffffffffffffffffffffffffffffffffffffffff1673ffffffffffffffffffffffffffffffffffffffff163373ffffffffffffffffffffffffffffffffffffffff16141515612dc357600080fd5b3073ffffffffffffffffffffffffffffffffffffffff1631905090565b600080601160003373ffffffffffffffffffffffffffffffffffffffff1673ffffffffffffffffffffffffffffffffffffffff1681526020019081526020016000205490506001600f82815481101515612e3657fe5b906000526020600020905050602060ff16111515612e5357600080fd5b601160003373ffffffffffffffffffffffffffffffffffffffff1673ffffffffffffffffffffffffffffffffffffffff1681526020019081526020016000205491506001600f83815481101515612ea657fe5b906000526020600020905050602060ff16111515612ec357600080fd5b6001600f83815481101515612ed457fe5b906000526020600020906006020160050160006101000a81548160ff0219169083151502179055505050565b606080606080600080600c600088815260200190815260200160002054604051908082528060200260200182016040528015612f4b5781602001602082028038833980820191505090505b509350600c600088815260200190815260200160002054604051908082528060200260200182016040528015612f905781602001602082028038833980820191505090505b50925060009150600090505b6001600880549050038111151561304d5786600882815481101515612fbd57fe5b906000526020600020906007020160060154141561304057600881815481101515612fe457fe5b906000526020600020906007020160000154848381518110151561300457fe5b90602001906020020190600019169081600019168152505080838381518110151561302b57fe5b90602001906020020181815250506001820191505b8080600101915050612f9c565b83839550955050505050915091565b60008060008060008060006001600f8981548110151561307857fe5b906000526020600020905050602060ff1611151561309557600080fd5b600f888154811015156130a457fe5b906000526020600020906006020160000154600f898154811015156130c557fe5b906000526020600020906006020160010154600f8a8154811015156130e657fe5b906000526020600020906006020160020154600f8b81548110151561310757fe5b906000526020600020906006020160030154600f8c81548110151561312857fe5b906000526020600020906006020160040154600f8d81548110151561314957fe5b906000526020600020906006020160050160009054906101000a900460ff168d9650965096509650965096509650919395979092949650565b60008061318e836145b8565b11151561319a57600080fd5b6000600560006131a98561458d565b60001916600019168152602001908152602001600020541115156131cc57600080fd5b600560006131d98461458d565b60001916600019168152602001908152602001600020549050919050565b6000809054906101000a900473ffffffffffffffffffffffffffffffffffffffff1673ffffffffffffffffffffffffffffffffffffffff163373ffffffffffffffffffffffffffffffffffffffff1614151561325257600080fd5b6132723073ffffffffffffffffffffffffffffffffffffffff163161230e565b565b6000601254905090565b6000809054906101000a900473ffffffffffffffffffffffffffffffffffffffff1681565b600080600560006132b38561458d565b60001916600019168152602001908152602001600020541415156132d657600080fd5b6000600660003373ffffffffffffffffffffffffffffffffffffffff1673ffffffffffffffffffffffffffffffffffffffff1681526020019081526020016000205414151561332457600080fd5b60009050600160046080604051908101604052806133418861458d565b6000191681526020016133538761458d565b6000191681526020016133658661458d565b600019168152602001600115158152509080600181540180825580915050906001820390600052602060002090600402016000909192909190915060008201518160000190600019169055602082015181600101906000191690556040820151816002019060001916905560608201518160030160006101000a81548160ff021916908315150217905550505003905080600560006134038561458d565b600019166000191681526020019081526020016000208190555080600660003373ffffffffffffffffffffffffffffffffffffffff1673ffffffffffffffffffffffffffffffffffffffff1681526020019081526020016000208190555060016007600082825401925050819055507f023a8bc2c2a7585292c8d76a6c38d4001ebdb3df730965277bc4d0e94f2647518185858533604051808681526020018060200180602001806020018573ffffffffffffffffffffffffffffffffffffffff1673ffffffffffffffffffffffffffffffffffffffff168152602001848103845288818151815260200191508051906020019080838360005b838110156135185780820151818401526020810190506134fd565b50505050905090810190601f1680156135455780820380516001836020036101000a031916815260200191505b50848103835287818151815260200191508051906020019080838360005b8381101561357e578082015181840152602081019050613563565b50505050905090810190601f1680156135ab5780820380516001836020036101000a031916815260200191505b50848103825286818151815260200191508051906020019080838360005b838110156135e45780820151818401526020810190506135c9565b50505050905090810190601f1680156136115780820380516001836020036101000a031916815260200191505b509850505050505050505060405180910390a150505050565b606080606080600080600d6000888152602001908152602001600020546040519080825280602002602001820160405280156136755781602001602082028038833980820191505090505b509350600d6000888152602001908152602001600020546040519080825280602002602001820160405280156136ba5781602001602082028038833980820191505090505b50925060009150600090505b6001600880549050038111151561377757866008828154811015156136e757fe5b906000526020600020906007020160040154141561376a5760088181548110151561370e57fe5b906000526020600020906007020160000154848381518110151561372e57fe5b90602001906020020190600019169081600019168152505080838381518110151561375557fe5b90602001906020020181815250506001820191505b80806001019150506136c6565b83839550955050505050915091565b600080601160003373ffffffffffffffffffffffffffffffffffffffff1673ffffffffffffffffffffffffffffffffffffffff1681526020019081526020016000205490506001600f828154811015156137dc57fe5b906000526020600020905050602060ff161115156137f957600080fd5b6002613804886145b8565b11151561381057600080fd5b601160003373ffffffffffffffffffffffffffffffffffffffff1673ffffffffffffffffffffffffffffffffffffffff1681526020019081526020016000205491506001600f8381548110151561386357fe5b906000526020600020905050602060ff1611151561388057600080fd5b6138898761458d565b600f8381548110151561389857fe5b906000526020600020906006020160000181600019169055506138ba8661458d565b600f838154811015156138c957fe5b906000526020600020906006020160010181600019169055506138eb8561458d565b600f838154811015156138fa57fe5b9060005260206000209060060201600201816000191690555061391c8461458d565b600f8381548110151561392b57fe5b9060005260206000209060060201600301816000191690555061394d8361458d565b600f8381548110151561395c57fe5b906000526020600020906006020160040181600019169055506001600f8381548110151561398657fe5b906000526020600020906006020160050160006101000a81548160ff02191690831515021790555050505050505050565b606080606080606080606080600080600754101515156139d657600080fd5b600754604051908082528060200260200182016040528015613a075781602001602082028038833980820191505090505b509450600754604051908082528060200260200182016040528015613a3b5781602001602082028038833980820191505090505b509350600754604051908082528060200260200182016040528015613a6f5781602001602082028038833980820191505090505b509250600754604051908082528060200260200182016040528015613aa35781602001602082028038833980820191505090505b509150600090505b600754811015613be757600481815481101515613ac457fe5b9060005260206000209060040201600001548582815181101515613ae457fe5b906020019060200201906000191690816000191681525050600481815481101515613b0b57fe5b9060005260206000209060040201600101548482815181101515613b2b57fe5b906020019060200201906000191690816000191681525050600481815481101515613b5257fe5b9060005260206000209060040201600201548382815181101515613b7257fe5b906020019060200201906000191690816000191681525050600481815481101515613b9957fe5b906000526020600020906004020160030160009054906101000a900460ff168282815181101515613bc657fe5b90602001906020020190151590811515815250508080600101915050613aab565b848484849850985098509850505050505090919293565b60008090506001600860e060405190810160405280613c1c8a61458d565b600019168152602001613c2e8961458d565b600019168152602001613c408861458d565b60001916815260200160011515815260200186815260200160008152602001858152509080600181540180825580915050906001820390600052602060002090600702016000909192909190915060008201518160000190600019169055602082015181600101906000191690556040820151816002019060001916905560608201518160030160006101000a81548160ff0219169083151502179055506080820151816004015560a0820151816005015560c0820151816006015550500390506001613d0c856145b8565b1115613d3b578060096000613d208761458d565b60001916600019168152602001908152602001600020819055505b6000831115613d7d576001600b6000848152602001908152602001600020600082825401925050819055600b6000858152602001908152602001600020819055505b6000821115613dbf576001600c6000848152602001908152602001600020600082825401925050819055600c6000848152602001908152602001600020819055505b7f9343fd175ec8befed5c0d717a69f365d0873f5a1eccab6199e23b40fdcefef6b613de98761458d565b613df28761458d565b613dfb8761458d565b600187600088604051808860001916600019168152602001876000191660001916815260200186600019166000191681526020018515151515815260200184815260200183815260200182815260200197505050505050505060405180910390a1505050505050565b600080600660008473ffffffffffffffffffffffffffffffffffffffff1673ffffffffffffffffffffffffffffffffffffffff16815260200190815260200160002054905060008111915050919050565b600080600660008473ffffffffffffffffffffffffffffffffffffffff1673ffffffffffffffffffffffffffffffffffffffff16815260200190815260200160002054111515613f0457600080fd5b600660008373ffffffffffffffffffffffffffffffffffffffff1673ffffffffffffffffffffffffffffffffffffffff168152602001908152602001600020549050919050565b600181815481101515613f5a57fe5b90600052602060002090600502016000915090508060000154908060010154908060020160009054906101000a900460ff16908060030154908060040154905085565b60008060008060008060088054905087101515613fb957600080fd5b600887815481101515613fc857fe5b906000526020600020906007020160000154600888815481101515613fe957fe5b90600052602060002090600702016001015460088981548110151561400a57fe5b90600052602060002090600702016002015460088a81548110151561402b57fe5b906000526020600020906007020160030160009054906101000a900460ff1660088b81548110151561405957fe5b90600052602060002090600702016004015460088c81548110151561407a57fe5b90600052602060002090600702016006015495509550955095509550955091939550919395565b6000806140ad876145b8565b1115156140b957600080fd5b600f60e0604051908101604052806140d08961458d565b6000191681526020016140e28861458d565b6000191681526020016140f48761458d565b6000191681526020016141068661458d565b6000191681526020016141188561458d565b6000191681526020016001151581526020016001151581525090806001815401808255809150509060018203906000526020600020906006020160009091929091909150600082015181600001906000191690556020820151816001019060001916905560408201518160020190600019169055606082015181600301906000191690556080820151816004019060001916905560a08201518160050160006101000a81548160ff02191690831515021790555060c08201518160050160016101000a81548160ff0219169083151502179055505050506001600f80549050039050600160126000828254019250508190555080601060006142198961458d565b600019166000191681526020019081526020016000208190555080601160003373ffffffffffffffffffffffffffffffffffffffff1673ffffffffffffffffffffffffffffffffffffffff16815260200190815260200160002081905550505050505050565b6000809054906101000a900473ffffffffffffffffffffffffffffffffffffffff1673ffffffffffffffffffffffffffffffffffffffff163373ffffffffffffffffffffffffffffffffffffffff161415156142da57600080fd5b600073ffffffffffffffffffffffffffffffffffffffff168173ffffffffffffffffffffffffffffffffffffffff161415151561431657600080fd5b8073ffffffffffffffffffffffffffffffffffffffff166000809054906101000a900473ffffffffffffffffffffffffffffffffffffffff1673ffffffffffffffffffffffffffffffffffffffff167f8be0079c531659141344cd1fd0a4f28419497f9722a3daafe3b4186f6b6457e060405160405180910390a3806000806101000a81548173ffffffffffffffffffffffffffffffffffffffff021916908373ffffffffffffffffffffffffffffffffffffffff16021790555050565b6008818154811015156143e357fe5b90600052602060002090600702016000915090508060000154908060010154908060020154908060030160009054906101000a900460ff16908060040154908060050154908060060154905087565b606080606080600080600360008881526020019081526020016000205460405190808252806020026020018201604052801561447d5781602001602082028038833980820191505090505b50935060036000888152602001908152602001600020546040519080825280602002602001820160405280156144c25781602001602082028038833980820191505090505b50925060009150600090505b60018080549050038111151561457e57866001828154811015156144ee57fe5b90600052602060002090600502016004015414156145715760018181548110151561451557fe5b906000526020600020906005020160000154848381518110151561453557fe5b90602001906020020190600019169081600019168152505080838381518110151561455c57fe5b90602001906020020181815250506001820191505b80806001019150506144ce565b83839550955050505050915091565b600060608290506000815114156145aa57600060010291506145b2565b602083015191505b50919050565b6000806060600091508390505b805182101561494d5760007f0100000000000000000000000000000000000000000000000000000000000000026007828481518110151561460257fe5b9060200101517f010000000000000000000000000000000000000000000000000000000000000090047f0100000000000000000000000000000000000000000000000000000000000000027effffffffffffffffffffffffffffffffffffffffffffffffffffffffffffff19169060020a90047effffffffffffffffffffffffffffffffffffffffffffffffffffffffffffff191614156146a857600182019150614940565b60067f010000000000000000000000000000000000000000000000000000000000000002600582848151811015156146dc57fe5b9060200101517f010000000000000000000000000000000000000000000000000000000000000090047f0100000000000000000000000000000000000000000000000000000000000000027effffffffffffffffffffffffffffffffffffffffffffffffffffffffffffff19169060020a90047effffffffffffffffffffffffffffffffffffffffffffffffffffffffffffff191614156147825760028201915061493f565b600e7f010000000000000000000000000000000000000000000000000000000000000002600482848151811015156147b657fe5b9060200101517f010000000000000000000000000000000000000000000000000000000000000090047f0100000000000000000000000000000000000000000000000000000000000000027effffffffffffffffffffffffffffffffffffffffffffffffffffffffffffff19169060020a90047effffffffffffffffffffffffffffffffffffffffffffffffffffffffffffff1916141561485c5760038201915061493e565b601e7f0100000000000000000000000000000000000000000000000000000000000000026003828481518110151561489057fe5b9060200101517f010000000000000000000000000000000000000000000000000000000000000090047f0100000000000000000000000000000000000000000000000000000000000000027effffffffffffffffffffffffffffffffffffffffffffffffffffffffffffff19169060020a90047effffffffffffffffffffffffffffffffffffffffffffffffffffffffffffff191614156149365760048201915061493d565b6001820191505b5b5b5b82806001019350506145c5565b50509190505600a165627a7a7230582082951d6c8aa061a4df443afdb27cbd04fc84b27f106afd6742844952cc7270e90029",
  "source": "pragma solidity ^0.4.23;\r\n\r\nimport \"./Ownable.sol\";\r\nimport \"./Users.sol\";\r\nimport \"./Credentials.sol\";\r\nimport \"./Files.sol\";\r\n\r\ncontract MicroCredential is Ownable,Credentials,Users, Files {\r\n\r\n    // Events\r\n    event Deposit(address _from, uint value);\r\n    event Withdraw(address _to, uint _amount);\r\n    event Balance(uint _remainingBalance);\r\n\r\n    //  Make sure the address resolves a valid contract\r\n    modifier onlyAgencyOwner() {\r\n        uint id = agencyIdByAddress[msg.sender];\r\n        require(agencies[id].agencyName.length > 1);\r\n        _;\r\n    }\r\n\r\n    // variables and such\r\n    struct Agency {\r\n        bytes32 agencyName;\r\n        bytes32 website;\r\n        bytes32 firstName;\r\n        bytes32 lastName;\r\n        bytes32 email;\r\n        bool isActive;\r\n        bool exists;\r\n    }\r\n\r\n    // Mappings and Variables\r\n    uint version = 1;\r\n    Agency[] public agencies;\r\n    mapping(bytes32 => uint) internal agencyIdByName;\r\n    mapping(address => uint) internal agencyIdByAddress;\r\n    uint numAgencies = 0;\r\n\r\n    // What would I do in a constructor.  \r\n    constructor() public {\r\n        registerAgency(\"Root Agency\",\"http://pirl.io\",\"Mike\",\"Murphy\",\"mmurphy384@yahoo.com\");\r\n        addUser(\"root\",\"user\",\"mmurphy384@yahoo.com\");\r\n        addCredential(\"root credential\", \"http://pirl.io\", 100,0);\r\n        addFile(\"root file name\", \"http://pirl.io\",\"\",0,0);\r\n    }\r\n\r\n    // Purpose  : Fallback Function\r\n    function() public payable {\r\n        if (msg.value > 0) {\r\n            emit Deposit(msg.sender, msg.value);\r\n            emit Balance(address(this).balance);\r\n        }\r\n    }\r\n\r\n    // Purpose  : For the owner to withdraw some funds.\r\n    function withdraw(uint _amount) public onlyOwner {\r\n        require(address(this).balance > 0);\r\n        require(_amount > 0);\r\n        require(address(this).balance >= _amount);\r\n        address(msg.sender).transfer(_amount);\r\n        emit Withdraw(msg.sender, _amount);\r\n        emit Balance(address(this).balance);\r\n    }\r\n\r\n    // Purpose  : Need an 'iniitalize' because the first time, because it's public and payable.\r\n    //          : It needs to be payable or people will create these willy nilly.\r\n    function registerAgency(string _agencyName, string _website, string _firstName, string _lastName, string _email) \r\n        public payable { \r\n        require(utfStringLength(_agencyName) > 0);\r\n\r\n        agencies.push(Agency(\r\n            stringToBytes32(_agencyName), \r\n            stringToBytes32(_website),\r\n            stringToBytes32(_firstName),\r\n            stringToBytes32(_lastName),\r\n            stringToBytes32(_email),\r\n            true,\r\n            true)\r\n            );\r\n\r\n        uint id = agencies.length-1;\r\n        numAgencies += 1;\r\n        agencyIdByName[stringToBytes32(_agencyName)] = id;\r\n        agencyIdByAddress[msg.sender] = id;\r\n    }\r\n\r\n    // Purpose  : Set the agency basic info.  Can only by done by the agency owner \r\n    function updateAgencyInfo(string _agencyName, string _website, string _firstName, string _lastName, string _email) \r\n        public onlyAgencyOwner {\r\n        require(utfStringLength(_agencyName) > 2);\r\n        uint id = agencyIdByAddress[msg.sender];\r\n        require(agencies[id].agencyName.length > 1);\r\n        agencies[id].agencyName = stringToBytes32(_agencyName);\r\n        agencies[id].website = stringToBytes32(_website);\r\n        agencies[id].firstName = stringToBytes32(_firstName);\r\n        agencies[id].lastName = stringToBytes32(_lastName);\r\n        agencies[id].email = stringToBytes32(_email);\r\n        agencies[id].isActive = true;\r\n    }\r\n\r\n    // Purpose  : Get the agency basic info\r\n    function getAgencyCount() view public returns (uint) {\r\n        return numAgencies;\r\n    }\r\n\r\n    // Purpose  : Get the agency basic info\r\n    function getAgencyInfo(string _agencyName) view public returns (bytes32, bytes32, bytes32, bytes32, bytes32, bool, uint) {\r\n        require(utfStringLength(_agencyName) > 0);\r\n        uint id = agencyIdByName[stringToBytes32(_agencyName)];\r\n        return getAgencyInfoById(id);\r\n    }\r\n\r\n    // Purpose  : Get the agency basic info\r\n    function getAgencyInfoByAddress(address _address) view public returns (bytes32, bytes32, bytes32, bytes32, bytes32, bool, uint) {\r\n        uint id = agencyIdByAddress[_address];\r\n        return getAgencyInfoById(id);\r\n    }\r\n\r\n    // Purpose  : Get the agency basic info\r\n    function getAgencyInfoById(uint _id) view public returns (bytes32, bytes32, bytes32, bytes32, bytes32, bool, uint) {\r\n        require(agencies[_id].agencyName.length > 1);\r\n        return (\r\n            agencies[_id].agencyName, \r\n            agencies[_id].website, \r\n            agencies[_id].firstName, \r\n            agencies[_id].lastName, \r\n            agencies[_id].email, \r\n            agencies[_id].isActive,\r\n            _id);\r\n    }\r\n\r\n    // Purpose  : Get the agency basic info\r\n    function getAgencyIdByAddress(address _address) view public returns (uint) {\r\n        return agencyIdByAddress[_address];\r\n    }\r\n\r\n    // Purpose  : To Make the contract inactive and return funds to owner\r\n    function setAgencyInactive() public onlyAgencyOwner {\r\n        uint id = agencyIdByAddress[msg.sender];\r\n        require(agencies[id].agencyName.length > 1);\r\n        agencies[id].isActive = false;\r\n    }\r\n\r\n    // Purpose  : Used when an agency becomes active again\r\n    // To Do    : This will probably have to clear some queues, \r\n    //            reset credential statii, etc.\r\n    function setAgencyActive() public onlyAgencyOwner {\r\n        uint id = agencyIdByAddress[msg.sender];\r\n        require(agencies[id].agencyName.length > 1);\r\n        agencies[id].isActive = true;\r\n    }\r\n\r\n    // Purpose  : Get the contract balance\r\n    function getContractBalance() public onlyOwner view returns (uint) {\r\n        return address(this).balance;\r\n    }\r\n\r\n    // Purpose  : Determines if the address is an agency\r\n    function addressIsAgency(address _address) public view returns (bool) {\r\n        uint id = agencyIdByAddress[_address];\r\n        return (id > 0);\r\n    }\r\n\r\n    function getAgencies() public view returns (bytes32[], uint[]) {\r\n        require(agencies.length >= 0);\r\n        bytes32[] memory  agencyNames = new bytes32[](numAgencies);\r\n        uint[] memory  ids = new uint[](numAgencies);\r\n        for (uint i = 0; i < numAgencies; i++) {\r\n            agencyNames[i] = agencies[i].agencyName;\r\n            ids[i] = agencyIdByName[agencies[i].agencyName];\r\n        }\r\n        return (agencyNames, ids);\r\n    }\r\n\r\n    // Purpsoe  : Owners with draw all pirl from contract.  Shutting contract down.\r\n    function destroy() public onlyOwner {\r\n        withdraw(address(this).balance);\r\n    }\r\n\r\n}",
  "sourcePath": "D:\\GitHub\\pirl-project01\\truffle\\contracts\\MicroCredential.sol",
  "compiler": {
    "name": "solc",
    "version": "0.4.23+commit.124ca40d.Emscripten.clang"
  },
  "schemaVersion": "2.0.0",
  "updatedAt": "2018-05-19T17:40:54.848Z"
}