{
  "contractName": "MicroCredential",
  "abi": [
    {
      "inputs": [
        {
          "name": "_owner",
          "type": "address"
        }
      ],
      "payable": false,
      "stateMutability": "nonpayable",
      "type": "constructor"
    },
    {
      "anonymous": false,
      "inputs": [
        {
          "indexed": false,
          "name": "sender",
          "type": "address"
        },
        {
          "indexed": false,
          "name": "credentialNumber",
          "type": "uint256"
        }
      ],
      "name": "CredentialSubmitted",
      "type": "event"
    },
    {
      "anonymous": false,
      "inputs": [
        {
          "indexed": false,
          "name": "sender",
          "type": "address"
        },
        {
          "indexed": false,
          "name": "credentialNumber",
          "type": "uint256"
        }
      ],
      "name": "CredentialReceived",
      "type": "event"
    },
    {
      "constant": true,
      "inputs": [],
      "name": "getOwner",
      "outputs": [
        {
          "name": "",
          "type": "address"
        }
      ],
      "payable": false,
      "stateMutability": "view",
      "type": "function"
    },
    {
      "constant": true,
      "inputs": [],
      "name": "getCreator",
      "outputs": [
        {
          "name": "",
          "type": "address"
        }
      ],
      "payable": false,
      "stateMutability": "view",
      "type": "function"
    },
    {
      "constant": false,
      "inputs": [
        {
          "name": "cred",
          "type": "uint256"
        }
      ],
      "name": "submitMicroCredential",
      "outputs": [
        {
          "name": "",
          "type": "bool"
        }
      ],
      "payable": false,
      "stateMutability": "nonpayable",
      "type": "function"
    },
    {
      "constant": false,
      "inputs": [
        {
          "name": "name",
          "type": "bytes32"
        },
        {
          "name": "code",
          "type": "bytes32"
        },
        {
          "name": "requirements",
          "type": "bytes32"
        }
      ],
      "name": "createCredential",
      "outputs": [
        {
          "name": "",
          "type": "bool"
        }
      ],
      "payable": false,
      "stateMutability": "nonpayable",
      "type": "function"
    },
    {
      "constant": true,
      "inputs": [],
      "name": "getCredentialCount",
      "outputs": [
        {
          "name": "",
          "type": "uint256"
        }
      ],
      "payable": false,
      "stateMutability": "view",
      "type": "function"
    },
    {
      "constant": false,
      "inputs": [
        {
          "name": "cred",
          "type": "uint256"
        }
      ],
      "name": "disableCredential",
      "outputs": [
        {
          "name": "",
          "type": "bool"
        }
      ],
      "payable": false,
      "stateMutability": "nonpayable",
      "type": "function"
    },
    {
      "constant": false,
      "inputs": [
        {
          "name": "cred",
          "type": "uint256"
        }
      ],
      "name": "enableCredential",
      "outputs": [
        {
          "name": "",
          "type": "bool"
        }
      ],
      "payable": false,
      "stateMutability": "nonpayable",
      "type": "function"
    },
    {
      "constant": true,
      "inputs": [
        {
          "name": "_index",
          "type": "uint256"
        }
      ],
      "name": "credentialReceived",
      "outputs": [
        {
          "name": "",
          "type": "bool"
        }
      ],
      "payable": false,
      "stateMutability": "view",
      "type": "function"
    },
    {
      "constant": false,
      "inputs": [
        {
          "name": "index",
          "type": "uint256"
        }
      ],
      "name": "approveCredential",
      "outputs": [
        {
          "name": "",
          "type": "bool"
        }
      ],
      "payable": false,
      "stateMutability": "nonpayable",
      "type": "function"
    }
  ],
  "bytecode": "0x6060604052341561000f57600080fd5b604051602080610a358339810160405280805190602001909190505080600560006101000a81548173ffffffffffffffffffffffffffffffffffffffff021916908373ffffffffffffffffffffffffffffffffffffffff16021790555033600660006101000a81548173ffffffffffffffffffffffffffffffffffffffff021916908373ffffffffffffffffffffffffffffffffffffffff16021790555050610978806100bd6000396000f300606060405260043610610099576000357c0100000000000000000000000000000000000000000000000000000000900463ffffffff1680630ee2cb101461009e57806320ed2edb146100f357806342f7d3fb1461012e57806343ec9fb2146101695780635dd3d2b814610192578063893d20e8146101cd578063a304146e14610222578063acc795c31461025d578063b1ab245a14610298575b600080fd5b34156100a957600080fd5b6100b16102f1565b604051808273ffffffffffffffffffffffffffffffffffffffff1673ffffffffffffffffffffffffffffffffffffffff16815260200191505060405180910390f35b34156100fe57600080fd5b610114600480803590602001909190505061031b565b604051808215151515815260200191505060405180910390f35b341561013957600080fd5b61014f6004808035906020019091905050610452565b604051808215151515815260200191505060405180910390f35b341561017457600080fd5b61017c61051f565b6040518082815260200191505060405180910390f35b341561019d57600080fd5b6101b36004808035906020019091905050610588565b604051808215151515815260200191505060405180910390f35b34156101d857600080fd5b6101e0610637565b604051808273ffffffffffffffffffffffffffffffffffffffff1673ffffffffffffffffffffffffffffffffffffffff16815260200191505060405180910390f35b341561022d57600080fd5b6102436004808035906020019091905050610661565b604051808215151515815260200191505060405180910390f35b341561026857600080fd5b61027e60048080359060200190919050506106ca565b604051808215151515815260200191505060405180910390f35b34156102a357600080fd5b6102d76004808035600019169060200190919080356000191690602001909190803560001916906020019091905050610779565b604051808215151515815260200191505060405180910390f35b6000600660009054906101000a900473ffffffffffffffffffffffffffffffffffffffff16905090565b6000600560009054906101000a900473ffffffffffffffffffffffffffffffffffffffff1673ffffffffffffffffffffffffffffffffffffffff163373ffffffffffffffffffffffffffffffffffffffff1614151561037957600080fd5b6008805490508210151561038c57600080fd5b60088281548110151561039b57fe5b906000526020600020906006020160030160019054906101000a900460ff161515156103c657600080fd5b60016008838154811015156103d757fe5b906000526020600020906006020160030160016101000a81548160ff0219169083151502179055504360088381548110151561040f57fe5b9060005260206000209060060201600401819055504260088381548110151561043457fe5b90600052602060002090600602016005018190555060019050919050565b60006007805490508210151561046757600080fd5b6001151560078381548110151561047a57fe5b906000526020600020906004020160030160009054906101000a900460ff1615151415156104a757600080fd5b7f267106db54186fe2fb5c823fe43b36caaaa749cd24c93ed33494045a2a254cd033600160088054905003604051808373ffffffffffffffffffffffffffffffffffffffff1673ffffffffffffffffffffffffffffffffffffffff1681526020018281526020019250505060405180910390a1919050565b6000600560009054906101000a900473ffffffffffffffffffffffffffffffffffffffff1673ffffffffffffffffffffffffffffffffffffffff163373ffffffffffffffffffffffffffffffffffffffff1614151561057d57600080fd5b600780549050905090565b6000600560009054906101000a900473ffffffffffffffffffffffffffffffffffffffff1673ffffffffffffffffffffffffffffffffffffffff163373ffffffffffffffffffffffffffffffffffffffff161415156105e657600080fd5b600780549050821015156105f957600080fd5b600160078381548110151561060a57fe5b906000526020600020906004020160030160006101000a81548160ff021916908315150217905550919050565b6000600560009054906101000a900473ffffffffffffffffffffffffffffffffffffffff16905090565b6000600560009054906101000a900473ffffffffffffffffffffffffffffffffffffffff1673ffffffffffffffffffffffffffffffffffffffff163373ffffffffffffffffffffffffffffffffffffffff161415156106bf57600080fd5b600180149050919050565b6000600560009054906101000a900473ffffffffffffffffffffffffffffffffffffffff1673ffffffffffffffffffffffffffffffffffffffff163373ffffffffffffffffffffffffffffffffffffffff1614151561072857600080fd5b6007805490508210151561073b57600080fd5b600060078381548110151561074c57fe5b906000526020600020906004020160030160006101000a81548160ff021916908315150217905550919050565b600061078361089b565b600560009054906101000a900473ffffffffffffffffffffffffffffffffffffffff1673ffffffffffffffffffffffffffffffffffffffff163373ffffffffffffffffffffffffffffffffffffffff161415156107df57600080fd5b6080604051908101604052808660001916815260200185600019168152602001846000191681526020016001151581525090506007805480600101828161082691906108cf565b9160005260206000209060040201600083909190915060008201518160000190600019169055602082015181600101906000191690556040820151816002019060001916905560608201518160030160006101000a81548160ff02191690831515021790555050505060019150509392505050565b6080604051908101604052806000801916815260200160008019168152602001600080191681526020016000151581525090565b8154818355818115116108fc576004028160040283600052602060002091820191016108fb9190610901565b5b505050565b61094991905b8082111561094557600080820160009055600182016000905560028201600090556003820160006101000a81549060ff021916905550600401610907565b5090565b905600a165627a7a72305820b0947f3d52ce0920d5f02691d0bae6afd51ff73b384d9fe8d5367999c94cb4a00029",
  "source": "pragma solidity ^0.4.19;\r\n\r\n\r\ncontract MicroCredential  {\r\n\r\n    string nameOfAgency;\r\n    string agencyDescription;\r\n    string addressOfAgency;\r\n    string websiteOfAgency;\r\n    string emailOfAgency;\r\n    address owner;\r\n    address creator;\r\n\r\n    modifier onlyOwner() {\r\n        require(msg.sender == owner);\r\n        _;\r\n    }\r\n\r\n    //the type of credential, that the agency can define\r\n    struct Credential {\r\n        bytes32 name;\r\n        bytes32 code;\r\n        bytes32 requirements;\r\n        bool active;\r\n    }\r\n\r\n    //application for approving a credential, from an application and then approved by agency\r\n    struct CredentialApplication {\r\n        bytes32 requirements;\r\n        bytes32 name;\r\n        uint typeOfCredential;\r\n        bool received;\r\n        bool approved;\r\n        uint blockApproved;\r\n        uint timeApproved;\r\n    }\r\n\r\n    Credential[] credentialList;\r\n    CredentialApplication[] credentials;\r\n\r\n    event CredentialSubmitted(address sender, uint credentialNumber);\r\n    event CredentialReceived(address sender, uint credentialNumber);\r\n\r\n    function MicroCredential(address _owner) public {\r\n        owner = _owner;\r\n        creator = msg.sender;\r\n    }\r\n\r\n    function getOwner() constant public returns (address){\r\n        return owner;\r\n    }\r\n\r\n    function getCreator() constant public returns (address){\r\n        return creator;\r\n    }\r\n\r\n    //submit a micro credential for approval by agency\r\n    function submitMicroCredential(uint cred) public returns (bool){\r\n        require(cred<credentialList.length);\r\n        require(credentialList[cred].active == true);\r\n        //submitting a credential should include some documentation/photos, right?\r\n        //this could be a great usecase for the Pirl masternode system, namely the masternodes \r\n        //will store the files for a period of time, at least until the agency has fetched the data themselves\r\n        //after the data has been fetched from the (storage) masternodes, the owner should perhaps call a function\r\n        //called \"credentialReceived\", acknowledging that the credential application has been seen, data has been received\r\n        //and the process for approval is submitted\r\n\r\n        emit CredentialSubmitted(msg.sender,credentials.length-1);\r\n    }\r\n\r\n    //the agency creates a type of credential\r\n    function createCredential(bytes32 name, bytes32 code, bytes32 requirements) public onlyOwner returns (bool){\r\n        Credential memory cred = Credential(name,code,requirements,true);\r\n        credentialList.push(cred);\r\n        return true;\r\n    }\r\n\r\n    function getCredentialCount() public view onlyOwner() returns (uint) {\r\n        return credentialList.length;\r\n    }\r\n\r\n    //option to disable a credential\r\n    function disableCredential(uint cred) public onlyOwner returns (bool){\r\n        require(cred<credentialList.length);\r\n        credentialList[cred].active = false;\r\n    }\r\n\r\n    //option to enable a credential\r\n    function enableCredential(uint cred) public onlyOwner returns (bool){\r\n        require(cred<credentialList.length);\r\n        credentialList[cred].active = true;\r\n    }\r\n\r\n    //should be called by the agency when they have received the credential\r\n    //this function could be necessary if the supporting files are stored on storage masternodes\r\n    //the agency then calls this function when they have downloaded the files\r\n    function credentialReceived(uint _index) public constant onlyOwner returns (bool){\r\n        // TO DO:  Write it\r\n        return (1==1);\r\n    }\r\n\r\n\r\n    //function to approve a submitted credential\r\n    function approveCredential(uint index) public onlyOwner returns (bool) {\r\n        require(index<credentials.length);\r\n        require(!credentials[index].approved);\r\n        credentials[index].approved = true;\r\n        credentials[index].blockApproved = block.number;\r\n        credentials[index].timeApproved = block.timestamp;\r\n        return true;\r\n    }\r\n\r\n}\r\n",
  "sourcePath": "D:\\GitHub\\pirl-project01\\truffle\\contracts\\MicroCredential.sol",
  "compiler": {
    "name": "solc",
    "version": "0.4.21+commit.dfe3193c.Emscripten.clang"
  },
  "schemaVersion": "2.0.0",
  "updatedAt": "2018-04-25T02:13:03.539Z"
}