{
  "contractName": "MicroCredential",
  "abi": [
    {
      "constant": true,
      "inputs": [
        {
          "name": "_email",
          "type": "string"
        }
      ],
      "name": "getUserByEmail",
      "outputs": [
        {
          "name": "",
          "type": "bytes32"
        },
        {
          "name": "",
          "type": "bytes32"
        },
        {
          "name": "",
          "type": "bytes32"
        },
        {
          "name": "",
          "type": "bool"
        },
        {
          "name": "",
          "type": "uint256"
        }
      ],
      "payable": false,
      "stateMutability": "view",
      "type": "function"
    },
    {
      "constant": false,
      "inputs": [],
      "name": "getMyId",
      "outputs": [
        {
          "name": "",
          "type": "uint256"
        }
      ],
      "payable": false,
      "stateMutability": "nonpayable",
      "type": "function"
    },
    {
      "constant": false,
      "inputs": [
        {
          "name": "_name",
          "type": "string"
        },
        {
          "name": "_url",
          "type": "string"
        },
        {
          "name": "_fee",
          "type": "uint256"
        }
      ],
      "name": "addCredential",
      "outputs": [
        {
          "name": "",
          "type": "uint256"
        }
      ],
      "payable": false,
      "stateMutability": "nonpayable",
      "type": "function"
    },
    {
      "constant": true,
      "inputs": [
        {
          "name": "",
          "type": "uint256"
        }
      ],
      "name": "users",
      "outputs": [
        {
          "name": "firstName",
          "type": "bytes32"
        },
        {
          "name": "lastName",
          "type": "bytes32"
        },
        {
          "name": "email",
          "type": "bytes32"
        },
        {
          "name": "isActive",
          "type": "bool"
        }
      ],
      "payable": false,
      "stateMutability": "view",
      "type": "function"
    },
    {
      "constant": true,
      "inputs": [
        {
          "name": "",
          "type": "uint256"
        }
      ],
      "name": "agencies",
      "outputs": [
        {
          "name": "agencyName",
          "type": "bytes32"
        },
        {
          "name": "website",
          "type": "bytes32"
        },
        {
          "name": "email",
          "type": "bytes32"
        },
        {
          "name": "isActive",
          "type": "bool"
        }
      ],
      "payable": false,
      "stateMutability": "view",
      "type": "function"
    },
    {
      "constant": true,
      "inputs": [
        {
          "name": "_id",
          "type": "uint256"
        }
      ],
      "name": "getCredentialById",
      "outputs": [
        {
          "name": "name",
          "type": "bytes32"
        },
        {
          "name": "url",
          "type": "bytes32"
        },
        {
          "name": "fee",
          "type": "uint256"
        }
      ],
      "payable": false,
      "stateMutability": "view",
      "type": "function"
    },
    {
      "constant": true,
      "inputs": [
        {
          "name": "_address",
          "type": "address"
        }
      ],
      "name": "getUserByAddress",
      "outputs": [
        {
          "name": "",
          "type": "bytes32"
        },
        {
          "name": "",
          "type": "bytes32"
        },
        {
          "name": "",
          "type": "bytes32"
        },
        {
          "name": "",
          "type": "bool"
        },
        {
          "name": "",
          "type": "uint256"
        }
      ],
      "payable": false,
      "stateMutability": "view",
      "type": "function"
    },
    {
      "constant": true,
      "inputs": [
        {
          "name": "_id",
          "type": "uint256"
        }
      ],
      "name": "getUserById",
      "outputs": [
        {
          "name": "",
          "type": "bytes32"
        },
        {
          "name": "",
          "type": "bytes32"
        },
        {
          "name": "",
          "type": "bytes32"
        },
        {
          "name": "",
          "type": "bool"
        },
        {
          "name": "",
          "type": "uint256"
        }
      ],
      "payable": false,
      "stateMutability": "view",
      "type": "function"
    },
    {
      "constant": false,
      "inputs": [
        {
          "name": "_email",
          "type": "string"
        }
      ],
      "name": "getIdByEmail",
      "outputs": [
        {
          "name": "",
          "type": "uint256"
        }
      ],
      "payable": false,
      "stateMutability": "nonpayable",
      "type": "function"
    },
    {
      "constant": true,
      "inputs": [],
      "name": "owner",
      "outputs": [
        {
          "name": "",
          "type": "address"
        }
      ],
      "payable": false,
      "stateMutability": "view",
      "type": "function"
    },
    {
      "constant": false,
      "inputs": [
        {
          "name": "_firstName",
          "type": "string"
        },
        {
          "name": "_lastName",
          "type": "string"
        },
        {
          "name": "_email",
          "type": "string"
        }
      ],
      "name": "addUser",
      "outputs": [],
      "payable": false,
      "stateMutability": "nonpayable",
      "type": "function"
    },
    {
      "constant": true,
      "inputs": [],
      "name": "getUserList",
      "outputs": [
        {
          "name": "",
          "type": "bytes32[]"
        },
        {
          "name": "",
          "type": "bytes32[]"
        },
        {
          "name": "",
          "type": "bytes32[]"
        },
        {
          "name": "",
          "type": "bool[]"
        }
      ],
      "payable": false,
      "stateMutability": "view",
      "type": "function"
    },
    {
      "constant": true,
      "inputs": [],
      "name": "getCredentialList",
      "outputs": [
        {
          "name": "",
          "type": "bytes32[]"
        }
      ],
      "payable": false,
      "stateMutability": "view",
      "type": "function"
    },
    {
      "constant": false,
      "inputs": [
        {
          "name": "_address",
          "type": "address"
        }
      ],
      "name": "getIdByAddress",
      "outputs": [
        {
          "name": "",
          "type": "uint256"
        }
      ],
      "payable": false,
      "stateMutability": "nonpayable",
      "type": "function"
    },
    {
      "constant": true,
      "inputs": [
        {
          "name": "",
          "type": "uint256"
        }
      ],
      "name": "credentials",
      "outputs": [
        {
          "name": "name",
          "type": "bytes32"
        },
        {
          "name": "url",
          "type": "bytes32"
        },
        {
          "name": "isActive",
          "type": "bool"
        },
        {
          "name": "fee",
          "type": "uint256"
        }
      ],
      "payable": false,
      "stateMutability": "view",
      "type": "function"
    },
    {
      "constant": true,
      "inputs": [
        {
          "name": "_name",
          "type": "string"
        }
      ],
      "name": "getCredentialByName",
      "outputs": [
        {
          "name": "name",
          "type": "bytes32"
        },
        {
          "name": "url",
          "type": "bytes32"
        },
        {
          "name": "fee",
          "type": "uint256"
        }
      ],
      "payable": false,
      "stateMutability": "view",
      "type": "function"
    },
    {
      "constant": false,
      "inputs": [
        {
          "name": "newOwner",
          "type": "address"
        }
      ],
      "name": "transferOwnership",
      "outputs": [],
      "payable": false,
      "stateMutability": "nonpayable",
      "type": "function"
    },
    {
      "payable": true,
      "stateMutability": "payable",
      "type": "fallback"
    },
    {
      "anonymous": false,
      "inputs": [
        {
          "indexed": false,
          "name": "_from",
          "type": "address"
        },
        {
          "indexed": false,
          "name": "value",
          "type": "uint256"
        }
      ],
      "name": "Deposit",
      "type": "event"
    },
    {
      "anonymous": false,
      "inputs": [
        {
          "indexed": false,
          "name": "_to",
          "type": "address"
        },
        {
          "indexed": false,
          "name": "_amount",
          "type": "uint256"
        }
      ],
      "name": "Withdraw",
      "type": "event"
    },
    {
      "anonymous": false,
      "inputs": [
        {
          "indexed": false,
          "name": "_remainingBalance",
          "type": "uint256"
        }
      ],
      "name": "Balance",
      "type": "event"
    },
    {
      "anonymous": false,
      "inputs": [
        {
          "indexed": false,
          "name": "name",
          "type": "bytes32"
        },
        {
          "indexed": false,
          "name": "url",
          "type": "bytes32"
        },
        {
          "indexed": false,
          "name": "isActive",
          "type": "bytes32"
        },
        {
          "indexed": false,
          "name": "fee",
          "type": "uint256"
        }
      ],
      "name": "NewUser",
      "type": "event"
    },
    {
      "anonymous": false,
      "inputs": [
        {
          "indexed": false,
          "name": "name",
          "type": "bytes32"
        },
        {
          "indexed": false,
          "name": "url",
          "type": "bytes32"
        },
        {
          "indexed": false,
          "name": "isActive",
          "type": "bytes32"
        },
        {
          "indexed": false,
          "name": "fee",
          "type": "uint256"
        }
      ],
      "name": "NewCredential",
      "type": "event"
    },
    {
      "anonymous": false,
      "inputs": [
        {
          "indexed": true,
          "name": "previousOwner",
          "type": "address"
        },
        {
          "indexed": true,
          "name": "newOwner",
          "type": "address"
        }
      ],
      "name": "OwnershipTransferred",
      "type": "event"
    },
    {
      "constant": false,
      "inputs": [
        {
          "name": "_amount",
          "type": "uint256"
        }
      ],
      "name": "withdraw",
      "outputs": [],
      "payable": false,
      "stateMutability": "nonpayable",
      "type": "function"
    },
    {
      "constant": false,
      "inputs": [
        {
          "name": "_agencyName",
          "type": "bytes32"
        },
        {
          "name": "_website",
          "type": "bytes32"
        },
        {
          "name": "_email",
          "type": "bytes32"
        }
      ],
      "name": "updateAgencyInfo",
      "outputs": [],
      "payable": false,
      "stateMutability": "nonpayable",
      "type": "function"
    },
    {
      "constant": false,
      "inputs": [
        {
          "name": "_agencyName",
          "type": "string"
        },
        {
          "name": "_website",
          "type": "string"
        },
        {
          "name": "_email",
          "type": "string"
        }
      ],
      "name": "registerAgency",
      "outputs": [],
      "payable": true,
      "stateMutability": "payable",
      "type": "function"
    },
    {
      "constant": true,
      "inputs": [
        {
          "name": "_agencyName",
          "type": "string"
        }
      ],
      "name": "getAgencyInfo",
      "outputs": [
        {
          "name": "",
          "type": "bytes32"
        },
        {
          "name": "",
          "type": "bytes32"
        },
        {
          "name": "",
          "type": "bytes32"
        },
        {
          "name": "",
          "type": "bool"
        }
      ],
      "payable": false,
      "stateMutability": "view",
      "type": "function"
    },
    {
      "constant": false,
      "inputs": [],
      "name": "setAgencyInactive",
      "outputs": [],
      "payable": false,
      "stateMutability": "nonpayable",
      "type": "function"
    },
    {
      "constant": false,
      "inputs": [],
      "name": "setAgencyActive",
      "outputs": [],
      "payable": false,
      "stateMutability": "nonpayable",
      "type": "function"
    },
    {
      "constant": true,
      "inputs": [],
      "name": "getContractBalance",
      "outputs": [
        {
          "name": "",
          "type": "uint256"
        }
      ],
      "payable": false,
      "stateMutability": "view",
      "type": "function"
    },
    {
      "constant": false,
      "inputs": [],
      "name": "destroy",
      "outputs": [],
      "payable": false,
      "stateMutability": "nonpayable",
      "type": "function"
    }
  ],
  "bytecode": "0x6060604052336000806101000a81548173ffffffffffffffffffffffffffffffffffffffff021916908373ffffffffffffffffffffffffffffffffffffffff1602179055506129ee806100536000396000f300606060405260043610610149576000357c0100000000000000000000000000000000000000000000000000000000900463ffffffff16806318046ae11461020e57806321d0e289146102b757806327ed00ee1461038f5780632859b54a146103b85780632b2b12c5146103cd5780632e1a7d4d1461048a5780633037625f146104ad578063365b98b2146104ee57806339b1c511146105565780633c8d830d146105f85780633ef39e2a1461066057806369c212f6146106b55780636ed6da9e1461073a5780636f9fb98a146107a957806373c443ef146107d2578063807d8045146107e757806383197ef0146108585780638da5cb5b1461086d57806395c5fed4146108c2578063b8522043146109a5578063cf021c8a14610ae7578063dff3b49714610b51578063e0574e3f14610b9e578063eed0e87e14610bfe578063f2fde38b14610c8d575b600034111561020c577fe1fffcc4923d04b559f4d29a8bfc6cda04eb5b0d3c460751c2402c5c5cc9109c3334604051808373ffffffffffffffffffffffffffffffffffffffff1673ffffffffffffffffffffffffffffffffffffffff1681526020018281526020019250505060405180910390a17fe8d947d7ebdd7b8b8fa2ad2022c7591418ac32d8c29c5f8a8fc9de52ffa540923073ffffffffffffffffffffffffffffffffffffffff16316040518082815260200191505060405180910390a15b005b341561021957600080fd5b610269600480803590602001908201803590602001908080601f01602080910402602001604051908101604052809392919081815260200183838082843782019150505050505091905050610cc6565b60405180866000191660001916815260200185600019166000191681526020018460001916600019168152602001831515151581526020018281526020019550505050505060405180910390f35b61038d600480803590602001908201803590602001908080601f0160208091040260200160405190810160405280939291908181526020018383808284378201915050505050509190803590602001908201803590602001908080601f0160208091040260200160405190810160405280939291908181526020018383808284378201915050505050509190803590602001908201803590602001908080601f01602080910402602001604051908101604052809392919081815260200183838082843782019150505050505091905050610ddc565b005b341561039a57600080fd5b6103a2610f65565b6040518082815260200191505060405180910390f35b34156103c357600080fd5b6103cb610ff9565b005b34156103d857600080fd5b610474600480803590602001908201803590602001908080601f0160208091040260200160405190810160405280939291908181526020018383808284378201915050505050509190803590602001908201803590602001908080601f01602080910402602001604051908101604052809392919081815260200183838082843782019150505050505091908035906020019091905050611119565b6040518082815260200191505060405180910390f35b341561049557600080fd5b6104ab600480803590602001909190505061123b565b005b34156104b857600080fd5b6104ec60048080356000191690602001909190803560001916906020019091908035600019169060200190919050506113ed565b005b34156104f957600080fd5b61050f600480803590602001909190505061159e565b604051808560001916600019168152602001846000191660001916815260200183600019166000191681526020018215151515815260200194505050505060405180910390f35b341561056157600080fd5b6105b1600480803590602001908201803590602001908080601f016020809104026020016040519081016040528093929190818152602001838380828437820191505050505050919050506115ea565b604051808560001916600019168152602001846000191660001916815260200183600019166000191681526020018215151515815260200194505050505060405180910390f35b341561060357600080fd5b61061960048080359060200190919050506116fd565b604051808560001916600019168152602001846000191660001916815260200183600019166000191681526020018215151515815260200194505050505060405180910390f35b341561066b57600080fd5b6106816004808035906020019091905050611749565b6040518084600019166000191681526020018360001916600019168152602001828152602001935050505060405180910390f35b34156106c057600080fd5b6106ec600480803573ffffffffffffffffffffffffffffffffffffffff169060200190919050506117d1565b60405180866000191660001916815260200185600019166000191681526020018460001916600019168152602001831515151581526020018281526020019550505050505060405180910390f35b341561074557600080fd5b61075b6004808035906020019091905050611903565b60405180866000191660001916815260200185600019166000191681526020018460001916600019168152602001831515151581526020018281526020019550505050505060405180910390f35b34156107b457600080fd5b6107bc6119c3565b6040518082815260200191505060405180910390f35b34156107dd57600080fd5b6107e5611a3d565b005b34156107f257600080fd5b610842600480803590602001908201803590602001908080601f01602080910402602001604051908101604052809392919081815260200183838082843782019150505050505091905050611b5d565b6040518082815260200191505060405180910390f35b341561086357600080fd5b61086b611bbb565b005b341561087857600080fd5b610880611c38565b604051808273ffffffffffffffffffffffffffffffffffffffff1673ffffffffffffffffffffffffffffffffffffffff16815260200191505060405180910390f35b34156108cd57600080fd5b6109a3600480803590602001908201803590602001908080601f0160208091040260200160405190810160405280939291908181526020018383808284378201915050505050509190803590602001908201803590602001908080601f0160208091040260200160405190810160405280939291908181526020018383808284378201915050505050509190803590602001908201803590602001908080601f01602080910402602001604051908101604052809392919081815260200183838082843782019150505050505091905050611c5d565b005b34156109b057600080fd5b6109b8611e1d565b6040518080602001806020018060200180602001858103855289818151815260200191508051906020019060200280838360005b83811015610a075780820151818401526020810190506109ec565b50505050905001858103845288818151815260200191508051906020019060200280838360005b83811015610a49578082015181840152602081019050610a2e565b50505050905001858103835287818151815260200191508051906020019060200280838360005b83811015610a8b578082015181840152602081019050610a70565b50505050905001858103825286818151815260200191508051906020019060200280838360005b83811015610acd578082015181840152602081019050610ab2565b505050509050019850505050505050505060405180910390f35b3415610af257600080fd5b610afa61206a565b6040518080602001828103825283818151815260200191508051906020019060200280838360005b83811015610b3d578082015181840152602081019050610b22565b505050509050019250505060405180910390f35b3415610b5c57600080fd5b610b88600480803573ffffffffffffffffffffffffffffffffffffffff16906020019091905050612127565b6040518082815260200191505060405180910390f35b3415610ba957600080fd5b610bbf60048080359060200190919050506121bd565b60405180856000191660001916815260200184600019166000191681526020018315151515815260200182815260200194505050505060405180910390f35b3415610c0957600080fd5b610c59600480803590602001908201803590602001908080601f01602080910402602001604051908101604052809392919081815260200183838082843782019150505050505091905050612209565b6040518084600019166000191681526020018360001916600019168152602001828152602001935050505060405180910390f35b3415610c9857600080fd5b610cc4600480803573ffffffffffffffffffffffffffffffffffffffff169060200190919050506122e7565b005b60008060008060008060046000610cdc8961243c565b600019166000191681526020019081526020016000205490506000600382815481101515610d0657fe5b906000526020600020905050602060ff16111515610d2357600080fd5b60038054905081101515610d3657600080fd5b600381815481101515610d4557fe5b906000526020600020906004020160000154600382815481101515610d6657fe5b906000526020600020906004020160010154600383815481101515610d8757fe5b906000526020600020906004020160020154600384815481101515610da857fe5b906000526020600020906004020160030160009054906101000a900460ff1684955095509550955095505091939590929450565b600080610de88561246d565b111515610df457600080fd5b600060076000610e038761243c565b6000191660001916815260200190815260200160002054141515610e2657600080fd5b60009050600160068054806001018281610e40919061280f565b91600052602060002090600402016000608060405190810160405280610e658a61243c565b600019168152602001610e778961243c565b600019168152602001610e898861243c565b60001916815260200160011515815250909190915060008201518160000190600019169055602082015181600101906000191690556040820151816002019060001916905560608201518160030160006101000a81548160ff02191690831515021790555050500390508060076000610f018761243c565b600019166000191681526020019081526020016000208190555080600860003373ffffffffffffffffffffffffffffffffffffffff1673ffffffffffffffffffffffffffffffffffffffff1681526020019081526020016000208190555050505050565b600080600560003373ffffffffffffffffffffffffffffffffffffffff1673ffffffffffffffffffffffffffffffffffffffff16815260200190815260200160002054111515610fb457600080fd5b600560003373ffffffffffffffffffffffffffffffffffffffff1673ffffffffffffffffffffffffffffffffffffffff16815260200190815260200160002054905090565b600080600860003373ffffffffffffffffffffffffffffffffffffffff1673ffffffffffffffffffffffffffffffffffffffff168152602001908152602001600020549050600160068281548110151561104f57fe5b906000526020600020905050602060ff1611151561106c57600080fd5b600860003373ffffffffffffffffffffffffffffffffffffffff1673ffffffffffffffffffffffffffffffffffffffff16815260200190815260200160002054915060016006838154811015156110bf57fe5b906000526020600020905050602060ff161115156110dc57600080fd5b60006006838154811015156110ed57fe5b906000526020600020906004020160030160006101000a81548160ff0219169083151502179055505050565b60008060006002600061112b8861243c565b600019166000191681526020019081526020016000205414151561114e57600080fd5b6000905060018080548060010182816111679190612841565b9160005260206000209060040201600060806040519081016040528061118c8b61243c565b60001916815260200161119e8a61243c565b600019168152602001600115158152602001888152509091909150600082015181600001906000191690556020820151816001019060001916905560408201518160020160006101000a81548160ff02191690831515021790555060608201518160030155505003905080600260006112168861243c565b6000191660001916815260200190815260200160002081905550809150509392505050565b6000809054906101000a900473ffffffffffffffffffffffffffffffffffffffff1673ffffffffffffffffffffffffffffffffffffffff163373ffffffffffffffffffffffffffffffffffffffff1614151561129657600080fd5b60003073ffffffffffffffffffffffffffffffffffffffff16311115156112bc57600080fd5b6000811115156112cb57600080fd5b803073ffffffffffffffffffffffffffffffffffffffff1631101515156112f157600080fd5b3373ffffffffffffffffffffffffffffffffffffffff166108fc829081150290604051600060405180830381858888f19350505050151561133157600080fd5b7f884edad9ce6fa2440d8a54cc123490eb96d2768479d49ff9c7366125a94243643382604051808373ffffffffffffffffffffffffffffffffffffffff1673ffffffffffffffffffffffffffffffffffffffff1681526020018281526020019250505060405180910390a17fe8d947d7ebdd7b8b8fa2ad2022c7591418ac32d8c29c5f8a8fc9de52ffa540923073ffffffffffffffffffffffffffffffffffffffff16316040518082815260200191505060405180910390a150565b600080600860003373ffffffffffffffffffffffffffffffffffffffff1673ffffffffffffffffffffffffffffffffffffffff168152602001908152602001600020549050600160068281548110151561144357fe5b906000526020600020905050602060ff1611151561146057600080fd5b6000602060ff1611151561147357600080fd5b600860003373ffffffffffffffffffffffffffffffffffffffff1673ffffffffffffffffffffffffffffffffffffffff16815260200190815260200160002054915060016006838154811015156114c657fe5b906000526020600020905050602060ff161115156114e357600080fd5b846006838154811015156114f357fe5b906000526020600020906004020160000181600019169055508360068381548110151561151c57fe5b906000526020600020906004020160010181600019169055508260068381548110151561154557fe5b90600052602060002090600402016002018160001916905550600160068381548110151561156f57fe5b906000526020600020906004020160030160006101000a81548160ff0219169083151502179055505050505050565b6003818154811015156115ad57fe5b90600052602060002090600402016000915090508060000154908060010154908060020154908060030160009054906101000a900460ff16905084565b6000806000806000806115fc8761246d565b11151561160857600080fd5b600760006116158861243c565b60001916600019168152602001908152602001600020549050600160068281548110151561163f57fe5b906000526020600020905050602060ff1611151561165c57600080fd5b60068181548110151561166b57fe5b90600052602060002090600402016000015460068281548110151561168c57fe5b9060005260206000209060040201600101546006838154811015156116ad57fe5b9060005260206000209060040201600201546006848154811015156116ce57fe5b906000526020600020906004020160030160009054906101000a900460ff169450945094509450509193509193565b60068181548110151561170c57fe5b90600052602060002090600402016000915090508060000154908060010154908060020154908060030160009054906101000a900460ff16905084565b60008060006001805490508410151561176157600080fd5b60018481548110151561177057fe5b90600052602060002090600402016000015460018581548110151561179157fe5b9060005260206000209060040201600101546001868154811015156117b257fe5b9060005260206000209060040201600301549250925092509193909250565b600080600080600080600560008873ffffffffffffffffffffffffffffffffffffffff1673ffffffffffffffffffffffffffffffffffffffff168152602001908152602001600020549050600060038281548110151561182d57fe5b906000526020600020905050602060ff1611151561184a57600080fd5b6003805490508110151561185d57600080fd5b60038181548110151561186c57fe5b90600052602060002090600402016000015460038281548110151561188d57fe5b9060005260206000209060040201600101546003838154811015156118ae57fe5b9060005260206000209060040201600201546003848154811015156118cf57fe5b906000526020600020906004020160030160009054906101000a900460ff1684955095509550955095505091939590929450565b60008060008060006003805490508610151561191e57600080fd5b60038681548110151561192d57fe5b90600052602060002090600402016000015460038781548110151561194e57fe5b90600052602060002090600402016001015460038881548110151561196f57fe5b90600052602060002090600402016002015460038981548110151561199057fe5b906000526020600020906004020160030160009054906101000a900460ff16899450945094509450945091939590929450565b60008060009054906101000a900473ffffffffffffffffffffffffffffffffffffffff1673ffffffffffffffffffffffffffffffffffffffff163373ffffffffffffffffffffffffffffffffffffffff16141515611a2057600080fd5b3073ffffffffffffffffffffffffffffffffffffffff1631905090565b600080600860003373ffffffffffffffffffffffffffffffffffffffff1673ffffffffffffffffffffffffffffffffffffffff1681526020019081526020016000205490506001600682815481101515611a9357fe5b906000526020600020905050602060ff16111515611ab057600080fd5b600860003373ffffffffffffffffffffffffffffffffffffffff1673ffffffffffffffffffffffffffffffffffffffff1681526020019081526020016000205491506001600683815481101515611b0357fe5b906000526020600020905050602060ff16111515611b2057600080fd5b6001600683815481101515611b3157fe5b906000526020600020906004020160030160006101000a81548160ff0219169083151502179055505050565b60008060046000611b6d8561243c565b6000191660001916815260200190815260200160002054111515611b9057600080fd5b60046000611b9d8461243c565b60001916600019168152602001908152602001600020549050919050565b6000809054906101000a900473ffffffffffffffffffffffffffffffffffffffff1673ffffffffffffffffffffffffffffffffffffffff163373ffffffffffffffffffffffffffffffffffffffff16141515611c1657600080fd5b611c363073ffffffffffffffffffffffffffffffffffffffff163161123b565b565b6000809054906101000a900473ffffffffffffffffffffffffffffffffffffffff1681565b60008060046000611c6d8561243c565b6000191660001916815260200190815260200160002054141515611c9057600080fd5b6000600560003373ffffffffffffffffffffffffffffffffffffffff1673ffffffffffffffffffffffffffffffffffffffff16815260200190815260200160002054141515611cde57600080fd5b60009050600160038054806001018281611cf89190612873565b91600052602060002090600402016000608060405190810160405280611d1d8a61243c565b600019168152602001611d2f8961243c565b600019168152602001611d418861243c565b60001916815260200160011515815250909190915060008201518160000190600019169055602082015181600101906000191690556040820151816002019060001916905560608201518160030160006101000a81548160ff02191690831515021790555050500390508060046000611db98561243c565b600019166000191681526020019081526020016000208190555080600560003373ffffffffffffffffffffffffffffffffffffffff1673ffffffffffffffffffffffffffffffffffffffff1681526020019081526020016000208190555050505050565b611e256128a5565b611e2d6128a5565b611e356128a5565b611e3d6128b9565b611e456128a5565b611e4d6128a5565b611e556128a5565b611e5d6128b9565b60008060038054905010151515611e7357600080fd5b600380549050604051805910611e865750595b90808252806020026020018201604052509450600380549050604051805910611eac5750595b90808252806020026020018201604052509350600380549050604051805910611ed25750595b90808252806020026020018201604052509250600380549050604051805910611ef85750595b90808252806020026020018201604052509150600090505b6001600380549050038111151561205357600381815481101515611f3057fe5b9060005260206000209060040201600001548582815181101515611f5057fe5b906020019060200201906000191690816000191681525050600381815481101515611f7757fe5b9060005260206000209060040201600101548482815181101515611f9757fe5b906020019060200201906000191690816000191681525050600381815481101515611fbe57fe5b9060005260206000209060040201600201548382815181101515611fde57fe5b90602001906020020190600019169081600019168152505060038181548110151561200557fe5b906000526020600020906004020160030160009054906101000a900460ff16828281518110151561203257fe5b90602001906020020190151590811515815250508080600101915050611f10565b848484849850985098509850505050505090919293565b6120726128a5565b61207a6128a5565b6000806001805490501015151561209057600080fd5b6001805490506040518059106120a35750595b90808252806020026020018201604052509150600090505b60018080549050038111151561211f576001818154811015156120da57fe5b90600052602060002090600402016000015482828151811015156120fa57fe5b90602001906020020190600019169081600019168152505080806001019150506120bb565b819250505090565b600080600560008473ffffffffffffffffffffffffffffffffffffffff1673ffffffffffffffffffffffffffffffffffffffff1681526020019081526020016000205411151561217657600080fd5b600560008373ffffffffffffffffffffffffffffffffffffffff1673ffffffffffffffffffffffffffffffffffffffff168152602001908152602001600020549050919050565b6001818154811015156121cc57fe5b90600052602060002090600402016000915090508060000154908060010154908060020160009054906101000a900460ff16908060030154905084565b6000806000806002600061221c8761243c565b60001916600019168152602001908152602001600020549050600060018281548110151561224657fe5b906000526020600020905050602060ff1611151561226357600080fd5b6001805490508110151561227657600080fd5b60018181548110151561228557fe5b9060005260206000209060040201600001546001828154811015156122a657fe5b9060005260206000209060040201600101546001838154811015156122c757fe5b906000526020600020906004020160030154935093509350509193909250565b6000809054906101000a900473ffffffffffffffffffffffffffffffffffffffff1673ffffffffffffffffffffffffffffffffffffffff163373ffffffffffffffffffffffffffffffffffffffff1614151561234257600080fd5b600073ffffffffffffffffffffffffffffffffffffffff168173ffffffffffffffffffffffffffffffffffffffff161415151561237e57600080fd5b8073ffffffffffffffffffffffffffffffffffffffff166000809054906101000a900473ffffffffffffffffffffffffffffffffffffffff1673ffffffffffffffffffffffffffffffffffffffff167f8be0079c531659141344cd1fd0a4f28419497f9722a3daafe3b4186f6b6457e060405160405180910390a3806000806101000a81548173ffffffffffffffffffffffffffffffffffffffff021916908373ffffffffffffffffffffffffffffffffffffffff16021790555050565b60006124466128cd565b82905060008151141561245f5760006001029150612467565b602083015191505b50919050565b6000806124786128cd565b600091508390505b80518210156128085760007f010000000000000000000000000000000000000000000000000000000000000002600782848151811015156124bd57fe5b9060200101517f010000000000000000000000000000000000000000000000000000000000000090047f0100000000000000000000000000000000000000000000000000000000000000027effffffffffffffffffffffffffffffffffffffffffffffffffffffffffffff19169060020a90047effffffffffffffffffffffffffffffffffffffffffffffffffffffffffffff19161415612563576001820191506127fb565b60067f0100000000000000000000000000000000000000000000000000000000000000026005828481518110151561259757fe5b9060200101517f010000000000000000000000000000000000000000000000000000000000000090047f0100000000000000000000000000000000000000000000000000000000000000027effffffffffffffffffffffffffffffffffffffffffffffffffffffffffffff19169060020a90047effffffffffffffffffffffffffffffffffffffffffffffffffffffffffffff1916141561263d576002820191506127fa565b600e7f0100000000000000000000000000000000000000000000000000000000000000026004828481518110151561267157fe5b9060200101517f010000000000000000000000000000000000000000000000000000000000000090047f0100000000000000000000000000000000000000000000000000000000000000027effffffffffffffffffffffffffffffffffffffffffffffffffffffffffffff19169060020a90047effffffffffffffffffffffffffffffffffffffffffffffffffffffffffffff19161415612717576003820191506127f9565b601e7f0100000000000000000000000000000000000000000000000000000000000000026003828481518110151561274b57fe5b9060200101517f010000000000000000000000000000000000000000000000000000000000000090047f0100000000000000000000000000000000000000000000000000000000000000027effffffffffffffffffffffffffffffffffffffffffffffffffffffffffffff19169060020a90047effffffffffffffffffffffffffffffffffffffffffffffffffffffffffffff191614156127f1576004820191506127f8565b6001820191505b5b5b5b8280600101935050612480565b5050919050565b81548183558181151161283c5760040281600402836000526020600020918201910161283b91906128e1565b5b505050565b81548183558181151161286e5760040281600402836000526020600020918201910161286d919061292c565b5b505050565b8154818355818115116128a05760040281600402836000526020600020918201910161289f9190612977565b5b505050565b602060405190810160405280600081525090565b602060405190810160405280600081525090565b602060405190810160405280600081525090565b61292991905b8082111561292557600080820160009055600182016000905560028201600090556003820160006101000a81549060ff0219169055506004016128e7565b5090565b90565b61297491905b808211156129705760008082016000905560018201600090556002820160006101000a81549060ff0219169055600382016000905550600401612932565b5090565b90565b6129bf91905b808211156129bb57600080820160009055600182016000905560028201600090556003820160006101000a81549060ff02191690555060040161297d565b5090565b905600a165627a7a7230582043ba092bb3b9c034ba1f60e8557867bf833ccef5a744e7177623a078599e7c8c0029",
  "source": "pragma solidity ^0.4.19;\r\n\r\nimport \"./Ownable.sol\";\r\nimport \"./Credentials.sol\";\r\nimport \"./Users.sol\";\r\n\r\ncontract MicroCredential is Ownable,Credentials,Users {\r\n\r\n    // Events\r\n    event Deposit(address _from, uint value);\r\n    event Withdraw(address _to, uint _amount);\r\n    event Balance(uint _remainingBalance);\r\n\r\n    //  Make sure the address resolves a valid contract\r\n    modifier onlyAgencyOwner() {\r\n        uint id = agencyIdByAddress[msg.sender];\r\n        require(agencies[id].agencyName.length > 1);\r\n        _;\r\n    }\r\n\r\n    // variables and such\r\n    struct Agency {\r\n        bytes32 agencyName;\r\n        bytes32 website;\r\n        bytes32 email;\r\n        bool isActive;\r\n    }\r\n\r\n    // Mappings and Variables\r\n    Agency[] public agencies;\r\n    mapping(bytes32 => uint) internal agencyIdByName;\r\n    mapping(address => uint) internal agencyIdByAddress;\r\n\r\n    // What would I do in a constructor.  \r\n    // Still don't have a good purpose for this.\r\n\r\n    // Purpose  : Fallback Function\r\n    function() public payable {\r\n        if (msg.value > 0) {\r\n            emit Deposit(msg.sender, msg.value);\r\n            emit Balance(address(this).balance);\r\n        }\r\n    }\r\n\r\n    // Purpose  : For the owner to withdraw some funds.\r\n    function withdraw(uint _amount) public onlyOwner {\r\n        require(address(this).balance > 0);\r\n        require(_amount > 0);\r\n        require(address(this).balance >= _amount);\r\n        address(msg.sender).transfer(_amount);\r\n        emit Withdraw(msg.sender, _amount);\r\n        emit Balance(address(this).balance);\r\n    }\r\n\r\n    // Purpose  : Set the agency basic info.  Can only by done by the agency owner \r\n    function updateAgencyInfo(bytes32 _agencyName, bytes32 _website, bytes32 _email) \r\n        public onlyAgencyOwner {\r\n        require(_agencyName.length > 0);\r\n        uint id = agencyIdByAddress[msg.sender];\r\n        require(agencies[id].agencyName.length > 1);\r\n        \r\n        agencies[id].agencyName = _agencyName;\r\n        agencies[id].website = _website;\r\n        agencies[id].email = _email;\r\n        agencies[id].isActive = true;\r\n    }\r\n\r\n    // Purpose  : Need an 'iniitalize' because the first time, because it's public and payable.\r\n    //          : It needs to be payable or people will create these willy nilly.\r\n    function registerAgency(string _agencyName, string _website, string _email) \r\n        public payable { \r\n        require(utfStringLength(_agencyName) > 0);\r\n        require(agencyIdByName[stringToBytes32(_agencyName)] == 0);\r\n        uint id = 0;\r\n        id = agencies.push(Agency(stringToBytes32(_agencyName), stringToBytes32(_website),stringToBytes32(_email),true))-1;\r\n        agencyIdByName[stringToBytes32(_agencyName)] = id;\r\n        agencyIdByAddress[msg.sender] = id;\r\n    }\r\n\r\n    // Purpose  : Get the agency basic info\r\n    function getAgencyInfo(string _agencyName) view public returns (bytes32, bytes32, bytes32, bool) {\r\n        require(utfStringLength(_agencyName) > 0);\r\n        uint id = agencyIdByName[stringToBytes32(_agencyName)];\r\n        require(agencies[id].agencyName.length > 1);\r\n        return (agencies[id].agencyName, agencies[id].website, agencies[id].email,agencies[id].isActive);\r\n    }\r\n\r\n    // Purpose  : To Make the contract inactive and return funds to owner\r\n    function setAgencyInactive() public onlyAgencyOwner {\r\n        uint id = agencyIdByAddress[msg.sender];\r\n        require(agencies[id].agencyName.length > 1);\r\n        agencies[id].isActive = false;\r\n    }\r\n\r\n    // Purpose  : Used when an agency becomes active again\r\n    // To Do    : This will probably have to clear some queues, \r\n    //            reset credential statii, etc.\r\n    function setAgencyActive() public onlyAgencyOwner {\r\n        uint id = agencyIdByAddress[msg.sender];\r\n        require(agencies[id].agencyName.length > 1);\r\n        agencies[id].isActive = true;\r\n    }\r\n\r\n    // Purpose  : Get the contract balance\r\n    function getContractBalance() public onlyOwner view returns (uint) {\r\n        return address(this).balance;\r\n    }\r\n\r\n    // Purpsoe  : Owners with draw all pirl from contract.  Shutting contract down.\r\n    function destroy() public onlyOwner {\r\n        withdraw(address(this).balance);\r\n    }\r\n\r\n}",
  "sourcePath": "D:\\GitHub\\pirl-project01\\truffle\\contracts\\MicroCredential.sol",
  "compiler": {
    "name": "solc",
    "version": "0.4.21+commit.dfe3193c.Emscripten.clang"
  },
  "schemaVersion": "2.0.0",
  "updatedAt": "2018-05-13T01:04:48.466Z"
}