{
  "contractName": "MicroCredential",
  "abi": [
    {
      "constant": true,
      "inputs": [
        {
          "name": "_email",
          "type": "string"
        }
      ],
      "name": "getUserByEmail",
      "outputs": [
        {
          "name": "",
          "type": "bytes32"
        },
        {
          "name": "",
          "type": "bytes32"
        },
        {
          "name": "",
          "type": "bytes32"
        },
        {
          "name": "",
          "type": "bool"
        },
        {
          "name": "",
          "type": "uint256"
        }
      ],
      "payable": false,
      "stateMutability": "view",
      "type": "function"
    },
    {
      "constant": true,
      "inputs": [],
      "name": "getMyId",
      "outputs": [
        {
          "name": "",
          "type": "uint256"
        }
      ],
      "payable": false,
      "stateMutability": "view",
      "type": "function"
    },
    {
      "constant": false,
      "inputs": [
        {
          "name": "_name",
          "type": "string"
        },
        {
          "name": "_url",
          "type": "string"
        },
        {
          "name": "_fee",
          "type": "uint256"
        },
        {
          "name": "_agencyId",
          "type": "uint256"
        }
      ],
      "name": "addCredential",
      "outputs": [],
      "payable": false,
      "stateMutability": "nonpayable",
      "type": "function"
    },
    {
      "constant": true,
      "inputs": [
        {
          "name": "",
          "type": "uint256"
        }
      ],
      "name": "users",
      "outputs": [
        {
          "name": "firstName",
          "type": "bytes32"
        },
        {
          "name": "lastName",
          "type": "bytes32"
        },
        {
          "name": "email",
          "type": "bytes32"
        },
        {
          "name": "isActive",
          "type": "bool"
        }
      ],
      "payable": false,
      "stateMutability": "view",
      "type": "function"
    },
    {
      "constant": true,
      "inputs": [
        {
          "name": "",
          "type": "uint256"
        }
      ],
      "name": "agencies",
      "outputs": [
        {
          "name": "agencyName",
          "type": "bytes32"
        },
        {
          "name": "website",
          "type": "bytes32"
        },
        {
          "name": "firstName",
          "type": "bytes32"
        },
        {
          "name": "lastName",
          "type": "bytes32"
        },
        {
          "name": "email",
          "type": "bytes32"
        },
        {
          "name": "isActive",
          "type": "bool"
        },
        {
          "name": "exists",
          "type": "bool"
        }
      ],
      "payable": false,
      "stateMutability": "view",
      "type": "function"
    },
    {
      "constant": true,
      "inputs": [
        {
          "name": "_id",
          "type": "uint256"
        }
      ],
      "name": "getCredentialById",
      "outputs": [
        {
          "name": "name",
          "type": "bytes32"
        },
        {
          "name": "url",
          "type": "bytes32"
        },
        {
          "name": "fee",
          "type": "uint256"
        }
      ],
      "payable": false,
      "stateMutability": "view",
      "type": "function"
    },
    {
      "constant": false,
      "inputs": [
        {
          "name": "_firstName",
          "type": "string"
        },
        {
          "name": "_lastName",
          "type": "string"
        },
        {
          "name": "_email",
          "type": "string"
        }
      ],
      "name": "updateUser",
      "outputs": [],
      "payable": false,
      "stateMutability": "nonpayable",
      "type": "function"
    },
    {
      "constant": true,
      "inputs": [
        {
          "name": "_address",
          "type": "address"
        }
      ],
      "name": "getUserByAddress",
      "outputs": [
        {
          "name": "",
          "type": "bytes32"
        },
        {
          "name": "",
          "type": "bytes32"
        },
        {
          "name": "",
          "type": "bytes32"
        },
        {
          "name": "",
          "type": "bool"
        },
        {
          "name": "",
          "type": "uint256"
        }
      ],
      "payable": false,
      "stateMutability": "view",
      "type": "function"
    },
    {
      "constant": true,
      "inputs": [
        {
          "name": "_id",
          "type": "uint256"
        }
      ],
      "name": "getUserById",
      "outputs": [
        {
          "name": "",
          "type": "bytes32"
        },
        {
          "name": "",
          "type": "bytes32"
        },
        {
          "name": "",
          "type": "bytes32"
        },
        {
          "name": "",
          "type": "bool"
        },
        {
          "name": "",
          "type": "uint256"
        }
      ],
      "payable": false,
      "stateMutability": "view",
      "type": "function"
    },
    {
      "constant": true,
      "inputs": [
        {
          "name": "_email",
          "type": "string"
        }
      ],
      "name": "getIdByEmail",
      "outputs": [
        {
          "name": "",
          "type": "uint256"
        }
      ],
      "payable": false,
      "stateMutability": "view",
      "type": "function"
    },
    {
      "constant": true,
      "inputs": [],
      "name": "owner",
      "outputs": [
        {
          "name": "",
          "type": "address"
        }
      ],
      "payable": false,
      "stateMutability": "view",
      "type": "function"
    },
    {
      "constant": false,
      "inputs": [
        {
          "name": "_firstName",
          "type": "string"
        },
        {
          "name": "_lastName",
          "type": "string"
        },
        {
          "name": "_email",
          "type": "string"
        }
      ],
      "name": "addUser",
      "outputs": [],
      "payable": false,
      "stateMutability": "nonpayable",
      "type": "function"
    },
    {
      "constant": true,
      "inputs": [],
      "name": "getUserList",
      "outputs": [
        {
          "name": "",
          "type": "bytes32[]"
        },
        {
          "name": "",
          "type": "bytes32[]"
        },
        {
          "name": "",
          "type": "bytes32[]"
        },
        {
          "name": "",
          "type": "bool[]"
        }
      ],
      "payable": false,
      "stateMutability": "view",
      "type": "function"
    },
    {
      "constant": true,
      "inputs": [
        {
          "name": "_address",
          "type": "address"
        }
      ],
      "name": "addressIsUser",
      "outputs": [
        {
          "name": "",
          "type": "bool"
        }
      ],
      "payable": false,
      "stateMutability": "view",
      "type": "function"
    },
    {
      "constant": true,
      "inputs": [
        {
          "name": "_address",
          "type": "address"
        }
      ],
      "name": "getIdByAddress",
      "outputs": [
        {
          "name": "",
          "type": "uint256"
        }
      ],
      "payable": false,
      "stateMutability": "view",
      "type": "function"
    },
    {
      "constant": true,
      "inputs": [
        {
          "name": "",
          "type": "uint256"
        }
      ],
      "name": "credentials",
      "outputs": [
        {
          "name": "name",
          "type": "bytes32"
        },
        {
          "name": "url",
          "type": "bytes32"
        },
        {
          "name": "isActive",
          "type": "bool"
        },
        {
          "name": "fee",
          "type": "uint256"
        },
        {
          "name": "agencyId",
          "type": "uint256"
        }
      ],
      "payable": false,
      "stateMutability": "view",
      "type": "function"
    },
    {
      "constant": false,
      "inputs": [
        {
          "name": "newOwner",
          "type": "address"
        }
      ],
      "name": "transferOwnership",
      "outputs": [],
      "payable": false,
      "stateMutability": "nonpayable",
      "type": "function"
    },
    {
      "constant": true,
      "inputs": [
        {
          "name": "_agencyId",
          "type": "uint256"
        }
      ],
      "name": "getCredentialListByAgencyId",
      "outputs": [
        {
          "name": "",
          "type": "bytes32[]"
        },
        {
          "name": "",
          "type": "uint256[]"
        }
      ],
      "payable": false,
      "stateMutability": "view",
      "type": "function"
    },
    {
      "inputs": [],
      "payable": false,
      "stateMutability": "nonpayable",
      "type": "constructor"
    },
    {
      "payable": true,
      "stateMutability": "payable",
      "type": "fallback"
    },
    {
      "anonymous": false,
      "inputs": [
        {
          "indexed": false,
          "name": "_from",
          "type": "address"
        },
        {
          "indexed": false,
          "name": "value",
          "type": "uint256"
        }
      ],
      "name": "Deposit",
      "type": "event"
    },
    {
      "anonymous": false,
      "inputs": [
        {
          "indexed": false,
          "name": "_to",
          "type": "address"
        },
        {
          "indexed": false,
          "name": "_amount",
          "type": "uint256"
        }
      ],
      "name": "Withdraw",
      "type": "event"
    },
    {
      "anonymous": false,
      "inputs": [
        {
          "indexed": false,
          "name": "_remainingBalance",
          "type": "uint256"
        }
      ],
      "name": "Balance",
      "type": "event"
    },
    {
      "anonymous": false,
      "inputs": [
        {
          "indexed": false,
          "name": "id",
          "type": "uint256"
        },
        {
          "indexed": false,
          "name": "firstName",
          "type": "string"
        },
        {
          "indexed": false,
          "name": "lastName",
          "type": "string"
        },
        {
          "indexed": false,
          "name": "email",
          "type": "string"
        },
        {
          "indexed": false,
          "name": "userAddress",
          "type": "address"
        }
      ],
      "name": "NewUser",
      "type": "event"
    },
    {
      "anonymous": false,
      "inputs": [
        {
          "indexed": false,
          "name": "id",
          "type": "uint256"
        },
        {
          "indexed": false,
          "name": "firstName",
          "type": "string"
        },
        {
          "indexed": false,
          "name": "lastName",
          "type": "string"
        },
        {
          "indexed": false,
          "name": "email",
          "type": "string"
        },
        {
          "indexed": false,
          "name": "userAddress",
          "type": "address"
        }
      ],
      "name": "UpdateUser",
      "type": "event"
    },
    {
      "anonymous": false,
      "inputs": [
        {
          "indexed": false,
          "name": "name",
          "type": "bytes32"
        },
        {
          "indexed": false,
          "name": "url",
          "type": "bytes32"
        },
        {
          "indexed": false,
          "name": "isActive",
          "type": "bytes32"
        },
        {
          "indexed": false,
          "name": "fee",
          "type": "uint256"
        }
      ],
      "name": "NewCredential",
      "type": "event"
    },
    {
      "anonymous": false,
      "inputs": [
        {
          "indexed": true,
          "name": "previousOwner",
          "type": "address"
        },
        {
          "indexed": true,
          "name": "newOwner",
          "type": "address"
        }
      ],
      "name": "OwnershipTransferred",
      "type": "event"
    },
    {
      "constant": false,
      "inputs": [
        {
          "name": "_amount",
          "type": "uint256"
        }
      ],
      "name": "withdraw",
      "outputs": [],
      "payable": false,
      "stateMutability": "nonpayable",
      "type": "function"
    },
    {
      "constant": false,
      "inputs": [
        {
          "name": "_agencyName",
          "type": "string"
        },
        {
          "name": "_website",
          "type": "string"
        },
        {
          "name": "_firstName",
          "type": "string"
        },
        {
          "name": "_lastName",
          "type": "string"
        },
        {
          "name": "_email",
          "type": "string"
        }
      ],
      "name": "registerAgency",
      "outputs": [],
      "payable": true,
      "stateMutability": "payable",
      "type": "function"
    },
    {
      "constant": false,
      "inputs": [
        {
          "name": "_agencyName",
          "type": "string"
        },
        {
          "name": "_website",
          "type": "string"
        },
        {
          "name": "_firstName",
          "type": "string"
        },
        {
          "name": "_lastName",
          "type": "string"
        },
        {
          "name": "_email",
          "type": "string"
        }
      ],
      "name": "updateAgencyInfo",
      "outputs": [],
      "payable": false,
      "stateMutability": "nonpayable",
      "type": "function"
    },
    {
      "constant": true,
      "inputs": [],
      "name": "getAgencyCount",
      "outputs": [
        {
          "name": "",
          "type": "uint256"
        }
      ],
      "payable": false,
      "stateMutability": "view",
      "type": "function"
    },
    {
      "constant": true,
      "inputs": [
        {
          "name": "_agencyName",
          "type": "string"
        }
      ],
      "name": "getAgencyInfo",
      "outputs": [
        {
          "name": "",
          "type": "bytes32"
        },
        {
          "name": "",
          "type": "bytes32"
        },
        {
          "name": "",
          "type": "bytes32"
        },
        {
          "name": "",
          "type": "bytes32"
        },
        {
          "name": "",
          "type": "bytes32"
        },
        {
          "name": "",
          "type": "bool"
        },
        {
          "name": "",
          "type": "uint256"
        }
      ],
      "payable": false,
      "stateMutability": "view",
      "type": "function"
    },
    {
      "constant": true,
      "inputs": [
        {
          "name": "_address",
          "type": "address"
        }
      ],
      "name": "getAgencyInfoByAddress",
      "outputs": [
        {
          "name": "",
          "type": "bytes32"
        },
        {
          "name": "",
          "type": "bytes32"
        },
        {
          "name": "",
          "type": "bytes32"
        },
        {
          "name": "",
          "type": "bytes32"
        },
        {
          "name": "",
          "type": "bytes32"
        },
        {
          "name": "",
          "type": "bool"
        },
        {
          "name": "",
          "type": "uint256"
        }
      ],
      "payable": false,
      "stateMutability": "view",
      "type": "function"
    },
    {
      "constant": true,
      "inputs": [
        {
          "name": "_id",
          "type": "uint256"
        }
      ],
      "name": "getAgencyInfoById",
      "outputs": [
        {
          "name": "",
          "type": "bytes32"
        },
        {
          "name": "",
          "type": "bytes32"
        },
        {
          "name": "",
          "type": "bytes32"
        },
        {
          "name": "",
          "type": "bytes32"
        },
        {
          "name": "",
          "type": "bytes32"
        },
        {
          "name": "",
          "type": "bool"
        },
        {
          "name": "",
          "type": "uint256"
        }
      ],
      "payable": false,
      "stateMutability": "view",
      "type": "function"
    },
    {
      "constant": true,
      "inputs": [
        {
          "name": "_address",
          "type": "address"
        }
      ],
      "name": "getAgencyIdByAddress",
      "outputs": [
        {
          "name": "",
          "type": "uint256"
        }
      ],
      "payable": false,
      "stateMutability": "view",
      "type": "function"
    },
    {
      "constant": false,
      "inputs": [],
      "name": "setAgencyInactive",
      "outputs": [],
      "payable": false,
      "stateMutability": "nonpayable",
      "type": "function"
    },
    {
      "constant": false,
      "inputs": [],
      "name": "setAgencyActive",
      "outputs": [],
      "payable": false,
      "stateMutability": "nonpayable",
      "type": "function"
    },
    {
      "constant": true,
      "inputs": [],
      "name": "getContractBalance",
      "outputs": [
        {
          "name": "",
          "type": "uint256"
        }
      ],
      "payable": false,
      "stateMutability": "view",
      "type": "function"
    },
    {
      "constant": true,
      "inputs": [
        {
          "name": "_address",
          "type": "address"
        }
      ],
      "name": "addressIsAgency",
      "outputs": [
        {
          "name": "",
          "type": "bool"
        }
      ],
      "payable": false,
      "stateMutability": "view",
      "type": "function"
    },
    {
      "constant": true,
      "inputs": [],
      "name": "getAgencies",
      "outputs": [
        {
          "name": "",
          "type": "bytes32[]"
        },
        {
          "name": "",
          "type": "uint256[]"
        }
      ],
      "payable": false,
      "stateMutability": "view",
      "type": "function"
    },
    {
      "constant": false,
      "inputs": [],
      "name": "destroy",
      "outputs": [],
      "payable": false,
      "stateMutability": "nonpayable",
      "type": "function"
    }
  ],
  "bytecode": "0x608060405260006007556000600b553480156200001b57600080fd5b50336000806101000a81548173ffffffffffffffffffffffffffffffffffffffff021916908373ffffffffffffffffffffffffffffffffffffffff160217905550620001836040805190810160405280600b81526020017f526f6f74204167656e63790000000000000000000000000000000000000000008152506040805190810160405280600e81526020017f687474703a2f2f7069726c2e696f0000000000000000000000000000000000008152506040805190810160405280600481526020017f4d696b65000000000000000000000000000000000000000000000000000000008152506040805190810160405280600681526020017f4d757270687900000000000000000000000000000000000000000000000000008152506040805190810160405280601481526020017f6d6d7572706879333834407961686f6f2e636f6d000000000000000000000000815250620002cd640100000000026401000000009004565b6200023e6040805190810160405280600481526020017f726f6f74000000000000000000000000000000000000000000000000000000008152506040805190810160405280600481526020017f75736572000000000000000000000000000000000000000000000000000000008152506040805190810160405280601481526020017f6d6d7572706879333834407961686f6f2e636f6d00000000000000000000000081525062000523640100000000026401000000009004565b620002c76040805190810160405280600f81526020017f726f6f742063726564656e7469616c00000000000000000000000000000000008152506040805190810160405280600e81526020017f687474703a2f2f7069726c2e696f000000000000000000000000000000000000815250606460006200090a640100000000026401000000009004565b62000e8e565b600080620002ea8762000ab7640100000000026401000000009004565b111515620002f757600080fd5b600860e0604051908101604052806200031f8962000e61640100000000026401000000009004565b600019168152602001620003428862000e61640100000000026401000000009004565b600019168152602001620003658762000e61640100000000026401000000009004565b600019168152602001620003888662000e61640100000000026401000000009004565b600019168152602001620003ab8562000e61640100000000026401000000009004565b6000191681526020016001151581526020016001151581525090806001815401808255809150509060018203906000526020600020906006020160009091929091909150600082015181600001906000191690556020820151816001019060001916905560408201518160020190600019169055606082015181600301906000191690556080820151816004019060001916905560a08201518160050160006101000a81548160ff02191690831515021790555060c08201518160050160016101000a81548160ff02191690831515021790555050505060016008805490500390506001600b600082825401925050819055508060096000620004bd8962000e61640100000000026401000000009004565b600019166000191681526020019081526020016000208190555080600a60003373ffffffffffffffffffffffffffffffffffffffff1673ffffffffffffffffffffffffffffffffffffffff16815260200190815260200160002081905550505050505050565b60008060056000620005448562000e61640100000000026401000000009004565b60001916600019168152602001908152602001600020541415156200056857600080fd5b6000600660003373ffffffffffffffffffffffffffffffffffffffff1673ffffffffffffffffffffffffffffffffffffffff16815260200190815260200160002054141515620005b757600080fd5b6000905060016004608060405190810160405280620005e58862000e61640100000000026401000000009004565b600019168152602001620006088762000e61640100000000026401000000009004565b6000191681526020016200062b8662000e61640100000000026401000000009004565b600019168152602001600115158152509080600181540180825580915050906001820390600052602060002090600402016000909192909190915060008201518160000190600019169055602082015181600101906000191690556040820151816002019060001916905560608201518160030160006101000a81548160ff02191690831515021790555050500390508060056000620006da8562000e61640100000000026401000000009004565b600019166000191681526020019081526020016000208190555080600660003373ffffffffffffffffffffffffffffffffffffffff1673ffffffffffffffffffffffffffffffffffffffff1681526020019081526020016000208190555060016007600082825401925050819055507f023a8bc2c2a7585292c8d76a6c38d4001ebdb3df730965277bc4d0e94f2647518185858533604051808681526020018060200180602001806020018573ffffffffffffffffffffffffffffffffffffffff1673ffffffffffffffffffffffffffffffffffffffff168152602001848103845288818151815260200191508051906020019080838360005b83811015620007f1578082015181840152602081019050620007d4565b50505050905090810190601f1680156200081f5780820380516001836020036101000a031916815260200191505b50848103835287818151815260200191508051906020019080838360005b838110156200085a5780820151818401526020810190506200083d565b50505050905090810190601f168015620008885780820380516001836020036101000a031916815260200191505b50848103825286818151815260200191508051906020019080838360005b83811015620008c3578082015181840152602081019050620008a6565b50505050905090810190601f168015620008f15780820380516001836020036101000a031916815260200191505b509850505050505050505060405180910390a150505050565b600080600260006200092b8862000e61640100000000026401000000009004565b60001916600019168152602001908152602001600020541415156200094f57600080fd5b6000905060018060a0604051908101604052806200097c8962000e61640100000000026401000000009004565b6000191681526020016200099f8862000e61640100000000026401000000009004565b6000191681526020016001151581526020018681526020018581525090806001815401808255809150509060018203906000526020600020906005020160009091929091909150600082015181600001906000191690556020820151816001019060001916905560408201518160020160006101000a81548160ff02191690831515021790555060608201518160030155608082015181600401555050039050806002600062000a5e8862000e61640100000000026401000000009004565b600019166000191681526020019081526020016000208190555060016003600084815260200190815260200160002060008282540192505081905560036000848152602001908152602001600020819055505050505050565b6000806060600091508390505b805182101562000e5a5760007f0100000000000000000000000000000000000000000000000000000000000000026007828481518110151562000b0357fe5b9060200101517f010000000000000000000000000000000000000000000000000000000000000090047f0100000000000000000000000000000000000000000000000000000000000000027effffffffffffffffffffffffffffffffffffffffffffffffffffffffffffff19169060020a90047effffffffffffffffffffffffffffffffffffffffffffffffffffffffffffff1916141562000bab5760018201915062000e4c565b60067f0100000000000000000000000000000000000000000000000000000000000000026005828481518110151562000be057fe5b9060200101517f010000000000000000000000000000000000000000000000000000000000000090047f0100000000000000000000000000000000000000000000000000000000000000027effffffffffffffffffffffffffffffffffffffffffffffffffffffffffffff19169060020a90047effffffffffffffffffffffffffffffffffffffffffffffffffffffffffffff1916141562000c885760028201915062000e4b565b600e7f0100000000000000000000000000000000000000000000000000000000000000026004828481518110151562000cbd57fe5b9060200101517f010000000000000000000000000000000000000000000000000000000000000090047f0100000000000000000000000000000000000000000000000000000000000000027effffffffffffffffffffffffffffffffffffffffffffffffffffffffffffff19169060020a90047effffffffffffffffffffffffffffffffffffffffffffffffffffffffffffff1916141562000d655760038201915062000e4a565b601e7f0100000000000000000000000000000000000000000000000000000000000000026003828481518110151562000d9a57fe5b9060200101517f010000000000000000000000000000000000000000000000000000000000000090047f0100000000000000000000000000000000000000000000000000000000000000027effffffffffffffffffffffffffffffffffffffffffffffffffffffffffffff19169060020a90047effffffffffffffffffffffffffffffffffffffffffffffffffffffffffffff1916141562000e425760048201915062000e49565b6001820191505b5b5b5b828060010193505062000ac4565b5050919050565b6000606082905060008151141562000e80576000600102915062000e88565b602083015191505b50919050565b6138498062000e9e6000396000f300608060405260043610610196576000357c0100000000000000000000000000000000000000000000000000000000900463ffffffff16806307c0d98c1461025b57806318046ae11461030f57806327ed00ee146103c45780632859b54a146103ef5780632916435b146104065780632c26eabc146104b35780632e1a7d4d1461050e5780632f98a9231461053b578063365b98b2146105fe57806339b1c511146106705780633c8d830d146107435780633ef39e2a146107de5780634923cc751461083d57806360903be61461089457806369c212f6146109895780636ed6da9e14610a185780636f9fb98a14610a9157806373c443ef14610abc578063794953bf14610ad3578063807d804514610b6a57806383197ef014610be75780638624c3ac14610bfe5780638da5cb5b14610c2957806395c5fed414610c80578063b366c5d214610d75578063b852204314610ef6578063df97cda31461103a578063dff3b49714611095578063e0574e3f146110ec578063eeef26dd1461115d578063f2fde38b146112d1578063f940653414611314575b6000341115610259577fe1fffcc4923d04b559f4d29a8bfc6cda04eb5b0d3c460751c2402c5c5cc9109c3334604051808373ffffffffffffffffffffffffffffffffffffffff1673ffffffffffffffffffffffffffffffffffffffff1681526020018281526020019250505060405180910390a17fe8d947d7ebdd7b8b8fa2ad2022c7591418ac32d8c29c5f8a8fc9de52ffa540923073ffffffffffffffffffffffffffffffffffffffff16316040518082815260200191505060405180910390a15b005b34801561026757600080fd5b506102706113de565b604051808060200180602001838103835285818151815260200191508051906020019060200280838360005b838110156102b757808201518184015260208101905061029c565b50505050905001838103825284818151815260200191508051906020019060200280838360005b838110156102f95780820151818401526020810190506102de565b5050505090500194505050505060405180910390f35b34801561031b57600080fd5b50610376600480360381019080803590602001908201803590602001908080601f016020809104026020016040519081016040528093929190818152602001838380828437820191505050505050919291929050505061152a565b60405180866000191660001916815260200185600019166000191681526020018460001916600019168152602001831515151581526020018281526020019550505050505060405180910390f35b3480156103d057600080fd5b506103d9611640565b6040518082815260200191505060405180910390f35b3480156103fb57600080fd5b506104046116d4565b005b34801561041257600080fd5b50610447600480360381019080803573ffffffffffffffffffffffffffffffffffffffff1690602001909291905050506117f4565b60405180886000191660001916815260200187600019166000191681526020018660001916600019168152602001856000191660001916815260200184600019166000191681526020018315151515815260200182815260200197505050505050505060405180910390f35b3480156104bf57600080fd5b506104f4600480360381019080803573ffffffffffffffffffffffffffffffffffffffff169060200190929190505050611865565b604051808215151515815260200191505060405180910390f35b34801561051a57600080fd5b50610539600480360381019080803590602001909291905050506118b6565b005b34801561054757600080fd5b506105fc600480360381019080803590602001908201803590602001908080601f0160208091040260200160405190810160405280939291908181526020018383808284378201915050505050509192919290803590602001908201803590602001908080601f01602080910402602001604051908101604052809392919081815260200183838082843782019150505050505091929192908035906020019092919080359060200190929190505050611a6f565b005b34801561060a57600080fd5b5061062960048036038101908080359060200190929190505050611bd7565b604051808560001916600019168152602001846000191660001916815260200183600019166000191681526020018215151515815260200194505050505060405180910390f35b34801561067c57600080fd5b506106d7600480360381019080803590602001908201803590602001908080601f0160208091040260200160405190810160405280939291908181526020018383808284378201915050505050509192919290505050611c23565b60405180886000191660001916815260200187600019166000191681526020018660001916600019168152602001856000191660001916815260200184600019166000191681526020018315151515815260200182815260200197505050505050505060405180910390f35b34801561074f57600080fd5b5061076e60048036038101908080359060200190929190505050611c8f565b6040518088600019166000191681526020018760001916600019168152602001866000191660001916815260200185600019166000191681526020018460001916600019168152602001831515151581526020018215151515815260200197505050505050505060405180910390f35b3480156107ea57600080fd5b5061080960048036038101908080359060200190929190505050611cfa565b6040518084600019166000191681526020018360001916600019168152602001828152602001935050505060405180910390f35b34801561084957600080fd5b5061087e600480360381019080803573ffffffffffffffffffffffffffffffffffffffff169060200190929190505050611d82565b6040518082815260200191505060405180910390f35b3480156108a057600080fd5b50610987600480360381019080803590602001908201803590602001908080601f0160208091040260200160405190810160405280939291908181526020018383808284378201915050505050509192919290803590602001908201803590602001908080601f0160208091040260200160405190810160405280939291908181526020018383808284378201915050505050509192919290803590602001908201803590602001908080601f0160208091040260200160405190810160405280939291908181526020018383808284378201915050505050509192919290505050611dcb565b005b34801561099557600080fd5b506109ca600480360381019080803573ffffffffffffffffffffffffffffffffffffffff16906020019092919050505061210b565b60405180866000191660001916815260200185600019166000191681526020018460001916600019168152602001831515151581526020018281526020019550505050505060405180910390f35b348015610a2457600080fd5b50610a436004803603810190808035906020019092919050505061223a565b60405180866000191660001916815260200185600019166000191681526020018460001916600019168152602001831515151581526020018281526020019550505050505060405180910390f35b348015610a9d57600080fd5b50610aa66122f7565b6040518082815260200191505060405180910390f35b348015610ac857600080fd5b50610ad1612371565b005b348015610adf57600080fd5b50610afe60048036038101908080359060200190929190505050612491565b60405180886000191660001916815260200187600019166000191681526020018660001916600019168152602001856000191660001916815260200184600019166000191681526020018315151515815260200182815260200197505050505050505060405180910390f35b348015610b7657600080fd5b50610bd1600480360381019080803590602001908201803590602001908080601f01602080910402602001604051908101604052809392919081815260200183838082843782019150505050505091929192905050506125b7565b6040518082815260200191505060405180910390f35b348015610bf357600080fd5b50610bfc6125e4565b005b348015610c0a57600080fd5b50610c13612661565b6040518082815260200191505060405180910390f35b348015610c3557600080fd5b50610c3e61266b565b604051808273ffffffffffffffffffffffffffffffffffffffff1673ffffffffffffffffffffffffffffffffffffffff16815260200191505060405180910390f35b348015610c8c57600080fd5b50610d73600480360381019080803590602001908201803590602001908080601f0160208091040260200160405190810160405280939291908181526020018383808284378201915050505050509192919290803590602001908201803590602001908080601f0160208091040260200160405190810160405280939291908181526020018383808284378201915050505050509192919290803590602001908201803590602001908080601f0160208091040260200160405190810160405280939291908181526020018383808284378201915050505050509192919290505050612690565b005b348015610d8157600080fd5b50610ef4600480360381019080803590602001908201803590602001908080601f0160208091040260200160405190810160405280939291908181526020018383808284378201915050505050509192919290803590602001908201803590602001908080601f0160208091040260200160405190810160405280939291908181526020018383808284378201915050505050509192919290803590602001908201803590602001908080601f0160208091040260200160405190810160405280939291908181526020018383808284378201915050505050509192919290803590602001908201803590602001908080601f0160208091040260200160405190810160405280939291908181526020018383808284378201915050505050509192919290803590602001908201803590602001908080601f0160208091040260200160405190810160405280939291908181526020018383808284378201915050505050509192919290505050612a17565b005b348015610f0257600080fd5b50610f0b612c48565b6040518080602001806020018060200180602001858103855289818151815260200191508051906020019060200280838360005b83811015610f5a578082015181840152602081019050610f3f565b50505050905001858103845288818151815260200191508051906020019060200280838360005b83811015610f9c578082015181840152602081019050610f81565b50505050905001858103835287818151815260200191508051906020019060200280838360005b83811015610fde578082015181840152602081019050610fc3565b50505050905001858103825286818151815260200191508051906020019060200280838360005b83811015611020578082015181840152602081019050611005565b505050509050019850505050505050505060405180910390f35b34801561104657600080fd5b5061107b600480360381019080803573ffffffffffffffffffffffffffffffffffffffff169060200190929190505050612e8f565b604051808215151515815260200191505060405180910390f35b3480156110a157600080fd5b506110d6600480360381019080803573ffffffffffffffffffffffffffffffffffffffff169060200190929190505050612ee0565b6040518082815260200191505060405180910390f35b3480156110f857600080fd5b5061111760048036038101908080359060200190929190505050612f76565b6040518086600019166000191681526020018560001916600019168152602001841515151581526020018381526020018281526020019550505050505060405180910390f35b6112cf600480360381019080803590602001908201803590602001908080601f0160208091040260200160405190810160405280939291908181526020018383808284378201915050505050509192919290803590602001908201803590602001908080601f0160208091040260200160405190810160405280939291908181526020018383808284378201915050505050509192919290803590602001908201803590602001908080601f0160208091040260200160405190810160405280939291908181526020018383808284378201915050505050509192919290803590602001908201803590602001908080601f0160208091040260200160405190810160405280939291908181526020018383808284378201915050505050509192919290803590602001908201803590602001908080601f0160208091040260200160405190810160405280939291908181526020018383808284378201915050505050509192919290505050612fc8565b005b3480156112dd57600080fd5b50611312600480360381019080803573ffffffffffffffffffffffffffffffffffffffff1690602001909291905050506131a6565b005b34801561132057600080fd5b5061133f600480360381019080803590602001909291905050506132fb565b604051808060200180602001838103835285818151815260200191508051906020019060200280838360005b8381101561138657808201518184015260208101905061136b565b50505050905001838103825284818151815260200191508051906020019060200280838360005b838110156113c85780820151818401526020810190506113ad565b5050505090500194505050505060405180910390f35b606080606080600080600880549050101515156113fa57600080fd5b600b5460405190808252806020026020018201604052801561142b5781602001602082028038833980820191505090505b509250600b5460405190808252806020026020018201604052801561145f5781602001602082028038833980820191505090505b509150600090505b600b5481101561151d5760088181548110151561148057fe5b90600052602060002090600602016000015483828151811015156114a057fe5b906020019060200201906000191690816000191681525050600960006008838154811015156114cb57fe5b9060005260206000209060060201600001546000191660001916815260200190815260200160002054828281518110151561150257fe5b90602001906020020181815250508080600101915050611467565b8282945094505050509091565b6000806000806000806005600061154089613456565b60001916600019168152602001908152602001600020549050600060048281548110151561156a57fe5b906000526020600020905050602060ff1611151561158757600080fd5b6004805490508110151561159a57600080fd5b6004818154811015156115a957fe5b9060005260206000209060040201600001546004828154811015156115ca57fe5b9060005260206000209060040201600101546004838154811015156115eb57fe5b90600052602060002090600402016002015460048481548110151561160c57fe5b906000526020600020906004020160030160009054906101000a900460ff1684955095509550955095505091939590929450565b600080600660003373ffffffffffffffffffffffffffffffffffffffff1673ffffffffffffffffffffffffffffffffffffffff1681526020019081526020016000205411151561168f57600080fd5b600660003373ffffffffffffffffffffffffffffffffffffffff1673ffffffffffffffffffffffffffffffffffffffff16815260200190815260200160002054905090565b600080600a60003373ffffffffffffffffffffffffffffffffffffffff1673ffffffffffffffffffffffffffffffffffffffff168152602001908152602001600020549050600160088281548110151561172a57fe5b906000526020600020905050602060ff1611151561174757600080fd5b600a60003373ffffffffffffffffffffffffffffffffffffffff1673ffffffffffffffffffffffffffffffffffffffff168152602001908152602001600020549150600160088381548110151561179a57fe5b906000526020600020905050602060ff161115156117b757600080fd5b60006008838154811015156117c857fe5b906000526020600020906006020160050160006101000a81548160ff0219169083151502179055505050565b600080600080600080600080600a60008a73ffffffffffffffffffffffffffffffffffffffff1673ffffffffffffffffffffffffffffffffffffffff16815260200190815260200160002054905061184b81612491565b975097509750975097509750975050919395979092949650565b600080600a60008473ffffffffffffffffffffffffffffffffffffffff1673ffffffffffffffffffffffffffffffffffffffff16815260200190815260200160002054905060008111915050919050565b6000809054906101000a900473ffffffffffffffffffffffffffffffffffffffff1673ffffffffffffffffffffffffffffffffffffffff163373ffffffffffffffffffffffffffffffffffffffff1614151561191157600080fd5b60003073ffffffffffffffffffffffffffffffffffffffff163111151561193757600080fd5b60008111151561194657600080fd5b803073ffffffffffffffffffffffffffffffffffffffff16311015151561196c57600080fd5b3373ffffffffffffffffffffffffffffffffffffffff166108fc829081150290604051600060405180830381858888f193505050501580156119b2573d6000803e3d6000fd5b507f884edad9ce6fa2440d8a54cc123490eb96d2768479d49ff9c7366125a94243643382604051808373ffffffffffffffffffffffffffffffffffffffff1673ffffffffffffffffffffffffffffffffffffffff1681526020018281526020019250505060405180910390a17fe8d947d7ebdd7b8b8fa2ad2022c7591418ac32d8c29c5f8a8fc9de52ffa540923073ffffffffffffffffffffffffffffffffffffffff16316040518082815260200191505060405180910390a150565b60008060026000611a7f88613456565b6000191660001916815260200190815260200160002054141515611aa257600080fd5b6000905060018060a060405190810160405280611abe89613456565b600019168152602001611ad088613456565b6000191681526020016001151581526020018681526020018581525090806001815401808255809150509060018203906000526020600020906005020160009091929091909150600082015181600001906000191690556020820151816001019060001916905560408201518160020160006101000a81548160ff021916908315150217905550606082015181600301556080820151816004015550500390508060026000611b7e88613456565b600019166000191681526020019081526020016000208190555060016003600084815260200190815260200160002060008282540192505081905560036000848152602001908152602001600020819055505050505050565b600481815481101515611be657fe5b90600052602060002090600402016000915090508060000154908060010154908060020154908060030160009054906101000a900460ff16905084565b6000806000806000806000806000611c3a8a613481565b111515611c4657600080fd5b60096000611c538b613456565b60001916600019168152602001908152602001600020549050611c7581612491565b975097509750975097509750975050919395979092949650565b600881815481101515611c9e57fe5b90600052602060002090600602016000915090508060000154908060010154908060020154908060030154908060040154908060050160009054906101000a900460ff16908060050160019054906101000a900460ff16905087565b600080600060018054905084101515611d1257600080fd5b600184815481101515611d2157fe5b906000526020600020906005020160000154600185815481101515611d4257fe5b906000526020600020906005020160010154600186815481101515611d6357fe5b9060005260206000209060050201600301549250925092509193909250565b6000600a60008373ffffffffffffffffffffffffffffffffffffffff1673ffffffffffffffffffffffffffffffffffffffff168152602001908152602001600020549050919050565b600080600660003373ffffffffffffffffffffffffffffffffffffffff1673ffffffffffffffffffffffffffffffffffffffff1681526020019081526020016000205490506001600482815481101515611e2157fe5b906000526020600020905050602060ff16111515611e3e57600080fd5b6000600660003373ffffffffffffffffffffffffffffffffffffffff1673ffffffffffffffffffffffffffffffffffffffff16815260200190815260200160002054111515611e8c57600080fd5b611e9533612ee0565b9150611ea085613456565b600483815481101515611eaf57fe5b90600052602060002090600402016000018160001916905550611ed184613456565b600483815481101515611ee057fe5b90600052602060002090600402016001018160001916905550611f0283613456565b600483815481101515611f1157fe5b906000526020600020906004020160020181600019169055508160056000611f3886613456565b60001916600019168152602001908152602001600020819055507fd3923f0b3b1cec0036b68d0c3f17abc063fe21182d951342a1300cd3f98564dd8286868633604051808681526020018060200180602001806020018573ffffffffffffffffffffffffffffffffffffffff1673ffffffffffffffffffffffffffffffffffffffff168152602001848103845288818151815260200191508051906020019080838360005b83811015611ff8578082015181840152602081019050611fdd565b50505050905090810190601f1680156120255780820380516001836020036101000a031916815260200191505b50848103835287818151815260200191508051906020019080838360005b8381101561205e578082015181840152602081019050612043565b50505050905090810190601f16801561208b5780820380516001836020036101000a031916815260200191505b50848103825286818151815260200191508051906020019080838360005b838110156120c45780820151818401526020810190506120a9565b50505050905090810190601f1680156120f15780820380516001836020036101000a031916815260200191505b509850505050505050505060405180910390a15050505050565b600080600080600080600660008873ffffffffffffffffffffffffffffffffffffffff1673ffffffffffffffffffffffffffffffffffffffff168152602001908152602001600020549050600060048281548110151561216757fe5b906000526020600020905050602060ff1611151561218457600080fd5b6007548110151561219457600080fd5b6004818154811015156121a357fe5b9060005260206000209060040201600001546004828154811015156121c457fe5b9060005260206000209060040201600101546004838154811015156121e557fe5b90600052602060002090600402016002015460048481548110151561220657fe5b906000526020600020906004020160030160009054906101000a900460ff1684955095509550955095505091939590929450565b60008060008060006007548610151561225257600080fd5b60048681548110151561226157fe5b90600052602060002090600402016000015460048781548110151561228257fe5b9060005260206000209060040201600101546004888154811015156122a357fe5b9060005260206000209060040201600201546004898154811015156122c457fe5b906000526020600020906004020160030160009054906101000a900460ff16899450945094509450945091939590929450565b60008060009054906101000a900473ffffffffffffffffffffffffffffffffffffffff1673ffffffffffffffffffffffffffffffffffffffff163373ffffffffffffffffffffffffffffffffffffffff1614151561235457600080fd5b3073ffffffffffffffffffffffffffffffffffffffff1631905090565b600080600a60003373ffffffffffffffffffffffffffffffffffffffff1673ffffffffffffffffffffffffffffffffffffffff16815260200190815260200160002054905060016008828154811015156123c757fe5b906000526020600020905050602060ff161115156123e457600080fd5b600a60003373ffffffffffffffffffffffffffffffffffffffff1673ffffffffffffffffffffffffffffffffffffffff168152602001908152602001600020549150600160088381548110151561243757fe5b906000526020600020905050602060ff1611151561245457600080fd5b600160088381548110151561246557fe5b906000526020600020906006020160050160006101000a81548160ff0219169083151502179055505050565b600080600080600080600060016008898154811015156124ad57fe5b906000526020600020905050602060ff161115156124ca57600080fd5b6008888154811015156124d957fe5b9060005260206000209060060201600001546008898154811015156124fa57fe5b90600052602060002090600602016001015460088a81548110151561251b57fe5b90600052602060002090600602016002015460088b81548110151561253c57fe5b90600052602060002090600602016003015460088c81548110151561255d57fe5b90600052602060002090600602016004015460088d81548110151561257e57fe5b906000526020600020906006020160050160009054906101000a900460ff168d9650965096509650965096509650919395979092949650565b6000600560006125c684613456565b60001916600019168152602001908152602001600020549050919050565b6000809054906101000a900473ffffffffffffffffffffffffffffffffffffffff1673ffffffffffffffffffffffffffffffffffffffff163373ffffffffffffffffffffffffffffffffffffffff1614151561263f57600080fd5b61265f3073ffffffffffffffffffffffffffffffffffffffff16316118b6565b565b6000600b54905090565b6000809054906101000a900473ffffffffffffffffffffffffffffffffffffffff1681565b600080600560006126a085613456565b60001916600019168152602001908152602001600020541415156126c357600080fd5b6000600660003373ffffffffffffffffffffffffffffffffffffffff1673ffffffffffffffffffffffffffffffffffffffff1681526020019081526020016000205414151561271157600080fd5b600090506001600460806040519081016040528061272e88613456565b60001916815260200161274087613456565b60001916815260200161275286613456565b600019168152602001600115158152509080600181540180825580915050906001820390600052602060002090600402016000909192909190915060008201518160000190600019169055602082015181600101906000191690556040820151816002019060001916905560608201518160030160006101000a81548160ff021916908315150217905550505003905080600560006127f085613456565b600019166000191681526020019081526020016000208190555080600660003373ffffffffffffffffffffffffffffffffffffffff1673ffffffffffffffffffffffffffffffffffffffff1681526020019081526020016000208190555060016007600082825401925050819055507f023a8bc2c2a7585292c8d76a6c38d4001ebdb3df730965277bc4d0e94f2647518185858533604051808681526020018060200180602001806020018573ffffffffffffffffffffffffffffffffffffffff1673ffffffffffffffffffffffffffffffffffffffff168152602001848103845288818151815260200191508051906020019080838360005b838110156129055780820151818401526020810190506128ea565b50505050905090810190601f1680156129325780820380516001836020036101000a031916815260200191505b50848103835287818151815260200191508051906020019080838360005b8381101561296b578082015181840152602081019050612950565b50505050905090810190601f1680156129985780820380516001836020036101000a031916815260200191505b50848103825286818151815260200191508051906020019080838360005b838110156129d15780820151818401526020810190506129b6565b50505050905090810190601f1680156129fe5780820380516001836020036101000a031916815260200191505b509850505050505050505060405180910390a150505050565b600080600a60003373ffffffffffffffffffffffffffffffffffffffff1673ffffffffffffffffffffffffffffffffffffffff1681526020019081526020016000205490506001600882815481101515612a6d57fe5b906000526020600020905050602060ff16111515612a8a57600080fd5b6002612a9588613481565b111515612aa157600080fd5b600a60003373ffffffffffffffffffffffffffffffffffffffff1673ffffffffffffffffffffffffffffffffffffffff1681526020019081526020016000205491506001600883815481101515612af457fe5b906000526020600020905050602060ff16111515612b1157600080fd5b612b1a87613456565b600883815481101515612b2957fe5b90600052602060002090600602016000018160001916905550612b4b86613456565b600883815481101515612b5a57fe5b90600052602060002090600602016001018160001916905550612b7c85613456565b600883815481101515612b8b57fe5b90600052602060002090600602016002018160001916905550612bad84613456565b600883815481101515612bbc57fe5b90600052602060002090600602016003018160001916905550612bde83613456565b600883815481101515612bed57fe5b906000526020600020906006020160040181600019169055506001600883815481101515612c1757fe5b906000526020600020906006020160050160006101000a81548160ff02191690831515021790555050505050505050565b60608060608060608060608060008060075410151515612c6757600080fd5b600754604051908082528060200260200182016040528015612c985781602001602082028038833980820191505090505b509450600754604051908082528060200260200182016040528015612ccc5781602001602082028038833980820191505090505b509350600754604051908082528060200260200182016040528015612d005781602001602082028038833980820191505090505b509250600754604051908082528060200260200182016040528015612d345781602001602082028038833980820191505090505b509150600090505b600754811015612e7857600481815481101515612d5557fe5b9060005260206000209060040201600001548582815181101515612d7557fe5b906020019060200201906000191690816000191681525050600481815481101515612d9c57fe5b9060005260206000209060040201600101548482815181101515612dbc57fe5b906020019060200201906000191690816000191681525050600481815481101515612de357fe5b9060005260206000209060040201600201548382815181101515612e0357fe5b906020019060200201906000191690816000191681525050600481815481101515612e2a57fe5b906000526020600020906004020160030160009054906101000a900460ff168282815181101515612e5757fe5b90602001906020020190151590811515815250508080600101915050612d3c565b848484849850985098509850505050505090919293565b600080600660008473ffffffffffffffffffffffffffffffffffffffff1673ffffffffffffffffffffffffffffffffffffffff16815260200190815260200160002054905060008111915050919050565b600080600660008473ffffffffffffffffffffffffffffffffffffffff1673ffffffffffffffffffffffffffffffffffffffff16815260200190815260200160002054111515612f2f57600080fd5b600660008373ffffffffffffffffffffffffffffffffffffffff1673ffffffffffffffffffffffffffffffffffffffff168152602001908152602001600020549050919050565b600181815481101515612f8557fe5b90600052602060002090600502016000915090508060000154908060010154908060020160009054906101000a900460ff16908060030154908060040154905085565b600080612fd487613481565b111515612fe057600080fd5b600860e060405190810160405280612ff789613456565b60001916815260200161300988613456565b60001916815260200161301b87613456565b60001916815260200161302d86613456565b60001916815260200161303f85613456565b6000191681526020016001151581526020016001151581525090806001815401808255809150509060018203906000526020600020906006020160009091929091909150600082015181600001906000191690556020820151816001019060001916905560408201518160020190600019169055606082015181600301906000191690556080820151816004019060001916905560a08201518160050160006101000a81548160ff02191690831515021790555060c08201518160050160016101000a81548160ff02191690831515021790555050505060016008805490500390506001600b60008282540192505081905550806009600061314089613456565b600019166000191681526020019081526020016000208190555080600a60003373ffffffffffffffffffffffffffffffffffffffff1673ffffffffffffffffffffffffffffffffffffffff16815260200190815260200160002081905550505050505050565b6000809054906101000a900473ffffffffffffffffffffffffffffffffffffffff1673ffffffffffffffffffffffffffffffffffffffff163373ffffffffffffffffffffffffffffffffffffffff1614151561320157600080fd5b600073ffffffffffffffffffffffffffffffffffffffff168173ffffffffffffffffffffffffffffffffffffffff161415151561323d57600080fd5b8073ffffffffffffffffffffffffffffffffffffffff166000809054906101000a900473ffffffffffffffffffffffffffffffffffffffff1673ffffffffffffffffffffffffffffffffffffffff167f8be0079c531659141344cd1fd0a4f28419497f9722a3daafe3b4186f6b6457e060405160405180910390a3806000806101000a81548173ffffffffffffffffffffffffffffffffffffffff021916908373ffffffffffffffffffffffffffffffffffffffff16021790555050565b60608060608060008060036000888152602001908152602001600020546040519080825280602002602001820160405280156133465781602001602082028038833980820191505090505b509350600360008881526020019081526020016000205460405190808252806020026020018201604052801561338b5781602001602082028038833980820191505090505b50925060009150600090505b60018080549050038111151561344757866001828154811015156133b757fe5b906000526020600020906005020160040154141561343a576001818154811015156133de57fe5b90600052602060002090600502016000015484838151811015156133fe57fe5b90602001906020020190600019169081600019168152505080838381518110151561342557fe5b90602001906020020181815250506001820191505b8080600101915050613397565b83839550955050505050915091565b60006060829050600081511415613473576000600102915061347b565b602083015191505b50919050565b6000806060600091508390505b80518210156138165760007f010000000000000000000000000000000000000000000000000000000000000002600782848151811015156134cb57fe5b9060200101517f010000000000000000000000000000000000000000000000000000000000000090047f0100000000000000000000000000000000000000000000000000000000000000027effffffffffffffffffffffffffffffffffffffffffffffffffffffffffffff19169060020a90047effffffffffffffffffffffffffffffffffffffffffffffffffffffffffffff1916141561357157600182019150613809565b60067f010000000000000000000000000000000000000000000000000000000000000002600582848151811015156135a557fe5b9060200101517f010000000000000000000000000000000000000000000000000000000000000090047f0100000000000000000000000000000000000000000000000000000000000000027effffffffffffffffffffffffffffffffffffffffffffffffffffffffffffff19169060020a90047effffffffffffffffffffffffffffffffffffffffffffffffffffffffffffff1916141561364b57600282019150613808565b600e7f0100000000000000000000000000000000000000000000000000000000000000026004828481518110151561367f57fe5b9060200101517f010000000000000000000000000000000000000000000000000000000000000090047f0100000000000000000000000000000000000000000000000000000000000000027effffffffffffffffffffffffffffffffffffffffffffffffffffffffffffff19169060020a90047effffffffffffffffffffffffffffffffffffffffffffffffffffffffffffff1916141561372557600382019150613807565b601e7f0100000000000000000000000000000000000000000000000000000000000000026003828481518110151561375957fe5b9060200101517f010000000000000000000000000000000000000000000000000000000000000090047f0100000000000000000000000000000000000000000000000000000000000000027effffffffffffffffffffffffffffffffffffffffffffffffffffffffffffff19169060020a90047effffffffffffffffffffffffffffffffffffffffffffffffffffffffffffff191614156137ff57600482019150613806565b6001820191505b5b5b5b828060010193505061348e565b50509190505600a165627a7a72305820cf0c4378807525c99f071f34244d9e83fc39b9f14e2dcd9c4a3b150b9c2563200029",
  "source": "pragma solidity ^0.4.23;\r\n\r\nimport \"./Ownable.sol\";\r\nimport \"./Users.sol\";\r\nimport \"./Credentials.sol\";\r\n\r\ncontract MicroCredential is Ownable,Credentials,Users {\r\n\r\n    // Events\r\n    event Deposit(address _from, uint value);\r\n    event Withdraw(address _to, uint _amount);\r\n    event Balance(uint _remainingBalance);\r\n\r\n    //  Make sure the address resolves a valid contract\r\n    modifier onlyAgencyOwner() {\r\n        uint id = agencyIdByAddress[msg.sender];\r\n        require(agencies[id].agencyName.length > 1);\r\n        _;\r\n    }\r\n\r\n    // variables and such\r\n    struct Agency {\r\n        bytes32 agencyName;\r\n        bytes32 website;\r\n        bytes32 firstName;\r\n        bytes32 lastName;\r\n        bytes32 email;\r\n        bool isActive;\r\n        bool exists;\r\n    }\r\n\r\n    // Mappings and Variables\r\n    Agency[] public agencies;\r\n    mapping(bytes32 => uint) internal agencyIdByName;\r\n    mapping(address => uint) internal agencyIdByAddress;\r\n    uint numAgencies = 0;\r\n\r\n    // What would I do in a constructor.  \r\n    constructor() public {\r\n        registerAgency(\"Root Agency\",\"http://pirl.io\",\"Mike\",\"Murphy\",\"mmurphy384@yahoo.com\");\r\n        addUser(\"root\",\"user\",\"mmurphy384@yahoo.com\");\r\n        addCredential(\"root credential\", \"http://pirl.io\", 100,0);\r\n    }\r\n\r\n    // Purpose  : Fallback Function\r\n    function() public payable {\r\n        if (msg.value > 0) {\r\n            emit Deposit(msg.sender, msg.value);\r\n            emit Balance(address(this).balance);\r\n        }\r\n    }\r\n\r\n    // Purpose  : For the owner to withdraw some funds.\r\n    function withdraw(uint _amount) public onlyOwner {\r\n        require(address(this).balance > 0);\r\n        require(_amount > 0);\r\n        require(address(this).balance >= _amount);\r\n        address(msg.sender).transfer(_amount);\r\n        emit Withdraw(msg.sender, _amount);\r\n        emit Balance(address(this).balance);\r\n    }\r\n\r\n    // Purpose  : Need an 'iniitalize' because the first time, because it's public and payable.\r\n    //          : It needs to be payable or people will create these willy nilly.\r\n    function registerAgency(string _agencyName, string _website, string _firstName, string _lastName, string _email) \r\n        public payable { \r\n        require(utfStringLength(_agencyName) > 0);\r\n\r\n        agencies.push(Agency(\r\n            stringToBytes32(_agencyName), \r\n            stringToBytes32(_website),\r\n            stringToBytes32(_firstName),\r\n            stringToBytes32(_lastName),\r\n            stringToBytes32(_email),\r\n            true,\r\n            true)\r\n            );\r\n\r\n        uint id = agencies.length-1;\r\n        numAgencies += 1;\r\n        agencyIdByName[stringToBytes32(_agencyName)] = id;\r\n        agencyIdByAddress[msg.sender] = id;\r\n    }\r\n\r\n    // Purpose  : Set the agency basic info.  Can only by done by the agency owner \r\n    function updateAgencyInfo(string _agencyName, string _website, string _firstName, string _lastName, string _email) \r\n        public onlyAgencyOwner {\r\n        require(utfStringLength(_agencyName) > 2);\r\n        uint id = agencyIdByAddress[msg.sender];\r\n        require(agencies[id].agencyName.length > 1);\r\n        agencies[id].agencyName = stringToBytes32(_agencyName);\r\n        agencies[id].website = stringToBytes32(_website);\r\n        agencies[id].firstName = stringToBytes32(_firstName);\r\n        agencies[id].lastName = stringToBytes32(_lastName);\r\n        agencies[id].email = stringToBytes32(_email);\r\n        agencies[id].isActive = true;\r\n    }\r\n\r\n    // Purpose  : Get the agency basic info\r\n    function getAgencyCount() view public returns (uint) {\r\n        return numAgencies;\r\n    }\r\n\r\n    // Purpose  : Get the agency basic info\r\n    function getAgencyInfo(string _agencyName) view public returns (bytes32, bytes32, bytes32, bytes32, bytes32, bool, uint) {\r\n        require(utfStringLength(_agencyName) > 0);\r\n        uint id = agencyIdByName[stringToBytes32(_agencyName)];\r\n        return getAgencyInfoById(id);\r\n    }\r\n\r\n    // Purpose  : Get the agency basic info\r\n    function getAgencyInfoByAddress(address _address) view public returns (bytes32, bytes32, bytes32, bytes32, bytes32, bool, uint) {\r\n        uint id = agencyIdByAddress[_address];\r\n        return getAgencyInfoById(id);\r\n    }\r\n\r\n    // Purpose  : Get the agency basic info\r\n    function getAgencyInfoById(uint _id) view public returns (bytes32, bytes32, bytes32, bytes32, bytes32, bool, uint) {\r\n        require(agencies[_id].agencyName.length > 1);\r\n        return (\r\n            agencies[_id].agencyName, \r\n            agencies[_id].website, \r\n            agencies[_id].firstName, \r\n            agencies[_id].lastName, \r\n            agencies[_id].email, \r\n            agencies[_id].isActive,\r\n            _id);\r\n    }\r\n\r\n    // Purpose  : Get the agency basic info\r\n    function getAgencyIdByAddress(address _address) view public returns (uint) {\r\n        return agencyIdByAddress[_address];\r\n    }\r\n\r\n    // Purpose  : To Make the contract inactive and return funds to owner\r\n    function setAgencyInactive() public onlyAgencyOwner {\r\n        uint id = agencyIdByAddress[msg.sender];\r\n        require(agencies[id].agencyName.length > 1);\r\n        agencies[id].isActive = false;\r\n    }\r\n\r\n    // Purpose  : Used when an agency becomes active again\r\n    // To Do    : This will probably have to clear some queues, \r\n    //            reset credential statii, etc.\r\n    function setAgencyActive() public onlyAgencyOwner {\r\n        uint id = agencyIdByAddress[msg.sender];\r\n        require(agencies[id].agencyName.length > 1);\r\n        agencies[id].isActive = true;\r\n    }\r\n\r\n    // Purpose  : Get the contract balance\r\n    function getContractBalance() public onlyOwner view returns (uint) {\r\n        return address(this).balance;\r\n    }\r\n\r\n    // Purpose  : Determines if the address is an agency\r\n    function addressIsAgency(address _address) public view returns (bool) {\r\n        uint id = agencyIdByAddress[_address];\r\n        return (id > 0);\r\n    }\r\n\r\n    function getAgencies() public view returns (bytes32[], uint[]) {\r\n        require(agencies.length >= 0);\r\n        bytes32[] memory  agencyNames = new bytes32[](numAgencies);\r\n        uint[] memory  ids = new uint[](numAgencies);\r\n        for (uint i = 0; i < numAgencies; i++) {\r\n            agencyNames[i] = agencies[i].agencyName;\r\n            ids[i] = agencyIdByName[agencies[i].agencyName];\r\n        }\r\n        return (agencyNames, ids);\r\n    }\r\n\r\n    // Purpsoe  : Owners with draw all pirl from contract.  Shutting contract down.\r\n    function destroy() public onlyOwner {\r\n        withdraw(address(this).balance);\r\n    }\r\n\r\n}",
  "sourcePath": "C:\\Development\\PIRL\\MicroCredentials\\truffle\\contracts\\MicroCredential.sol",
  "compiler": {
    "name": "solc",
    "version": "0.4.23+commit.124ca40d.Emscripten.clang"
  },
  "schemaVersion": "2.0.0",
  "updatedAt": "2018-05-19T02:03:04.580Z"
}