{
  "contractName": "MicroCredential",
  "abi": [
    {
      "constant": true,
      "inputs": [
        {
          "name": "_email",
          "type": "string"
        }
      ],
      "name": "getUserByEmail",
      "outputs": [
        {
          "name": "",
          "type": "bytes32"
        },
        {
          "name": "",
          "type": "bytes32"
        },
        {
          "name": "",
          "type": "bytes32"
        },
        {
          "name": "",
          "type": "bool"
        },
        {
          "name": "",
          "type": "uint256"
        }
      ],
      "payable": false,
      "stateMutability": "view",
      "type": "function"
    },
    {
      "constant": true,
      "inputs": [],
      "name": "getMyId",
      "outputs": [
        {
          "name": "",
          "type": "uint256"
        }
      ],
      "payable": false,
      "stateMutability": "view",
      "type": "function"
    },
    {
      "constant": false,
      "inputs": [
        {
          "name": "_name",
          "type": "string"
        },
        {
          "name": "_url",
          "type": "string"
        },
        {
          "name": "_fee",
          "type": "uint256"
        },
        {
          "name": "_agencyId",
          "type": "uint256"
        }
      ],
      "name": "addCredential",
      "outputs": [
        {
          "name": "",
          "type": "uint256"
        }
      ],
      "payable": false,
      "stateMutability": "nonpayable",
      "type": "function"
    },
    {
      "constant": true,
      "inputs": [
        {
          "name": "",
          "type": "uint256"
        }
      ],
      "name": "users",
      "outputs": [
        {
          "name": "firstName",
          "type": "bytes32"
        },
        {
          "name": "lastName",
          "type": "bytes32"
        },
        {
          "name": "email",
          "type": "bytes32"
        },
        {
          "name": "isActive",
          "type": "bool"
        }
      ],
      "payable": false,
      "stateMutability": "view",
      "type": "function"
    },
    {
      "constant": true,
      "inputs": [
        {
          "name": "",
          "type": "uint256"
        }
      ],
      "name": "agencies",
      "outputs": [
        {
          "name": "agencyName",
          "type": "bytes32"
        },
        {
          "name": "website",
          "type": "bytes32"
        },
        {
          "name": "firstName",
          "type": "bytes32"
        },
        {
          "name": "lastName",
          "type": "bytes32"
        },
        {
          "name": "email",
          "type": "bytes32"
        },
        {
          "name": "isActive",
          "type": "bool"
        },
        {
          "name": "exists",
          "type": "bool"
        }
      ],
      "payable": false,
      "stateMutability": "view",
      "type": "function"
    },
    {
      "constant": true,
      "inputs": [
        {
          "name": "_id",
          "type": "uint256"
        }
      ],
      "name": "getCredentialById",
      "outputs": [
        {
          "name": "name",
          "type": "bytes32"
        },
        {
          "name": "url",
          "type": "bytes32"
        },
        {
          "name": "fee",
          "type": "uint256"
        }
      ],
      "payable": false,
      "stateMutability": "view",
      "type": "function"
    },
    {
      "constant": false,
      "inputs": [
        {
          "name": "_firstName",
          "type": "string"
        },
        {
          "name": "_lastName",
          "type": "string"
        },
        {
          "name": "_email",
          "type": "string"
        }
      ],
      "name": "updateUser",
      "outputs": [],
      "payable": false,
      "stateMutability": "nonpayable",
      "type": "function"
    },
    {
      "constant": true,
      "inputs": [
        {
          "name": "_address",
          "type": "address"
        }
      ],
      "name": "getCredentialListByAgencyAddress",
      "outputs": [
        {
          "name": "",
          "type": "bytes32[]"
        }
      ],
      "payable": false,
      "stateMutability": "view",
      "type": "function"
    },
    {
      "constant": true,
      "inputs": [
        {
          "name": "_address",
          "type": "address"
        }
      ],
      "name": "getUserByAddress",
      "outputs": [
        {
          "name": "",
          "type": "bytes32"
        },
        {
          "name": "",
          "type": "bytes32"
        },
        {
          "name": "",
          "type": "bytes32"
        },
        {
          "name": "",
          "type": "bool"
        },
        {
          "name": "",
          "type": "uint256"
        }
      ],
      "payable": false,
      "stateMutability": "view",
      "type": "function"
    },
    {
      "constant": true,
      "inputs": [
        {
          "name": "_id",
          "type": "uint256"
        }
      ],
      "name": "getUserById",
      "outputs": [
        {
          "name": "",
          "type": "bytes32"
        },
        {
          "name": "",
          "type": "bytes32"
        },
        {
          "name": "",
          "type": "bytes32"
        },
        {
          "name": "",
          "type": "bool"
        },
        {
          "name": "",
          "type": "uint256"
        }
      ],
      "payable": false,
      "stateMutability": "view",
      "type": "function"
    },
    {
      "constant": true,
      "inputs": [
        {
          "name": "_email",
          "type": "string"
        }
      ],
      "name": "getIdByEmail",
      "outputs": [
        {
          "name": "",
          "type": "uint256"
        }
      ],
      "payable": false,
      "stateMutability": "view",
      "type": "function"
    },
    {
      "constant": true,
      "inputs": [],
      "name": "owner",
      "outputs": [
        {
          "name": "",
          "type": "address"
        }
      ],
      "payable": false,
      "stateMutability": "view",
      "type": "function"
    },
    {
      "constant": false,
      "inputs": [
        {
          "name": "_firstName",
          "type": "string"
        },
        {
          "name": "_lastName",
          "type": "string"
        },
        {
          "name": "_email",
          "type": "string"
        }
      ],
      "name": "addUser",
      "outputs": [],
      "payable": false,
      "stateMutability": "nonpayable",
      "type": "function"
    },
    {
      "constant": true,
      "inputs": [],
      "name": "getUserList",
      "outputs": [
        {
          "name": "",
          "type": "bytes32[]"
        },
        {
          "name": "",
          "type": "bytes32[]"
        },
        {
          "name": "",
          "type": "bytes32[]"
        },
        {
          "name": "",
          "type": "bool[]"
        }
      ],
      "payable": false,
      "stateMutability": "view",
      "type": "function"
    },
    {
      "constant": true,
      "inputs": [],
      "name": "getCredentialList",
      "outputs": [
        {
          "name": "",
          "type": "bytes32[]"
        }
      ],
      "payable": false,
      "stateMutability": "view",
      "type": "function"
    },
    {
      "constant": true,
      "inputs": [
        {
          "name": "_address",
          "type": "address"
        }
      ],
      "name": "addressIsUser",
      "outputs": [
        {
          "name": "",
          "type": "bool"
        }
      ],
      "payable": false,
      "stateMutability": "view",
      "type": "function"
    },
    {
      "constant": true,
      "inputs": [
        {
          "name": "_address",
          "type": "address"
        }
      ],
      "name": "getIdByAddress",
      "outputs": [
        {
          "name": "",
          "type": "uint256"
        }
      ],
      "payable": false,
      "stateMutability": "view",
      "type": "function"
    },
    {
      "constant": true,
      "inputs": [
        {
          "name": "",
          "type": "uint256"
        }
      ],
      "name": "credentials",
      "outputs": [
        {
          "name": "name",
          "type": "bytes32"
        },
        {
          "name": "url",
          "type": "bytes32"
        },
        {
          "name": "isActive",
          "type": "bool"
        },
        {
          "name": "fee",
          "type": "uint256"
        }
      ],
      "payable": false,
      "stateMutability": "view",
      "type": "function"
    },
    {
      "constant": true,
      "inputs": [
        {
          "name": "_name",
          "type": "string"
        }
      ],
      "name": "getCredentialByName",
      "outputs": [
        {
          "name": "name",
          "type": "bytes32"
        },
        {
          "name": "url",
          "type": "bytes32"
        },
        {
          "name": "fee",
          "type": "uint256"
        }
      ],
      "payable": false,
      "stateMutability": "view",
      "type": "function"
    },
    {
      "constant": false,
      "inputs": [
        {
          "name": "newOwner",
          "type": "address"
        }
      ],
      "name": "transferOwnership",
      "outputs": [],
      "payable": false,
      "stateMutability": "nonpayable",
      "type": "function"
    },
    {
      "inputs": [],
      "payable": false,
      "stateMutability": "nonpayable",
      "type": "constructor"
    },
    {
      "payable": true,
      "stateMutability": "payable",
      "type": "fallback"
    },
    {
      "anonymous": false,
      "inputs": [
        {
          "indexed": false,
          "name": "_from",
          "type": "address"
        },
        {
          "indexed": false,
          "name": "value",
          "type": "uint256"
        }
      ],
      "name": "Deposit",
      "type": "event"
    },
    {
      "anonymous": false,
      "inputs": [
        {
          "indexed": false,
          "name": "_to",
          "type": "address"
        },
        {
          "indexed": false,
          "name": "_amount",
          "type": "uint256"
        }
      ],
      "name": "Withdraw",
      "type": "event"
    },
    {
      "anonymous": false,
      "inputs": [
        {
          "indexed": false,
          "name": "_remainingBalance",
          "type": "uint256"
        }
      ],
      "name": "Balance",
      "type": "event"
    },
    {
      "anonymous": false,
      "inputs": [
        {
          "indexed": false,
          "name": "id",
          "type": "uint256"
        },
        {
          "indexed": false,
          "name": "firstName",
          "type": "string"
        },
        {
          "indexed": false,
          "name": "lastName",
          "type": "string"
        },
        {
          "indexed": false,
          "name": "email",
          "type": "string"
        },
        {
          "indexed": false,
          "name": "userAddress",
          "type": "address"
        }
      ],
      "name": "NewUser",
      "type": "event"
    },
    {
      "anonymous": false,
      "inputs": [
        {
          "indexed": false,
          "name": "id",
          "type": "uint256"
        },
        {
          "indexed": false,
          "name": "firstName",
          "type": "string"
        },
        {
          "indexed": false,
          "name": "lastName",
          "type": "string"
        },
        {
          "indexed": false,
          "name": "email",
          "type": "string"
        },
        {
          "indexed": false,
          "name": "userAddress",
          "type": "address"
        }
      ],
      "name": "UpdateUser",
      "type": "event"
    },
    {
      "anonymous": false,
      "inputs": [
        {
          "indexed": false,
          "name": "name",
          "type": "bytes32"
        },
        {
          "indexed": false,
          "name": "url",
          "type": "bytes32"
        },
        {
          "indexed": false,
          "name": "isActive",
          "type": "bytes32"
        },
        {
          "indexed": false,
          "name": "fee",
          "type": "uint256"
        }
      ],
      "name": "NewCredential",
      "type": "event"
    },
    {
      "anonymous": false,
      "inputs": [
        {
          "indexed": true,
          "name": "previousOwner",
          "type": "address"
        },
        {
          "indexed": true,
          "name": "newOwner",
          "type": "address"
        }
      ],
      "name": "OwnershipTransferred",
      "type": "event"
    },
    {
      "constant": false,
      "inputs": [
        {
          "name": "_amount",
          "type": "uint256"
        }
      ],
      "name": "withdraw",
      "outputs": [],
      "payable": false,
      "stateMutability": "nonpayable",
      "type": "function"
    },
    {
      "constant": false,
      "inputs": [
        {
          "name": "_agencyName",
          "type": "string"
        },
        {
          "name": "_website",
          "type": "string"
        },
        {
          "name": "_firstName",
          "type": "string"
        },
        {
          "name": "_lastName",
          "type": "string"
        },
        {
          "name": "_email",
          "type": "string"
        }
      ],
      "name": "registerAgency",
      "outputs": [],
      "payable": true,
      "stateMutability": "payable",
      "type": "function"
    },
    {
      "constant": false,
      "inputs": [
        {
          "name": "_agencyName",
          "type": "string"
        },
        {
          "name": "_website",
          "type": "string"
        },
        {
          "name": "_firstName",
          "type": "string"
        },
        {
          "name": "_lastName",
          "type": "string"
        },
        {
          "name": "_email",
          "type": "string"
        }
      ],
      "name": "updateAgencyInfo",
      "outputs": [],
      "payable": false,
      "stateMutability": "nonpayable",
      "type": "function"
    },
    {
      "constant": true,
      "inputs": [],
      "name": "getAgencyCount",
      "outputs": [
        {
          "name": "",
          "type": "uint256"
        }
      ],
      "payable": false,
      "stateMutability": "view",
      "type": "function"
    },
    {
      "constant": true,
      "inputs": [
        {
          "name": "_agencyName",
          "type": "string"
        }
      ],
      "name": "getAgencyInfo",
      "outputs": [
        {
          "name": "",
          "type": "bytes32"
        },
        {
          "name": "",
          "type": "bytes32"
        },
        {
          "name": "",
          "type": "bytes32"
        },
        {
          "name": "",
          "type": "bytes32"
        },
        {
          "name": "",
          "type": "bytes32"
        },
        {
          "name": "",
          "type": "bool"
        },
        {
          "name": "",
          "type": "uint256"
        }
      ],
      "payable": false,
      "stateMutability": "view",
      "type": "function"
    },
    {
      "constant": true,
      "inputs": [
        {
          "name": "_address",
          "type": "address"
        }
      ],
      "name": "getAgencyInfoByAddress",
      "outputs": [
        {
          "name": "",
          "type": "bytes32"
        },
        {
          "name": "",
          "type": "bytes32"
        },
        {
          "name": "",
          "type": "bytes32"
        },
        {
          "name": "",
          "type": "bytes32"
        },
        {
          "name": "",
          "type": "bytes32"
        },
        {
          "name": "",
          "type": "bool"
        },
        {
          "name": "",
          "type": "uint256"
        }
      ],
      "payable": false,
      "stateMutability": "view",
      "type": "function"
    },
    {
      "constant": true,
      "inputs": [
        {
          "name": "_id",
          "type": "uint256"
        }
      ],
      "name": "getAgencyInfoById",
      "outputs": [
        {
          "name": "",
          "type": "bytes32"
        },
        {
          "name": "",
          "type": "bytes32"
        },
        {
          "name": "",
          "type": "bytes32"
        },
        {
          "name": "",
          "type": "bytes32"
        },
        {
          "name": "",
          "type": "bytes32"
        },
        {
          "name": "",
          "type": "bool"
        },
        {
          "name": "",
          "type": "uint256"
        }
      ],
      "payable": false,
      "stateMutability": "view",
      "type": "function"
    },
    {
      "constant": true,
      "inputs": [
        {
          "name": "_address",
          "type": "address"
        }
      ],
      "name": "getAgencyIdByAddress",
      "outputs": [
        {
          "name": "",
          "type": "uint256"
        }
      ],
      "payable": false,
      "stateMutability": "view",
      "type": "function"
    },
    {
      "constant": false,
      "inputs": [],
      "name": "setAgencyInactive",
      "outputs": [],
      "payable": false,
      "stateMutability": "nonpayable",
      "type": "function"
    },
    {
      "constant": false,
      "inputs": [],
      "name": "setAgencyActive",
      "outputs": [],
      "payable": false,
      "stateMutability": "nonpayable",
      "type": "function"
    },
    {
      "constant": true,
      "inputs": [],
      "name": "getContractBalance",
      "outputs": [
        {
          "name": "",
          "type": "uint256"
        }
      ],
      "payable": false,
      "stateMutability": "view",
      "type": "function"
    },
    {
      "constant": true,
      "inputs": [
        {
          "name": "_address",
          "type": "address"
        }
      ],
      "name": "addressIsAgency",
      "outputs": [
        {
          "name": "",
          "type": "bool"
        }
      ],
      "payable": false,
      "stateMutability": "view",
      "type": "function"
    },
    {
      "constant": true,
      "inputs": [],
      "name": "getAgencies",
      "outputs": [
        {
          "name": "",
          "type": "bytes32[]"
        },
        {
          "name": "",
          "type": "uint256[]"
        }
      ],
      "payable": false,
      "stateMutability": "view",
      "type": "function"
    },
    {
      "constant": false,
      "inputs": [],
      "name": "destroy",
      "outputs": [],
      "payable": false,
      "stateMutability": "nonpayable",
      "type": "function"
    }
  ],
  "bytecode": "0x608060405260006008556000600c553480156200001b57600080fd5b50336000806101000a81548173ffffffffffffffffffffffffffffffffffffffff021916908373ffffffffffffffffffffffffffffffffffffffff160217905550620001836040805190810160405280600b81526020017f526f6f74204167656e63790000000000000000000000000000000000000000008152506040805190810160405280600e81526020017f687474703a2f2f7069726c2e696f0000000000000000000000000000000000008152506040805190810160405280600481526020017f4d696b65000000000000000000000000000000000000000000000000000000008152506040805190810160405280600681526020017f4d757270687900000000000000000000000000000000000000000000000000008152506040805190810160405280601481526020017f6d6d7572706879333834407961686f6f2e636f6d000000000000000000000000815250620002ce640100000000026401000000009004565b6200023e6040805190810160405280600481526020017f726f6f74000000000000000000000000000000000000000000000000000000008152506040805190810160405280600481526020017f75736572000000000000000000000000000000000000000000000000000000008152506040805190810160405280601481526020017f6d6d7572706879333834407961686f6f2e636f6d00000000000000000000000081525062000524640100000000026401000000009004565b620002c76040805190810160405280600f81526020017f726f6f742063726564656e7469616c00000000000000000000000000000000008152506040805190810160405280600e81526020017f687474703a2f2f7069726c2e696f000000000000000000000000000000000000815250606460006200090b640100000000026401000000009004565b5062000e66565b600080620002eb8762000a8f640100000000026401000000009004565b111515620002f857600080fd5b600960e060405190810160405280620003208962000e39640100000000026401000000009004565b600019168152602001620003438862000e39640100000000026401000000009004565b600019168152602001620003668762000e39640100000000026401000000009004565b600019168152602001620003898662000e39640100000000026401000000009004565b600019168152602001620003ac8562000e39640100000000026401000000009004565b6000191681526020016001151581526020016001151581525090806001815401808255809150509060018203906000526020600020906006020160009091929091909150600082015181600001906000191690556020820151816001019060001916905560408201518160020190600019169055606082015181600301906000191690556080820151816004019060001916905560a08201518160050160006101000a81548160ff02191690831515021790555060c08201518160050160016101000a81548160ff02191690831515021790555050505060016009805490500390506001600c6000828254019250508190555080600a6000620004be8962000e39640100000000026401000000009004565b600019166000191681526020019081526020016000208190555080600b60003373ffffffffffffffffffffffffffffffffffffffff1673ffffffffffffffffffffffffffffffffffffffff16815260200190815260200160002081905550505050505050565b60008060066000620005458562000e39640100000000026401000000009004565b60001916600019168152602001908152602001600020541415156200056957600080fd5b6000600760003373ffffffffffffffffffffffffffffffffffffffff1673ffffffffffffffffffffffffffffffffffffffff16815260200190815260200160002054141515620005b857600080fd5b6000905060016005608060405190810160405280620005e68862000e39640100000000026401000000009004565b600019168152602001620006098762000e39640100000000026401000000009004565b6000191681526020016200062c8662000e39640100000000026401000000009004565b600019168152602001600115158152509080600181540180825580915050906001820390600052602060002090600402016000909192909190915060008201518160000190600019169055602082015181600101906000191690556040820151816002019060001916905560608201518160030160006101000a81548160ff02191690831515021790555050500390508060066000620006db8562000e39640100000000026401000000009004565b600019166000191681526020019081526020016000208190555080600760003373ffffffffffffffffffffffffffffffffffffffff1673ffffffffffffffffffffffffffffffffffffffff1681526020019081526020016000208190555060016008600082825401925050819055507f023a8bc2c2a7585292c8d76a6c38d4001ebdb3df730965277bc4d0e94f2647518185858533604051808681526020018060200180602001806020018573ffffffffffffffffffffffffffffffffffffffff1673ffffffffffffffffffffffffffffffffffffffff168152602001848103845288818151815260200191508051906020019080838360005b83811015620007f2578082015181840152602081019050620007d5565b50505050905090810190601f168015620008205780820380516001836020036101000a031916815260200191505b50848103835287818151815260200191508051906020019080838360005b838110156200085b5780820151818401526020810190506200083e565b50505050905090810190601f168015620008895780820380516001836020036101000a031916815260200191505b50848103825286818151815260200191508051906020019080838360005b83811015620008c4578082015181840152602081019050620008a7565b50505050905090810190601f168015620008f25780820380516001836020036101000a031916815260200191505b509850505050505050505060405180910390a150505050565b6000806000600260006200092e8962000e39640100000000026401000000009004565b60001916600019168152602001908152602001600020541415156200095257600080fd5b600090506001806080604051908101604052806200097f8a62000e39640100000000026401000000009004565b600019168152602001620009a28962000e39640100000000026401000000009004565b6000191681526020016001151581526020018781525090806001815401808255809150509060018203906000526020600020906004020160009091929091909150600082015181600001906000191690556020820151816001019060001916905560408201518160020160006101000a81548160ff021916908315150217905550606082015181600301555050039050806002600062000a518962000e39640100000000026401000000009004565b600019166000191681526020019081526020016000208190555080600460008581526020019081526020016000208190555080915050949350505050565b6000806060600091508390505b805182101562000e325760007f0100000000000000000000000000000000000000000000000000000000000000026007828481518110151562000adb57fe5b9060200101517f010000000000000000000000000000000000000000000000000000000000000090047f0100000000000000000000000000000000000000000000000000000000000000027effffffffffffffffffffffffffffffffffffffffffffffffffffffffffffff19169060020a90047effffffffffffffffffffffffffffffffffffffffffffffffffffffffffffff1916141562000b835760018201915062000e24565b60067f0100000000000000000000000000000000000000000000000000000000000000026005828481518110151562000bb857fe5b9060200101517f010000000000000000000000000000000000000000000000000000000000000090047f0100000000000000000000000000000000000000000000000000000000000000027effffffffffffffffffffffffffffffffffffffffffffffffffffffffffffff19169060020a90047effffffffffffffffffffffffffffffffffffffffffffffffffffffffffffff1916141562000c605760028201915062000e23565b600e7f0100000000000000000000000000000000000000000000000000000000000000026004828481518110151562000c9557fe5b9060200101517f010000000000000000000000000000000000000000000000000000000000000090047f0100000000000000000000000000000000000000000000000000000000000000027effffffffffffffffffffffffffffffffffffffffffffffffffffffffffffff19169060020a90047effffffffffffffffffffffffffffffffffffffffffffffffffffffffffffff1916141562000d3d5760038201915062000e22565b601e7f0100000000000000000000000000000000000000000000000000000000000000026003828481518110151562000d7257fe5b9060200101517f010000000000000000000000000000000000000000000000000000000000000090047f0100000000000000000000000000000000000000000000000000000000000000027effffffffffffffffffffffffffffffffffffffffffffffffffffffffffffff19169060020a90047effffffffffffffffffffffffffffffffffffffffffffffffffffffffffffff1916141562000e1a5760048201915062000e21565b6001820191505b5b5b5b828060010193505062000a9c565b5050919050565b6000606082905060008151141562000e58576000600102915062000e60565b602083015191505b50919050565b613a058062000e766000396000f3006080604052600436106101ac576000357c0100000000000000000000000000000000000000000000000000000000900463ffffffff16806307c0d98c1461027157806318046ae11461032557806327ed00ee146103da5780632859b54a146104055780632916435b1461041c5780632c26eabc146104c95780632e1a7d4d146105245780632f98a92314610551578063365b98b21461062857806339b1c5111461069a5780633c8d830d1461076d5780633ef39e2a146108085780634923cc751461086757806360903be6146108be578063640863b1146109b357806369c212f614610a4b5780636ed6da9e14610ada5780636f9fb98a14610b5357806373c443ef14610b7e578063794953bf14610b95578063807d804514610c2c57806383197ef014610ca95780638624c3ac14610cc05780638da5cb5b14610ceb57806395c5fed414610d42578063b366c5d214610e37578063b852204314610fb8578063cf021c8a146110fc578063df97cda314611168578063dff3b497146111c3578063e0574e3f1461121a578063eed0e87e14611284578063eeef26dd1461131f578063f2fde38b14611493575b600034111561026f577fe1fffcc4923d04b559f4d29a8bfc6cda04eb5b0d3c460751c2402c5c5cc9109c3334604051808373ffffffffffffffffffffffffffffffffffffffff1673ffffffffffffffffffffffffffffffffffffffff1681526020018281526020019250505060405180910390a17fe8d947d7ebdd7b8b8fa2ad2022c7591418ac32d8c29c5f8a8fc9de52ffa540923073ffffffffffffffffffffffffffffffffffffffff16316040518082815260200191505060405180910390a15b005b34801561027d57600080fd5b506102866114d6565b604051808060200180602001838103835285818151815260200191508051906020019060200280838360005b838110156102cd5780820151818401526020810190506102b2565b50505050905001838103825284818151815260200191508051906020019060200280838360005b8381101561030f5780820151818401526020810190506102f4565b5050505090500194505050505060405180910390f35b34801561033157600080fd5b5061038c600480360381019080803590602001908201803590602001908080601f0160208091040260200160405190810160405280939291908181526020018383808284378201915050505050509192919290505050611622565b60405180866000191660001916815260200185600019166000191681526020018460001916600019168152602001831515151581526020018281526020019550505050505060405180910390f35b3480156103e657600080fd5b506103ef611738565b6040518082815260200191505060405180910390f35b34801561041157600080fd5b5061041a6117cc565b005b34801561042857600080fd5b5061045d600480360381019080803573ffffffffffffffffffffffffffffffffffffffff1690602001909291905050506118ec565b60405180886000191660001916815260200187600019166000191681526020018660001916600019168152602001856000191660001916815260200184600019166000191681526020018315151515815260200182815260200197505050505050505060405180910390f35b3480156104d557600080fd5b5061050a600480360381019080803573ffffffffffffffffffffffffffffffffffffffff16906020019092919050505061195d565b604051808215151515815260200191505060405180910390f35b34801561053057600080fd5b5061054f600480360381019080803590602001909291905050506119ae565b005b34801561055d57600080fd5b50610612600480360381019080803590602001908201803590602001908080601f0160208091040260200160405190810160405280939291908181526020018383808284378201915050505050509192919290803590602001908201803590602001908080601f01602080910402602001604051908101604052809392919081815260200183838082843782019150505050505091929192908035906020019092919080359060200190929190505050611b67565b6040518082815260200191505060405180910390f35b34801561063457600080fd5b5061065360048036038101908080359060200190929190505050611ca6565b604051808560001916600019168152602001846000191660001916815260200183600019166000191681526020018215151515815260200194505050505060405180910390f35b3480156106a657600080fd5b50610701600480360381019080803590602001908201803590602001908080601f0160208091040260200160405190810160405280939291908181526020018383808284378201915050505050509192919290505050611cf2565b60405180886000191660001916815260200187600019166000191681526020018660001916600019168152602001856000191660001916815260200184600019166000191681526020018315151515815260200182815260200197505050505050505060405180910390f35b34801561077957600080fd5b5061079860048036038101908080359060200190929190505050611d5e565b6040518088600019166000191681526020018760001916600019168152602001866000191660001916815260200185600019166000191681526020018460001916600019168152602001831515151581526020018215151515815260200197505050505050505060405180910390f35b34801561081457600080fd5b5061083360048036038101908080359060200190929190505050611dc9565b6040518084600019166000191681526020018360001916600019168152602001828152602001935050505060405180910390f35b34801561087357600080fd5b506108a8600480360381019080803573ffffffffffffffffffffffffffffffffffffffff169060200190929190505050611e51565b6040518082815260200191505060405180910390f35b3480156108ca57600080fd5b506109b1600480360381019080803590602001908201803590602001908080601f0160208091040260200160405190810160405280939291908181526020018383808284378201915050505050509192919290803590602001908201803590602001908080601f0160208091040260200160405190810160405280939291908181526020018383808284378201915050505050509192919290803590602001908201803590602001908080601f0160208091040260200160405190810160405280939291908181526020018383808284378201915050505050509192919290505050611e9a565b005b3480156109bf57600080fd5b506109f4600480360381019080803573ffffffffffffffffffffffffffffffffffffffff1690602001909291905050506121da565b6040518080602001828103825283818151815260200191508051906020019060200280838360005b83811015610a37578082015181840152602081019050610a1c565b505050509050019250505060405180910390f35b348015610a5757600080fd5b50610a8c600480360381019080803573ffffffffffffffffffffffffffffffffffffffff169060200190929190505050612289565b60405180866000191660001916815260200185600019166000191681526020018460001916600019168152602001831515151581526020018281526020019550505050505060405180910390f35b348015610ae657600080fd5b50610b05600480360381019080803590602001909291905050506123b8565b60405180866000191660001916815260200185600019166000191681526020018460001916600019168152602001831515151581526020018281526020019550505050505060405180910390f35b348015610b5f57600080fd5b50610b68612475565b6040518082815260200191505060405180910390f35b348015610b8a57600080fd5b50610b936124ef565b005b348015610ba157600080fd5b50610bc06004803603810190808035906020019092919050505061260f565b60405180886000191660001916815260200187600019166000191681526020018660001916600019168152602001856000191660001916815260200184600019166000191681526020018315151515815260200182815260200197505050505050505060405180910390f35b348015610c3857600080fd5b50610c93600480360381019080803590602001908201803590602001908080601f0160208091040260200160405190810160405280939291908181526020018383808284378201915050505050509192919290505050612735565b6040518082815260200191505060405180910390f35b348015610cb557600080fd5b50610cbe612762565b005b348015610ccc57600080fd5b50610cd56127df565b6040518082815260200191505060405180910390f35b348015610cf757600080fd5b50610d006127e9565b604051808273ffffffffffffffffffffffffffffffffffffffff1673ffffffffffffffffffffffffffffffffffffffff16815260200191505060405180910390f35b348015610d4e57600080fd5b50610e35600480360381019080803590602001908201803590602001908080601f0160208091040260200160405190810160405280939291908181526020018383808284378201915050505050509192919290803590602001908201803590602001908080601f0160208091040260200160405190810160405280939291908181526020018383808284378201915050505050509192919290803590602001908201803590602001908080601f016020809104026020016040519081016040528093929190818152602001838380828437820191505050505050919291929050505061280e565b005b348015610e4357600080fd5b50610fb6600480360381019080803590602001908201803590602001908080601f0160208091040260200160405190810160405280939291908181526020018383808284378201915050505050509192919290803590602001908201803590602001908080601f0160208091040260200160405190810160405280939291908181526020018383808284378201915050505050509192919290803590602001908201803590602001908080601f0160208091040260200160405190810160405280939291908181526020018383808284378201915050505050509192919290803590602001908201803590602001908080601f0160208091040260200160405190810160405280939291908181526020018383808284378201915050505050509192919290803590602001908201803590602001908080601f0160208091040260200160405190810160405280939291908181526020018383808284378201915050505050509192919290505050612b95565b005b348015610fc457600080fd5b50610fcd612dc6565b6040518080602001806020018060200180602001858103855289818151815260200191508051906020019060200280838360005b8381101561101c578082015181840152602081019050611001565b50505050905001858103845288818151815260200191508051906020019060200280838360005b8381101561105e578082015181840152602081019050611043565b50505050905001858103835287818151815260200191508051906020019060200280838360005b838110156110a0578082015181840152602081019050611085565b50505050905001858103825286818151815260200191508051906020019060200280838360005b838110156110e25780820151818401526020810190506110c7565b505050509050019850505050505050505060405180910390f35b34801561110857600080fd5b5061111161300d565b6040518080602001828103825283818151815260200191508051906020019060200280838360005b83811015611154578082015181840152602081019050611139565b505050509050019250505060405180910390f35b34801561117457600080fd5b506111a9600480360381019080803573ffffffffffffffffffffffffffffffffffffffff1690602001909291905050506130ce565b604051808215151515815260200191505060405180910390f35b3480156111cf57600080fd5b50611204600480360381019080803573ffffffffffffffffffffffffffffffffffffffff16906020019092919050505061311f565b6040518082815260200191505060405180910390f35b34801561122657600080fd5b50611245600480360381019080803590602001909291905050506131b5565b60405180856000191660001916815260200184600019166000191681526020018315151515815260200182815260200194505050505060405180910390f35b34801561129057600080fd5b506112eb600480360381019080803590602001908201803590602001908080601f0160208091040260200160405190810160405280939291908181526020018383808284378201915050505050509192919290505050613201565b6040518084600019166000191681526020018360001916600019168152602001828152602001935050505060405180910390f35b611491600480360381019080803590602001908201803590602001908080601f0160208091040260200160405190810160405280939291908181526020018383808284378201915050505050509192919290803590602001908201803590602001908080601f0160208091040260200160405190810160405280939291908181526020018383808284378201915050505050509192919290803590602001908201803590602001908080601f0160208091040260200160405190810160405280939291908181526020018383808284378201915050505050509192919290803590602001908201803590602001908080601f0160208091040260200160405190810160405280939291908181526020018383808284378201915050505050509192919290803590602001908201803590602001908080601f01602080910402602001604051908101604052809392919081815260200183838082843782019150505050505091929192905050506132df565b005b34801561149f57600080fd5b506114d4600480360381019080803573ffffffffffffffffffffffffffffffffffffffff1690602001909291905050506134bd565b005b606080606080600080600980549050101515156114f257600080fd5b600c546040519080825280602002602001820160405280156115235781602001602082028038833980820191505090505b509250600c546040519080825280602002602001820160405280156115575781602001602082028038833980820191505090505b509150600090505b600c548110156116155760098181548110151561157857fe5b906000526020600020906006020160000154838281518110151561159857fe5b906020019060200201906000191690816000191681525050600a60006009838154811015156115c357fe5b906000526020600020906006020160000154600019166000191681526020019081526020016000205482828151811015156115fa57fe5b9060200190602002018181525050808060010191505061155f565b8282945094505050509091565b6000806000806000806006600061163889613612565b60001916600019168152602001908152602001600020549050600060058281548110151561166257fe5b906000526020600020905050602060ff1611151561167f57600080fd5b6005805490508110151561169257600080fd5b6005818154811015156116a157fe5b9060005260206000209060040201600001546005828154811015156116c257fe5b9060005260206000209060040201600101546005838154811015156116e357fe5b90600052602060002090600402016002015460058481548110151561170457fe5b906000526020600020906004020160030160009054906101000a900460ff1684955095509550955095505091939590929450565b600080600760003373ffffffffffffffffffffffffffffffffffffffff1673ffffffffffffffffffffffffffffffffffffffff1681526020019081526020016000205411151561178757600080fd5b600760003373ffffffffffffffffffffffffffffffffffffffff1673ffffffffffffffffffffffffffffffffffffffff16815260200190815260200160002054905090565b600080600b60003373ffffffffffffffffffffffffffffffffffffffff1673ffffffffffffffffffffffffffffffffffffffff168152602001908152602001600020549050600160098281548110151561182257fe5b906000526020600020905050602060ff1611151561183f57600080fd5b600b60003373ffffffffffffffffffffffffffffffffffffffff1673ffffffffffffffffffffffffffffffffffffffff168152602001908152602001600020549150600160098381548110151561189257fe5b906000526020600020905050602060ff161115156118af57600080fd5b60006009838154811015156118c057fe5b906000526020600020906006020160050160006101000a81548160ff0219169083151502179055505050565b600080600080600080600080600b60008a73ffffffffffffffffffffffffffffffffffffffff1673ffffffffffffffffffffffffffffffffffffffff1681526020019081526020016000205490506119438161260f565b975097509750975097509750975050919395979092949650565b600080600b60008473ffffffffffffffffffffffffffffffffffffffff1673ffffffffffffffffffffffffffffffffffffffff16815260200190815260200160002054905060008111915050919050565b6000809054906101000a900473ffffffffffffffffffffffffffffffffffffffff1673ffffffffffffffffffffffffffffffffffffffff163373ffffffffffffffffffffffffffffffffffffffff16141515611a0957600080fd5b60003073ffffffffffffffffffffffffffffffffffffffff1631111515611a2f57600080fd5b600081111515611a3e57600080fd5b803073ffffffffffffffffffffffffffffffffffffffff163110151515611a6457600080fd5b3373ffffffffffffffffffffffffffffffffffffffff166108fc829081150290604051600060405180830381858888f19350505050158015611aaa573d6000803e3d6000fd5b507f884edad9ce6fa2440d8a54cc123490eb96d2768479d49ff9c7366125a94243643382604051808373ffffffffffffffffffffffffffffffffffffffff1673ffffffffffffffffffffffffffffffffffffffff1681526020018281526020019250505060405180910390a17fe8d947d7ebdd7b8b8fa2ad2022c7591418ac32d8c29c5f8a8fc9de52ffa540923073ffffffffffffffffffffffffffffffffffffffff16316040518082815260200191505060405180910390a150565b600080600060026000611b7989613612565b6000191660001916815260200190815260200160002054141515611b9c57600080fd5b60009050600180608060405190810160405280611bb88a613612565b600019168152602001611bca89613612565b6000191681526020016001151581526020018781525090806001815401808255809150509060018203906000526020600020906004020160009091929091909150600082015181600001906000191690556020820151816001019060001916905560408201518160020160006101000a81548160ff0219169083151502179055506060820151816003015550500390508060026000611c6889613612565b600019166000191681526020019081526020016000208190555080600460008581526020019081526020016000208190555080915050949350505050565b600581815481101515611cb557fe5b90600052602060002090600402016000915090508060000154908060010154908060020154908060030160009054906101000a900460ff16905084565b6000806000806000806000806000611d098a61363d565b111515611d1557600080fd5b600a6000611d228b613612565b60001916600019168152602001908152602001600020549050611d448161260f565b975097509750975097509750975050919395979092949650565b600981815481101515611d6d57fe5b90600052602060002090600602016000915090508060000154908060010154908060020154908060030154908060040154908060050160009054906101000a900460ff16908060050160019054906101000a900460ff16905087565b600080600060018054905084101515611de157600080fd5b600184815481101515611df057fe5b906000526020600020906004020160000154600185815481101515611e1157fe5b906000526020600020906004020160010154600186815481101515611e3257fe5b9060005260206000209060040201600301549250925092509193909250565b6000600b60008373ffffffffffffffffffffffffffffffffffffffff1673ffffffffffffffffffffffffffffffffffffffff168152602001908152602001600020549050919050565b600080600760003373ffffffffffffffffffffffffffffffffffffffff1673ffffffffffffffffffffffffffffffffffffffff1681526020019081526020016000205490506001600582815481101515611ef057fe5b906000526020600020905050602060ff16111515611f0d57600080fd5b6000600760003373ffffffffffffffffffffffffffffffffffffffff1673ffffffffffffffffffffffffffffffffffffffff16815260200190815260200160002054111515611f5b57600080fd5b611f643361311f565b9150611f6f85613612565b600583815481101515611f7e57fe5b90600052602060002090600402016000018160001916905550611fa084613612565b600583815481101515611faf57fe5b90600052602060002090600402016001018160001916905550611fd183613612565b600583815481101515611fe057fe5b90600052602060002090600402016002018160001916905550816006600061200786613612565b60001916600019168152602001908152602001600020819055507fd3923f0b3b1cec0036b68d0c3f17abc063fe21182d951342a1300cd3f98564dd8286868633604051808681526020018060200180602001806020018573ffffffffffffffffffffffffffffffffffffffff1673ffffffffffffffffffffffffffffffffffffffff168152602001848103845288818151815260200191508051906020019080838360005b838110156120c75780820151818401526020810190506120ac565b50505050905090810190601f1680156120f45780820380516001836020036101000a031916815260200191505b50848103835287818151815260200191508051906020019080838360005b8381101561212d578082015181840152602081019050612112565b50505050905090810190601f16801561215a5780820380516001836020036101000a031916815260200191505b50848103825286818151815260200191508051906020019080838360005b83811015612193578082015181840152602081019050612178565b50505050905090810190601f1680156121c05780820380516001836020036101000a031916815260200191505b509850505050505050505060405180910390a15050505050565b60608060006001805490506040519080825280602002602001820160405280156122135781602001602082028038833980820191505090505b509150600090505b60018080549050038111151561227f5760018181548110151561223a57fe5b906000526020600020906004020160000154828281518110151561225a57fe5b906020019060200201906000191690816000191681525050808060010191505061221b565b8192505050919050565b600080600080600080600760008873ffffffffffffffffffffffffffffffffffffffff1673ffffffffffffffffffffffffffffffffffffffff16815260200190815260200160002054905060006005828154811015156122e557fe5b906000526020600020905050602060ff1611151561230257600080fd5b6008548110151561231257600080fd5b60058181548110151561232157fe5b90600052602060002090600402016000015460058281548110151561234257fe5b90600052602060002090600402016001015460058381548110151561236357fe5b90600052602060002090600402016002015460058481548110151561238457fe5b906000526020600020906004020160030160009054906101000a900460ff1684955095509550955095505091939590929450565b6000806000806000600854861015156123d057600080fd5b6005868154811015156123df57fe5b90600052602060002090600402016000015460058781548110151561240057fe5b90600052602060002090600402016001015460058881548110151561242157fe5b90600052602060002090600402016002015460058981548110151561244257fe5b906000526020600020906004020160030160009054906101000a900460ff16899450945094509450945091939590929450565b60008060009054906101000a900473ffffffffffffffffffffffffffffffffffffffff1673ffffffffffffffffffffffffffffffffffffffff163373ffffffffffffffffffffffffffffffffffffffff161415156124d257600080fd5b3073ffffffffffffffffffffffffffffffffffffffff1631905090565b600080600b60003373ffffffffffffffffffffffffffffffffffffffff1673ffffffffffffffffffffffffffffffffffffffff168152602001908152602001600020549050600160098281548110151561254557fe5b906000526020600020905050602060ff1611151561256257600080fd5b600b60003373ffffffffffffffffffffffffffffffffffffffff1673ffffffffffffffffffffffffffffffffffffffff16815260200190815260200160002054915060016009838154811015156125b557fe5b906000526020600020905050602060ff161115156125d257600080fd5b60016009838154811015156125e357fe5b906000526020600020906006020160050160006101000a81548160ff0219169083151502179055505050565b6000806000806000806000600160098981548110151561262b57fe5b906000526020600020905050602060ff1611151561264857600080fd5b60098881548110151561265757fe5b90600052602060002090600602016000015460098981548110151561267857fe5b90600052602060002090600602016001015460098a81548110151561269957fe5b90600052602060002090600602016002015460098b8154811015156126ba57fe5b90600052602060002090600602016003015460098c8154811015156126db57fe5b90600052602060002090600602016004015460098d8154811015156126fc57fe5b906000526020600020906006020160050160009054906101000a900460ff168d9650965096509650965096509650919395979092949650565b60006006600061274484613612565b60001916600019168152602001908152602001600020549050919050565b6000809054906101000a900473ffffffffffffffffffffffffffffffffffffffff1673ffffffffffffffffffffffffffffffffffffffff163373ffffffffffffffffffffffffffffffffffffffff161415156127bd57600080fd5b6127dd3073ffffffffffffffffffffffffffffffffffffffff16316119ae565b565b6000600c54905090565b6000809054906101000a900473ffffffffffffffffffffffffffffffffffffffff1681565b6000806006600061281e85613612565b600019166000191681526020019081526020016000205414151561284157600080fd5b6000600760003373ffffffffffffffffffffffffffffffffffffffff1673ffffffffffffffffffffffffffffffffffffffff1681526020019081526020016000205414151561288f57600080fd5b60009050600160056080604051908101604052806128ac88613612565b6000191681526020016128be87613612565b6000191681526020016128d086613612565b600019168152602001600115158152509080600181540180825580915050906001820390600052602060002090600402016000909192909190915060008201518160000190600019169055602082015181600101906000191690556040820151816002019060001916905560608201518160030160006101000a81548160ff0219169083151502179055505050039050806006600061296e85613612565b600019166000191681526020019081526020016000208190555080600760003373ffffffffffffffffffffffffffffffffffffffff1673ffffffffffffffffffffffffffffffffffffffff1681526020019081526020016000208190555060016008600082825401925050819055507f023a8bc2c2a7585292c8d76a6c38d4001ebdb3df730965277bc4d0e94f2647518185858533604051808681526020018060200180602001806020018573ffffffffffffffffffffffffffffffffffffffff1673ffffffffffffffffffffffffffffffffffffffff168152602001848103845288818151815260200191508051906020019080838360005b83811015612a83578082015181840152602081019050612a68565b50505050905090810190601f168015612ab05780820380516001836020036101000a031916815260200191505b50848103835287818151815260200191508051906020019080838360005b83811015612ae9578082015181840152602081019050612ace565b50505050905090810190601f168015612b165780820380516001836020036101000a031916815260200191505b50848103825286818151815260200191508051906020019080838360005b83811015612b4f578082015181840152602081019050612b34565b50505050905090810190601f168015612b7c5780820380516001836020036101000a031916815260200191505b509850505050505050505060405180910390a150505050565b600080600b60003373ffffffffffffffffffffffffffffffffffffffff1673ffffffffffffffffffffffffffffffffffffffff1681526020019081526020016000205490506001600982815481101515612beb57fe5b906000526020600020905050602060ff16111515612c0857600080fd5b6002612c138861363d565b111515612c1f57600080fd5b600b60003373ffffffffffffffffffffffffffffffffffffffff1673ffffffffffffffffffffffffffffffffffffffff1681526020019081526020016000205491506001600983815481101515612c7257fe5b906000526020600020905050602060ff16111515612c8f57600080fd5b612c9887613612565b600983815481101515612ca757fe5b90600052602060002090600602016000018160001916905550612cc986613612565b600983815481101515612cd857fe5b90600052602060002090600602016001018160001916905550612cfa85613612565b600983815481101515612d0957fe5b90600052602060002090600602016002018160001916905550612d2b84613612565b600983815481101515612d3a57fe5b90600052602060002090600602016003018160001916905550612d5c83613612565b600983815481101515612d6b57fe5b906000526020600020906006020160040181600019169055506001600983815481101515612d9557fe5b906000526020600020906006020160050160006101000a81548160ff02191690831515021790555050505050505050565b60608060608060608060608060008060085410151515612de557600080fd5b600854604051908082528060200260200182016040528015612e165781602001602082028038833980820191505090505b509450600854604051908082528060200260200182016040528015612e4a5781602001602082028038833980820191505090505b509350600854604051908082528060200260200182016040528015612e7e5781602001602082028038833980820191505090505b509250600854604051908082528060200260200182016040528015612eb25781602001602082028038833980820191505090505b509150600090505b600854811015612ff657600581815481101515612ed357fe5b9060005260206000209060040201600001548582815181101515612ef357fe5b906020019060200201906000191690816000191681525050600581815481101515612f1a57fe5b9060005260206000209060040201600101548482815181101515612f3a57fe5b906020019060200201906000191690816000191681525050600581815481101515612f6157fe5b9060005260206000209060040201600201548382815181101515612f8157fe5b906020019060200201906000191690816000191681525050600581815481101515612fa857fe5b906000526020600020906004020160030160009054906101000a900460ff168282815181101515612fd557fe5b90602001906020020190151590811515815250508080600101915050612eba565b848484849850985098509850505050505090919293565b6060806000806001805490501015151561302657600080fd5b60018054905060405190808252806020026020018201604052801561305a5781602001602082028038833980820191505090505b509150600090505b6001808054905003811115156130c65760018181548110151561308157fe5b90600052602060002090600402016000015482828151811015156130a157fe5b9060200190602002019060001916908160001916815250508080600101915050613062565b819250505090565b600080600760008473ffffffffffffffffffffffffffffffffffffffff1673ffffffffffffffffffffffffffffffffffffffff16815260200190815260200160002054905060008111915050919050565b600080600760008473ffffffffffffffffffffffffffffffffffffffff1673ffffffffffffffffffffffffffffffffffffffff1681526020019081526020016000205411151561316e57600080fd5b600760008373ffffffffffffffffffffffffffffffffffffffff1673ffffffffffffffffffffffffffffffffffffffff168152602001908152602001600020549050919050565b6001818154811015156131c457fe5b90600052602060002090600402016000915090508060000154908060010154908060020160009054906101000a900460ff16908060030154905084565b6000806000806002600061321487613612565b60001916600019168152602001908152602001600020549050600060018281548110151561323e57fe5b906000526020600020905050602060ff1611151561325b57600080fd5b6001805490508110151561326e57600080fd5b60018181548110151561327d57fe5b90600052602060002090600402016000015460018281548110151561329e57fe5b9060005260206000209060040201600101546001838154811015156132bf57fe5b906000526020600020906004020160030154935093509350509193909250565b6000806132eb8761363d565b1115156132f757600080fd5b600960e06040519081016040528061330e89613612565b60001916815260200161332088613612565b60001916815260200161333287613612565b60001916815260200161334486613612565b60001916815260200161335685613612565b6000191681526020016001151581526020016001151581525090806001815401808255809150509060018203906000526020600020906006020160009091929091909150600082015181600001906000191690556020820151816001019060001916905560408201518160020190600019169055606082015181600301906000191690556080820151816004019060001916905560a08201518160050160006101000a81548160ff02191690831515021790555060c08201518160050160016101000a81548160ff02191690831515021790555050505060016009805490500390506001600c6000828254019250508190555080600a600061345789613612565b600019166000191681526020019081526020016000208190555080600b60003373ffffffffffffffffffffffffffffffffffffffff1673ffffffffffffffffffffffffffffffffffffffff16815260200190815260200160002081905550505050505050565b6000809054906101000a900473ffffffffffffffffffffffffffffffffffffffff1673ffffffffffffffffffffffffffffffffffffffff163373ffffffffffffffffffffffffffffffffffffffff1614151561351857600080fd5b600073ffffffffffffffffffffffffffffffffffffffff168173ffffffffffffffffffffffffffffffffffffffff161415151561355457600080fd5b8073ffffffffffffffffffffffffffffffffffffffff166000809054906101000a900473ffffffffffffffffffffffffffffffffffffffff1673ffffffffffffffffffffffffffffffffffffffff167f8be0079c531659141344cd1fd0a4f28419497f9722a3daafe3b4186f6b6457e060405160405180910390a3806000806101000a81548173ffffffffffffffffffffffffffffffffffffffff021916908373ffffffffffffffffffffffffffffffffffffffff16021790555050565b6000606082905060008151141561362f5760006001029150613637565b602083015191505b50919050565b6000806060600091508390505b80518210156139d25760007f0100000000000000000000000000000000000000000000000000000000000000026007828481518110151561368757fe5b9060200101517f010000000000000000000000000000000000000000000000000000000000000090047f0100000000000000000000000000000000000000000000000000000000000000027effffffffffffffffffffffffffffffffffffffffffffffffffffffffffffff19169060020a90047effffffffffffffffffffffffffffffffffffffffffffffffffffffffffffff1916141561372d576001820191506139c5565b60067f0100000000000000000000000000000000000000000000000000000000000000026005828481518110151561376157fe5b9060200101517f010000000000000000000000000000000000000000000000000000000000000090047f0100000000000000000000000000000000000000000000000000000000000000027effffffffffffffffffffffffffffffffffffffffffffffffffffffffffffff19169060020a90047effffffffffffffffffffffffffffffffffffffffffffffffffffffffffffff19161415613807576002820191506139c4565b600e7f0100000000000000000000000000000000000000000000000000000000000000026004828481518110151561383b57fe5b9060200101517f010000000000000000000000000000000000000000000000000000000000000090047f0100000000000000000000000000000000000000000000000000000000000000027effffffffffffffffffffffffffffffffffffffffffffffffffffffffffffff19169060020a90047effffffffffffffffffffffffffffffffffffffffffffffffffffffffffffff191614156138e1576003820191506139c3565b601e7f0100000000000000000000000000000000000000000000000000000000000000026003828481518110151561391557fe5b9060200101517f010000000000000000000000000000000000000000000000000000000000000090047f0100000000000000000000000000000000000000000000000000000000000000027effffffffffffffffffffffffffffffffffffffffffffffffffffffffffffff19169060020a90047effffffffffffffffffffffffffffffffffffffffffffffffffffffffffffff191614156139bb576004820191506139c2565b6001820191505b5b5b5b828060010193505061364a565b50509190505600a165627a7a72305820d34f0e88f522331f60ea1247f2c8d1d5872093d627e23dcca6b331fd53be4a7a0029",
  "source": "pragma solidity ^0.4.23;\r\n\r\nimport \"./Ownable.sol\";\r\nimport \"./Users.sol\";\r\nimport \"./Credentials.sol\";\r\n\r\ncontract MicroCredential is Ownable,Credentials,Users {\r\n\r\n    // Events\r\n    event Deposit(address _from, uint value);\r\n    event Withdraw(address _to, uint _amount);\r\n    event Balance(uint _remainingBalance);\r\n\r\n    //  Make sure the address resolves a valid contract\r\n    modifier onlyAgencyOwner() {\r\n        uint id = agencyIdByAddress[msg.sender];\r\n        require(agencies[id].agencyName.length > 1);\r\n        _;\r\n    }\r\n\r\n    // variables and such\r\n    struct Agency {\r\n        bytes32 agencyName;\r\n        bytes32 website;\r\n        bytes32 firstName;\r\n        bytes32 lastName;\r\n        bytes32 email;\r\n        bool isActive;\r\n        bool exists;\r\n    }\r\n\r\n    // Mappings and Variables\r\n    Agency[] public agencies;\r\n    mapping(bytes32 => uint) internal agencyIdByName;\r\n    mapping(address => uint) internal agencyIdByAddress;\r\n    uint numAgencies = 0;\r\n\r\n    // What would I do in a constructor.  \r\n    constructor() public {\r\n        registerAgency(\"Root Agency\",\"http://pirl.io\",\"Mike\",\"Murphy\",\"mmurphy384@yahoo.com\");\r\n        addUser(\"root\",\"user\",\"mmurphy384@yahoo.com\");\r\n        addCredential(\"root credential\", \"http://pirl.io\", 100,0);\r\n    }\r\n\r\n    // Purpose  : Fallback Function\r\n    function() public payable {\r\n        if (msg.value > 0) {\r\n            emit Deposit(msg.sender, msg.value);\r\n            emit Balance(address(this).balance);\r\n        }\r\n    }\r\n\r\n    // Purpose  : For the owner to withdraw some funds.\r\n    function withdraw(uint _amount) public onlyOwner {\r\n        require(address(this).balance > 0);\r\n        require(_amount > 0);\r\n        require(address(this).balance >= _amount);\r\n        address(msg.sender).transfer(_amount);\r\n        emit Withdraw(msg.sender, _amount);\r\n        emit Balance(address(this).balance);\r\n    }\r\n\r\n    // Purpose  : Need an 'iniitalize' because the first time, because it's public and payable.\r\n    //          : It needs to be payable or people will create these willy nilly.\r\n    function registerAgency(string _agencyName, string _website, string _firstName, string _lastName, string _email) \r\n        public payable { \r\n        require(utfStringLength(_agencyName) > 0);\r\n\r\n        agencies.push(Agency(\r\n            stringToBytes32(_agencyName), \r\n            stringToBytes32(_website),\r\n            stringToBytes32(_firstName),\r\n            stringToBytes32(_lastName),\r\n            stringToBytes32(_email),\r\n            true,\r\n            true)\r\n            );\r\n\r\n        uint id = agencies.length-1;\r\n        numAgencies += 1;\r\n        agencyIdByName[stringToBytes32(_agencyName)] = id;\r\n        agencyIdByAddress[msg.sender] = id;\r\n    }\r\n\r\n    // Purpose  : Set the agency basic info.  Can only by done by the agency owner \r\n    function updateAgencyInfo(string _agencyName, string _website, string _firstName, string _lastName, string _email) \r\n        public onlyAgencyOwner {\r\n        require(utfStringLength(_agencyName) > 2);\r\n        uint id = agencyIdByAddress[msg.sender];\r\n        require(agencies[id].agencyName.length > 1);\r\n        agencies[id].agencyName = stringToBytes32(_agencyName);\r\n        agencies[id].website = stringToBytes32(_website);\r\n        agencies[id].firstName = stringToBytes32(_firstName);\r\n        agencies[id].lastName = stringToBytes32(_lastName);\r\n        agencies[id].email = stringToBytes32(_email);\r\n        agencies[id].isActive = true;\r\n    }\r\n\r\n    // Purpose  : Get the agency basic info\r\n    function getAgencyCount() view public returns (uint) {\r\n        return numAgencies;\r\n    }\r\n\r\n    // Purpose  : Get the agency basic info\r\n    function getAgencyInfo(string _agencyName) view public returns (bytes32, bytes32, bytes32, bytes32, bytes32, bool, uint) {\r\n        require(utfStringLength(_agencyName) > 0);\r\n        uint id = agencyIdByName[stringToBytes32(_agencyName)];\r\n        return getAgencyInfoById(id);\r\n    }\r\n\r\n    // Purpose  : Get the agency basic info\r\n    function getAgencyInfoByAddress(address _address) view public returns (bytes32, bytes32, bytes32, bytes32, bytes32, bool, uint) {\r\n        uint id = agencyIdByAddress[_address];\r\n        return getAgencyInfoById(id);\r\n    }\r\n\r\n    // Purpose  : Get the agency basic info\r\n    function getAgencyInfoById(uint _id) view public returns (bytes32, bytes32, bytes32, bytes32, bytes32, bool, uint) {\r\n        require(agencies[_id].agencyName.length > 1);\r\n        return (\r\n            agencies[_id].agencyName, \r\n            agencies[_id].website, \r\n            agencies[_id].firstName, \r\n            agencies[_id].lastName, \r\n            agencies[_id].email, \r\n            agencies[_id].isActive,\r\n            _id);\r\n    }\r\n\r\n    // Purpose  : Get the agency basic info\r\n    function getAgencyIdByAddress(address _address) view public returns (uint) {\r\n        return agencyIdByAddress[_address];\r\n    }\r\n\r\n    // Purpose  : To Make the contract inactive and return funds to owner\r\n    function setAgencyInactive() public onlyAgencyOwner {\r\n        uint id = agencyIdByAddress[msg.sender];\r\n        require(agencies[id].agencyName.length > 1);\r\n        agencies[id].isActive = false;\r\n    }\r\n\r\n    // Purpose  : Used when an agency becomes active again\r\n    // To Do    : This will probably have to clear some queues, \r\n    //            reset credential statii, etc.\r\n    function setAgencyActive() public onlyAgencyOwner {\r\n        uint id = agencyIdByAddress[msg.sender];\r\n        require(agencies[id].agencyName.length > 1);\r\n        agencies[id].isActive = true;\r\n    }\r\n\r\n    // Purpose  : Get the contract balance\r\n    function getContractBalance() public onlyOwner view returns (uint) {\r\n        return address(this).balance;\r\n    }\r\n\r\n    // Purpose  : Determines if the address is an agency\r\n    function addressIsAgency(address _address) public view returns (bool) {\r\n        uint id = agencyIdByAddress[_address];\r\n        return (id > 0);\r\n    }\r\n\r\n    function getAgencies() public view returns (bytes32[], uint[]) {\r\n        require(agencies.length >= 0);\r\n        bytes32[] memory  agencyNames = new bytes32[](numAgencies);\r\n        uint[] memory  ids = new uint[](numAgencies);\r\n        for (uint i = 0; i < numAgencies; i++) {\r\n            agencyNames[i] = agencies[i].agencyName;\r\n            ids[i] = agencyIdByName[agencies[i].agencyName];\r\n        }\r\n        return (agencyNames, ids);\r\n    }\r\n\r\n    // Purpsoe  : Owners with draw all pirl from contract.  Shutting contract down.\r\n    function destroy() public onlyOwner {\r\n        withdraw(address(this).balance);\r\n    }\r\n\r\n}",
  "sourcePath": "D:\\GitHub\\pirl-project01\\truffle\\contracts\\MicroCredential.sol",
  "compiler": {
    "name": "solc",
    "version": "0.4.23+commit.124ca40d.Emscripten.clang"
  },
  "schemaVersion": "2.0.0",
  "updatedAt": "2018-05-19T00:06:03.985Z"
}