{
  "contractName": "MicroCredential",
  "abi": [
    {
      "constant": true,
      "inputs": [
        {
          "name": "",
          "type": "uint256"
        }
      ],
      "name": "agencies",
      "outputs": [
        {
          "name": "agencyName",
          "type": "bytes32"
        },
        {
          "name": "website",
          "type": "bytes32"
        },
        {
          "name": "firstName",
          "type": "bytes32"
        },
        {
          "name": "lastName",
          "type": "bytes32"
        },
        {
          "name": "email",
          "type": "bytes32"
        },
        {
          "name": "isActive",
          "type": "bool"
        },
        {
          "name": "exists",
          "type": "bool"
        }
      ],
      "payable": false,
      "stateMutability": "view",
      "type": "function"
    },
    {
      "constant": true,
      "inputs": [],
      "name": "owner",
      "outputs": [
        {
          "name": "",
          "type": "address"
        }
      ],
      "payable": false,
      "stateMutability": "view",
      "type": "function"
    },
    {
      "constant": false,
      "inputs": [
        {
          "name": "newOwner",
          "type": "address"
        }
      ],
      "name": "transferOwnership",
      "outputs": [],
      "payable": false,
      "stateMutability": "nonpayable",
      "type": "function"
    },
    {
      "inputs": [],
      "payable": false,
      "stateMutability": "nonpayable",
      "type": "constructor"
    },
    {
      "payable": true,
      "stateMutability": "payable",
      "type": "fallback"
    },
    {
      "anonymous": false,
      "inputs": [
        {
          "indexed": false,
          "name": "_from",
          "type": "address"
        },
        {
          "indexed": false,
          "name": "value",
          "type": "uint256"
        }
      ],
      "name": "Deposit",
      "type": "event"
    },
    {
      "anonymous": false,
      "inputs": [
        {
          "indexed": false,
          "name": "_to",
          "type": "address"
        },
        {
          "indexed": false,
          "name": "_amount",
          "type": "uint256"
        }
      ],
      "name": "Withdraw",
      "type": "event"
    },
    {
      "anonymous": false,
      "inputs": [
        {
          "indexed": false,
          "name": "_remainingBalance",
          "type": "uint256"
        }
      ],
      "name": "Balance",
      "type": "event"
    },
    {
      "anonymous": false,
      "inputs": [
        {
          "indexed": true,
          "name": "previousOwner",
          "type": "address"
        },
        {
          "indexed": true,
          "name": "newOwner",
          "type": "address"
        }
      ],
      "name": "OwnershipTransferred",
      "type": "event"
    },
    {
      "constant": false,
      "inputs": [
        {
          "name": "_amount",
          "type": "uint256"
        }
      ],
      "name": "withdraw",
      "outputs": [],
      "payable": false,
      "stateMutability": "nonpayable",
      "type": "function"
    },
    {
      "constant": false,
      "inputs": [
        {
          "name": "_agencyName",
          "type": "string"
        },
        {
          "name": "_website",
          "type": "string"
        },
        {
          "name": "_firstName",
          "type": "string"
        },
        {
          "name": "_lastName",
          "type": "string"
        },
        {
          "name": "_email",
          "type": "string"
        }
      ],
      "name": "registerAgency",
      "outputs": [],
      "payable": true,
      "stateMutability": "payable",
      "type": "function"
    },
    {
      "constant": false,
      "inputs": [
        {
          "name": "_agencyName",
          "type": "string"
        },
        {
          "name": "_website",
          "type": "string"
        },
        {
          "name": "_firstName",
          "type": "string"
        },
        {
          "name": "_lastName",
          "type": "string"
        },
        {
          "name": "_email",
          "type": "string"
        }
      ],
      "name": "updateAgencyInfo",
      "outputs": [],
      "payable": false,
      "stateMutability": "nonpayable",
      "type": "function"
    },
    {
      "constant": true,
      "inputs": [],
      "name": "getAgencyCount",
      "outputs": [
        {
          "name": "",
          "type": "uint256"
        }
      ],
      "payable": false,
      "stateMutability": "view",
      "type": "function"
    },
    {
      "constant": true,
      "inputs": [
        {
          "name": "_address",
          "type": "address"
        }
      ],
      "name": "getAgencyInfoByAddress",
      "outputs": [
        {
          "name": "",
          "type": "bytes32"
        },
        {
          "name": "",
          "type": "bytes32"
        },
        {
          "name": "",
          "type": "bytes32"
        },
        {
          "name": "",
          "type": "bytes32"
        },
        {
          "name": "",
          "type": "bytes32"
        },
        {
          "name": "",
          "type": "bool"
        },
        {
          "name": "",
          "type": "uint256"
        }
      ],
      "payable": false,
      "stateMutability": "view",
      "type": "function"
    },
    {
      "constant": true,
      "inputs": [
        {
          "name": "_id",
          "type": "uint256"
        }
      ],
      "name": "getAgencyInfoById",
      "outputs": [
        {
          "name": "",
          "type": "bytes32"
        },
        {
          "name": "",
          "type": "bytes32"
        },
        {
          "name": "",
          "type": "bytes32"
        },
        {
          "name": "",
          "type": "bytes32"
        },
        {
          "name": "",
          "type": "bytes32"
        },
        {
          "name": "",
          "type": "bool"
        },
        {
          "name": "",
          "type": "uint256"
        }
      ],
      "payable": false,
      "stateMutability": "view",
      "type": "function"
    },
    {
      "constant": true,
      "inputs": [
        {
          "name": "_address",
          "type": "address"
        }
      ],
      "name": "getAgencyIdByAddress",
      "outputs": [
        {
          "name": "",
          "type": "uint256"
        }
      ],
      "payable": false,
      "stateMutability": "view",
      "type": "function"
    },
    {
      "constant": false,
      "inputs": [],
      "name": "setAgencyInactive",
      "outputs": [],
      "payable": false,
      "stateMutability": "nonpayable",
      "type": "function"
    },
    {
      "constant": false,
      "inputs": [],
      "name": "setAgencyActive",
      "outputs": [],
      "payable": false,
      "stateMutability": "nonpayable",
      "type": "function"
    },
    {
      "constant": true,
      "inputs": [],
      "name": "getContractBalance",
      "outputs": [
        {
          "name": "",
          "type": "uint256"
        }
      ],
      "payable": false,
      "stateMutability": "view",
      "type": "function"
    },
    {
      "constant": true,
      "inputs": [
        {
          "name": "_address",
          "type": "address"
        }
      ],
      "name": "addressIsAgency",
      "outputs": [
        {
          "name": "",
          "type": "bool"
        }
      ],
      "payable": false,
      "stateMutability": "view",
      "type": "function"
    },
    {
      "constant": true,
      "inputs": [],
      "name": "getAgencies",
      "outputs": [
        {
          "name": "",
          "type": "bytes32[]"
        },
        {
          "name": "",
          "type": "uint256[]"
        }
      ],
      "payable": false,
      "stateMutability": "view",
      "type": "function"
    },
    {
      "constant": false,
      "inputs": [],
      "name": "destroy",
      "outputs": [],
      "payable": false,
      "stateMutability": "nonpayable",
      "type": "function"
    }
  ],
  "bytecode": "0x608060405260018055600060055534801561001957600080fd5b50336000806101000a81548173ffffffffffffffffffffffffffffffffffffffff021916908373ffffffffffffffffffffffffffffffffffffffff160217905550611ba5806100696000396000f3006080604052600436106100e6576000357c0100000000000000000000000000000000000000000000000000000000900463ffffffff16806307c0d98c146101ab5780632859b54a1461025f5780632916435b146102765780632c26eabc146103235780632e1a7d4d1461037e5780633c8d830d146103ab5780634923cc75146104465780636f9fb98a1461049d57806373c443ef146104c8578063794953bf146104df57806383197ef0146105765780638624c3ac1461058d5780638da5cb5b146105b8578063b366c5d21461060f578063eeef26dd14610790578063f2fde38b14610904575b60003411156101a9577fe1fffcc4923d04b559f4d29a8bfc6cda04eb5b0d3c460751c2402c5c5cc9109c3334604051808373ffffffffffffffffffffffffffffffffffffffff1673ffffffffffffffffffffffffffffffffffffffff1681526020018281526020019250505060405180910390a17fe8d947d7ebdd7b8b8fa2ad2022c7591418ac32d8c29c5f8a8fc9de52ffa540923073ffffffffffffffffffffffffffffffffffffffff16316040518082815260200191505060405180910390a15b005b3480156101b757600080fd5b506101c0610947565b604051808060200180602001838103835285818151815260200191508051906020019060200280838360005b838110156102075780820151818401526020810190506101ec565b50505050905001838103825284818151815260200191508051906020019060200280838360005b8381101561024957808201518184015260208101905061022e565b5050505090500194505050505060405180910390f35b34801561026b57600080fd5b50610274610a93565b005b34801561028257600080fd5b506102b7600480360381019080803573ffffffffffffffffffffffffffffffffffffffff169060200190929190505050610bb3565b60405180886000191660001916815260200187600019166000191681526020018660001916600019168152602001856000191660001916815260200184600019166000191681526020018315151515815260200182815260200197505050505050505060405180910390f35b34801561032f57600080fd5b50610364600480360381019080803573ffffffffffffffffffffffffffffffffffffffff169060200190929190505050610c24565b604051808215151515815260200191505060405180910390f35b34801561038a57600080fd5b506103a960048036038101908080359060200190929190505050610c75565b005b3480156103b757600080fd5b506103d660048036038101908080359060200190929190505050610e2e565b6040518088600019166000191681526020018760001916600019168152602001866000191660001916815260200185600019166000191681526020018460001916600019168152602001831515151581526020018215151515815260200197505050505050505060405180910390f35b34801561045257600080fd5b50610487600480360381019080803573ffffffffffffffffffffffffffffffffffffffff169060200190929190505050610e99565b6040518082815260200191505060405180910390f35b3480156104a957600080fd5b506104b2610ee2565b6040518082815260200191505060405180910390f35b3480156104d457600080fd5b506104dd610f5c565b005b3480156104eb57600080fd5b5061050a6004803603810190808035906020019092919050505061107c565b60405180886000191660001916815260200187600019166000191681526020018660001916600019168152602001856000191660001916815260200184600019166000191681526020018315151515815260200182815260200197505050505050505060405180910390f35b34801561058257600080fd5b5061058b6111a2565b005b34801561059957600080fd5b506105a261121f565b6040518082815260200191505060405180910390f35b3480156105c457600080fd5b506105cd611229565b604051808273ffffffffffffffffffffffffffffffffffffffff1673ffffffffffffffffffffffffffffffffffffffff16815260200191505060405180910390f35b34801561061b57600080fd5b5061078e600480360381019080803590602001908201803590602001908080601f0160208091040260200160405190810160405280939291908181526020018383808284378201915050505050509192919290803590602001908201803590602001908080601f0160208091040260200160405190810160405280939291908181526020018383808284378201915050505050509192919290803590602001908201803590602001908080601f0160208091040260200160405190810160405280939291908181526020018383808284378201915050505050509192919290803590602001908201803590602001908080601f0160208091040260200160405190810160405280939291908181526020018383808284378201915050505050509192919290803590602001908201803590602001908080601f016020809104026020016040519081016040528093929190818152602001838380828437820191505050505050919291929050505061124e565b005b610902600480360381019080803590602001908201803590602001908080601f0160208091040260200160405190810160405280939291908181526020018383808284378201915050505050509192919290803590602001908201803590602001908080601f0160208091040260200160405190810160405280939291908181526020018383808284378201915050505050509192919290803590602001908201803590602001908080601f0160208091040260200160405190810160405280939291908181526020018383808284378201915050505050509192919290803590602001908201803590602001908080601f0160208091040260200160405190810160405280939291908181526020018383808284378201915050505050509192919290803590602001908201803590602001908080601f016020809104026020016040519081016040528093929190818152602001838380828437820191505050505050919291929050505061147f565b005b34801561091057600080fd5b50610945600480360381019080803573ffffffffffffffffffffffffffffffffffffffff16906020019092919050505061165d565b005b6060806060806000806002805490501015151561096357600080fd5b6005546040519080825280602002602001820160405280156109945781602001602082028038833980820191505090505b5092506005546040519080825280602002602001820160405280156109c85781602001602082028038833980820191505090505b509150600090505b600554811015610a86576002818154811015156109e957fe5b9060005260206000209060060201600001548382815181101515610a0957fe5b90602001906020020190600019169081600019168152505060036000600283815481101515610a3457fe5b90600052602060002090600602016000015460001916600019168152602001908152602001600020548282815181101515610a6b57fe5b906020019060200201818152505080806001019150506109d0565b8282945094505050509091565b600080600460003373ffffffffffffffffffffffffffffffffffffffff1673ffffffffffffffffffffffffffffffffffffffff1681526020019081526020016000205490506001600282815481101515610ae957fe5b906000526020600020905050602060ff16111515610b0657600080fd5b600460003373ffffffffffffffffffffffffffffffffffffffff1673ffffffffffffffffffffffffffffffffffffffff1681526020019081526020016000205491506001600283815481101515610b5957fe5b906000526020600020905050602060ff16111515610b7657600080fd5b6000600283815481101515610b8757fe5b906000526020600020906006020160050160006101000a81548160ff0219169083151502179055505050565b600080600080600080600080600460008a73ffffffffffffffffffffffffffffffffffffffff1673ffffffffffffffffffffffffffffffffffffffff168152602001908152602001600020549050610c0a8161107c565b975097509750975097509750975050919395979092949650565b600080600460008473ffffffffffffffffffffffffffffffffffffffff1673ffffffffffffffffffffffffffffffffffffffff16815260200190815260200160002054905060008111915050919050565b6000809054906101000a900473ffffffffffffffffffffffffffffffffffffffff1673ffffffffffffffffffffffffffffffffffffffff163373ffffffffffffffffffffffffffffffffffffffff16141515610cd057600080fd5b60003073ffffffffffffffffffffffffffffffffffffffff1631111515610cf657600080fd5b600081111515610d0557600080fd5b803073ffffffffffffffffffffffffffffffffffffffff163110151515610d2b57600080fd5b3373ffffffffffffffffffffffffffffffffffffffff166108fc829081150290604051600060405180830381858888f19350505050158015610d71573d6000803e3d6000fd5b507f884edad9ce6fa2440d8a54cc123490eb96d2768479d49ff9c7366125a94243643382604051808373ffffffffffffffffffffffffffffffffffffffff1673ffffffffffffffffffffffffffffffffffffffff1681526020018281526020019250505060405180910390a17fe8d947d7ebdd7b8b8fa2ad2022c7591418ac32d8c29c5f8a8fc9de52ffa540923073ffffffffffffffffffffffffffffffffffffffff16316040518082815260200191505060405180910390a150565b600281815481101515610e3d57fe5b90600052602060002090600602016000915090508060000154908060010154908060020154908060030154908060040154908060050160009054906101000a900460ff16908060050160019054906101000a900460ff16905087565b6000600460008373ffffffffffffffffffffffffffffffffffffffff1673ffffffffffffffffffffffffffffffffffffffff168152602001908152602001600020549050919050565b60008060009054906101000a900473ffffffffffffffffffffffffffffffffffffffff1673ffffffffffffffffffffffffffffffffffffffff163373ffffffffffffffffffffffffffffffffffffffff16141515610f3f57600080fd5b3073ffffffffffffffffffffffffffffffffffffffff1631905090565b600080600460003373ffffffffffffffffffffffffffffffffffffffff1673ffffffffffffffffffffffffffffffffffffffff1681526020019081526020016000205490506001600282815481101515610fb257fe5b906000526020600020905050602060ff16111515610fcf57600080fd5b600460003373ffffffffffffffffffffffffffffffffffffffff1673ffffffffffffffffffffffffffffffffffffffff168152602001908152602001600020549150600160028381548110151561102257fe5b906000526020600020905050602060ff1611151561103f57600080fd5b600160028381548110151561105057fe5b906000526020600020906006020160050160006101000a81548160ff0219169083151502179055505050565b6000806000806000806000600160028981548110151561109857fe5b906000526020600020905050602060ff161115156110b557600080fd5b6002888154811015156110c457fe5b9060005260206000209060060201600001546002898154811015156110e557fe5b90600052602060002090600602016001015460028a81548110151561110657fe5b90600052602060002090600602016002015460028b81548110151561112757fe5b90600052602060002090600602016003015460028c81548110151561114857fe5b90600052602060002090600602016004015460028d81548110151561116957fe5b906000526020600020906006020160050160009054906101000a900460ff168d9650965096509650965096509650919395979092949650565b6000809054906101000a900473ffffffffffffffffffffffffffffffffffffffff1673ffffffffffffffffffffffffffffffffffffffff163373ffffffffffffffffffffffffffffffffffffffff161415156111fd57600080fd5b61121d3073ffffffffffffffffffffffffffffffffffffffff1631610c75565b565b6000600554905090565b6000809054906101000a900473ffffffffffffffffffffffffffffffffffffffff1681565b600080600460003373ffffffffffffffffffffffffffffffffffffffff1673ffffffffffffffffffffffffffffffffffffffff16815260200190815260200160002054905060016002828154811015156112a457fe5b906000526020600020905050602060ff161115156112c157600080fd5b60026112cc886117b2565b1115156112d857600080fd5b600460003373ffffffffffffffffffffffffffffffffffffffff1673ffffffffffffffffffffffffffffffffffffffff168152602001908152602001600020549150600160028381548110151561132b57fe5b906000526020600020905050602060ff1611151561134857600080fd5b61135187611b4e565b60028381548110151561136057fe5b9060005260206000209060060201600001816000191690555061138286611b4e565b60028381548110151561139157fe5b906000526020600020906006020160010181600019169055506113b385611b4e565b6002838154811015156113c257fe5b906000526020600020906006020160020181600019169055506113e484611b4e565b6002838154811015156113f357fe5b9060005260206000209060060201600301816000191690555061141583611b4e565b60028381548110151561142457fe5b90600052602060002090600602016004018160001916905550600160028381548110151561144e57fe5b906000526020600020906006020160050160006101000a81548160ff02191690831515021790555050505050505050565b60008061148b876117b2565b11151561149757600080fd5b600260e0604051908101604052806114ae89611b4e565b6000191681526020016114c088611b4e565b6000191681526020016114d287611b4e565b6000191681526020016114e486611b4e565b6000191681526020016114f685611b4e565b6000191681526020016001151581526020016001151581525090806001815401808255809150509060018203906000526020600020906006020160009091929091909150600082015181600001906000191690556020820151816001019060001916905560408201518160020190600019169055606082015181600301906000191690556080820151816004019060001916905560a08201518160050160006101000a81548160ff02191690831515021790555060c08201518160050160016101000a81548160ff0219169083151502179055505050506001600280549050039050600160056000828254019250508190555080600360006115f789611b4e565b600019166000191681526020019081526020016000208190555080600460003373ffffffffffffffffffffffffffffffffffffffff1673ffffffffffffffffffffffffffffffffffffffff16815260200190815260200160002081905550505050505050565b6000809054906101000a900473ffffffffffffffffffffffffffffffffffffffff1673ffffffffffffffffffffffffffffffffffffffff163373ffffffffffffffffffffffffffffffffffffffff161415156116b857600080fd5b600073ffffffffffffffffffffffffffffffffffffffff168173ffffffffffffffffffffffffffffffffffffffff16141515156116f457600080fd5b8073ffffffffffffffffffffffffffffffffffffffff166000809054906101000a900473ffffffffffffffffffffffffffffffffffffffff1673ffffffffffffffffffffffffffffffffffffffff167f8be0079c531659141344cd1fd0a4f28419497f9722a3daafe3b4186f6b6457e060405160405180910390a3806000806101000a81548173ffffffffffffffffffffffffffffffffffffffff021916908373ffffffffffffffffffffffffffffffffffffffff16021790555050565b6000806060600091508390505b8051821015611b475760007f010000000000000000000000000000000000000000000000000000000000000002600782848151811015156117fc57fe5b9060200101517f010000000000000000000000000000000000000000000000000000000000000090047f0100000000000000000000000000000000000000000000000000000000000000027effffffffffffffffffffffffffffffffffffffffffffffffffffffffffffff19169060020a90047effffffffffffffffffffffffffffffffffffffffffffffffffffffffffffff191614156118a257600182019150611b3a565b60067f010000000000000000000000000000000000000000000000000000000000000002600582848151811015156118d657fe5b9060200101517f010000000000000000000000000000000000000000000000000000000000000090047f0100000000000000000000000000000000000000000000000000000000000000027effffffffffffffffffffffffffffffffffffffffffffffffffffffffffffff19169060020a90047effffffffffffffffffffffffffffffffffffffffffffffffffffffffffffff1916141561197c57600282019150611b39565b600e7f010000000000000000000000000000000000000000000000000000000000000002600482848151811015156119b057fe5b9060200101517f010000000000000000000000000000000000000000000000000000000000000090047f0100000000000000000000000000000000000000000000000000000000000000027effffffffffffffffffffffffffffffffffffffffffffffffffffffffffffff19169060020a90047effffffffffffffffffffffffffffffffffffffffffffffffffffffffffffff19161415611a5657600382019150611b38565b601e7f01000000000000000000000000000000000000000000000000000000000000000260038284815181101515611a8a57fe5b9060200101517f010000000000000000000000000000000000000000000000000000000000000090047f0100000000000000000000000000000000000000000000000000000000000000027effffffffffffffffffffffffffffffffffffffffffffffffffffffffffffff19169060020a90047effffffffffffffffffffffffffffffffffffffffffffffffffffffffffffff19161415611b3057600482019150611b37565b6001820191505b5b5b5b82806001019350506117bf565b5050919050565b60006060829050600081511415611b6b5760006001029150611b73565b602083015191505b509190505600a165627a7a72305820f42b86162188e95ab551dddf4106d4e8968c4c98c25f6fcc39c476f40911f9dd0029",
  "source": "pragma solidity ^0.4.23;\r\n\r\nimport \"./Ownable.sol\";\r\nimport \"./MyUtils.sol\";\r\n\r\ncontract MicroCredential is Ownable, MyUtils {\r\n\r\n    // Events\r\n    event Deposit(address _from, uint value);\r\n    event Withdraw(address _to, uint _amount);\r\n    event Balance(uint _remainingBalance);\r\n\r\n    //  Make sure the address resolves a valid contract\r\n    modifier onlyAgencyOwner() {\r\n        uint id = agencyIdByAddress[msg.sender];\r\n        require(agencies[id].agencyName.length > 1);\r\n        _;\r\n    }\r\n\r\n    // variables and such\r\n    struct Agency {\r\n        bytes32 agencyName;\r\n        bytes32 website;\r\n        bytes32 firstName;\r\n        bytes32 lastName;\r\n        bytes32 email;\r\n        bool isActive;\r\n        bool exists;\r\n    }\r\n\r\n    // Mappings and Variables\r\n    uint version = 1;\r\n    Agency[] public agencies;\r\n    mapping(bytes32 => uint) internal agencyIdByName;\r\n    mapping(address => uint) internal agencyIdByAddress;\r\n    uint numAgencies = 0;\r\n\r\n    // What would I do in a constructor.  \r\n    constructor() public {\r\n        //registerAgency(\"Root Agency\",\"http://pirl.io\",\"Mike\",\"Murphy\",\"mmurphy384@yahoo.com\");\r\n        //addUser(\"root\",\"user\",\"mmurphy384@yahoo.com\");\r\n        //addCredential(\"root credential\", \"http://pirl.io\", 100,0);\r\n        //addFile(\"root file name\", \"http://pirl.io\",\"\",0,0);\r\n    }\r\n\r\n    // Purpose  : Fallback Function\r\n    function() public payable {\r\n        if (msg.value > 0) {\r\n            emit Deposit(msg.sender, msg.value);\r\n            emit Balance(address(this).balance);\r\n        }\r\n    }\r\n\r\n    // Purpose  : For the owner to withdraw some funds.\r\n    function withdraw(uint _amount) public onlyOwner {\r\n        require(address(this).balance > 0);\r\n        require(_amount > 0);\r\n        require(address(this).balance >= _amount);\r\n        address(msg.sender).transfer(_amount);\r\n        emit Withdraw(msg.sender, _amount);\r\n        emit Balance(address(this).balance);\r\n    }\r\n\r\n    // Purpose  : Need an 'iniitalize' because the first time, because it's public and payable.\r\n    //          : It needs to be payable or people will create these willy nilly.\r\n    function registerAgency(string _agencyName, string _website, string _firstName, string _lastName, string _email) \r\n        public payable { \r\n        require(utfStringLength(_agencyName) > 0);\r\n\r\n        agencies.push(Agency(\r\n            stringToBytes32(_agencyName), \r\n            stringToBytes32(_website),\r\n            stringToBytes32(_firstName),\r\n            stringToBytes32(_lastName),\r\n            stringToBytes32(_email),\r\n            true,\r\n            true)\r\n            );\r\n\r\n        uint id = agencies.length-1;\r\n        numAgencies += 1;\r\n        agencyIdByName[stringToBytes32(_agencyName)] = id;\r\n        agencyIdByAddress[msg.sender] = id;\r\n    }\r\n\r\n    // Purpose  : Set the agency basic info.  Can only by done by the agency owner \r\n    function updateAgencyInfo(string _agencyName, string _website, string _firstName, string _lastName, string _email) \r\n        public onlyAgencyOwner {\r\n        require(utfStringLength(_agencyName) > 2);\r\n        uint id = agencyIdByAddress[msg.sender];\r\n        require(agencies[id].agencyName.length > 1);\r\n        agencies[id].agencyName = stringToBytes32(_agencyName);\r\n        agencies[id].website = stringToBytes32(_website);\r\n        agencies[id].firstName = stringToBytes32(_firstName);\r\n        agencies[id].lastName = stringToBytes32(_lastName);\r\n        agencies[id].email = stringToBytes32(_email);\r\n        agencies[id].isActive = true;\r\n    }\r\n\r\n    // Purpose  : Get the agency basic info\r\n    function getAgencyCount() view public returns (uint) {\r\n        return numAgencies;\r\n    }\r\n\r\n    // Purpose  : Get the agency basic info\r\n    // function getAgencyInfo(string _agencyName) view public returns (bytes32, bytes32, bytes32, bytes32, bytes32, bool, uint) {\r\n    //     require(utfStringLength(_agencyName) > 0);\r\n    //     uint id = agencyIdByName[stringToBytes32(_agencyName)];\r\n    //     return getAgencyInfoById(id);\r\n    // }\r\n\r\n    //Purpose  : Get the agency basic info\r\n    function getAgencyInfoByAddress(address _address) view public returns (bytes32, bytes32, bytes32, bytes32, bytes32, bool, uint) {\r\n        uint id = agencyIdByAddress[_address];\r\n        return getAgencyInfoById(id);\r\n    }\r\n\r\n    // Purpose  : Get the agency basic info\r\n    function getAgencyInfoById(uint _id) view public returns (bytes32, bytes32, bytes32, bytes32, bytes32, bool, uint) {\r\n        require(agencies[_id].agencyName.length > 1);\r\n        return (\r\n            agencies[_id].agencyName, \r\n            agencies[_id].website, \r\n            agencies[_id].firstName, \r\n            agencies[_id].lastName, \r\n            agencies[_id].email, \r\n            agencies[_id].isActive,\r\n            _id);\r\n    }\r\n\r\n    // Purpose  : Get the agency basic info\r\n    function getAgencyIdByAddress(address _address) view public returns (uint) {\r\n        return agencyIdByAddress[_address];\r\n    }\r\n\r\n    // // Purpose  : To Make the contract inactive and return funds to owner\r\n    function setAgencyInactive() public onlyAgencyOwner {\r\n        uint id = agencyIdByAddress[msg.sender];\r\n        require(agencies[id].agencyName.length > 1);\r\n        agencies[id].isActive = false;\r\n    }\r\n\r\n    // // Purpose  : Used when an agency becomes active again\r\n    // // To Do    : This will probably have to clear some queues, \r\n    // //            reset credential statii, etc.\r\n    function setAgencyActive() public onlyAgencyOwner {\r\n        uint id = agencyIdByAddress[msg.sender];\r\n        require(agencies[id].agencyName.length > 1);\r\n        agencies[id].isActive = true;\r\n    }\r\n\r\n    // Purpose  : Get the contract balance\r\n    function getContractBalance() public onlyOwner view returns (uint) {\r\n        return address(this).balance;\r\n    }\r\n\r\n    // Purpose  : Determines if the address is an agency\r\n    function addressIsAgency(address _address) public view returns (bool) {\r\n        uint id = agencyIdByAddress[_address];\r\n        return (id > 0);\r\n    }\r\n\r\n    function getAgencies() public view returns (bytes32[], uint[]) {\r\n        require(agencies.length >= 0);\r\n        bytes32[] memory  agencyNames = new bytes32[](numAgencies);\r\n        uint[] memory  ids = new uint[](numAgencies);\r\n        for (uint i = 0; i < numAgencies; i++) {\r\n            agencyNames[i] = agencies[i].agencyName;\r\n            ids[i] = agencyIdByName[agencies[i].agencyName];\r\n        }\r\n        return (agencyNames, ids);\r\n    }\r\n\r\n    // Purpsoe  : Owners with draw all pirl from contract.  Shutting contract down.\r\n    function destroy() public onlyOwner {\r\n        withdraw(address(this).balance);\r\n    }\r\n\r\n}",
  "sourcePath": "D:\\GitHub\\pirl-project01\\truffle\\contracts\\MicroCredential.sol",
  "compiler": {
    "name": "solc",
    "version": "0.4.23+commit.124ca40d.Emscripten.clang"
  },
  "schemaVersion": "2.0.0",
  "updatedAt": "2018-05-21T02:51:04.042Z"
}