{
  "contractName": "MicroCredential",
  "abi": [
    {
      "constant": true,
      "inputs": [
        {
          "name": "_email",
          "type": "string"
        }
      ],
      "name": "getUserByEmail",
      "outputs": [
        {
          "name": "",
          "type": "bytes32"
        },
        {
          "name": "",
          "type": "bytes32"
        },
        {
          "name": "",
          "type": "bytes32"
        },
        {
          "name": "",
          "type": "bool"
        },
        {
          "name": "",
          "type": "uint256"
        }
      ],
      "payable": false,
      "stateMutability": "view",
      "type": "function"
    },
    {
      "constant": true,
      "inputs": [],
      "name": "getMyId",
      "outputs": [
        {
          "name": "",
          "type": "uint256"
        }
      ],
      "payable": false,
      "stateMutability": "view",
      "type": "function"
    },
    {
      "constant": false,
      "inputs": [
        {
          "name": "_name",
          "type": "string"
        },
        {
          "name": "_url",
          "type": "string"
        },
        {
          "name": "_fee",
          "type": "uint256"
        }
      ],
      "name": "addCredential",
      "outputs": [
        {
          "name": "",
          "type": "uint256"
        }
      ],
      "payable": false,
      "stateMutability": "nonpayable",
      "type": "function"
    },
    {
      "constant": true,
      "inputs": [
        {
          "name": "",
          "type": "uint256"
        }
      ],
      "name": "users",
      "outputs": [
        {
          "name": "firstName",
          "type": "bytes32"
        },
        {
          "name": "lastName",
          "type": "bytes32"
        },
        {
          "name": "email",
          "type": "bytes32"
        },
        {
          "name": "isActive",
          "type": "bool"
        }
      ],
      "payable": false,
      "stateMutability": "view",
      "type": "function"
    },
    {
      "constant": true,
      "inputs": [
        {
          "name": "",
          "type": "uint256"
        }
      ],
      "name": "agencies",
      "outputs": [
        {
          "name": "agencyName",
          "type": "bytes32"
        },
        {
          "name": "website",
          "type": "bytes32"
        },
        {
          "name": "email",
          "type": "bytes32"
        },
        {
          "name": "isActive",
          "type": "bool"
        }
      ],
      "payable": false,
      "stateMutability": "view",
      "type": "function"
    },
    {
      "constant": true,
      "inputs": [
        {
          "name": "_id",
          "type": "uint256"
        }
      ],
      "name": "getCredentialById",
      "outputs": [
        {
          "name": "name",
          "type": "bytes32"
        },
        {
          "name": "url",
          "type": "bytes32"
        },
        {
          "name": "fee",
          "type": "uint256"
        }
      ],
      "payable": false,
      "stateMutability": "view",
      "type": "function"
    },
    {
      "constant": false,
      "inputs": [
        {
          "name": "_firstName",
          "type": "string"
        },
        {
          "name": "_lastName",
          "type": "string"
        },
        {
          "name": "_email",
          "type": "string"
        }
      ],
      "name": "updateUser",
      "outputs": [],
      "payable": false,
      "stateMutability": "nonpayable",
      "type": "function"
    },
    {
      "constant": true,
      "inputs": [
        {
          "name": "_address",
          "type": "address"
        }
      ],
      "name": "getUserByAddress",
      "outputs": [
        {
          "name": "",
          "type": "bytes32"
        },
        {
          "name": "",
          "type": "bytes32"
        },
        {
          "name": "",
          "type": "bytes32"
        },
        {
          "name": "",
          "type": "bool"
        },
        {
          "name": "",
          "type": "uint256"
        }
      ],
      "payable": false,
      "stateMutability": "view",
      "type": "function"
    },
    {
      "constant": true,
      "inputs": [
        {
          "name": "_id",
          "type": "uint256"
        }
      ],
      "name": "getUserById",
      "outputs": [
        {
          "name": "",
          "type": "bytes32"
        },
        {
          "name": "",
          "type": "bytes32"
        },
        {
          "name": "",
          "type": "bytes32"
        },
        {
          "name": "",
          "type": "bool"
        },
        {
          "name": "",
          "type": "uint256"
        }
      ],
      "payable": false,
      "stateMutability": "view",
      "type": "function"
    },
    {
      "constant": true,
      "inputs": [
        {
          "name": "_email",
          "type": "string"
        }
      ],
      "name": "getIdByEmail",
      "outputs": [
        {
          "name": "",
          "type": "uint256"
        }
      ],
      "payable": false,
      "stateMutability": "view",
      "type": "function"
    },
    {
      "constant": true,
      "inputs": [],
      "name": "owner",
      "outputs": [
        {
          "name": "",
          "type": "address"
        }
      ],
      "payable": false,
      "stateMutability": "view",
      "type": "function"
    },
    {
      "constant": false,
      "inputs": [
        {
          "name": "_firstName",
          "type": "string"
        },
        {
          "name": "_lastName",
          "type": "string"
        },
        {
          "name": "_email",
          "type": "string"
        }
      ],
      "name": "addUser",
      "outputs": [],
      "payable": false,
      "stateMutability": "nonpayable",
      "type": "function"
    },
    {
      "constant": true,
      "inputs": [],
      "name": "getUserList",
      "outputs": [
        {
          "name": "",
          "type": "bytes32[]"
        },
        {
          "name": "",
          "type": "bytes32[]"
        },
        {
          "name": "",
          "type": "bytes32[]"
        },
        {
          "name": "",
          "type": "bool[]"
        }
      ],
      "payable": false,
      "stateMutability": "view",
      "type": "function"
    },
    {
      "constant": true,
      "inputs": [],
      "name": "getCredentialList",
      "outputs": [
        {
          "name": "",
          "type": "bytes32[]"
        }
      ],
      "payable": false,
      "stateMutability": "view",
      "type": "function"
    },
    {
      "constant": true,
      "inputs": [
        {
          "name": "_address",
          "type": "address"
        }
      ],
      "name": "getIdByAddress",
      "outputs": [
        {
          "name": "",
          "type": "uint256"
        }
      ],
      "payable": false,
      "stateMutability": "view",
      "type": "function"
    },
    {
      "constant": true,
      "inputs": [
        {
          "name": "",
          "type": "uint256"
        }
      ],
      "name": "credentials",
      "outputs": [
        {
          "name": "name",
          "type": "bytes32"
        },
        {
          "name": "url",
          "type": "bytes32"
        },
        {
          "name": "isActive",
          "type": "bool"
        },
        {
          "name": "fee",
          "type": "uint256"
        }
      ],
      "payable": false,
      "stateMutability": "view",
      "type": "function"
    },
    {
      "constant": true,
      "inputs": [
        {
          "name": "_name",
          "type": "string"
        }
      ],
      "name": "getCredentialByName",
      "outputs": [
        {
          "name": "name",
          "type": "bytes32"
        },
        {
          "name": "url",
          "type": "bytes32"
        },
        {
          "name": "fee",
          "type": "uint256"
        }
      ],
      "payable": false,
      "stateMutability": "view",
      "type": "function"
    },
    {
      "constant": false,
      "inputs": [
        {
          "name": "newOwner",
          "type": "address"
        }
      ],
      "name": "transferOwnership",
      "outputs": [],
      "payable": false,
      "stateMutability": "nonpayable",
      "type": "function"
    },
    {
      "payable": true,
      "stateMutability": "payable",
      "type": "fallback"
    },
    {
      "anonymous": false,
      "inputs": [
        {
          "indexed": false,
          "name": "_from",
          "type": "address"
        },
        {
          "indexed": false,
          "name": "value",
          "type": "uint256"
        }
      ],
      "name": "Deposit",
      "type": "event"
    },
    {
      "anonymous": false,
      "inputs": [
        {
          "indexed": false,
          "name": "_to",
          "type": "address"
        },
        {
          "indexed": false,
          "name": "_amount",
          "type": "uint256"
        }
      ],
      "name": "Withdraw",
      "type": "event"
    },
    {
      "anonymous": false,
      "inputs": [
        {
          "indexed": false,
          "name": "_remainingBalance",
          "type": "uint256"
        }
      ],
      "name": "Balance",
      "type": "event"
    },
    {
      "anonymous": false,
      "inputs": [
        {
          "indexed": false,
          "name": "id",
          "type": "uint256"
        },
        {
          "indexed": false,
          "name": "firstName",
          "type": "string"
        },
        {
          "indexed": false,
          "name": "lastName",
          "type": "string"
        },
        {
          "indexed": false,
          "name": "email",
          "type": "string"
        },
        {
          "indexed": false,
          "name": "userAddress",
          "type": "address"
        }
      ],
      "name": "NewUser",
      "type": "event"
    },
    {
      "anonymous": false,
      "inputs": [
        {
          "indexed": false,
          "name": "id",
          "type": "uint256"
        },
        {
          "indexed": false,
          "name": "firstName",
          "type": "string"
        },
        {
          "indexed": false,
          "name": "lastName",
          "type": "string"
        },
        {
          "indexed": false,
          "name": "email",
          "type": "string"
        },
        {
          "indexed": false,
          "name": "userAddress",
          "type": "address"
        }
      ],
      "name": "UpdateUser",
      "type": "event"
    },
    {
      "anonymous": false,
      "inputs": [
        {
          "indexed": false,
          "name": "name",
          "type": "bytes32"
        },
        {
          "indexed": false,
          "name": "url",
          "type": "bytes32"
        },
        {
          "indexed": false,
          "name": "isActive",
          "type": "bytes32"
        },
        {
          "indexed": false,
          "name": "fee",
          "type": "uint256"
        }
      ],
      "name": "NewCredential",
      "type": "event"
    },
    {
      "anonymous": false,
      "inputs": [
        {
          "indexed": true,
          "name": "previousOwner",
          "type": "address"
        },
        {
          "indexed": true,
          "name": "newOwner",
          "type": "address"
        }
      ],
      "name": "OwnershipTransferred",
      "type": "event"
    },
    {
      "constant": false,
      "inputs": [
        {
          "name": "_amount",
          "type": "uint256"
        }
      ],
      "name": "withdraw",
      "outputs": [],
      "payable": false,
      "stateMutability": "nonpayable",
      "type": "function"
    },
    {
      "constant": false,
      "inputs": [
        {
          "name": "_agencyName",
          "type": "bytes32"
        },
        {
          "name": "_website",
          "type": "bytes32"
        },
        {
          "name": "_email",
          "type": "bytes32"
        }
      ],
      "name": "updateAgencyInfo",
      "outputs": [],
      "payable": false,
      "stateMutability": "nonpayable",
      "type": "function"
    },
    {
      "constant": false,
      "inputs": [
        {
          "name": "_agencyName",
          "type": "string"
        },
        {
          "name": "_website",
          "type": "string"
        },
        {
          "name": "_email",
          "type": "string"
        }
      ],
      "name": "registerAgency",
      "outputs": [],
      "payable": true,
      "stateMutability": "payable",
      "type": "function"
    },
    {
      "constant": true,
      "inputs": [
        {
          "name": "_agencyName",
          "type": "string"
        }
      ],
      "name": "getAgencyInfo",
      "outputs": [
        {
          "name": "",
          "type": "bytes32"
        },
        {
          "name": "",
          "type": "bytes32"
        },
        {
          "name": "",
          "type": "bytes32"
        },
        {
          "name": "",
          "type": "bool"
        }
      ],
      "payable": false,
      "stateMutability": "view",
      "type": "function"
    },
    {
      "constant": true,
      "inputs": [
        {
          "name": "_address",
          "type": "address"
        }
      ],
      "name": "getAgencyInfoByAddress",
      "outputs": [
        {
          "name": "",
          "type": "bytes32"
        },
        {
          "name": "",
          "type": "bytes32"
        },
        {
          "name": "",
          "type": "bytes32"
        },
        {
          "name": "",
          "type": "bool"
        }
      ],
      "payable": false,
      "stateMutability": "view",
      "type": "function"
    },
    {
      "constant": false,
      "inputs": [],
      "name": "setAgencyInactive",
      "outputs": [],
      "payable": false,
      "stateMutability": "nonpayable",
      "type": "function"
    },
    {
      "constant": false,
      "inputs": [],
      "name": "setAgencyActive",
      "outputs": [],
      "payable": false,
      "stateMutability": "nonpayable",
      "type": "function"
    },
    {
      "constant": true,
      "inputs": [],
      "name": "getContractBalance",
      "outputs": [
        {
          "name": "",
          "type": "uint256"
        }
      ],
      "payable": false,
      "stateMutability": "view",
      "type": "function"
    },
    {
      "constant": false,
      "inputs": [],
      "name": "destroy",
      "outputs": [],
      "payable": false,
      "stateMutability": "nonpayable",
      "type": "function"
    }
  ],
  "bytecode": "0x6060604052336000806101000a81548173ffffffffffffffffffffffffffffffffffffffff021916908373ffffffffffffffffffffffffffffffffffffffff16021790555061313f806100536000396000f30060606040526004361061015f576000357c0100000000000000000000000000000000000000000000000000000000900463ffffffff16806318046ae11461022457806321d0e289146102cd57806327ed00ee146103a55780632859b54a146103ce5780632916435b146103e35780632b2b12c5146104615780632e1a7d4d1461051e5780633037625f14610541578063365b98b21461058257806339b1c511146105ea5780633c8d830d1461068c5780633ef39e2a146106f457806360903be61461074957806369c212f61461082c5780636ed6da9e146108b15780636f9fb98a1461092057806373c443ef14610949578063807d80451461095e57806383197ef0146109cf5780638da5cb5b146109e457806395c5fed414610a39578063b852204314610b1c578063cf021c8a14610c5e578063dff3b49714610cc8578063e0574e3f14610d15578063eed0e87e14610d75578063f2fde38b14610e04575b6000341115610222577fe1fffcc4923d04b559f4d29a8bfc6cda04eb5b0d3c460751c2402c5c5cc9109c3334604051808373ffffffffffffffffffffffffffffffffffffffff1673ffffffffffffffffffffffffffffffffffffffff1681526020018281526020019250505060405180910390a17fe8d947d7ebdd7b8b8fa2ad2022c7591418ac32d8c29c5f8a8fc9de52ffa540923073ffffffffffffffffffffffffffffffffffffffff16316040518082815260200191505060405180910390a15b005b341561022f57600080fd5b61027f600480803590602001908201803590602001908080601f01602080910402602001604051908101604052809392919081815260200183838082843782019150505050505091905050610e3d565b60405180866000191660001916815260200185600019166000191681526020018460001916600019168152602001831515151581526020018281526020019550505050505060405180910390f35b6103a3600480803590602001908201803590602001908080601f0160208091040260200160405190810160405280939291908181526020018383808284378201915050505050509190803590602001908201803590602001908080601f0160208091040260200160405190810160405280939291908181526020018383808284378201915050505050509190803590602001908201803590602001908080601f01602080910402602001604051908101604052809392919081815260200183838082843782019150505050505091905050610f53565b005b34156103b057600080fd5b6103b86110dc565b6040518082815260200191505060405180910390f35b34156103d957600080fd5b6103e1611170565b005b34156103ee57600080fd5b61041a600480803573ffffffffffffffffffffffffffffffffffffffff16906020019091905050611290565b604051808560001916600019168152602001846000191660001916815260200183600019166000191681526020018215151515815260200194505050505060405180910390f35b341561046c57600080fd5b610508600480803590602001908201803590602001908080601f0160208091040260200160405190810160405280939291908181526020018383808284378201915050505050509190803590602001908201803590602001908080601f016020809104026020016040519081016040528093929190818152602001838380828437820191505050505050919080359060200190919050506113a9565b6040518082815260200191505060405180910390f35b341561052957600080fd5b61053f60048080359060200190919050506114cb565b005b341561054c57600080fd5b610580600480803560001916906020019091908035600019169060200190919080356000191690602001909190505061167d565b005b341561058d57600080fd5b6105a3600480803590602001909190505061182e565b604051808560001916600019168152602001846000191660001916815260200183600019166000191681526020018215151515815260200194505050505060405180910390f35b34156105f557600080fd5b610645600480803590602001908201803590602001908080601f0160208091040260200160405190810160405280939291908181526020018383808284378201915050505050509190505061187a565b604051808560001916600019168152602001846000191660001916815260200183600019166000191681526020018215151515815260200194505050505060405180910390f35b341561069757600080fd5b6106ad600480803590602001909190505061198d565b604051808560001916600019168152602001846000191660001916815260200183600019166000191681526020018215151515815260200194505050505060405180910390f35b34156106ff57600080fd5b61071560048080359060200190919050506119d9565b6040518084600019166000191681526020018360001916600019168152602001828152602001935050505060405180910390f35b341561075457600080fd5b61082a600480803590602001908201803590602001908080601f0160208091040260200160405190810160405280939291908181526020018383808284378201915050505050509190803590602001908201803590602001908080601f0160208091040260200160405190810160405280939291908181526020018383808284378201915050505050509190803590602001908201803590602001908080601f01602080910402602001604051908101604052809392919081815260200183838082843782019150505050505091905050611a61565b005b341561083757600080fd5b610863600480803573ffffffffffffffffffffffffffffffffffffffff16906020019091905050611da1565b60405180866000191660001916815260200185600019166000191681526020018460001916600019168152602001831515151581526020018281526020019550505050505060405180910390f35b34156108bc57600080fd5b6108d26004808035906020019091905050611ed3565b60405180866000191660001916815260200185600019166000191681526020018460001916600019168152602001831515151581526020018281526020019550505050505060405180910390f35b341561092b57600080fd5b610933611f93565b6040518082815260200191505060405180910390f35b341561095457600080fd5b61095c61200d565b005b341561096957600080fd5b6109b9600480803590602001908201803590602001908080601f0160208091040260200160405190810160405280939291908181526020018383808284378201915050505050509190505061212d565b6040518082815260200191505060405180910390f35b34156109da57600080fd5b6109e261215a565b005b34156109ef57600080fd5b6109f76121d7565b604051808273ffffffffffffffffffffffffffffffffffffffff1673ffffffffffffffffffffffffffffffffffffffff16815260200191505060405180910390f35b3415610a4457600080fd5b610b1a600480803590602001908201803590602001908080601f0160208091040260200160405190810160405280939291908181526020018383808284378201915050505050509190803590602001908201803590602001908080601f0160208091040260200160405190810160405280939291908181526020018383808284378201915050505050509190803590602001908201803590602001908080601f016020809104026020016040519081016040528093929190818152602001838380828437820191505050505050919050506121fc565b005b3415610b2757600080fd5b610b2f61256e565b6040518080602001806020018060200180602001858103855289818151815260200191508051906020019060200280838360005b83811015610b7e578082015181840152602081019050610b63565b50505050905001858103845288818151815260200191508051906020019060200280838360005b83811015610bc0578082015181840152602081019050610ba5565b50505050905001858103835287818151815260200191508051906020019060200280838360005b83811015610c02578082015181840152602081019050610be7565b50505050905001858103825286818151815260200191508051906020019060200280838360005b83811015610c44578082015181840152602081019050610c29565b505050509050019850505050505050505060405180910390f35b3415610c6957600080fd5b610c716127bb565b6040518080602001828103825283818151815260200191508051906020019060200280838360005b83811015610cb4578082015181840152602081019050610c99565b505050509050019250505060405180910390f35b3415610cd357600080fd5b610cff600480803573ffffffffffffffffffffffffffffffffffffffff16906020019091905050612878565b6040518082815260200191505060405180910390f35b3415610d2057600080fd5b610d36600480803590602001909190505061290e565b60405180856000191660001916815260200184600019166000191681526020018315151515815260200182815260200194505050505060405180910390f35b3415610d8057600080fd5b610dd0600480803590602001908201803590602001908080601f0160208091040260200160405190810160405280939291908181526020018383808284378201915050505050509190505061295a565b6040518084600019166000191681526020018360001916600019168152602001828152602001935050505060405180910390f35b3415610e0f57600080fd5b610e3b600480803573ffffffffffffffffffffffffffffffffffffffff16906020019091905050612a38565b005b60008060008060008060046000610e5389612b8d565b600019166000191681526020019081526020016000205490506000600382815481101515610e7d57fe5b906000526020600020905050602060ff16111515610e9a57600080fd5b60038054905081101515610ead57600080fd5b600381815481101515610ebc57fe5b906000526020600020906004020160000154600382815481101515610edd57fe5b906000526020600020906004020160010154600383815481101515610efe57fe5b906000526020600020906004020160020154600384815481101515610f1f57fe5b906000526020600020906004020160030160009054906101000a900460ff1684955095509550955095505091939590929450565b600080610f5f85612bbe565b111515610f6b57600080fd5b600060076000610f7a87612b8d565b6000191660001916815260200190815260200160002054141515610f9d57600080fd5b60009050600160068054806001018281610fb79190612f60565b91600052602060002090600402016000608060405190810160405280610fdc8a612b8d565b600019168152602001610fee89612b8d565b60001916815260200161100088612b8d565b60001916815260200160011515815250909190915060008201518160000190600019169055602082015181600101906000191690556040820151816002019060001916905560608201518160030160006101000a81548160ff0219169083151502179055505050039050806007600061107887612b8d565b600019166000191681526020019081526020016000208190555080600860003373ffffffffffffffffffffffffffffffffffffffff1673ffffffffffffffffffffffffffffffffffffffff1681526020019081526020016000208190555050505050565b600080600560003373ffffffffffffffffffffffffffffffffffffffff1673ffffffffffffffffffffffffffffffffffffffff1681526020019081526020016000205411151561112b57600080fd5b600560003373ffffffffffffffffffffffffffffffffffffffff1673ffffffffffffffffffffffffffffffffffffffff16815260200190815260200160002054905090565b600080600860003373ffffffffffffffffffffffffffffffffffffffff1673ffffffffffffffffffffffffffffffffffffffff16815260200190815260200160002054905060016006828154811015156111c657fe5b906000526020600020905050602060ff161115156111e357600080fd5b600860003373ffffffffffffffffffffffffffffffffffffffff1673ffffffffffffffffffffffffffffffffffffffff168152602001908152602001600020549150600160068381548110151561123657fe5b906000526020600020905050602060ff1611151561125357600080fd5b600060068381548110151561126457fe5b906000526020600020906004020160030160006101000a81548160ff0219169083151502179055505050565b6000806000806000600860008773ffffffffffffffffffffffffffffffffffffffff1673ffffffffffffffffffffffffffffffffffffffff16815260200190815260200160002054905060016006828154811015156112eb57fe5b906000526020600020905050602060ff1611151561130857600080fd5b60068181548110151561131757fe5b90600052602060002090600402016000015460068281548110151561133857fe5b90600052602060002090600402016001015460068381548110151561135957fe5b90600052602060002090600402016002015460068481548110151561137a57fe5b906000526020600020906004020160030160009054906101000a900460ff169450945094509450509193509193565b6000806000600260006113bb88612b8d565b60001916600019168152602001908152602001600020541415156113de57600080fd5b6000905060018080548060010182816113f79190612f92565b9160005260206000209060040201600060806040519081016040528061141c8b612b8d565b60001916815260200161142e8a612b8d565b600019168152602001600115158152602001888152509091909150600082015181600001906000191690556020820151816001019060001916905560408201518160020160006101000a81548160ff02191690831515021790555060608201518160030155505003905080600260006114a688612b8d565b6000191660001916815260200190815260200160002081905550809150509392505050565b6000809054906101000a900473ffffffffffffffffffffffffffffffffffffffff1673ffffffffffffffffffffffffffffffffffffffff163373ffffffffffffffffffffffffffffffffffffffff1614151561152657600080fd5b60003073ffffffffffffffffffffffffffffffffffffffff163111151561154c57600080fd5b60008111151561155b57600080fd5b803073ffffffffffffffffffffffffffffffffffffffff16311015151561158157600080fd5b3373ffffffffffffffffffffffffffffffffffffffff166108fc829081150290604051600060405180830381858888f1935050505015156115c157600080fd5b7f884edad9ce6fa2440d8a54cc123490eb96d2768479d49ff9c7366125a94243643382604051808373ffffffffffffffffffffffffffffffffffffffff1673ffffffffffffffffffffffffffffffffffffffff1681526020018281526020019250505060405180910390a17fe8d947d7ebdd7b8b8fa2ad2022c7591418ac32d8c29c5f8a8fc9de52ffa540923073ffffffffffffffffffffffffffffffffffffffff16316040518082815260200191505060405180910390a150565b600080600860003373ffffffffffffffffffffffffffffffffffffffff1673ffffffffffffffffffffffffffffffffffffffff16815260200190815260200160002054905060016006828154811015156116d357fe5b906000526020600020905050602060ff161115156116f057600080fd5b6000602060ff1611151561170357600080fd5b600860003373ffffffffffffffffffffffffffffffffffffffff1673ffffffffffffffffffffffffffffffffffffffff168152602001908152602001600020549150600160068381548110151561175657fe5b906000526020600020905050602060ff1611151561177357600080fd5b8460068381548110151561178357fe5b90600052602060002090600402016000018160001916905550836006838154811015156117ac57fe5b90600052602060002090600402016001018160001916905550826006838154811015156117d557fe5b9060005260206000209060040201600201816000191690555060016006838154811015156117ff57fe5b906000526020600020906004020160030160006101000a81548160ff0219169083151502179055505050505050565b60038181548110151561183d57fe5b90600052602060002090600402016000915090508060000154908060010154908060020154908060030160009054906101000a900460ff16905084565b60008060008060008061188c87612bbe565b11151561189857600080fd5b600760006118a588612b8d565b6000191660001916815260200190815260200160002054905060016006828154811015156118cf57fe5b906000526020600020905050602060ff161115156118ec57600080fd5b6006818154811015156118fb57fe5b90600052602060002090600402016000015460068281548110151561191c57fe5b90600052602060002090600402016001015460068381548110151561193d57fe5b90600052602060002090600402016002015460068481548110151561195e57fe5b906000526020600020906004020160030160009054906101000a900460ff169450945094509450509193509193565b60068181548110151561199c57fe5b90600052602060002090600402016000915090508060000154908060010154908060020154908060030160009054906101000a900460ff16905084565b6000806000600180549050841015156119f157600080fd5b600184815481101515611a0057fe5b906000526020600020906004020160000154600185815481101515611a2157fe5b906000526020600020906004020160010154600186815481101515611a4257fe5b9060005260206000209060040201600301549250925092509193909250565b600080600560003373ffffffffffffffffffffffffffffffffffffffff1673ffffffffffffffffffffffffffffffffffffffff1681526020019081526020016000205490506001600382815481101515611ab757fe5b906000526020600020905050602060ff16111515611ad457600080fd5b6000600560003373ffffffffffffffffffffffffffffffffffffffff1673ffffffffffffffffffffffffffffffffffffffff16815260200190815260200160002054111515611b2257600080fd5b611b2b33612878565b9150611b3685612b8d565b600383815481101515611b4557fe5b90600052602060002090600402016000018160001916905550611b6784612b8d565b600383815481101515611b7657fe5b90600052602060002090600402016001018160001916905550611b9883612b8d565b600383815481101515611ba757fe5b906000526020600020906004020160020181600019169055508160046000611bce86612b8d565b60001916600019168152602001908152602001600020819055507fd3923f0b3b1cec0036b68d0c3f17abc063fe21182d951342a1300cd3f98564dd8286868633604051808681526020018060200180602001806020018573ffffffffffffffffffffffffffffffffffffffff1673ffffffffffffffffffffffffffffffffffffffff168152602001848103845288818151815260200191508051906020019080838360005b83811015611c8e578082015181840152602081019050611c73565b50505050905090810190601f168015611cbb5780820380516001836020036101000a031916815260200191505b50848103835287818151815260200191508051906020019080838360005b83811015611cf4578082015181840152602081019050611cd9565b50505050905090810190601f168015611d215780820380516001836020036101000a031916815260200191505b50848103825286818151815260200191508051906020019080838360005b83811015611d5a578082015181840152602081019050611d3f565b50505050905090810190601f168015611d875780820380516001836020036101000a031916815260200191505b509850505050505050505060405180910390a15050505050565b600080600080600080600560008873ffffffffffffffffffffffffffffffffffffffff1673ffffffffffffffffffffffffffffffffffffffff1681526020019081526020016000205490506000600382815481101515611dfd57fe5b906000526020600020905050602060ff16111515611e1a57600080fd5b60038054905081101515611e2d57600080fd5b600381815481101515611e3c57fe5b906000526020600020906004020160000154600382815481101515611e5d57fe5b906000526020600020906004020160010154600383815481101515611e7e57fe5b906000526020600020906004020160020154600384815481101515611e9f57fe5b906000526020600020906004020160030160009054906101000a900460ff1684955095509550955095505091939590929450565b600080600080600060038054905086101515611eee57600080fd5b600386815481101515611efd57fe5b906000526020600020906004020160000154600387815481101515611f1e57fe5b906000526020600020906004020160010154600388815481101515611f3f57fe5b906000526020600020906004020160020154600389815481101515611f6057fe5b906000526020600020906004020160030160009054906101000a900460ff16899450945094509450945091939590929450565b60008060009054906101000a900473ffffffffffffffffffffffffffffffffffffffff1673ffffffffffffffffffffffffffffffffffffffff163373ffffffffffffffffffffffffffffffffffffffff16141515611ff057600080fd5b3073ffffffffffffffffffffffffffffffffffffffff1631905090565b600080600860003373ffffffffffffffffffffffffffffffffffffffff1673ffffffffffffffffffffffffffffffffffffffff168152602001908152602001600020549050600160068281548110151561206357fe5b906000526020600020905050602060ff1611151561208057600080fd5b600860003373ffffffffffffffffffffffffffffffffffffffff1673ffffffffffffffffffffffffffffffffffffffff16815260200190815260200160002054915060016006838154811015156120d357fe5b906000526020600020905050602060ff161115156120f057600080fd5b600160068381548110151561210157fe5b906000526020600020906004020160030160006101000a81548160ff0219169083151502179055505050565b60006004600061213c84612b8d565b60001916600019168152602001908152602001600020549050919050565b6000809054906101000a900473ffffffffffffffffffffffffffffffffffffffff1673ffffffffffffffffffffffffffffffffffffffff163373ffffffffffffffffffffffffffffffffffffffff161415156121b557600080fd5b6121d53073ffffffffffffffffffffffffffffffffffffffff16316114cb565b565b6000809054906101000a900473ffffffffffffffffffffffffffffffffffffffff1681565b6000806004600061220c85612b8d565b600019166000191681526020019081526020016000205414151561222f57600080fd5b6000600560003373ffffffffffffffffffffffffffffffffffffffff1673ffffffffffffffffffffffffffffffffffffffff1681526020019081526020016000205414151561227d57600080fd5b600090506001600380548060010182816122979190612fc4565b916000526020600020906004020160006080604051908101604052806122bc8a612b8d565b6000191681526020016122ce89612b8d565b6000191681526020016122e088612b8d565b60001916815260200160011515815250909190915060008201518160000190600019169055602082015181600101906000191690556040820151816002019060001916905560608201518160030160006101000a81548160ff0219169083151502179055505050039050806004600061235885612b8d565b600019166000191681526020019081526020016000208190555080600560003373ffffffffffffffffffffffffffffffffffffffff1673ffffffffffffffffffffffffffffffffffffffff168152602001908152602001600020819055507f023a8bc2c2a7585292c8d76a6c38d4001ebdb3df730965277bc4d0e94f2647518185858533604051808681526020018060200180602001806020018573ffffffffffffffffffffffffffffffffffffffff1673ffffffffffffffffffffffffffffffffffffffff168152602001848103845288818151815260200191508051906020019080838360005b8381101561245c578082015181840152602081019050612441565b50505050905090810190601f1680156124895780820380516001836020036101000a031916815260200191505b50848103835287818151815260200191508051906020019080838360005b838110156124c25780820151818401526020810190506124a7565b50505050905090810190601f1680156124ef5780820380516001836020036101000a031916815260200191505b50848103825286818151815260200191508051906020019080838360005b8381101561252857808201518184015260208101905061250d565b50505050905090810190601f1680156125555780820380516001836020036101000a031916815260200191505b509850505050505050505060405180910390a150505050565b612576612ff6565b61257e612ff6565b612586612ff6565b61258e61300a565b612596612ff6565b61259e612ff6565b6125a6612ff6565b6125ae61300a565b600080600380549050101515156125c457600080fd5b6003805490506040518059106125d75750595b908082528060200260200182016040525094506003805490506040518059106125fd5750595b908082528060200260200182016040525093506003805490506040518059106126235750595b908082528060200260200182016040525092506003805490506040518059106126495750595b90808252806020026020018201604052509150600090505b600160038054905003811115156127a45760038181548110151561268157fe5b90600052602060002090600402016000015485828151811015156126a157fe5b9060200190602002019060001916908160001916815250506003818154811015156126c857fe5b90600052602060002090600402016001015484828151811015156126e857fe5b90602001906020020190600019169081600019168152505060038181548110151561270f57fe5b906000526020600020906004020160020154838281518110151561272f57fe5b90602001906020020190600019169081600019168152505060038181548110151561275657fe5b906000526020600020906004020160030160009054906101000a900460ff16828281518110151561278357fe5b90602001906020020190151590811515815250508080600101915050612661565b848484849850985098509850505050505090919293565b6127c3612ff6565b6127cb612ff6565b600080600180549050101515156127e157600080fd5b6001805490506040518059106127f45750595b90808252806020026020018201604052509150600090505b6001808054905003811115156128705760018181548110151561282b57fe5b906000526020600020906004020160000154828281518110151561284b57fe5b906020019060200201906000191690816000191681525050808060010191505061280c565b819250505090565b600080600560008473ffffffffffffffffffffffffffffffffffffffff1673ffffffffffffffffffffffffffffffffffffffff168152602001908152602001600020541115156128c757600080fd5b600560008373ffffffffffffffffffffffffffffffffffffffff1673ffffffffffffffffffffffffffffffffffffffff168152602001908152602001600020549050919050565b60018181548110151561291d57fe5b90600052602060002090600402016000915090508060000154908060010154908060020160009054906101000a900460ff16908060030154905084565b6000806000806002600061296d87612b8d565b60001916600019168152602001908152602001600020549050600060018281548110151561299757fe5b906000526020600020905050602060ff161115156129b457600080fd5b600180549050811015156129c757600080fd5b6001818154811015156129d657fe5b9060005260206000209060040201600001546001828154811015156129f757fe5b906000526020600020906004020160010154600183815481101515612a1857fe5b906000526020600020906004020160030154935093509350509193909250565b6000809054906101000a900473ffffffffffffffffffffffffffffffffffffffff1673ffffffffffffffffffffffffffffffffffffffff163373ffffffffffffffffffffffffffffffffffffffff16141515612a9357600080fd5b600073ffffffffffffffffffffffffffffffffffffffff168173ffffffffffffffffffffffffffffffffffffffff1614151515612acf57600080fd5b8073ffffffffffffffffffffffffffffffffffffffff166000809054906101000a900473ffffffffffffffffffffffffffffffffffffffff1673ffffffffffffffffffffffffffffffffffffffff167f8be0079c531659141344cd1fd0a4f28419497f9722a3daafe3b4186f6b6457e060405160405180910390a3806000806101000a81548173ffffffffffffffffffffffffffffffffffffffff021916908373ffffffffffffffffffffffffffffffffffffffff16021790555050565b6000612b9761301e565b829050600081511415612bb05760006001029150612bb8565b602083015191505b50919050565b600080612bc961301e565b600091508390505b8051821015612f595760007f01000000000000000000000000000000000000000000000000000000000000000260078284815181101515612c0e57fe5b9060200101517f010000000000000000000000000000000000000000000000000000000000000090047f0100000000000000000000000000000000000000000000000000000000000000027effffffffffffffffffffffffffffffffffffffffffffffffffffffffffffff19169060020a90047effffffffffffffffffffffffffffffffffffffffffffffffffffffffffffff19161415612cb457600182019150612f4c565b60067f01000000000000000000000000000000000000000000000000000000000000000260058284815181101515612ce857fe5b9060200101517f010000000000000000000000000000000000000000000000000000000000000090047f0100000000000000000000000000000000000000000000000000000000000000027effffffffffffffffffffffffffffffffffffffffffffffffffffffffffffff19169060020a90047effffffffffffffffffffffffffffffffffffffffffffffffffffffffffffff19161415612d8e57600282019150612f4b565b600e7f01000000000000000000000000000000000000000000000000000000000000000260048284815181101515612dc257fe5b9060200101517f010000000000000000000000000000000000000000000000000000000000000090047f0100000000000000000000000000000000000000000000000000000000000000027effffffffffffffffffffffffffffffffffffffffffffffffffffffffffffff19169060020a90047effffffffffffffffffffffffffffffffffffffffffffffffffffffffffffff19161415612e6857600382019150612f4a565b601e7f01000000000000000000000000000000000000000000000000000000000000000260038284815181101515612e9c57fe5b9060200101517f010000000000000000000000000000000000000000000000000000000000000090047f0100000000000000000000000000000000000000000000000000000000000000027effffffffffffffffffffffffffffffffffffffffffffffffffffffffffffff19169060020a90047effffffffffffffffffffffffffffffffffffffffffffffffffffffffffffff19161415612f4257600482019150612f49565b6001820191505b5b5b5b8280600101935050612bd1565b5050919050565b815481835581811511612f8d57600402816004028360005260206000209182019101612f8c9190613032565b5b505050565b815481835581811511612fbf57600402816004028360005260206000209182019101612fbe919061307d565b5b505050565b815481835581811511612ff157600402816004028360005260206000209182019101612ff091906130c8565b5b505050565b602060405190810160405280600081525090565b602060405190810160405280600081525090565b602060405190810160405280600081525090565b61307a91905b8082111561307657600080820160009055600182016000905560028201600090556003820160006101000a81549060ff021916905550600401613038565b5090565b90565b6130c591905b808211156130c15760008082016000905560018201600090556002820160006101000a81549060ff0219169055600382016000905550600401613083565b5090565b90565b61311091905b8082111561310c57600080820160009055600182016000905560028201600090556003820160006101000a81549060ff0219169055506004016130ce565b5090565b905600a165627a7a72305820d4716ed6c1fcaab91668643c1d5d7afca49aa5e2684decc7fa1a4e3e735f14660029",
  "source": "pragma solidity ^0.4.19;\n\nimport \"./Ownable.sol\";\nimport \"./Credentials.sol\";\nimport \"./Users.sol\";\n\ncontract MicroCredential is Ownable,Credentials,Users {\n\n    // Events\n    event Deposit(address _from, uint value);\n    event Withdraw(address _to, uint _amount);\n    event Balance(uint _remainingBalance);\n\n    //  Make sure the address resolves a valid contract\n    modifier onlyAgencyOwner() {\n        uint id = agencyIdByAddress[msg.sender];\n        require(agencies[id].agencyName.length > 1);\n        _;\n    }\n\n    // variables and such\n    struct Agency {\n        bytes32 agencyName;\n        bytes32 website;\n        bytes32 email;\n        bool isActive;\n    }\n\n    // Mappings and Variables\n    Agency[] public agencies;\n    mapping(bytes32 => uint) internal agencyIdByName;\n    mapping(address => uint) internal agencyIdByAddress;\n\n    // What would I do in a constructor.  \n    // Still don't have a good purpose for this.\n\n    // Purpose  : Fallback Function\n    function() public payable {\n        if (msg.value > 0) {\n            emit Deposit(msg.sender, msg.value);\n            emit Balance(address(this).balance);\n        }\n    }\n\n    // Purpose  : For the owner to withdraw some funds.\n    function withdraw(uint _amount) public onlyOwner {\n        require(address(this).balance > 0);\n        require(_amount > 0);\n        require(address(this).balance >= _amount);\n        address(msg.sender).transfer(_amount);\n        emit Withdraw(msg.sender, _amount);\n        emit Balance(address(this).balance);\n    }\n\n    // Purpose  : Set the agency basic info.  Can only by done by the agency owner \n    function updateAgencyInfo(bytes32 _agencyName, bytes32 _website, bytes32 _email) \n        public onlyAgencyOwner {\n        require(_agencyName.length > 0);\n        uint id = agencyIdByAddress[msg.sender];\n        require(agencies[id].agencyName.length > 1);\n        \n        agencies[id].agencyName = _agencyName;\n        agencies[id].website = _website;\n        agencies[id].email = _email;\n        agencies[id].isActive = true;\n    }\n\n    // Purpose  : Need an 'iniitalize' because the first time, because it's public and payable.\n    //          : It needs to be payable or people will create these willy nilly.\n    function registerAgency(string _agencyName, string _website, string _email) \n        public payable { \n        require(utfStringLength(_agencyName) > 0);\n        require(agencyIdByName[stringToBytes32(_agencyName)] == 0);\n        uint id = 0;\n        id = agencies.push(Agency(stringToBytes32(_agencyName), stringToBytes32(_website),stringToBytes32(_email),true))-1;\n        agencyIdByName[stringToBytes32(_agencyName)] = id;\n        agencyIdByAddress[msg.sender] = id;\n    }\n\n    // Purpose  : Get the agency basic info\n    function getAgencyInfo(string _agencyName) view public returns (bytes32, bytes32, bytes32, bool) {\n        require(utfStringLength(_agencyName) > 0);\n        uint id = agencyIdByName[stringToBytes32(_agencyName)];\n        require(agencies[id].agencyName.length > 1);\n        return (agencies[id].agencyName, agencies[id].website, agencies[id].email,agencies[id].isActive);\n    }\n\n    // Purpose  : Get the agency basic info\n    function getAgencyInfoByAddress(address _address) view public returns (bytes32, bytes32, bytes32, bool) {\n        uint id = agencyIdByAddress[_address];\n        require(agencies[id].agencyName.length > 1);\n        return (agencies[id].agencyName, agencies[id].website, agencies[id].email,agencies[id].isActive);\n    }\n\n    // Purpose  : To Make the contract inactive and return funds to owner\n    function setAgencyInactive() public onlyAgencyOwner {\n        uint id = agencyIdByAddress[msg.sender];\n        require(agencies[id].agencyName.length > 1);\n        agencies[id].isActive = false;\n    }\n\n    // Purpose  : Used when an agency becomes active again\n    // To Do    : This will probably have to clear some queues, \n    //            reset credential statii, etc.\n    function setAgencyActive() public onlyAgencyOwner {\n        uint id = agencyIdByAddress[msg.sender];\n        require(agencies[id].agencyName.length > 1);\n        agencies[id].isActive = true;\n    }\n\n    // Purpose  : Get the contract balance\n    function getContractBalance() public onlyOwner view returns (uint) {\n        return address(this).balance;\n    }\n\n    // Purpsoe  : Owners with draw all pirl from contract.  Shutting contract down.\n    function destroy() public onlyOwner {\n        withdraw(address(this).balance);\n    }\n\n}",
  "sourcePath": "C:\\Development\\PIRL\\MicroCredentials\\truffle\\contracts\\MicroCredential.sol",
  "compiler": {
    "name": "solc",
    "version": "0.4.21+commit.dfe3193c.Emscripten.clang"
  },
  "schemaVersion": "2.0.0",
  "updatedAt": "2018-05-16T16:26:25.833Z"
}