{
  "contractName": "MicroCredential",
  "abi": [
    {
      "constant": true,
      "inputs": [
        {
          "name": "_email",
          "type": "string"
        }
      ],
      "name": "getUserByEmail",
      "outputs": [
        {
          "name": "",
          "type": "bytes32"
        },
        {
          "name": "",
          "type": "bytes32"
        },
        {
          "name": "",
          "type": "bytes32"
        },
        {
          "name": "",
          "type": "bool"
        },
        {
          "name": "",
          "type": "uint256"
        }
      ],
      "payable": false,
      "stateMutability": "view",
      "type": "function"
    },
    {
      "constant": true,
      "inputs": [
        {
          "name": "_userId",
          "type": "uint256"
        }
      ],
      "name": "getFileListByUserId",
      "outputs": [
        {
          "name": "",
          "type": "bytes32[]"
        },
        {
          "name": "",
          "type": "uint256[]"
        }
      ],
      "payable": false,
      "stateMutability": "view",
      "type": "function"
    },
    {
      "constant": true,
      "inputs": [],
      "name": "getMyId",
      "outputs": [
        {
          "name": "",
          "type": "uint256"
        }
      ],
      "payable": false,
      "stateMutability": "view",
      "type": "function"
    },
    {
      "constant": false,
      "inputs": [
        {
          "name": "_name",
          "type": "string"
        },
        {
          "name": "_url",
          "type": "string"
        },
        {
          "name": "_fee",
          "type": "uint256"
        },
        {
          "name": "_agencyId",
          "type": "uint256"
        }
      ],
      "name": "addCredential",
      "outputs": [],
      "payable": false,
      "stateMutability": "nonpayable",
      "type": "function"
    },
    {
      "constant": true,
      "inputs": [
        {
          "name": "",
          "type": "uint256"
        }
      ],
      "name": "users",
      "outputs": [
        {
          "name": "firstName",
          "type": "bytes32"
        },
        {
          "name": "lastName",
          "type": "bytes32"
        },
        {
          "name": "email",
          "type": "bytes32"
        },
        {
          "name": "isActive",
          "type": "bool"
        }
      ],
      "payable": false,
      "stateMutability": "view",
      "type": "function"
    },
    {
      "constant": true,
      "inputs": [
        {
          "name": "",
          "type": "uint256"
        }
      ],
      "name": "agencies",
      "outputs": [
        {
          "name": "agencyName",
          "type": "bytes32"
        },
        {
          "name": "website",
          "type": "bytes32"
        },
        {
          "name": "firstName",
          "type": "bytes32"
        },
        {
          "name": "lastName",
          "type": "bytes32"
        },
        {
          "name": "email",
          "type": "bytes32"
        },
        {
          "name": "isActive",
          "type": "bool"
        },
        {
          "name": "exists",
          "type": "bool"
        }
      ],
      "payable": false,
      "stateMutability": "view",
      "type": "function"
    },
    {
      "constant": true,
      "inputs": [
        {
          "name": "_id",
          "type": "uint256"
        }
      ],
      "name": "getCredentialById",
      "outputs": [
        {
          "name": "name",
          "type": "bytes32"
        },
        {
          "name": "url",
          "type": "bytes32"
        },
        {
          "name": "fee",
          "type": "uint256"
        }
      ],
      "payable": false,
      "stateMutability": "view",
      "type": "function"
    },
    {
      "constant": false,
      "inputs": [
        {
          "name": "_firstName",
          "type": "string"
        },
        {
          "name": "_lastName",
          "type": "string"
        },
        {
          "name": "_email",
          "type": "string"
        }
      ],
      "name": "updateUser",
      "outputs": [],
      "payable": false,
      "stateMutability": "nonpayable",
      "type": "function"
    },
    {
      "constant": true,
      "inputs": [
        {
          "name": "_address",
          "type": "address"
        }
      ],
      "name": "getUserByAddress",
      "outputs": [
        {
          "name": "",
          "type": "bytes32"
        },
        {
          "name": "",
          "type": "bytes32"
        },
        {
          "name": "",
          "type": "bytes32"
        },
        {
          "name": "",
          "type": "bool"
        },
        {
          "name": "",
          "type": "uint256"
        }
      ],
      "payable": false,
      "stateMutability": "view",
      "type": "function"
    },
    {
      "constant": true,
      "inputs": [
        {
          "name": "_id",
          "type": "uint256"
        }
      ],
      "name": "getUserById",
      "outputs": [
        {
          "name": "",
          "type": "bytes32"
        },
        {
          "name": "",
          "type": "bytes32"
        },
        {
          "name": "",
          "type": "bytes32"
        },
        {
          "name": "",
          "type": "bool"
        },
        {
          "name": "",
          "type": "uint256"
        }
      ],
      "payable": false,
      "stateMutability": "view",
      "type": "function"
    },
    {
      "constant": true,
      "inputs": [
        {
          "name": "_agencyId",
          "type": "uint256"
        }
      ],
      "name": "getFileListByAgencyId",
      "outputs": [
        {
          "name": "",
          "type": "bytes32[]"
        },
        {
          "name": "",
          "type": "uint256[]"
        }
      ],
      "payable": false,
      "stateMutability": "view",
      "type": "function"
    },
    {
      "constant": true,
      "inputs": [
        {
          "name": "_email",
          "type": "string"
        }
      ],
      "name": "getIdByEmail",
      "outputs": [
        {
          "name": "",
          "type": "uint256"
        }
      ],
      "payable": false,
      "stateMutability": "view",
      "type": "function"
    },
    {
      "constant": true,
      "inputs": [],
      "name": "owner",
      "outputs": [
        {
          "name": "",
          "type": "address"
        }
      ],
      "payable": false,
      "stateMutability": "view",
      "type": "function"
    },
    {
      "constant": false,
      "inputs": [
        {
          "name": "_fileId",
          "type": "uint256"
        },
        {
          "name": "_name",
          "type": "string"
        },
        {
          "name": "_url",
          "type": "string"
        },
        {
          "name": "_pirlFileHash",
          "type": "string"
        },
        {
          "name": "_isActive",
          "type": "bool"
        },
        {
          "name": "_userId",
          "type": "uint256"
        },
        {
          "name": "_userSubmissionId",
          "type": "uint256"
        },
        {
          "name": "_agencyId",
          "type": "uint256"
        }
      ],
      "name": "updateFileById",
      "outputs": [],
      "payable": false,
      "stateMutability": "nonpayable",
      "type": "function"
    },
    {
      "constant": false,
      "inputs": [
        {
          "name": "_firstName",
          "type": "string"
        },
        {
          "name": "_lastName",
          "type": "string"
        },
        {
          "name": "_email",
          "type": "string"
        }
      ],
      "name": "addUser",
      "outputs": [],
      "payable": false,
      "stateMutability": "nonpayable",
      "type": "function"
    },
    {
      "constant": true,
      "inputs": [
        {
          "name": "_userSubmissionId",
          "type": "uint256"
        }
      ],
      "name": "getFileListByUserSubmissionId",
      "outputs": [
        {
          "name": "",
          "type": "bytes32[]"
        },
        {
          "name": "",
          "type": "uint256[]"
        }
      ],
      "payable": false,
      "stateMutability": "view",
      "type": "function"
    },
    {
      "constant": true,
      "inputs": [],
      "name": "getUserList",
      "outputs": [
        {
          "name": "",
          "type": "bytes32[]"
        },
        {
          "name": "",
          "type": "bytes32[]"
        },
        {
          "name": "",
          "type": "bytes32[]"
        },
        {
          "name": "",
          "type": "bool[]"
        }
      ],
      "payable": false,
      "stateMutability": "view",
      "type": "function"
    },
    {
      "constant": false,
      "inputs": [
        {
          "name": "_name",
          "type": "string"
        },
        {
          "name": "_url",
          "type": "string"
        },
        {
          "name": "_pirlFileHash",
          "type": "string"
        },
        {
          "name": "_userId",
          "type": "uint256"
        },
        {
          "name": "_agencyId",
          "type": "uint256"
        }
      ],
      "name": "addFile",
      "outputs": [],
      "payable": false,
      "stateMutability": "nonpayable",
      "type": "function"
    },
    {
      "constant": true,
      "inputs": [
        {
          "name": "_address",
          "type": "address"
        }
      ],
      "name": "addressIsUser",
      "outputs": [
        {
          "name": "",
          "type": "bool"
        }
      ],
      "payable": false,
      "stateMutability": "view",
      "type": "function"
    },
    {
      "constant": true,
      "inputs": [
        {
          "name": "_address",
          "type": "address"
        }
      ],
      "name": "getIdByAddress",
      "outputs": [
        {
          "name": "",
          "type": "uint256"
        }
      ],
      "payable": false,
      "stateMutability": "view",
      "type": "function"
    },
    {
      "constant": true,
      "inputs": [
        {
          "name": "",
          "type": "uint256"
        }
      ],
      "name": "credentials",
      "outputs": [
        {
          "name": "name",
          "type": "bytes32"
        },
        {
          "name": "url",
          "type": "bytes32"
        },
        {
          "name": "isActive",
          "type": "bool"
        },
        {
          "name": "fee",
          "type": "uint256"
        },
        {
          "name": "agencyId",
          "type": "uint256"
        }
      ],
      "payable": false,
      "stateMutability": "view",
      "type": "function"
    },
    {
      "constant": true,
      "inputs": [
        {
          "name": "_id",
          "type": "uint256"
        }
      ],
      "name": "getFileById",
      "outputs": [
        {
          "name": "",
          "type": "bytes32"
        },
        {
          "name": "",
          "type": "bytes32"
        },
        {
          "name": "",
          "type": "bytes32"
        },
        {
          "name": "",
          "type": "bool"
        },
        {
          "name": "",
          "type": "uint256"
        },
        {
          "name": "",
          "type": "uint256"
        },
        {
          "name": "",
          "type": "uint256"
        }
      ],
      "payable": false,
      "stateMutability": "view",
      "type": "function"
    },
    {
      "constant": false,
      "inputs": [
        {
          "name": "newOwner",
          "type": "address"
        }
      ],
      "name": "transferOwnership",
      "outputs": [],
      "payable": false,
      "stateMutability": "nonpayable",
      "type": "function"
    },
    {
      "constant": true,
      "inputs": [
        {
          "name": "",
          "type": "uint256"
        }
      ],
      "name": "files",
      "outputs": [
        {
          "name": "name",
          "type": "bytes32"
        },
        {
          "name": "url",
          "type": "bytes32"
        },
        {
          "name": "pirlFileHash",
          "type": "bytes32"
        },
        {
          "name": "isActive",
          "type": "bool"
        },
        {
          "name": "userId",
          "type": "uint256"
        },
        {
          "name": "userSubmissionId",
          "type": "uint256"
        },
        {
          "name": "agencyId",
          "type": "uint256"
        }
      ],
      "payable": false,
      "stateMutability": "view",
      "type": "function"
    },
    {
      "constant": true,
      "inputs": [
        {
          "name": "_agencyId",
          "type": "uint256"
        }
      ],
      "name": "getCredentialListByAgencyId",
      "outputs": [
        {
          "name": "",
          "type": "bytes32[]"
        },
        {
          "name": "",
          "type": "uint256[]"
        }
      ],
      "payable": false,
      "stateMutability": "view",
      "type": "function"
    },
    {
      "inputs": [],
      "payable": false,
      "stateMutability": "nonpayable",
      "type": "constructor"
    },
    {
      "payable": true,
      "stateMutability": "payable",
      "type": "fallback"
    },
    {
      "anonymous": false,
      "inputs": [
        {
          "indexed": false,
          "name": "_from",
          "type": "address"
        },
        {
          "indexed": false,
          "name": "value",
          "type": "uint256"
        }
      ],
      "name": "Deposit",
      "type": "event"
    },
    {
      "anonymous": false,
      "inputs": [
        {
          "indexed": false,
          "name": "_to",
          "type": "address"
        },
        {
          "indexed": false,
          "name": "_amount",
          "type": "uint256"
        }
      ],
      "name": "Withdraw",
      "type": "event"
    },
    {
      "anonymous": false,
      "inputs": [
        {
          "indexed": false,
          "name": "_remainingBalance",
          "type": "uint256"
        }
      ],
      "name": "Balance",
      "type": "event"
    },
    {
      "anonymous": false,
      "inputs": [
        {
          "indexed": false,
          "name": "name",
          "type": "string"
        },
        {
          "indexed": false,
          "name": "url",
          "type": "string"
        },
        {
          "indexed": false,
          "name": "pirlFileHash",
          "type": "string"
        },
        {
          "indexed": false,
          "name": "isActive",
          "type": "bool"
        },
        {
          "indexed": false,
          "name": "userId",
          "type": "uint256"
        },
        {
          "indexed": false,
          "name": "userSubmissionId",
          "type": "uint256"
        },
        {
          "indexed": false,
          "name": "agencyId",
          "type": "uint256"
        }
      ],
      "name": "NewFile",
      "type": "event"
    },
    {
      "anonymous": false,
      "inputs": [
        {
          "indexed": false,
          "name": "name",
          "type": "string"
        },
        {
          "indexed": false,
          "name": "url",
          "type": "string"
        },
        {
          "indexed": false,
          "name": "pirlFileHash",
          "type": "string"
        },
        {
          "indexed": false,
          "name": "isActive",
          "type": "bool"
        },
        {
          "indexed": false,
          "name": "userId",
          "type": "uint256"
        },
        {
          "indexed": false,
          "name": "userSubmissionId",
          "type": "uint256"
        },
        {
          "indexed": false,
          "name": "agencyId",
          "type": "uint256"
        }
      ],
      "name": "UpdateFile",
      "type": "event"
    },
    {
      "anonymous": false,
      "inputs": [
        {
          "indexed": false,
          "name": "id",
          "type": "uint256"
        },
        {
          "indexed": false,
          "name": "firstName",
          "type": "string"
        },
        {
          "indexed": false,
          "name": "lastName",
          "type": "string"
        },
        {
          "indexed": false,
          "name": "email",
          "type": "string"
        },
        {
          "indexed": false,
          "name": "userAddress",
          "type": "address"
        }
      ],
      "name": "NewUser",
      "type": "event"
    },
    {
      "anonymous": false,
      "inputs": [
        {
          "indexed": false,
          "name": "id",
          "type": "uint256"
        },
        {
          "indexed": false,
          "name": "firstName",
          "type": "string"
        },
        {
          "indexed": false,
          "name": "lastName",
          "type": "string"
        },
        {
          "indexed": false,
          "name": "email",
          "type": "string"
        },
        {
          "indexed": false,
          "name": "userAddress",
          "type": "address"
        }
      ],
      "name": "UpdateUser",
      "type": "event"
    },
    {
      "anonymous": false,
      "inputs": [
        {
          "indexed": false,
          "name": "name",
          "type": "bytes32"
        },
        {
          "indexed": false,
          "name": "url",
          "type": "bytes32"
        },
        {
          "indexed": false,
          "name": "isActive",
          "type": "bytes32"
        },
        {
          "indexed": false,
          "name": "fee",
          "type": "uint256"
        }
      ],
      "name": "NewCredential",
      "type": "event"
    },
    {
      "anonymous": false,
      "inputs": [
        {
          "indexed": true,
          "name": "previousOwner",
          "type": "address"
        },
        {
          "indexed": true,
          "name": "newOwner",
          "type": "address"
        }
      ],
      "name": "OwnershipTransferred",
      "type": "event"
    },
    {
      "constant": false,
      "inputs": [
        {
          "name": "_amount",
          "type": "uint256"
        }
      ],
      "name": "withdraw",
      "outputs": [],
      "payable": false,
      "stateMutability": "nonpayable",
      "type": "function"
    },
    {
      "constant": false,
      "inputs": [
        {
          "name": "_agencyName",
          "type": "string"
        },
        {
          "name": "_website",
          "type": "string"
        },
        {
          "name": "_firstName",
          "type": "string"
        },
        {
          "name": "_lastName",
          "type": "string"
        },
        {
          "name": "_email",
          "type": "string"
        }
      ],
      "name": "registerAgency",
      "outputs": [],
      "payable": true,
      "stateMutability": "payable",
      "type": "function"
    },
    {
      "constant": false,
      "inputs": [
        {
          "name": "_agencyName",
          "type": "string"
        },
        {
          "name": "_website",
          "type": "string"
        },
        {
          "name": "_firstName",
          "type": "string"
        },
        {
          "name": "_lastName",
          "type": "string"
        },
        {
          "name": "_email",
          "type": "string"
        }
      ],
      "name": "updateAgencyInfo",
      "outputs": [],
      "payable": false,
      "stateMutability": "nonpayable",
      "type": "function"
    },
    {
      "constant": true,
      "inputs": [],
      "name": "getAgencyCount",
      "outputs": [
        {
          "name": "",
          "type": "uint256"
        }
      ],
      "payable": false,
      "stateMutability": "view",
      "type": "function"
    },
    {
      "constant": true,
      "inputs": [
        {
          "name": "_agencyName",
          "type": "string"
        }
      ],
      "name": "getAgencyInfo",
      "outputs": [
        {
          "name": "",
          "type": "bytes32"
        },
        {
          "name": "",
          "type": "bytes32"
        },
        {
          "name": "",
          "type": "bytes32"
        },
        {
          "name": "",
          "type": "bytes32"
        },
        {
          "name": "",
          "type": "bytes32"
        },
        {
          "name": "",
          "type": "bool"
        },
        {
          "name": "",
          "type": "uint256"
        }
      ],
      "payable": false,
      "stateMutability": "view",
      "type": "function"
    },
    {
      "constant": true,
      "inputs": [
        {
          "name": "_id",
          "type": "uint256"
        }
      ],
      "name": "getAgencyInfoById",
      "outputs": [
        {
          "name": "",
          "type": "bytes32"
        },
        {
          "name": "",
          "type": "bytes32"
        },
        {
          "name": "",
          "type": "bytes32"
        },
        {
          "name": "",
          "type": "bytes32"
        },
        {
          "name": "",
          "type": "bytes32"
        },
        {
          "name": "",
          "type": "bool"
        },
        {
          "name": "",
          "type": "uint256"
        }
      ],
      "payable": false,
      "stateMutability": "view",
      "type": "function"
    },
    {
      "constant": false,
      "inputs": [],
      "name": "setAgencyInactive",
      "outputs": [],
      "payable": false,
      "stateMutability": "nonpayable",
      "type": "function"
    },
    {
      "constant": false,
      "inputs": [],
      "name": "setAgencyActive",
      "outputs": [],
      "payable": false,
      "stateMutability": "nonpayable",
      "type": "function"
    },
    {
      "constant": true,
      "inputs": [],
      "name": "getContractBalance",
      "outputs": [
        {
          "name": "",
          "type": "uint256"
        }
      ],
      "payable": false,
      "stateMutability": "view",
      "type": "function"
    },
    {
      "constant": true,
      "inputs": [
        {
          "name": "_address",
          "type": "address"
        }
      ],
      "name": "addressIsAgency",
      "outputs": [
        {
          "name": "",
          "type": "bool"
        }
      ],
      "payable": false,
      "stateMutability": "view",
      "type": "function"
    },
    {
      "constant": true,
      "inputs": [],
      "name": "getAgencies",
      "outputs": [
        {
          "name": "",
          "type": "bytes32[]"
        },
        {
          "name": "",
          "type": "uint256[]"
        }
      ],
      "payable": false,
      "stateMutability": "view",
      "type": "function"
    },
    {
      "constant": false,
      "inputs": [],
      "name": "destroy",
      "outputs": [],
      "payable": false,
      "stateMutability": "nonpayable",
      "type": "function"
    }
  ],
  "bytecode": "0x608060405260006007556001600e5560006012553480156200002057600080fd5b50336000806101000a81548173ffffffffffffffffffffffffffffffffffffffff021916908373ffffffffffffffffffffffffffffffffffffffff160217905550620001886040805190810160405280600b81526020017f526f6f74204167656e63790000000000000000000000000000000000000000008152506040805190810160405280600e81526020017f687474703a2f2f7069726c2e696f0000000000000000000000000000000000008152506040805190810160405280600481526020017f4d696b65000000000000000000000000000000000000000000000000000000008152506040805190810160405280600681526020017f4d757270687900000000000000000000000000000000000000000000000000008152506040805190810160405280601481526020017f6d6d7572706879333834407961686f6f2e636f6d0000000000000000000000008152506200036b640100000000026401000000009004565b620002436040805190810160405280600481526020017f726f6f74000000000000000000000000000000000000000000000000000000008152506040805190810160405280600481526020017f75736572000000000000000000000000000000000000000000000000000000008152506040805190810160405280601481526020017f6d6d7572706879333834407961686f6f2e636f6d000000000000000000000000815250620005c1640100000000026401000000009004565b620002cc6040805190810160405280600f81526020017f726f6f742063726564656e7469616c00000000000000000000000000000000008152506040805190810160405280600e81526020017f687474703a2f2f7069726c2e696f00000000000000000000000000000000000081525060646000620009a8640100000000026401000000009004565b620003656040805190810160405280600e81526020017f726f6f742066696c65206e616d650000000000000000000000000000000000008152506040805190810160405280600e81526020017f687474703a2f2f7069726c2e696f000000000000000000000000000000000000815250602060405190810160405280600081525060008062000b55640100000000026401000000009004565b620012f9565b600080620003888762000f22640100000000026401000000009004565b1115156200039557600080fd5b600f60e060405190810160405280620003bd89620012cc640100000000026401000000009004565b600019168152602001620003e088620012cc640100000000026401000000009004565b6000191681526020016200040387620012cc640100000000026401000000009004565b6000191681526020016200042686620012cc640100000000026401000000009004565b6000191681526020016200044985620012cc640100000000026401000000009004565b6000191681526020016001151581526020016001151581525090806001815401808255809150509060018203906000526020600020906006020160009091929091909150600082015181600001906000191690556020820151816001019060001916905560408201518160020190600019169055606082015181600301906000191690556080820151816004019060001916905560a08201518160050160006101000a81548160ff02191690831515021790555060c08201518160050160016101000a81548160ff0219169083151502179055505050506001600f80549050039050600160126000828254019250508190555080601060006200055b89620012cc640100000000026401000000009004565b600019166000191681526020019081526020016000208190555080601160003373ffffffffffffffffffffffffffffffffffffffff1673ffffffffffffffffffffffffffffffffffffffff16815260200190815260200160002081905550505050505050565b60008060056000620005e285620012cc640100000000026401000000009004565b60001916600019168152602001908152602001600020541415156200060657600080fd5b6000600660003373ffffffffffffffffffffffffffffffffffffffff1673ffffffffffffffffffffffffffffffffffffffff168152602001908152602001600020541415156200065557600080fd5b60009050600160046080604051908101604052806200068388620012cc640100000000026401000000009004565b600019168152602001620006a687620012cc640100000000026401000000009004565b600019168152602001620006c986620012cc640100000000026401000000009004565b600019168152602001600115158152509080600181540180825580915050906001820390600052602060002090600402016000909192909190915060008201518160000190600019169055602082015181600101906000191690556040820151816002019060001916905560608201518160030160006101000a81548160ff021916908315150217905550505003905080600560006200077885620012cc640100000000026401000000009004565b600019166000191681526020019081526020016000208190555080600660003373ffffffffffffffffffffffffffffffffffffffff1673ffffffffffffffffffffffffffffffffffffffff1681526020019081526020016000208190555060016007600082825401925050819055507f023a8bc2c2a7585292c8d76a6c38d4001ebdb3df730965277bc4d0e94f2647518185858533604051808681526020018060200180602001806020018573ffffffffffffffffffffffffffffffffffffffff1673ffffffffffffffffffffffffffffffffffffffff168152602001848103845288818151815260200191508051906020019080838360005b838110156200088f57808201518184015260208101905062000872565b50505050905090810190601f168015620008bd5780820380516001836020036101000a031916815260200191505b50848103835287818151815260200191508051906020019080838360005b83811015620008f8578082015181840152602081019050620008db565b50505050905090810190601f168015620009265780820380516001836020036101000a031916815260200191505b50848103825286818151815260200191508051906020019080838360005b838110156200096157808201518184015260208101905062000944565b50505050905090810190601f1680156200098f5780820380516001836020036101000a031916815260200191505b509850505050505050505060405180910390a150505050565b60008060026000620009c988620012cc640100000000026401000000009004565b6000191660001916815260200190815260200160002054141515620009ed57600080fd5b6000905060018060a06040519081016040528062000a1a89620012cc640100000000026401000000009004565b60001916815260200162000a3d88620012cc640100000000026401000000009004565b6000191681526020016001151581526020018681526020018581525090806001815401808255809150509060018203906000526020600020906005020160009091929091909150600082015181600001906000191690556020820151816001019060001916905560408201518160020160006101000a81548160ff02191690831515021790555060608201518160030155608082015181600401555050039050806002600062000afc88620012cc640100000000026401000000009004565b600019166000191681526020019081526020016000208190555060016003600084815260200190815260200160002060008282540192505081905560036000848152602001908152602001600020819055505050505050565b60006001600860e06040519081016040528062000b818a620012cc640100000000026401000000009004565b60001916815260200162000ba489620012cc640100000000026401000000009004565b60001916815260200162000bc788620012cc640100000000026401000000009004565b60001916815260200160011515815260200186815260200160008152602001858152509080600181540180825580915050906001820390600052602060002090600702016000909192909190915060008201518160000190600019169055602082015181600101906000191690556040820151816002019060001916905560608201518160030160006101000a81548160ff0219169083151502179055506080820151816004015560a0820151816005015560c08201518160060155505050506001600880549050039050600162000cae8562000f22640100000000026401000000009004565b111562000cef57806009600062000cd487620012cc640100000000026401000000009004565b60001916600019168152602001908152602001600020819055505b600083111562000d32576001600b6000858152602001908152602001600020600082825401925050819055600b6000858152602001908152602001600020819055505b600082111562000d75576001600c6000848152602001908152602001600020600082825401925050819055600c6000848152602001908152602001600020819055505b7f2bc98c33019cba3c8f93d1f3410e489f060334733e12b84d21b3b5d9f994886d868686600187600088604051808060200180602001806020018815151515815260200187815260200186815260200185815260200184810384528b818151815260200191508051906020019080838360005b8381101562000e0557808201518184015260208101905062000de8565b50505050905090810190601f16801562000e335780820380516001836020036101000a031916815260200191505b5084810383528a818151815260200191508051906020019080838360005b8381101562000e6e57808201518184015260208101905062000e51565b50505050905090810190601f16801562000e9c5780820380516001836020036101000a031916815260200191505b50848103825289818151815260200191508051906020019080838360005b8381101562000ed757808201518184015260208101905062000eba565b50505050905090810190601f16801562000f055780820380516001836020036101000a031916815260200191505b509a505050505050505050505060405180910390a1505050505050565b6000806060600091508390505b8051821015620012c55760007f0100000000000000000000000000000000000000000000000000000000000000026007828481518110151562000f6e57fe5b9060200101517f010000000000000000000000000000000000000000000000000000000000000090047f0100000000000000000000000000000000000000000000000000000000000000027effffffffffffffffffffffffffffffffffffffffffffffffffffffffffffff19169060020a90047effffffffffffffffffffffffffffffffffffffffffffffffffffffffffffff191614156200101657600182019150620012b7565b60067f010000000000000000000000000000000000000000000000000000000000000002600582848151811015156200104b57fe5b9060200101517f010000000000000000000000000000000000000000000000000000000000000090047f0100000000000000000000000000000000000000000000000000000000000000027effffffffffffffffffffffffffffffffffffffffffffffffffffffffffffff19169060020a90047effffffffffffffffffffffffffffffffffffffffffffffffffffffffffffff19161415620010f357600282019150620012b6565b600e7f010000000000000000000000000000000000000000000000000000000000000002600482848151811015156200112857fe5b9060200101517f010000000000000000000000000000000000000000000000000000000000000090047f0100000000000000000000000000000000000000000000000000000000000000027effffffffffffffffffffffffffffffffffffffffffffffffffffffffffffff19169060020a90047effffffffffffffffffffffffffffffffffffffffffffffffffffffffffffff19161415620011d057600382019150620012b5565b601e7f010000000000000000000000000000000000000000000000000000000000000002600382848151811015156200120557fe5b9060200101517f010000000000000000000000000000000000000000000000000000000000000090047f0100000000000000000000000000000000000000000000000000000000000000027effffffffffffffffffffffffffffffffffffffffffffffffffffffffffffff19169060020a90047effffffffffffffffffffffffffffffffffffffffffffffffffffffffffffff19161415620012ad57600482019150620012b4565b6001820191505b5b5b5b828060010193505062000f2f565b5050919050565b60006060829050600081511415620012eb5760006001029150620012f3565b602083015191505b50919050565b614a1680620013096000396000f3006080604052600436106101cd576000357c0100000000000000000000000000000000000000000000000000000000900463ffffffff16806307c0d98c1461029257806318046ae11461034657806326c69e7e146103fb57806327ed00ee146104c55780632859b54a146104f05780632c26eabc146105075780632e1a7d4d146105625780632f98a9231461058f578063365b98b21461065257806339b1c511146106c45780633c8d830d146107975780633ef39e2a1461083257806360903be61461089157806369c212f6146109865780636ed6da9e14610a155780636f9fb98a14610a8e57806373c443ef14610ab95780637843504214610ad0578063794953bf14610b9a578063807d804514610c3157806383197ef014610cae5780638624c3ac14610cc55780638da5cb5b14610cf05780638fd0c94514610d4757806395c5fed414610e70578063a25fa5ba14610f65578063b366c5d21461102f578063b8522043146111b0578063d999d265146112f4578063df97cda3146113fd578063dff3b49714611458578063e0574e3f146114af578063e4e6025e14611520578063eeef26dd146115a7578063f2fde38b1461171b578063f4c714b41461175e578063f9406534146117e5575b6000341115610290577fe1fffcc4923d04b559f4d29a8bfc6cda04eb5b0d3c460751c2402c5c5cc9109c3334604051808373ffffffffffffffffffffffffffffffffffffffff1673ffffffffffffffffffffffffffffffffffffffff1681526020018281526020019250505060405180910390a17fe8d947d7ebdd7b8b8fa2ad2022c7591418ac32d8c29c5f8a8fc9de52ffa540923073ffffffffffffffffffffffffffffffffffffffff16316040518082815260200191505060405180910390a15b005b34801561029e57600080fd5b506102a76118af565b604051808060200180602001838103835285818151815260200191508051906020019060200280838360005b838110156102ee5780820151818401526020810190506102d3565b50505050905001838103825284818151815260200191508051906020019060200280838360005b83811015610330578082015181840152602081019050610315565b5050505090500194505050505060405180910390f35b34801561035257600080fd5b506103ad600480360381019080803590602001908201803590602001908080601f01602080910402602001604051908101604052809392919081815260200183838082843782019150505050505091929192905050506119fb565b60405180866000191660001916815260200185600019166000191681526020018460001916600019168152602001831515151581526020018281526020019550505050505060405180910390f35b34801561040757600080fd5b5061042660048036038101908080359060200190929190505050611b11565b604051808060200180602001838103835285818151815260200191508051906020019060200280838360005b8381101561046d578082015181840152602081019050610452565b50505050905001838103825284818151815260200191508051906020019060200280838360005b838110156104af578082015181840152602081019050610494565b5050505090500194505050505060405180910390f35b3480156104d157600080fd5b506104da611c6d565b6040518082815260200191505060405180910390f35b3480156104fc57600080fd5b50610505611d01565b005b34801561051357600080fd5b50610548600480360381019080803573ffffffffffffffffffffffffffffffffffffffff169060200190929190505050611e21565b604051808215151515815260200191505060405180910390f35b34801561056e57600080fd5b5061058d60048036038101908080359060200190929190505050611e72565b005b34801561059b57600080fd5b50610650600480360381019080803590602001908201803590602001908080601f0160208091040260200160405190810160405280939291908181526020018383808284378201915050505050509192919290803590602001908201803590602001908080601f0160208091040260200160405190810160405280939291908181526020018383808284378201915050505050509192919290803590602001909291908035906020019092919050505061202b565b005b34801561065e57600080fd5b5061067d60048036038101908080359060200190929190505050612193565b604051808560001916600019168152602001846000191660001916815260200183600019166000191681526020018215151515815260200194505050505060405180910390f35b3480156106d057600080fd5b5061072b600480360381019080803590602001908201803590602001908080601f01602080910402602001604051908101604052809392919081815260200183838082843782019150505050505091929192905050506121df565b60405180886000191660001916815260200187600019166000191681526020018660001916600019168152602001856000191660001916815260200184600019166000191681526020018315151515815260200182815260200197505050505050505060405180910390f35b3480156107a357600080fd5b506107c26004803603810190808035906020019092919050505061224b565b6040518088600019166000191681526020018760001916600019168152602001866000191660001916815260200185600019166000191681526020018460001916600019168152602001831515151581526020018215151515815260200197505050505050505060405180910390f35b34801561083e57600080fd5b5061085d600480360381019080803590602001909291905050506122b6565b6040518084600019166000191681526020018360001916600019168152602001828152602001935050505060405180910390f35b34801561089d57600080fd5b50610984600480360381019080803590602001908201803590602001908080601f0160208091040260200160405190810160405280939291908181526020018383808284378201915050505050509192919290803590602001908201803590602001908080601f0160208091040260200160405190810160405280939291908181526020018383808284378201915050505050509192919290803590602001908201803590602001908080601f016020809104026020016040519081016040528093929190818152602001838380828437820191505050505050919291929050505061233e565b005b34801561099257600080fd5b506109c7600480360381019080803573ffffffffffffffffffffffffffffffffffffffff1690602001909291905050506126cc565b60405180866000191660001916815260200185600019166000191681526020018460001916600019168152602001831515151581526020018281526020019550505050505060405180910390f35b348015610a2157600080fd5b50610a40600480360381019080803590602001909291905050506127fb565b60405180866000191660001916815260200185600019166000191681526020018460001916600019168152602001831515151581526020018281526020019550505050505060405180910390f35b348015610a9a57600080fd5b50610aa36128b8565b6040518082815260200191505060405180910390f35b348015610ac557600080fd5b50610ace612932565b005b348015610adc57600080fd5b50610afb60048036038101908080359060200190929190505050612a52565b604051808060200180602001838103835285818151815260200191508051906020019060200280838360005b83811015610b42578082015181840152602081019050610b27565b50505050905001838103825284818151815260200191508051906020019060200280838360005b83811015610b84578082015181840152602081019050610b69565b5050505090500194505050505060405180910390f35b348015610ba657600080fd5b50610bc560048036038101908080359060200190929190505050612bae565b60405180886000191660001916815260200187600019166000191681526020018660001916600019168152602001856000191660001916815260200184600019166000191681526020018315151515815260200182815260200197505050505050505060405180910390f35b348015610c3d57600080fd5b50610c98600480360381019080803590602001908201803590602001908080601f0160208091040260200160405190810160405280939291908181526020018383808284378201915050505050509192919290505050612cd4565b6040518082815260200191505060405180910390f35b348015610cba57600080fd5b50610cc3612d49565b005b348015610cd157600080fd5b50610cda612dc6565b6040518082815260200191505060405180910390f35b348015610cfc57600080fd5b50610d05612dd0565b604051808273ffffffffffffffffffffffffffffffffffffffff1673ffffffffffffffffffffffffffffffffffffffff16815260200191505060405180910390f35b348015610d5357600080fd5b50610e6e60048036038101908080359060200190929190803590602001908201803590602001908080601f0160208091040260200160405190810160405280939291908181526020018383808284378201915050505050509192919290803590602001908201803590602001908080601f0160208091040260200160405190810160405280939291908181526020018383808284378201915050505050509192919290803590602001908201803590602001908080601f0160208091040260200160405190810160405280939291908181526020018383808284378201915050505050509192919290803515159060200190929190803590602001909291908035906020019092919080359060200190929190505050612df5565b005b348015610e7c57600080fd5b50610f63600480360381019080803590602001908201803590602001908080601f0160208091040260200160405190810160405280939291908181526020018383808284378201915050505050509192919290803590602001908201803590602001908080601f0160208091040260200160405190810160405280939291908181526020018383808284378201915050505050509192919290803590602001908201803590602001908080601f016020809104026020016040519081016040528093929190818152602001838380828437820191505050505050919291929050505061320c565b005b348015610f7157600080fd5b50610f9060048036038101908080359060200190929190505050613593565b604051808060200180602001838103835285818151815260200191508051906020019060200280838360005b83811015610fd7578082015181840152602081019050610fbc565b50505050905001838103825284818151815260200191508051906020019060200280838360005b83811015611019578082015181840152602081019050610ffe565b5050505090500194505050505060405180910390f35b34801561103b57600080fd5b506111ae600480360381019080803590602001908201803590602001908080601f0160208091040260200160405190810160405280939291908181526020018383808284378201915050505050509192919290803590602001908201803590602001908080601f0160208091040260200160405190810160405280939291908181526020018383808284378201915050505050509192919290803590602001908201803590602001908080601f0160208091040260200160405190810160405280939291908181526020018383808284378201915050505050509192919290803590602001908201803590602001908080601f0160208091040260200160405190810160405280939291908181526020018383808284378201915050505050509192919290803590602001908201803590602001908080601f01602080910402602001604051908101604052809392919081815260200183838082843782019150505050505091929192905050506136ef565b005b3480156111bc57600080fd5b506111c5613920565b6040518080602001806020018060200180602001858103855289818151815260200191508051906020019060200280838360005b838110156112145780820151818401526020810190506111f9565b50505050905001858103845288818151815260200191508051906020019060200280838360005b8381101561125657808201518184015260208101905061123b565b50505050905001858103835287818151815260200191508051906020019060200280838360005b8381101561129857808201518184015260208101905061127d565b50505050905001858103825286818151815260200191508051906020019060200280838360005b838110156112da5780820151818401526020810190506112bf565b505050509050019850505050505050505060405180910390f35b34801561130057600080fd5b506113fb600480360381019080803590602001908201803590602001908080601f0160208091040260200160405190810160405280939291908181526020018383808284378201915050505050509192919290803590602001908201803590602001908080601f0160208091040260200160405190810160405280939291908181526020018383808284378201915050505050509192919290803590602001908201803590602001908080601f01602080910402602001604051908101604052809392919081815260200183838082843782019150505050505091929192908035906020019092919080359060200190929190505050613b67565b005b34801561140957600080fd5b5061143e600480360381019080803573ffffffffffffffffffffffffffffffffffffffff169060200190929190505050613ed3565b604051808215151515815260200191505060405180910390f35b34801561146457600080fd5b50611499600480360381019080803573ffffffffffffffffffffffffffffffffffffffff169060200190929190505050613f24565b6040518082815260200191505060405180910390f35b3480156114bb57600080fd5b506114da60048036038101908080359060200190929190505050613fba565b6040518086600019166000191681526020018560001916600019168152602001841515151581526020018381526020018281526020019550505050505060405180910390f35b34801561152c57600080fd5b5061154b6004803603810190808035906020019092919050505061400c565b604051808860001916600019168152602001876000191660001916815260200186600019166000191681526020018515151515815260200184815260200183815260200182815260200197505050505050505060405180910390f35b611719600480360381019080803590602001908201803590602001908080601f0160208091040260200160405190810160405280939291908181526020018383808284378201915050505050509192919290803590602001908201803590602001908080601f0160208091040260200160405190810160405280939291908181526020018383808284378201915050505050509192919290803590602001908201803590602001908080601f0160208091040260200160405190810160405280939291908181526020018383808284378201915050505050509192919290803590602001908201803590602001908080601f0160208091040260200160405190810160405280939291908181526020018383808284378201915050505050509192919290803590602001908201803590602001908080601f0160208091040260200160405190810160405280939291908181526020018383808284378201915050505050509192919290505050614137565b005b34801561172757600080fd5b5061175c600480360381019080803573ffffffffffffffffffffffffffffffffffffffff169060200190929190505050614315565b005b34801561176a57600080fd5b506117896004803603810190808035906020019092919050505061446a565b604051808860001916600019168152602001876000191660001916815260200186600019166000191681526020018515151515815260200184815260200183815260200182815260200197505050505050505060405180910390f35b3480156117f157600080fd5b50611810600480360381019080803590602001909291905050506144c8565b604051808060200180602001838103835285818151815260200191508051906020019060200280838360005b8381101561185757808201518184015260208101905061183c565b50505050905001838103825284818151815260200191508051906020019060200280838360005b8381101561189957808201518184015260208101905061187e565b5050505090500194505050505060405180910390f35b606080606080600080600f80549050101515156118cb57600080fd5b6012546040519080825280602002602001820160405280156118fc5781602001602082028038833980820191505090505b5092506012546040519080825280602002602001820160405280156119305781602001602082028038833980820191505090505b509150600090505b6012548110156119ee57600f8181548110151561195157fe5b906000526020600020906006020160000154838281518110151561197157fe5b90602001906020020190600019169081600019168152505060106000600f8381548110151561199c57fe5b906000526020600020906006020160000154600019166000191681526020019081526020016000205482828151811015156119d357fe5b90602001906020020181815250508080600101915050611938565b8282945094505050509091565b60008060008060008060056000611a1189614623565b600019166000191681526020019081526020016000205490506000600482815481101515611a3b57fe5b906000526020600020905050602060ff16111515611a5857600080fd5b60048054905081101515611a6b57600080fd5b600481815481101515611a7a57fe5b906000526020600020906004020160000154600482815481101515611a9b57fe5b906000526020600020906004020160010154600483815481101515611abc57fe5b906000526020600020906004020160020154600484815481101515611add57fe5b906000526020600020906004020160030160009054906101000a900460ff1684955095509550955095505091939590929450565b606080606080600080600b600088815260200190815260200160002054604051908082528060200260200182016040528015611b5c5781602001602082028038833980820191505090505b509350600b600088815260200190815260200160002054604051908082528060200260200182016040528015611ba15781602001602082028038833980820191505090505b50925060009150600090505b60016008805490500381111515611c5e5786600882815481101515611bce57fe5b9060005260206000209060070201600401541415611c5157600881815481101515611bf557fe5b9060005260206000209060070201600001548483815181101515611c1557fe5b906020019060200201906000191690816000191681525050808383815181101515611c3c57fe5b90602001906020020181815250506001820191505b8080600101915050611bad565b83839550955050505050915091565b600080600660003373ffffffffffffffffffffffffffffffffffffffff1673ffffffffffffffffffffffffffffffffffffffff16815260200190815260200160002054111515611cbc57600080fd5b600660003373ffffffffffffffffffffffffffffffffffffffff1673ffffffffffffffffffffffffffffffffffffffff16815260200190815260200160002054905090565b600080601160003373ffffffffffffffffffffffffffffffffffffffff1673ffffffffffffffffffffffffffffffffffffffff1681526020019081526020016000205490506001600f82815481101515611d5757fe5b906000526020600020905050602060ff16111515611d7457600080fd5b601160003373ffffffffffffffffffffffffffffffffffffffff1673ffffffffffffffffffffffffffffffffffffffff1681526020019081526020016000205491506001600f83815481101515611dc757fe5b906000526020600020905050602060ff16111515611de457600080fd5b6000600f83815481101515611df557fe5b906000526020600020906006020160050160006101000a81548160ff0219169083151502179055505050565b600080601160008473ffffffffffffffffffffffffffffffffffffffff1673ffffffffffffffffffffffffffffffffffffffff16815260200190815260200160002054905060008111915050919050565b6000809054906101000a900473ffffffffffffffffffffffffffffffffffffffff1673ffffffffffffffffffffffffffffffffffffffff163373ffffffffffffffffffffffffffffffffffffffff16141515611ecd57600080fd5b60003073ffffffffffffffffffffffffffffffffffffffff1631111515611ef357600080fd5b600081111515611f0257600080fd5b803073ffffffffffffffffffffffffffffffffffffffff163110151515611f2857600080fd5b3373ffffffffffffffffffffffffffffffffffffffff166108fc829081150290604051600060405180830381858888f19350505050158015611f6e573d6000803e3d6000fd5b507f884edad9ce6fa2440d8a54cc123490eb96d2768479d49ff9c7366125a94243643382604051808373ffffffffffffffffffffffffffffffffffffffff1673ffffffffffffffffffffffffffffffffffffffff1681526020018281526020019250505060405180910390a17fe8d947d7ebdd7b8b8fa2ad2022c7591418ac32d8c29c5f8a8fc9de52ffa540923073ffffffffffffffffffffffffffffffffffffffff16316040518082815260200191505060405180910390a150565b6000806002600061203b88614623565b600019166000191681526020019081526020016000205414151561205e57600080fd5b6000905060018060a06040519081016040528061207a89614623565b60001916815260200161208c88614623565b6000191681526020016001151581526020018681526020018581525090806001815401808255809150509060018203906000526020600020906005020160009091929091909150600082015181600001906000191690556020820151816001019060001916905560408201518160020160006101000a81548160ff02191690831515021790555060608201518160030155608082015181600401555050039050806002600061213a88614623565b600019166000191681526020019081526020016000208190555060016003600084815260200190815260200160002060008282540192505081905560036000848152602001908152602001600020819055505050505050565b6004818154811015156121a257fe5b90600052602060002090600402016000915090508060000154908060010154908060020154908060030160009054906101000a900460ff16905084565b60008060008060008060008060006121f68a61464e565b11151561220257600080fd5b6010600061220f8b614623565b6000191660001916815260200190815260200160002054905061223181612bae565b975097509750975097509750975050919395979092949650565b600f8181548110151561225a57fe5b90600052602060002090600602016000915090508060000154908060010154908060020154908060030154908060040154908060050160009054906101000a900460ff16908060050160019054906101000a900460ff16905087565b6000806000600180549050841015156122ce57600080fd5b6001848154811015156122dd57fe5b9060005260206000209060050201600001546001858154811015156122fe57fe5b90600052602060002090600502016001015460018681548110151561231f57fe5b9060005260206000209060050201600301549250925092509193909250565b600080600660003373ffffffffffffffffffffffffffffffffffffffff1673ffffffffffffffffffffffffffffffffffffffff168152602001908152602001600020549050600160048281548110151561239457fe5b906000526020600020905050602060ff161115156123b157600080fd5b6000600660003373ffffffffffffffffffffffffffffffffffffffff1673ffffffffffffffffffffffffffffffffffffffff168152602001908152602001600020541115156123ff57600080fd5b600461240a8461464e565b11151561241657600080fd5b600660003373ffffffffffffffffffffffffffffffffffffffff1673ffffffffffffffffffffffffffffffffffffffff16815260200190815260200160002054915061246185614623565b60048381548110151561247057fe5b9060005260206000209060040201600001816000191690555061249284614623565b6004838154811015156124a157fe5b906000526020600020906004020160010181600019169055506124c383614623565b6004838154811015156124d257fe5b9060005260206000209060040201600201816000191690555081600560006124f986614623565b60001916600019168152602001908152602001600020819055507fd3923f0b3b1cec0036b68d0c3f17abc063fe21182d951342a1300cd3f98564dd8286868633604051808681526020018060200180602001806020018573ffffffffffffffffffffffffffffffffffffffff1673ffffffffffffffffffffffffffffffffffffffff168152602001848103845288818151815260200191508051906020019080838360005b838110156125b957808201518184015260208101905061259e565b50505050905090810190601f1680156125e65780820380516001836020036101000a031916815260200191505b50848103835287818151815260200191508051906020019080838360005b8381101561261f578082015181840152602081019050612604565b50505050905090810190601f16801561264c5780820380516001836020036101000a031916815260200191505b50848103825286818151815260200191508051906020019080838360005b8381101561268557808201518184015260208101905061266a565b50505050905090810190601f1680156126b25780820380516001836020036101000a031916815260200191505b509850505050505050505060405180910390a15050505050565b600080600080600080600660008873ffffffffffffffffffffffffffffffffffffffff1673ffffffffffffffffffffffffffffffffffffffff168152602001908152602001600020549050600060048281548110151561272857fe5b906000526020600020905050602060ff1611151561274557600080fd5b6007548110151561275557600080fd5b60048181548110151561276457fe5b90600052602060002090600402016000015460048281548110151561278557fe5b9060005260206000209060040201600101546004838154811015156127a657fe5b9060005260206000209060040201600201546004848154811015156127c757fe5b906000526020600020906004020160030160009054906101000a900460ff1684955095509550955095505091939590929450565b60008060008060006007548610151561281357600080fd5b60048681548110151561282257fe5b90600052602060002090600402016000015460048781548110151561284357fe5b90600052602060002090600402016001015460048881548110151561286457fe5b90600052602060002090600402016002015460048981548110151561288557fe5b906000526020600020906004020160030160009054906101000a900460ff16899450945094509450945091939590929450565b60008060009054906101000a900473ffffffffffffffffffffffffffffffffffffffff1673ffffffffffffffffffffffffffffffffffffffff163373ffffffffffffffffffffffffffffffffffffffff1614151561291557600080fd5b3073ffffffffffffffffffffffffffffffffffffffff1631905090565b600080601160003373ffffffffffffffffffffffffffffffffffffffff1673ffffffffffffffffffffffffffffffffffffffff1681526020019081526020016000205490506001600f8281548110151561298857fe5b906000526020600020905050602060ff161115156129a557600080fd5b601160003373ffffffffffffffffffffffffffffffffffffffff1673ffffffffffffffffffffffffffffffffffffffff1681526020019081526020016000205491506001600f838154811015156129f857fe5b906000526020600020905050602060ff16111515612a1557600080fd5b6001600f83815481101515612a2657fe5b906000526020600020906006020160050160006101000a81548160ff0219169083151502179055505050565b606080606080600080600c600088815260200190815260200160002054604051908082528060200260200182016040528015612a9d5781602001602082028038833980820191505090505b509350600c600088815260200190815260200160002054604051908082528060200260200182016040528015612ae25781602001602082028038833980820191505090505b50925060009150600090505b60016008805490500381111515612b9f5786600882815481101515612b0f57fe5b9060005260206000209060070201600601541415612b9257600881815481101515612b3657fe5b9060005260206000209060070201600001548483815181101515612b5657fe5b906020019060200201906000191690816000191681525050808383815181101515612b7d57fe5b90602001906020020181815250506001820191505b8080600101915050612aee565b83839550955050505050915091565b60008060008060008060006001600f89815481101515612bca57fe5b906000526020600020905050602060ff16111515612be757600080fd5b600f88815481101515612bf657fe5b906000526020600020906006020160000154600f89815481101515612c1757fe5b906000526020600020906006020160010154600f8a815481101515612c3857fe5b906000526020600020906006020160020154600f8b815481101515612c5957fe5b906000526020600020906006020160030154600f8c815481101515612c7a57fe5b906000526020600020906006020160040154600f8d815481101515612c9b57fe5b906000526020600020906006020160050160009054906101000a900460ff168d9650965096509650965096509650919395979092949650565b600080612ce08361464e565b111515612cec57600080fd5b600060056000612cfb85614623565b6000191660001916815260200190815260200160002054111515612d1e57600080fd5b60056000612d2b84614623565b60001916600019168152602001908152602001600020549050919050565b6000809054906101000a900473ffffffffffffffffffffffffffffffffffffffff1673ffffffffffffffffffffffffffffffffffffffff163373ffffffffffffffffffffffffffffffffffffffff16141515612da457600080fd5b612dc43073ffffffffffffffffffffffffffffffffffffffff1631611e72565b565b6000601254905090565b6000809054906101000a900473ffffffffffffffffffffffffffffffffffffffff1681565b600088118015612e09575060088054905088105b1515612e1457600080fd5b6000831180612e235750600081115b1515612e2e57600080fd5b82600889815481101515612e3e57fe5b9060005260206000209060070201600401541480612e7b575080600889815481101515612e6757fe5b906000526020600020906007020160060154145b1515612e8657600080fd5b6000600889815481101515612e9757fe5b906000526020600020906007020160050154148015612eb65750600082115b15612ef4576001600d6000848152602001908152602001600020600082825401925050819055600d6000848152602001908152602001600020819055505b612efd87614623565b600889815481101515612f0c57fe5b90600052602060002090600702016000018160001916905550612f2e86614623565b600889815481101515612f3d57fe5b90600052602060002090600702016001018160001916905550612f5f85614623565b600889815481101515612f6e57fe5b9060005260206000209060070201600201816000191690555083600889815481101515612f9757fe5b906000526020600020906007020160030160006101000a81548160ff02191690831515021790555082600889815481101515612fcf57fe5b90600052602060002090600702016004018190555081600889815481101515612ff457fe5b9060005260206000209060070201600501819055508060088981548110151561301957fe5b90600052602060002090600702016006018190555060016130398661464e565b111561306857876009600061304d88614623565b60001916600019168152602001908152602001600020819055505b7f93ef8e50f06350135b0059a5cf10ee345b3b3233f3b46872bdb460994192d22587878787878787604051808060200180602001806020018815151515815260200187815260200186815260200185815260200184810384528b818151815260200191508051906020019080838360005b838110156130f45780820151818401526020810190506130d9565b50505050905090810190601f1680156131215780820380516001836020036101000a031916815260200191505b5084810383528a818151815260200191508051906020019080838360005b8381101561315a57808201518184015260208101905061313f565b50505050905090810190601f1680156131875780820380516001836020036101000a031916815260200191505b50848103825289818151815260200191508051906020019080838360005b838110156131c05780820151818401526020810190506131a5565b50505050905090810190601f1680156131ed5780820380516001836020036101000a031916815260200191505b509a505050505050505050505060405180910390a15050505050505050565b6000806005600061321c85614623565b600019166000191681526020019081526020016000205414151561323f57600080fd5b6000600660003373ffffffffffffffffffffffffffffffffffffffff1673ffffffffffffffffffffffffffffffffffffffff1681526020019081526020016000205414151561328d57600080fd5b60009050600160046080604051908101604052806132aa88614623565b6000191681526020016132bc87614623565b6000191681526020016132ce86614623565b600019168152602001600115158152509080600181540180825580915050906001820390600052602060002090600402016000909192909190915060008201518160000190600019169055602082015181600101906000191690556040820151816002019060001916905560608201518160030160006101000a81548160ff0219169083151502179055505050039050806005600061336c85614623565b600019166000191681526020019081526020016000208190555080600660003373ffffffffffffffffffffffffffffffffffffffff1673ffffffffffffffffffffffffffffffffffffffff1681526020019081526020016000208190555060016007600082825401925050819055507f023a8bc2c2a7585292c8d76a6c38d4001ebdb3df730965277bc4d0e94f2647518185858533604051808681526020018060200180602001806020018573ffffffffffffffffffffffffffffffffffffffff1673ffffffffffffffffffffffffffffffffffffffff168152602001848103845288818151815260200191508051906020019080838360005b83811015613481578082015181840152602081019050613466565b50505050905090810190601f1680156134ae5780820380516001836020036101000a031916815260200191505b50848103835287818151815260200191508051906020019080838360005b838110156134e75780820151818401526020810190506134cc565b50505050905090810190601f1680156135145780820380516001836020036101000a031916815260200191505b50848103825286818151815260200191508051906020019080838360005b8381101561354d578082015181840152602081019050613532565b50505050905090810190601f16801561357a5780820380516001836020036101000a031916815260200191505b509850505050505050505060405180910390a150505050565b606080606080600080600d6000888152602001908152602001600020546040519080825280602002602001820160405280156135de5781602001602082028038833980820191505090505b509350600d6000888152602001908152602001600020546040519080825280602002602001820160405280156136235781602001602082028038833980820191505090505b50925060009150600090505b600160088054905003811115156136e0578660088281548110151561365057fe5b90600052602060002090600702016004015414156136d35760088181548110151561367757fe5b906000526020600020906007020160000154848381518110151561369757fe5b9060200190602002019060001916908160001916815250508083838151811015156136be57fe5b90602001906020020181815250506001820191505b808060010191505061362f565b83839550955050505050915091565b600080601160003373ffffffffffffffffffffffffffffffffffffffff1673ffffffffffffffffffffffffffffffffffffffff1681526020019081526020016000205490506001600f8281548110151561374557fe5b906000526020600020905050602060ff1611151561376257600080fd5b600261376d8861464e565b11151561377957600080fd5b601160003373ffffffffffffffffffffffffffffffffffffffff1673ffffffffffffffffffffffffffffffffffffffff1681526020019081526020016000205491506001600f838154811015156137cc57fe5b906000526020600020905050602060ff161115156137e957600080fd5b6137f287614623565b600f8381548110151561380157fe5b9060005260206000209060060201600001816000191690555061382386614623565b600f8381548110151561383257fe5b9060005260206000209060060201600101816000191690555061385485614623565b600f8381548110151561386357fe5b9060005260206000209060060201600201816000191690555061388584614623565b600f8381548110151561389457fe5b906000526020600020906006020160030181600019169055506138b683614623565b600f838154811015156138c557fe5b906000526020600020906006020160040181600019169055506001600f838154811015156138ef57fe5b906000526020600020906006020160050160006101000a81548160ff02191690831515021790555050505050505050565b6060806060806060806060806000806007541015151561393f57600080fd5b6007546040519080825280602002602001820160405280156139705781602001602082028038833980820191505090505b5094506007546040519080825280602002602001820160405280156139a45781602001602082028038833980820191505090505b5093506007546040519080825280602002602001820160405280156139d85781602001602082028038833980820191505090505b509250600754604051908082528060200260200182016040528015613a0c5781602001602082028038833980820191505090505b509150600090505b600754811015613b5057600481815481101515613a2d57fe5b9060005260206000209060040201600001548582815181101515613a4d57fe5b906020019060200201906000191690816000191681525050600481815481101515613a7457fe5b9060005260206000209060040201600101548482815181101515613a9457fe5b906020019060200201906000191690816000191681525050600481815481101515613abb57fe5b9060005260206000209060040201600201548382815181101515613adb57fe5b906020019060200201906000191690816000191681525050600481815481101515613b0257fe5b906000526020600020906004020160030160009054906101000a900460ff168282815181101515613b2f57fe5b90602001906020020190151590811515815250508080600101915050613a14565b848484849850985098509850505050505090919293565b60006001600860e060405190810160405280613b828a614623565b600019168152602001613b9489614623565b600019168152602001613ba688614623565b60001916815260200160011515815260200186815260200160008152602001858152509080600181540180825580915050906001820390600052602060002090600702016000909192909190915060008201518160000190600019169055602082015181600101906000191690556040820151816002019060001916905560608201518160030160006101000a81548160ff0219169083151502179055506080820151816004015560a0820151816005015560c082015181600601555050505060016008805490500390506001613c7c8561464e565b1115613cab578060096000613c9087614623565b60001916600019168152602001908152602001600020819055505b6000831115613ced576001600b6000858152602001908152602001600020600082825401925050819055600b6000858152602001908152602001600020819055505b6000821115613d2f576001600c6000848152602001908152602001600020600082825401925050819055600c6000848152602001908152602001600020819055505b7f2bc98c33019cba3c8f93d1f3410e489f060334733e12b84d21b3b5d9f994886d868686600187600088604051808060200180602001806020018815151515815260200187815260200186815260200185815260200184810384528b818151815260200191508051906020019080838360005b83811015613dbd578082015181840152602081019050613da2565b50505050905090810190601f168015613dea5780820380516001836020036101000a031916815260200191505b5084810383528a818151815260200191508051906020019080838360005b83811015613e23578082015181840152602081019050613e08565b50505050905090810190601f168015613e505780820380516001836020036101000a031916815260200191505b50848103825289818151815260200191508051906020019080838360005b83811015613e89578082015181840152602081019050613e6e565b50505050905090810190601f168015613eb65780820380516001836020036101000a031916815260200191505b509a505050505050505050505060405180910390a1505050505050565b600080600660008473ffffffffffffffffffffffffffffffffffffffff1673ffffffffffffffffffffffffffffffffffffffff16815260200190815260200160002054905060008111915050919050565b600080600660008473ffffffffffffffffffffffffffffffffffffffff1673ffffffffffffffffffffffffffffffffffffffff16815260200190815260200160002054111515613f7357600080fd5b600660008373ffffffffffffffffffffffffffffffffffffffff1673ffffffffffffffffffffffffffffffffffffffff168152602001908152602001600020549050919050565b600181815481101515613fc957fe5b90600052602060002090600502016000915090508060000154908060010154908060020160009054906101000a900460ff16908060030154908060040154905085565b60008060008060008060006008805490508810151561402a57600080fd5b60088881548110151561403957fe5b90600052602060002090600702016000015460088981548110151561405a57fe5b90600052602060002090600702016001015460088a81548110151561407b57fe5b90600052602060002090600702016002015460088b81548110151561409c57fe5b906000526020600020906007020160030160009054906101000a900460ff1660088c8154811015156140ca57fe5b90600052602060002090600702016004015460088d8154811015156140eb57fe5b90600052602060002090600702016005015460088e81548110151561410c57fe5b9060005260206000209060070201600601549650965096509650965096509650919395979092949650565b6000806141438761464e565b11151561414f57600080fd5b600f60e06040519081016040528061416689614623565b60001916815260200161417888614623565b60001916815260200161418a87614623565b60001916815260200161419c86614623565b6000191681526020016141ae85614623565b6000191681526020016001151581526020016001151581525090806001815401808255809150509060018203906000526020600020906006020160009091929091909150600082015181600001906000191690556020820151816001019060001916905560408201518160020190600019169055606082015181600301906000191690556080820151816004019060001916905560a08201518160050160006101000a81548160ff02191690831515021790555060c08201518160050160016101000a81548160ff0219169083151502179055505050506001600f80549050039050600160126000828254019250508190555080601060006142af89614623565b600019166000191681526020019081526020016000208190555080601160003373ffffffffffffffffffffffffffffffffffffffff1673ffffffffffffffffffffffffffffffffffffffff16815260200190815260200160002081905550505050505050565b6000809054906101000a900473ffffffffffffffffffffffffffffffffffffffff1673ffffffffffffffffffffffffffffffffffffffff163373ffffffffffffffffffffffffffffffffffffffff1614151561437057600080fd5b600073ffffffffffffffffffffffffffffffffffffffff168173ffffffffffffffffffffffffffffffffffffffff16141515156143ac57600080fd5b8073ffffffffffffffffffffffffffffffffffffffff166000809054906101000a900473ffffffffffffffffffffffffffffffffffffffff1673ffffffffffffffffffffffffffffffffffffffff167f8be0079c531659141344cd1fd0a4f28419497f9722a3daafe3b4186f6b6457e060405160405180910390a3806000806101000a81548173ffffffffffffffffffffffffffffffffffffffff021916908373ffffffffffffffffffffffffffffffffffffffff16021790555050565b60088181548110151561447957fe5b90600052602060002090600702016000915090508060000154908060010154908060020154908060030160009054906101000a900460ff16908060040154908060050154908060060154905087565b60608060608060008060036000888152602001908152602001600020546040519080825280602002602001820160405280156145135781602001602082028038833980820191505090505b50935060036000888152602001908152602001600020546040519080825280602002602001820160405280156145585781602001602082028038833980820191505090505b50925060009150600090505b600180805490500381111515614614578660018281548110151561458457fe5b9060005260206000209060050201600401541415614607576001818154811015156145ab57fe5b90600052602060002090600502016000015484838151811015156145cb57fe5b9060200190602002019060001916908160001916815250508083838151811015156145f257fe5b90602001906020020181815250506001820191505b8080600101915050614564565b83839550955050505050915091565b600060608290506000815114156146405760006001029150614648565b602083015191505b50919050565b6000806060600091508390505b80518210156149e35760007f0100000000000000000000000000000000000000000000000000000000000000026007828481518110151561469857fe5b9060200101517f010000000000000000000000000000000000000000000000000000000000000090047f0100000000000000000000000000000000000000000000000000000000000000027effffffffffffffffffffffffffffffffffffffffffffffffffffffffffffff19169060020a90047effffffffffffffffffffffffffffffffffffffffffffffffffffffffffffff1916141561473e576001820191506149d6565b60067f0100000000000000000000000000000000000000000000000000000000000000026005828481518110151561477257fe5b9060200101517f010000000000000000000000000000000000000000000000000000000000000090047f0100000000000000000000000000000000000000000000000000000000000000027effffffffffffffffffffffffffffffffffffffffffffffffffffffffffffff19169060020a90047effffffffffffffffffffffffffffffffffffffffffffffffffffffffffffff19161415614818576002820191506149d5565b600e7f0100000000000000000000000000000000000000000000000000000000000000026004828481518110151561484c57fe5b9060200101517f010000000000000000000000000000000000000000000000000000000000000090047f0100000000000000000000000000000000000000000000000000000000000000027effffffffffffffffffffffffffffffffffffffffffffffffffffffffffffff19169060020a90047effffffffffffffffffffffffffffffffffffffffffffffffffffffffffffff191614156148f2576003820191506149d4565b601e7f0100000000000000000000000000000000000000000000000000000000000000026003828481518110151561492657fe5b9060200101517f010000000000000000000000000000000000000000000000000000000000000090047f0100000000000000000000000000000000000000000000000000000000000000027effffffffffffffffffffffffffffffffffffffffffffffffffffffffffffff19169060020a90047effffffffffffffffffffffffffffffffffffffffffffffffffffffffffffff191614156149cc576004820191506149d3565b6001820191505b5b5b5b828060010193505061465b565b50509190505600a165627a7a72305820f73b5b47414a17b69dcfeb7624536f748ce7cb4de813858fbe7c1bd3644d50630029",
  "source": "pragma solidity ^0.4.23;\r\n\r\nimport \"./Ownable.sol\";\r\nimport \"./Users.sol\";\r\nimport \"./Credentials.sol\";\r\nimport \"./Files.sol\";\r\n\r\ncontract MicroCredential is Ownable,Credentials,Users, Files {\r\n\r\n    // Events\r\n    event Deposit(address _from, uint value);\r\n    event Withdraw(address _to, uint _amount);\r\n    event Balance(uint _remainingBalance);\r\n\r\n    //  Make sure the address resolves a valid contract\r\n    modifier onlyAgencyOwner() {\r\n        uint id = agencyIdByAddress[msg.sender];\r\n        require(agencies[id].agencyName.length > 1);\r\n        _;\r\n    }\r\n\r\n    // variables and such\r\n    struct Agency {\r\n        bytes32 agencyName;\r\n        bytes32 website;\r\n        bytes32 firstName;\r\n        bytes32 lastName;\r\n        bytes32 email;\r\n        bool isActive;\r\n        bool exists;\r\n    }\r\n\r\n    // Mappings and Variables\r\n    uint version = 1;\r\n    Agency[] public agencies;\r\n    mapping(bytes32 => uint) internal agencyIdByName;\r\n    mapping(address => uint) internal agencyIdByAddress;\r\n    uint numAgencies = 0;\r\n\r\n    // What would I do in a constructor.  \r\n    constructor() public {\r\n        registerAgency(\"Root Agency\",\"http://pirl.io\",\"Mike\",\"Murphy\",\"mmurphy384@yahoo.com\");\r\n        addUser(\"root\",\"user\",\"mmurphy384@yahoo.com\");\r\n        addCredential(\"root credential\", \"http://pirl.io\", 100,0);\r\n        addFile(\"root file name\", \"http://pirl.io\",\"\",0,0);\r\n    }\r\n\r\n    // Purpose  : Fallback Function\r\n    function() public payable {\r\n        if (msg.value > 0) {\r\n            emit Deposit(msg.sender, msg.value);\r\n            emit Balance(address(this).balance);\r\n        }\r\n    }\r\n\r\n    // Purpose  : For the owner to withdraw some funds.\r\n    function withdraw(uint _amount) public onlyOwner {\r\n        require(address(this).balance > 0);\r\n        require(_amount > 0);\r\n        require(address(this).balance >= _amount);\r\n        address(msg.sender).transfer(_amount);\r\n        emit Withdraw(msg.sender, _amount);\r\n        emit Balance(address(this).balance);\r\n    }\r\n\r\n    // Purpose  : Need an 'iniitalize' because the first time, because it's public and payable.\r\n    //          : It needs to be payable or people will create these willy nilly.\r\n    function registerAgency(string _agencyName, string _website, string _firstName, string _lastName, string _email) \r\n        public payable { \r\n        require(utfStringLength(_agencyName) > 0);\r\n\r\n        agencies.push(Agency(\r\n            stringToBytes32(_agencyName), \r\n            stringToBytes32(_website),\r\n            stringToBytes32(_firstName),\r\n            stringToBytes32(_lastName),\r\n            stringToBytes32(_email),\r\n            true,\r\n            true)\r\n            );\r\n\r\n        uint id = agencies.length-1;\r\n        numAgencies += 1;\r\n        agencyIdByName[stringToBytes32(_agencyName)] = id;\r\n        agencyIdByAddress[msg.sender] = id;\r\n    }\r\n\r\n    // Purpose  : Set the agency basic info.  Can only by done by the agency owner \r\n    function updateAgencyInfo(string _agencyName, string _website, string _firstName, string _lastName, string _email) \r\n        public onlyAgencyOwner {\r\n        require(utfStringLength(_agencyName) > 2);\r\n        uint id = agencyIdByAddress[msg.sender];\r\n        require(agencies[id].agencyName.length > 1);\r\n        agencies[id].agencyName = stringToBytes32(_agencyName);\r\n        agencies[id].website = stringToBytes32(_website);\r\n        agencies[id].firstName = stringToBytes32(_firstName);\r\n        agencies[id].lastName = stringToBytes32(_lastName);\r\n        agencies[id].email = stringToBytes32(_email);\r\n        agencies[id].isActive = true;\r\n    }\r\n\r\n    // Purpose  : Get the agency basic info\r\n    function getAgencyCount() view public returns (uint) {\r\n        return numAgencies;\r\n    }\r\n\r\n    // Purpose  : Get the agency basic info\r\n    function getAgencyInfo(string _agencyName) view public returns (bytes32, bytes32, bytes32, bytes32, bytes32, bool, uint) {\r\n        require(utfStringLength(_agencyName) > 0);\r\n        uint id = agencyIdByName[stringToBytes32(_agencyName)];\r\n        return getAgencyInfoById(id);\r\n    }\r\n\r\n    // Purpose  : Get the agency basic info\r\n    // function getAgencyInfoByAddress(address _address) view public returns (bytes32, bytes32, bytes32, bytes32, bytes32, bool, uint) {\r\n    //     uint id = agencyIdByAddress[_address];\r\n    //     return getAgencyInfoById(id);\r\n    // }\r\n\r\n    // Purpose  : Get the agency basic info\r\n    function getAgencyInfoById(uint _id) view public returns (bytes32, bytes32, bytes32, bytes32, bytes32, bool, uint) {\r\n        require(agencies[_id].agencyName.length > 1);\r\n        return (\r\n            agencies[_id].agencyName, \r\n            agencies[_id].website, \r\n            agencies[_id].firstName, \r\n            agencies[_id].lastName, \r\n            agencies[_id].email, \r\n            agencies[_id].isActive,\r\n            _id);\r\n    }\r\n\r\n    // Purpose  : Get the agency basic info\r\n    // function getAgencyIdByAddress(address _address) view public returns (uint) {\r\n    //     return agencyIdByAddress[_address];\r\n    // }\r\n\r\n    // Purpose  : To Make the contract inactive and return funds to owner\r\n    function setAgencyInactive() public onlyAgencyOwner {\r\n        uint id = agencyIdByAddress[msg.sender];\r\n        require(agencies[id].agencyName.length > 1);\r\n        agencies[id].isActive = false;\r\n    }\r\n\r\n    // Purpose  : Used when an agency becomes active again\r\n    // To Do    : This will probably have to clear some queues, \r\n    //            reset credential statii, etc.\r\n    function setAgencyActive() public onlyAgencyOwner {\r\n        uint id = agencyIdByAddress[msg.sender];\r\n        require(agencies[id].agencyName.length > 1);\r\n        agencies[id].isActive = true;\r\n    }\r\n\r\n    // Purpose  : Get the contract balance\r\n    function getContractBalance() public onlyOwner view returns (uint) {\r\n        return address(this).balance;\r\n    }\r\n\r\n    // Purpose  : Determines if the address is an agency\r\n    function addressIsAgency(address _address) public view returns (bool) {\r\n        uint id = agencyIdByAddress[_address];\r\n        return (id > 0);\r\n    }\r\n\r\n    function getAgencies() public view returns (bytes32[], uint[]) {\r\n        require(agencies.length >= 0);\r\n        bytes32[] memory  agencyNames = new bytes32[](numAgencies);\r\n        uint[] memory  ids = new uint[](numAgencies);\r\n        for (uint i = 0; i < numAgencies; i++) {\r\n            agencyNames[i] = agencies[i].agencyName;\r\n            ids[i] = agencyIdByName[agencies[i].agencyName];\r\n        }\r\n        return (agencyNames, ids);\r\n    }\r\n\r\n    // Purpsoe  : Owners with draw all pirl from contract.  Shutting contract down.\r\n    function destroy() public onlyOwner {\r\n        withdraw(address(this).balance);\r\n    }\r\n\r\n}",
  "sourcePath": "D:\\GitHub\\pirl-project01\\truffle\\contracts\\MicroCredential.sol",
  "compiler": {
    "name": "solc",
    "version": "0.4.23+commit.124ca40d.Emscripten.clang"
  },
  "schemaVersion": "2.0.0",
  "updatedAt": "2018-05-20T14:59:01.581Z"
}