{
  "contractName": "MicroCredential",
  "abi": [
    {
      "constant": true,
      "inputs": [],
      "name": "owner",
      "outputs": [
        {
          "name": "",
          "type": "address"
        }
      ],
      "payable": false,
      "stateMutability": "view",
      "type": "function"
    },
    {
      "constant": false,
      "inputs": [
        {
          "name": "newOwner",
          "type": "address"
        }
      ],
      "name": "transferOwnership",
      "outputs": [],
      "payable": false,
      "stateMutability": "nonpayable",
      "type": "function"
    },
    {
      "anonymous": false,
      "inputs": [
        {
          "indexed": true,
          "name": "previousOwner",
          "type": "address"
        },
        {
          "indexed": true,
          "name": "newOwner",
          "type": "address"
        }
      ],
      "name": "OwnershipTransferred",
      "type": "event"
    },
    {
      "constant": false,
      "inputs": [
        {
          "name": "_name",
          "type": "bytes32"
        },
        {
          "name": "_website",
          "type": "bytes32"
        },
        {
          "name": "_email",
          "type": "bytes32"
        },
        {
          "name": "_perReviewFeeInPirl",
          "type": "int256"
        },
        {
          "name": "_isActive",
          "type": "bool"
        }
      ],
      "name": "SetAgency",
      "outputs": [],
      "payable": false,
      "stateMutability": "nonpayable",
      "type": "function"
    },
    {
      "constant": true,
      "inputs": [],
      "name": "GetAgencyInfo",
      "outputs": [
        {
          "name": "",
          "type": "bytes32"
        },
        {
          "name": "",
          "type": "bytes32"
        },
        {
          "name": "",
          "type": "bytes32"
        },
        {
          "name": "",
          "type": "int256"
        },
        {
          "name": "",
          "type": "bool"
        }
      ],
      "payable": false,
      "stateMutability": "view",
      "type": "function"
    }
  ],
  "bytecode": "0x6060604052336000806101000a81548173ffffffffffffffffffffffffffffffffffffffff021916908373ffffffffffffffffffffffffffffffffffffffff160217905550610446806100536000396000f300606060405260043610610062576000357c0100000000000000000000000000000000000000000000000000000000900463ffffffff16806389c0ad4b146100675780638da5cb5b146100c8578063ca9c1b441461011d578063f2fde38b14610172575b600080fd5b341561007257600080fd5b61007a6101ab565b60405180866000191660001916815260200185600019166000191681526020018460001916600019168152602001838152602001821515151581526020019550505050505060405180910390f35b34156100d357600080fd5b6100db6101ee565b604051808273ffffffffffffffffffffffffffffffffffffffff1673ffffffffffffffffffffffffffffffffffffffff16815260200191505060405180910390f35b341561012857600080fd5b61017060048080356000191690602001909190803560001916906020019091908035600019169060200190919080359060200190919080351515906020019091905050610213565b005b341561017d57600080fd5b6101a9600480803573ffffffffffffffffffffffffffffffffffffffff169060200190919050506102c5565b005b60008060008060006001600001546001800154600160020154600160030154600160040160009054906101000a900460ff16945094509450945094509091929394565b6000809054906101000a900473ffffffffffffffffffffffffffffffffffffffff1681565b6000809054906101000a900473ffffffffffffffffffffffffffffffffffffffff1673ffffffffffffffffffffffffffffffffffffffff163373ffffffffffffffffffffffffffffffffffffffff1614151561026e57600080fd5b84600160000181600019169055508360018001816000191690555082600160020181600019169055508160016003018190555080600160040160006101000a81548160ff0219169083151502179055505050505050565b6000809054906101000a900473ffffffffffffffffffffffffffffffffffffffff1673ffffffffffffffffffffffffffffffffffffffff163373ffffffffffffffffffffffffffffffffffffffff1614151561032057600080fd5b600073ffffffffffffffffffffffffffffffffffffffff168173ffffffffffffffffffffffffffffffffffffffff161415151561035c57600080fd5b8073ffffffffffffffffffffffffffffffffffffffff166000809054906101000a900473ffffffffffffffffffffffffffffffffffffffff1673ffffffffffffffffffffffffffffffffffffffff167f8be0079c531659141344cd1fd0a4f28419497f9722a3daafe3b4186f6b6457e060405160405180910390a3806000806101000a81548173ffffffffffffffffffffffffffffffffffffffff021916908373ffffffffffffffffffffffffffffffffffffffff160217905550505600a165627a7a7230582007b4dbfd2f64b01468dc3daad806fea7a98c7d58d8173240c509396a23db868a0029",
  "source": "pragma solidity ^0.4.19;\r\n\r\nimport \"./ownable.sol\";\r\n\r\ncontract MicroCredential is Ownable {\r\n\r\n    Agency private agency;\r\n\r\n    struct Agency {\r\n        bytes32 name;\r\n        bytes32 website;\r\n        bytes32 email;\r\n        int perReviewFeeInPirl;\r\n        bool isActive;\r\n    }\r\n\r\n\r\n    // What would I do in a constructor?\r\n\r\n\r\n\r\n    // Sets the contract owners contact info\r\n    function SetAgency(bytes32 _name, bytes32 _website, bytes32 _email, int _perReviewFeeInPirl, bool _isActive) public onlyOwner {\r\n        agency.name = _name;\r\n        agency.website = _website;\r\n        agency.email = _email;\r\n        agency.perReviewFeeInPirl = _perReviewFeeInPirl;\r\n        agency.isActive = _isActive;\r\n    }\r\n\r\n    function GetAgencyInfo() constant public returns (bytes32, bytes32, bytes32, int, bool) {\r\n        return (agency.name, agency.website, agency.email, agency.perReviewFeeInPirl, agency.isActive);\r\n    }\r\n\r\n\r\n\r\n}",
  "sourcePath": "D:\\GitHub\\pirl-project01\\truffle1\\contracts\\MicroCredential.sol",
  "compiler": {
    "name": "solc",
    "version": "0.4.21+commit.dfe3193c.Emscripten.clang"
  },
  "schemaVersion": "2.0.0",
  "updatedAt": "2018-05-05T01:13:28.540Z"
}