{
  "contractName": "MicroCredential",
  "abi": [
    {
      "constant": false,
      "inputs": [
        {
          "name": "_name",
          "type": "string"
        },
        {
          "name": "_url",
          "type": "string"
        },
        {
          "name": "_fee",
          "type": "uint256"
        }
      ],
      "name": "addCredential",
      "outputs": [
        {
          "name": "",
          "type": "uint256"
        }
      ],
      "payable": false,
      "stateMutability": "nonpayable",
      "type": "function"
    },
    {
      "constant": true,
      "inputs": [
        {
          "name": "",
          "type": "uint256"
        }
      ],
      "name": "agencies",
      "outputs": [
        {
          "name": "agencyName",
          "type": "bytes32"
        },
        {
          "name": "website",
          "type": "bytes32"
        },
        {
          "name": "email",
          "type": "bytes32"
        },
        {
          "name": "isActive",
          "type": "bool"
        }
      ],
      "payable": false,
      "stateMutability": "view",
      "type": "function"
    },
    {
      "constant": true,
      "inputs": [
        {
          "name": "_id",
          "type": "uint256"
        }
      ],
      "name": "getCredentialById",
      "outputs": [
        {
          "name": "name",
          "type": "bytes32"
        },
        {
          "name": "url",
          "type": "bytes32"
        },
        {
          "name": "fee",
          "type": "uint256"
        }
      ],
      "payable": false,
      "stateMutability": "view",
      "type": "function"
    },
    {
      "constant": true,
      "inputs": [],
      "name": "owner",
      "outputs": [
        {
          "name": "",
          "type": "address"
        }
      ],
      "payable": false,
      "stateMutability": "view",
      "type": "function"
    },
    {
      "constant": true,
      "inputs": [],
      "name": "getCredentialList",
      "outputs": [
        {
          "name": "",
          "type": "bytes32[]"
        }
      ],
      "payable": false,
      "stateMutability": "view",
      "type": "function"
    },
    {
      "constant": true,
      "inputs": [
        {
          "name": "",
          "type": "uint256"
        }
      ],
      "name": "credentials",
      "outputs": [
        {
          "name": "name",
          "type": "bytes32"
        },
        {
          "name": "url",
          "type": "bytes32"
        },
        {
          "name": "isActive",
          "type": "bool"
        },
        {
          "name": "fee",
          "type": "uint256"
        }
      ],
      "payable": false,
      "stateMutability": "view",
      "type": "function"
    },
    {
      "constant": true,
      "inputs": [
        {
          "name": "_name",
          "type": "string"
        }
      ],
      "name": "getCredentialByName",
      "outputs": [
        {
          "name": "name",
          "type": "bytes32"
        },
        {
          "name": "url",
          "type": "bytes32"
        },
        {
          "name": "fee",
          "type": "uint256"
        }
      ],
      "payable": false,
      "stateMutability": "view",
      "type": "function"
    },
    {
      "constant": false,
      "inputs": [
        {
          "name": "newOwner",
          "type": "address"
        }
      ],
      "name": "transferOwnership",
      "outputs": [],
      "payable": false,
      "stateMutability": "nonpayable",
      "type": "function"
    },
    {
      "payable": true,
      "stateMutability": "payable",
      "type": "fallback"
    },
    {
      "anonymous": false,
      "inputs": [
        {
          "indexed": false,
          "name": "_from",
          "type": "address"
        },
        {
          "indexed": false,
          "name": "value",
          "type": "uint256"
        }
      ],
      "name": "Deposit",
      "type": "event"
    },
    {
      "anonymous": false,
      "inputs": [
        {
          "indexed": false,
          "name": "_to",
          "type": "address"
        },
        {
          "indexed": false,
          "name": "_amount",
          "type": "uint256"
        }
      ],
      "name": "Withdraw",
      "type": "event"
    },
    {
      "anonymous": false,
      "inputs": [
        {
          "indexed": false,
          "name": "_remainingBalance",
          "type": "uint256"
        }
      ],
      "name": "Balance",
      "type": "event"
    },
    {
      "anonymous": false,
      "inputs": [
        {
          "indexed": false,
          "name": "name",
          "type": "bytes32"
        },
        {
          "indexed": false,
          "name": "url",
          "type": "bytes32"
        },
        {
          "indexed": false,
          "name": "isActive",
          "type": "bytes32"
        },
        {
          "indexed": false,
          "name": "fee",
          "type": "uint256"
        }
      ],
      "name": "NewCredential",
      "type": "event"
    },
    {
      "anonymous": false,
      "inputs": [
        {
          "indexed": true,
          "name": "previousOwner",
          "type": "address"
        },
        {
          "indexed": true,
          "name": "newOwner",
          "type": "address"
        }
      ],
      "name": "OwnershipTransferred",
      "type": "event"
    },
    {
      "constant": false,
      "inputs": [
        {
          "name": "_amount",
          "type": "uint256"
        }
      ],
      "name": "withdraw",
      "outputs": [],
      "payable": false,
      "stateMutability": "nonpayable",
      "type": "function"
    },
    {
      "constant": false,
      "inputs": [
        {
          "name": "_agencyName",
          "type": "bytes32"
        },
        {
          "name": "_website",
          "type": "bytes32"
        },
        {
          "name": "_email",
          "type": "bytes32"
        },
        {
          "name": "_perReviewFeeInPirl",
          "type": "int256"
        }
      ],
      "name": "updateAgencyInfo",
      "outputs": [],
      "payable": false,
      "stateMutability": "nonpayable",
      "type": "function"
    },
    {
      "constant": false,
      "inputs": [
        {
          "name": "_agencyName",
          "type": "string"
        },
        {
          "name": "_website",
          "type": "string"
        },
        {
          "name": "_email",
          "type": "string"
        }
      ],
      "name": "registerAgency",
      "outputs": [],
      "payable": true,
      "stateMutability": "payable",
      "type": "function"
    },
    {
      "constant": true,
      "inputs": [
        {
          "name": "_agencyName",
          "type": "string"
        }
      ],
      "name": "getAgencyInfo",
      "outputs": [
        {
          "name": "",
          "type": "bytes32"
        },
        {
          "name": "",
          "type": "bytes32"
        },
        {
          "name": "",
          "type": "bytes32"
        },
        {
          "name": "",
          "type": "bool"
        }
      ],
      "payable": false,
      "stateMutability": "view",
      "type": "function"
    },
    {
      "constant": false,
      "inputs": [],
      "name": "setAgencyInactive",
      "outputs": [],
      "payable": false,
      "stateMutability": "nonpayable",
      "type": "function"
    },
    {
      "constant": false,
      "inputs": [],
      "name": "setAgencyActive",
      "outputs": [],
      "payable": false,
      "stateMutability": "nonpayable",
      "type": "function"
    },
    {
      "constant": true,
      "inputs": [],
      "name": "getContractBalance",
      "outputs": [
        {
          "name": "",
          "type": "uint256"
        }
      ],
      "payable": false,
      "stateMutability": "view",
      "type": "function"
    },
    {
      "constant": false,
      "inputs": [],
      "name": "destroy",
      "outputs": [],
      "payable": false,
      "stateMutability": "nonpayable",
      "type": "function"
    }
  ],
  "bytecode": "0x6060604052336000806101000a81548173ffffffffffffffffffffffffffffffffffffffff021916908373ffffffffffffffffffffffffffffffffffffffff160217905550611b19806100536000396000f3006060604052600436106100e6576000357c0100000000000000000000000000000000000000000000000000000000900463ffffffff16806321d0e289146101ab5780632859b54a146102835780632b2b12c5146102985780632e1a7d4d1461035557806339b1c511146103785780633c8d830d1461041a5780633ef39e2a146104825780636f9fb98a146104d757806373c443ef1461050057806383197ef0146105155780638da5cb5b1461052a578063cf021c8a1461057f578063db06dfbf146105e9578063e0574e3f14610633578063eed0e87e14610693578063f2fde38b14610722575b60003411156101a9577fe1fffcc4923d04b559f4d29a8bfc6cda04eb5b0d3c460751c2402c5c5cc9109c3334604051808373ffffffffffffffffffffffffffffffffffffffff1673ffffffffffffffffffffffffffffffffffffffff1681526020018281526020019250505060405180910390a17fe8d947d7ebdd7b8b8fa2ad2022c7591418ac32d8c29c5f8a8fc9de52ffa540923073ffffffffffffffffffffffffffffffffffffffff16316040518082815260200191505060405180910390a15b005b610281600480803590602001908201803590602001908080601f0160208091040260200160405190810160405280939291908181526020018383808284378201915050505050509190803590602001908201803590602001908080601f0160208091040260200160405190810160405280939291908181526020018383808284378201915050505050509190803590602001908201803590602001908080601f0160208091040260200160405190810160405280939291908181526020018383808284378201915050505050509190505061075b565b005b341561028e57600080fd5b6102966108e4565b005b34156102a357600080fd5b61033f600480803590602001908201803590602001908080601f0160208091040260200160405190810160405280939291908181526020018383808284378201915050505050509190803590602001908201803590602001908080601f01602080910402602001604051908101604052809392919081815260200183838082843782019150505050505091908035906020019091905050610a04565b6040518082815260200191505060405180910390f35b341561036057600080fd5b6103766004808035906020019091905050610b26565b005b341561038357600080fd5b6103d3600480803590602001908201803590602001908080601f01602080910402602001604051908101604052809392919081815260200183838082843782019150505050505091905050610cd8565b604051808560001916600019168152602001846000191660001916815260200183600019166000191681526020018215151515815260200194505050505060405180910390f35b341561042557600080fd5b61043b6004808035906020019091905050610deb565b604051808560001916600019168152602001846000191660001916815260200183600019166000191681526020018215151515815260200194505050505060405180910390f35b341561048d57600080fd5b6104a36004808035906020019091905050610e37565b6040518084600019166000191681526020018360001916600019168152602001828152602001935050505060405180910390f35b34156104e257600080fd5b6104ea610ebf565b6040518082815260200191505060405180910390f35b341561050b57600080fd5b610513610f39565b005b341561052057600080fd5b610528611059565b005b341561053557600080fd5b61053d6110d6565b604051808273ffffffffffffffffffffffffffffffffffffffff1673ffffffffffffffffffffffffffffffffffffffff16815260200191505060405180910390f35b341561058a57600080fd5b6105926110fb565b6040518080602001828103825283818151815260200191508051906020019060200280838360005b838110156105d55780820151818401526020810190506105ba565b505050509050019250505060405180910390f35b34156105f457600080fd5b61063160048080356000191690602001909190803560001916906020019091908035600019169060200190919080359060200190919050506111b8565b005b341561063e57600080fd5b6106546004808035906020019091905050611379565b60405180856000191660001916815260200184600019166000191681526020018315151515815260200182815260200194505050505060405180910390f35b341561069e57600080fd5b6106ee600480803590602001908201803590602001908080601f016020809104026020016040519081016040528093929190818152602001838380828437820191505050505050919050506113c5565b6040518084600019166000191681526020018360001916600019168152602001828152602001935050505060405180910390f35b341561072d57600080fd5b610759600480803573ffffffffffffffffffffffffffffffffffffffff169060200190919050506114a3565b005b600080610767856115f8565b11151561077357600080fd5b6000600460006107828761199a565b60001916600019168152602001908152602001600020541415156107a557600080fd5b600090506001600380548060010182816107bf91906119cb565b916000526020600020906004020160006080604051908101604052806107e48a61199a565b6000191681526020016107f68961199a565b6000191681526020016108088861199a565b60001916815260200160011515815250909190915060008201518160000190600019169055602082015181600101906000191690556040820151816002019060001916905560608201518160030160006101000a81548160ff021916908315150217905550505003905080600460006108808761199a565b600019166000191681526020019081526020016000208190555080600560003373ffffffffffffffffffffffffffffffffffffffff1673ffffffffffffffffffffffffffffffffffffffff1681526020019081526020016000208190555050505050565b600080600560003373ffffffffffffffffffffffffffffffffffffffff1673ffffffffffffffffffffffffffffffffffffffff168152602001908152602001600020549050600160038281548110151561093a57fe5b906000526020600020905050602060ff1611151561095757600080fd5b600560003373ffffffffffffffffffffffffffffffffffffffff1673ffffffffffffffffffffffffffffffffffffffff16815260200190815260200160002054915060016003838154811015156109aa57fe5b906000526020600020905050602060ff161115156109c757600080fd5b60006003838154811015156109d857fe5b906000526020600020906004020160030160006101000a81548160ff0219169083151502179055505050565b600080600060026000610a168861199a565b6000191660001916815260200190815260200160002054141515610a3957600080fd5b600090506001808054806001018281610a5291906119fd565b91600052602060002090600402016000608060405190810160405280610a778b61199a565b600019168152602001610a898a61199a565b600019168152602001600115158152602001888152509091909150600082015181600001906000191690556020820151816001019060001916905560408201518160020160006101000a81548160ff0219169083151502179055506060820151816003015550500390508060026000610b018861199a565b6000191660001916815260200190815260200160002081905550809150509392505050565b6000809054906101000a900473ffffffffffffffffffffffffffffffffffffffff1673ffffffffffffffffffffffffffffffffffffffff163373ffffffffffffffffffffffffffffffffffffffff16141515610b8157600080fd5b60003073ffffffffffffffffffffffffffffffffffffffff1631111515610ba757600080fd5b600081111515610bb657600080fd5b803073ffffffffffffffffffffffffffffffffffffffff163110151515610bdc57600080fd5b3373ffffffffffffffffffffffffffffffffffffffff166108fc829081150290604051600060405180830381858888f193505050501515610c1c57600080fd5b7f884edad9ce6fa2440d8a54cc123490eb96d2768479d49ff9c7366125a94243643382604051808373ffffffffffffffffffffffffffffffffffffffff1673ffffffffffffffffffffffffffffffffffffffff1681526020018281526020019250505060405180910390a17fe8d947d7ebdd7b8b8fa2ad2022c7591418ac32d8c29c5f8a8fc9de52ffa540923073ffffffffffffffffffffffffffffffffffffffff16316040518082815260200191505060405180910390a150565b600080600080600080610cea876115f8565b111515610cf657600080fd5b60046000610d038861199a565b600019166000191681526020019081526020016000205490506001600382815481101515610d2d57fe5b906000526020600020905050602060ff16111515610d4a57600080fd5b600381815481101515610d5957fe5b906000526020600020906004020160000154600382815481101515610d7a57fe5b906000526020600020906004020160010154600383815481101515610d9b57fe5b906000526020600020906004020160020154600384815481101515610dbc57fe5b906000526020600020906004020160030160009054906101000a900460ff169450945094509450509193509193565b600381815481101515610dfa57fe5b90600052602060002090600402016000915090508060000154908060010154908060020154908060030160009054906101000a900460ff16905084565b600080600060018054905084101515610e4f57600080fd5b600184815481101515610e5e57fe5b906000526020600020906004020160000154600185815481101515610e7f57fe5b906000526020600020906004020160010154600186815481101515610ea057fe5b9060005260206000209060040201600301549250925092509193909250565b60008060009054906101000a900473ffffffffffffffffffffffffffffffffffffffff1673ffffffffffffffffffffffffffffffffffffffff163373ffffffffffffffffffffffffffffffffffffffff16141515610f1c57600080fd5b3073ffffffffffffffffffffffffffffffffffffffff1631905090565b600080600560003373ffffffffffffffffffffffffffffffffffffffff1673ffffffffffffffffffffffffffffffffffffffff1681526020019081526020016000205490506001600382815481101515610f8f57fe5b906000526020600020905050602060ff16111515610fac57600080fd5b600560003373ffffffffffffffffffffffffffffffffffffffff1673ffffffffffffffffffffffffffffffffffffffff1681526020019081526020016000205491506001600383815481101515610fff57fe5b906000526020600020905050602060ff1611151561101c57600080fd5b600160038381548110151561102d57fe5b906000526020600020906004020160030160006101000a81548160ff0219169083151502179055505050565b6000809054906101000a900473ffffffffffffffffffffffffffffffffffffffff1673ffffffffffffffffffffffffffffffffffffffff163373ffffffffffffffffffffffffffffffffffffffff161415156110b457600080fd5b6110d43073ffffffffffffffffffffffffffffffffffffffff1631610b26565b565b6000809054906101000a900473ffffffffffffffffffffffffffffffffffffffff1681565b611103611a2f565b61110b611a2f565b6000806001805490501015151561112157600080fd5b6001805490506040518059106111345750595b90808252806020026020018201604052509150600090505b6001808054905003811115156111b05760018181548110151561116b57fe5b906000526020600020906004020160000154828281518110151561118b57fe5b906020019060200201906000191690816000191681525050808060010191505061114c565b819250505090565b600080600560003373ffffffffffffffffffffffffffffffffffffffff1673ffffffffffffffffffffffffffffffffffffffff168152602001908152602001600020549050600160038281548110151561120e57fe5b906000526020600020905050602060ff1611151561122b57600080fd5b6000602060ff1611151561123e57600080fd5b60008313151561124d57600080fd5b600560003373ffffffffffffffffffffffffffffffffffffffff1673ffffffffffffffffffffffffffffffffffffffff16815260200190815260200160002054915060016003838154811015156112a057fe5b906000526020600020905050602060ff161115156112bd57600080fd5b856003838154811015156112cd57fe5b90600052602060002090600402016000018160001916905550846003838154811015156112f657fe5b906000526020600020906004020160010181600019169055508360038381548110151561131f57fe5b90600052602060002090600402016002018160001916905550600160038381548110151561134957fe5b906000526020600020906004020160030160006101000a81548160ff021916908315150217905550505050505050565b60018181548110151561138857fe5b90600052602060002090600402016000915090508060000154908060010154908060020160009054906101000a900460ff16908060030154905084565b600080600080600260006113d88761199a565b60001916600019168152602001908152602001600020549050600060018281548110151561140257fe5b906000526020600020905050602060ff1611151561141f57600080fd5b6001805490508110151561143257600080fd5b60018181548110151561144157fe5b90600052602060002090600402016000015460018281548110151561146257fe5b90600052602060002090600402016001015460018381548110151561148357fe5b906000526020600020906004020160030154935093509350509193909250565b6000809054906101000a900473ffffffffffffffffffffffffffffffffffffffff1673ffffffffffffffffffffffffffffffffffffffff163373ffffffffffffffffffffffffffffffffffffffff161415156114fe57600080fd5b600073ffffffffffffffffffffffffffffffffffffffff168173ffffffffffffffffffffffffffffffffffffffff161415151561153a57600080fd5b8073ffffffffffffffffffffffffffffffffffffffff166000809054906101000a900473ffffffffffffffffffffffffffffffffffffffff1673ffffffffffffffffffffffffffffffffffffffff167f8be0079c531659141344cd1fd0a4f28419497f9722a3daafe3b4186f6b6457e060405160405180910390a3806000806101000a81548173ffffffffffffffffffffffffffffffffffffffff021916908373ffffffffffffffffffffffffffffffffffffffff16021790555050565b600080611603611a43565b600091508390505b80518210156119935760007f0100000000000000000000000000000000000000000000000000000000000000026007828481518110151561164857fe5b9060200101517f010000000000000000000000000000000000000000000000000000000000000090047f0100000000000000000000000000000000000000000000000000000000000000027effffffffffffffffffffffffffffffffffffffffffffffffffffffffffffff19169060020a90047effffffffffffffffffffffffffffffffffffffffffffffffffffffffffffff191614156116ee57600182019150611986565b60067f0100000000000000000000000000000000000000000000000000000000000000026005828481518110151561172257fe5b9060200101517f010000000000000000000000000000000000000000000000000000000000000090047f0100000000000000000000000000000000000000000000000000000000000000027effffffffffffffffffffffffffffffffffffffffffffffffffffffffffffff19169060020a90047effffffffffffffffffffffffffffffffffffffffffffffffffffffffffffff191614156117c857600282019150611985565b600e7f010000000000000000000000000000000000000000000000000000000000000002600482848151811015156117fc57fe5b9060200101517f010000000000000000000000000000000000000000000000000000000000000090047f0100000000000000000000000000000000000000000000000000000000000000027effffffffffffffffffffffffffffffffffffffffffffffffffffffffffffff19169060020a90047effffffffffffffffffffffffffffffffffffffffffffffffffffffffffffff191614156118a257600382019150611984565b601e7f010000000000000000000000000000000000000000000000000000000000000002600382848151811015156118d657fe5b9060200101517f010000000000000000000000000000000000000000000000000000000000000090047f0100000000000000000000000000000000000000000000000000000000000000027effffffffffffffffffffffffffffffffffffffffffffffffffffffffffffff19169060020a90047effffffffffffffffffffffffffffffffffffffffffffffffffffffffffffff1916141561197c57600482019150611983565b6001820191505b5b5b5b828060010193505061160b565b5050919050565b60006119a4611a43565b8290506000815114156119bd57600060010291506119c5565b602083015191505b50919050565b8154818355818115116119f8576004028160040283600052602060002091820191016119f79190611a57565b5b505050565b815481835581811511611a2a57600402816004028360005260206000209182019101611a299190611aa2565b5b505050565b602060405190810160405280600081525090565b602060405190810160405280600081525090565b611a9f91905b80821115611a9b57600080820160009055600182016000905560028201600090556003820160006101000a81549060ff021916905550600401611a5d565b5090565b90565b611aea91905b80821115611ae65760008082016000905560018201600090556002820160006101000a81549060ff0219169055600382016000905550600401611aa8565b5090565b905600a165627a7a72305820521876731e8cede87897065837339c4901b7ed80a20dbced46b22d12f61c95390029",
  "source": "pragma solidity ^0.4.19;\r\n\r\nimport \"./Ownable.sol\";\r\nimport \"./Credentials.sol\";\r\n\r\ncontract MicroCredential is Ownable,Credentials {\r\n\r\n    // Events\r\n    event Deposit(address _from, uint value);\r\n    event Withdraw(address _to, uint _amount);\r\n    event Balance(uint _remainingBalance);\r\n\r\n    //  Make sure the address resolves a valid contract\r\n    modifier onlyAgencyOwner() {\r\n        uint id = agencyIdByAddress[msg.sender];\r\n        require(agencies[id].agencyName.length > 1);\r\n        _;\r\n    }\r\n\r\n    // variables and such\r\n    struct Agency {\r\n        bytes32 agencyName;\r\n        bytes32 website;\r\n        bytes32 email;\r\n        bool isActive;\r\n    }\r\n\r\n    // Mappings and Variables\r\n    Agency[] public agencies;\r\n    mapping(bytes32 => uint) internal agencyIdByName;\r\n    mapping(address => uint) internal agencyIdByAddress;\r\n\r\n    // What would I do in a constructor.  \r\n    // Still don't have a good purpose for this.\r\n\r\n    // Purpose  : Fallback Function\r\n    function() public payable {\r\n        if (msg.value > 0) {\r\n            emit Deposit(msg.sender, msg.value);\r\n            emit Balance(address(this).balance);\r\n        }\r\n    }\r\n\r\n    // Purpose  : For the owner to withdraw some funds.\r\n    function withdraw(uint _amount) public onlyOwner {\r\n        require(address(this).balance > 0);\r\n        require(_amount > 0);\r\n        require(address(this).balance >= _amount);\r\n        address(msg.sender).transfer(_amount);\r\n        emit Withdraw(msg.sender, _amount);\r\n        emit Balance(address(this).balance);\r\n    }\r\n\r\n    // Purpose  : Set the agency basic info.  Can only by done by the agency owner \r\n    function updateAgencyInfo(bytes32 _agencyName, bytes32 _website, bytes32 _email, int _perReviewFeeInPirl) \r\n        public onlyAgencyOwner {\r\n        require(_agencyName.length > 0);\r\n        require(_perReviewFeeInPirl > 0);\r\n        uint id = agencyIdByAddress[msg.sender];\r\n        require(agencies[id].agencyName.length > 1);\r\n        \r\n        agencies[id].agencyName = _agencyName;\r\n        agencies[id].website = _website;\r\n        agencies[id].email = _email;\r\n        agencies[id].isActive = true;\r\n    }\r\n\r\n    // Purpose  : Need an 'iniitalize' because the first time, because it's public and payable.\r\n    //          : It needs to be payable or people will create these willy nilly.\r\n    function registerAgency(string _agencyName, string _website, string _email) \r\n        public payable { \r\n        require(utfStringLength(_agencyName) > 0);\r\n        require(agencyIdByName[stringToBytes32(_agencyName)] == 0);\r\n        uint id = 0;\r\n        id = agencies.push(Agency(stringToBytes32(_agencyName), stringToBytes32(_website),stringToBytes32(_email),true))-1;\r\n        agencyIdByName[stringToBytes32(_agencyName)] = id;\r\n        agencyIdByAddress[msg.sender] = id;\r\n    }\r\n\r\n    // Purpose  : Get the agency basic info\r\n    function getAgencyInfo(string _agencyName) view public returns (bytes32, bytes32, bytes32, bool) {\r\n        require(utfStringLength(_agencyName) > 0);\r\n        uint id = agencyIdByName[stringToBytes32(_agencyName)];\r\n        require(agencies[id].agencyName.length > 1);\r\n        return (agencies[id].agencyName, agencies[id].website, agencies[id].email,agencies[id].isActive);\r\n    }\r\n\r\n    // Purpose  : To Make the contract inactive and return funds to owner\r\n    function setAgencyInactive() public onlyAgencyOwner {\r\n        uint id = agencyIdByAddress[msg.sender];\r\n        require(agencies[id].agencyName.length > 1);\r\n        agencies[id].isActive = false;\r\n    }\r\n\r\n    // Purpose  : Used when an agency becomes active again\r\n    // To Do    : This will probably have to clear some queues, \r\n    //            reset credential statii, etc.\r\n    function setAgencyActive() public onlyAgencyOwner {\r\n        uint id = agencyIdByAddress[msg.sender];\r\n        require(agencies[id].agencyName.length > 1);\r\n        agencies[id].isActive = true;\r\n    }\r\n\r\n    // Purpose  : Get the contract balance\r\n    function getContractBalance() public onlyOwner view returns (uint) {\r\n        return address(this).balance;\r\n    }\r\n\r\n    // Purpsoe  : Owners with draw all pirl from contract.  Shutting contract down.\r\n    function destroy() public onlyOwner {\r\n        withdraw(address(this).balance);\r\n    }\r\n\r\n}",
  "sourcePath": "D:\\GitHub\\pirl-project01\\truffle\\contracts\\MicroCredential.sol",
  "compiler": {
    "name": "solc",
    "version": "0.4.21+commit.dfe3193c.Emscripten.clang"
  },
  "schemaVersion": "2.0.0",
  "updatedAt": "2018-05-12T01:16:29.609Z"
}