{
  "contractName": "MicroCredential",
  "abi": [
    {
      "constant": true,
      "inputs": [
        {
          "name": "_email",
          "type": "string"
        }
      ],
      "name": "getUserByEmail",
      "outputs": [
        {
          "name": "",
          "type": "bytes32"
        },
        {
          "name": "",
          "type": "bytes32"
        },
        {
          "name": "",
          "type": "bytes32"
        },
        {
          "name": "",
          "type": "bool"
        },
        {
          "name": "",
          "type": "uint256"
        }
      ],
      "payable": false,
      "stateMutability": "view",
      "type": "function"
    },
    {
      "constant": true,
      "inputs": [],
      "name": "getMyId",
      "outputs": [
        {
          "name": "",
          "type": "uint256"
        }
      ],
      "payable": false,
      "stateMutability": "view",
      "type": "function"
    },
    {
      "constant": false,
      "inputs": [
        {
          "name": "_name",
          "type": "string"
        },
        {
          "name": "_url",
          "type": "string"
        },
        {
          "name": "_fee",
          "type": "uint256"
        }
      ],
      "name": "addCredential",
      "outputs": [
        {
          "name": "",
          "type": "uint256"
        }
      ],
      "payable": false,
      "stateMutability": "nonpayable",
      "type": "function"
    },
    {
      "constant": true,
      "inputs": [
        {
          "name": "",
          "type": "uint256"
        }
      ],
      "name": "users",
      "outputs": [
        {
          "name": "firstName",
          "type": "bytes32"
        },
        {
          "name": "lastName",
          "type": "bytes32"
        },
        {
          "name": "email",
          "type": "bytes32"
        },
        {
          "name": "isActive",
          "type": "bool"
        }
      ],
      "payable": false,
      "stateMutability": "view",
      "type": "function"
    },
    {
      "constant": true,
      "inputs": [
        {
          "name": "",
          "type": "uint256"
        }
      ],
      "name": "agencies",
      "outputs": [
        {
          "name": "agencyName",
          "type": "bytes32"
        },
        {
          "name": "website",
          "type": "bytes32"
        },
        {
          "name": "email",
          "type": "bytes32"
        },
        {
          "name": "isActive",
          "type": "bool"
        }
      ],
      "payable": false,
      "stateMutability": "view",
      "type": "function"
    },
    {
      "constant": true,
      "inputs": [
        {
          "name": "_id",
          "type": "uint256"
        }
      ],
      "name": "getCredentialById",
      "outputs": [
        {
          "name": "name",
          "type": "bytes32"
        },
        {
          "name": "url",
          "type": "bytes32"
        },
        {
          "name": "fee",
          "type": "uint256"
        }
      ],
      "payable": false,
      "stateMutability": "view",
      "type": "function"
    },
    {
      "constant": false,
      "inputs": [
        {
          "name": "_firstName",
          "type": "string"
        },
        {
          "name": "_lastName",
          "type": "string"
        },
        {
          "name": "_email",
          "type": "string"
        }
      ],
      "name": "updateUser",
      "outputs": [],
      "payable": false,
      "stateMutability": "nonpayable",
      "type": "function"
    },
    {
      "constant": true,
      "inputs": [
        {
          "name": "_address",
          "type": "address"
        }
      ],
      "name": "getUserByAddress",
      "outputs": [
        {
          "name": "",
          "type": "bytes32"
        },
        {
          "name": "",
          "type": "bytes32"
        },
        {
          "name": "",
          "type": "bytes32"
        },
        {
          "name": "",
          "type": "bool"
        },
        {
          "name": "",
          "type": "uint256"
        }
      ],
      "payable": false,
      "stateMutability": "view",
      "type": "function"
    },
    {
      "constant": true,
      "inputs": [
        {
          "name": "_id",
          "type": "uint256"
        }
      ],
      "name": "getUserById",
      "outputs": [
        {
          "name": "",
          "type": "bytes32"
        },
        {
          "name": "",
          "type": "bytes32"
        },
        {
          "name": "",
          "type": "bytes32"
        },
        {
          "name": "",
          "type": "bool"
        },
        {
          "name": "",
          "type": "uint256"
        }
      ],
      "payable": false,
      "stateMutability": "view",
      "type": "function"
    },
    {
      "constant": true,
      "inputs": [
        {
          "name": "_email",
          "type": "string"
        }
      ],
      "name": "getIdByEmail",
      "outputs": [
        {
          "name": "",
          "type": "uint256"
        }
      ],
      "payable": false,
      "stateMutability": "view",
      "type": "function"
    },
    {
      "constant": true,
      "inputs": [],
      "name": "owner",
      "outputs": [
        {
          "name": "",
          "type": "address"
        }
      ],
      "payable": false,
      "stateMutability": "view",
      "type": "function"
    },
    {
      "constant": false,
      "inputs": [
        {
          "name": "_firstName",
          "type": "string"
        },
        {
          "name": "_lastName",
          "type": "string"
        },
        {
          "name": "_email",
          "type": "string"
        }
      ],
      "name": "addUser",
      "outputs": [],
      "payable": false,
      "stateMutability": "nonpayable",
      "type": "function"
    },
    {
      "constant": true,
      "inputs": [],
      "name": "getUserList",
      "outputs": [
        {
          "name": "",
          "type": "bytes32[]"
        },
        {
          "name": "",
          "type": "bytes32[]"
        },
        {
          "name": "",
          "type": "bytes32[]"
        },
        {
          "name": "",
          "type": "bool[]"
        }
      ],
      "payable": false,
      "stateMutability": "view",
      "type": "function"
    },
    {
      "constant": true,
      "inputs": [],
      "name": "getCredentialList",
      "outputs": [
        {
          "name": "",
          "type": "bytes32[]"
        }
      ],
      "payable": false,
      "stateMutability": "view",
      "type": "function"
    },
    {
      "constant": true,
      "inputs": [
        {
          "name": "_address",
          "type": "address"
        }
      ],
      "name": "getIdByAddress",
      "outputs": [
        {
          "name": "",
          "type": "uint256"
        }
      ],
      "payable": false,
      "stateMutability": "view",
      "type": "function"
    },
    {
      "constant": true,
      "inputs": [
        {
          "name": "",
          "type": "uint256"
        }
      ],
      "name": "credentials",
      "outputs": [
        {
          "name": "name",
          "type": "bytes32"
        },
        {
          "name": "url",
          "type": "bytes32"
        },
        {
          "name": "isActive",
          "type": "bool"
        },
        {
          "name": "fee",
          "type": "uint256"
        }
      ],
      "payable": false,
      "stateMutability": "view",
      "type": "function"
    },
    {
      "constant": true,
      "inputs": [
        {
          "name": "_name",
          "type": "string"
        }
      ],
      "name": "getCredentialByName",
      "outputs": [
        {
          "name": "name",
          "type": "bytes32"
        },
        {
          "name": "url",
          "type": "bytes32"
        },
        {
          "name": "fee",
          "type": "uint256"
        }
      ],
      "payable": false,
      "stateMutability": "view",
      "type": "function"
    },
    {
      "constant": false,
      "inputs": [
        {
          "name": "newOwner",
          "type": "address"
        }
      ],
      "name": "transferOwnership",
      "outputs": [],
      "payable": false,
      "stateMutability": "nonpayable",
      "type": "function"
    },
    {
      "payable": true,
      "stateMutability": "payable",
      "type": "fallback"
    },
    {
      "anonymous": false,
      "inputs": [
        {
          "indexed": false,
          "name": "_from",
          "type": "address"
        },
        {
          "indexed": false,
          "name": "value",
          "type": "uint256"
        }
      ],
      "name": "Deposit",
      "type": "event"
    },
    {
      "anonymous": false,
      "inputs": [
        {
          "indexed": false,
          "name": "_to",
          "type": "address"
        },
        {
          "indexed": false,
          "name": "_amount",
          "type": "uint256"
        }
      ],
      "name": "Withdraw",
      "type": "event"
    },
    {
      "anonymous": false,
      "inputs": [
        {
          "indexed": false,
          "name": "_remainingBalance",
          "type": "uint256"
        }
      ],
      "name": "Balance",
      "type": "event"
    },
    {
      "anonymous": false,
      "inputs": [
        {
          "indexed": false,
          "name": "id",
          "type": "uint256"
        },
        {
          "indexed": false,
          "name": "firstName",
          "type": "string"
        },
        {
          "indexed": false,
          "name": "lastName",
          "type": "string"
        },
        {
          "indexed": false,
          "name": "email",
          "type": "string"
        },
        {
          "indexed": false,
          "name": "userAddress",
          "type": "address"
        }
      ],
      "name": "NewUser",
      "type": "event"
    },
    {
      "anonymous": false,
      "inputs": [
        {
          "indexed": false,
          "name": "id",
          "type": "uint256"
        },
        {
          "indexed": false,
          "name": "firstName",
          "type": "string"
        },
        {
          "indexed": false,
          "name": "lastName",
          "type": "string"
        },
        {
          "indexed": false,
          "name": "email",
          "type": "string"
        },
        {
          "indexed": false,
          "name": "userAddress",
          "type": "address"
        }
      ],
      "name": "UpdateUser",
      "type": "event"
    },
    {
      "anonymous": false,
      "inputs": [
        {
          "indexed": false,
          "name": "name",
          "type": "bytes32"
        },
        {
          "indexed": false,
          "name": "url",
          "type": "bytes32"
        },
        {
          "indexed": false,
          "name": "isActive",
          "type": "bytes32"
        },
        {
          "indexed": false,
          "name": "fee",
          "type": "uint256"
        }
      ],
      "name": "NewCredential",
      "type": "event"
    },
    {
      "anonymous": false,
      "inputs": [
        {
          "indexed": true,
          "name": "previousOwner",
          "type": "address"
        },
        {
          "indexed": true,
          "name": "newOwner",
          "type": "address"
        }
      ],
      "name": "OwnershipTransferred",
      "type": "event"
    },
    {
      "constant": false,
      "inputs": [
        {
          "name": "_amount",
          "type": "uint256"
        }
      ],
      "name": "withdraw",
      "outputs": [],
      "payable": false,
      "stateMutability": "nonpayable",
      "type": "function"
    },
    {
      "constant": false,
      "inputs": [
        {
          "name": "_agencyName",
          "type": "string"
        },
        {
          "name": "_website",
          "type": "string"
        },
        {
          "name": "_firstName",
          "type": "string"
        },
        {
          "name": "_lastName",
          "type": "string"
        },
        {
          "name": "_email",
          "type": "string"
        }
      ],
      "name": "updateAgencyInfo",
      "outputs": [],
      "payable": false,
      "stateMutability": "nonpayable",
      "type": "function"
    },
    {
      "constant": false,
      "inputs": [
        {
          "name": "_agencyName",
          "type": "string"
        },
        {
          "name": "_website",
          "type": "string"
        },
        {
          "name": "_firstName",
          "type": "string"
        },
        {
          "name": "_lastName",
          "type": "string"
        },
        {
          "name": "_email",
          "type": "string"
        }
      ],
      "name": "registerAgency",
      "outputs": [],
      "payable": true,
      "stateMutability": "payable",
      "type": "function"
    },
    {
      "constant": true,
      "inputs": [
        {
          "name": "_agencyName",
          "type": "string"
        }
      ],
      "name": "getAgencyInfo",
      "outputs": [
        {
          "name": "",
          "type": "bytes32"
        },
        {
          "name": "",
          "type": "bytes32"
        },
        {
          "name": "",
          "type": "bytes32"
        },
        {
          "name": "",
          "type": "bool"
        }
      ],
      "payable": false,
      "stateMutability": "view",
      "type": "function"
    },
    {
      "constant": true,
      "inputs": [
        {
          "name": "_address",
          "type": "address"
        }
      ],
      "name": "getAgencyInfoByAddress",
      "outputs": [
        {
          "name": "",
          "type": "bytes32"
        },
        {
          "name": "",
          "type": "bytes32"
        },
        {
          "name": "",
          "type": "bytes32"
        },
        {
          "name": "",
          "type": "bool"
        }
      ],
      "payable": false,
      "stateMutability": "view",
      "type": "function"
    },
    {
      "constant": false,
      "inputs": [],
      "name": "setAgencyInactive",
      "outputs": [],
      "payable": false,
      "stateMutability": "nonpayable",
      "type": "function"
    },
    {
      "constant": false,
      "inputs": [],
      "name": "setAgencyActive",
      "outputs": [],
      "payable": false,
      "stateMutability": "nonpayable",
      "type": "function"
    },
    {
      "constant": true,
      "inputs": [],
      "name": "getContractBalance",
      "outputs": [
        {
          "name": "",
          "type": "uint256"
        }
      ],
      "payable": false,
      "stateMutability": "view",
      "type": "function"
    },
    {
      "constant": false,
      "inputs": [],
      "name": "destroy",
      "outputs": [],
      "payable": false,
      "stateMutability": "nonpayable",
      "type": "function"
    }
  ],
  "bytecode": "0x6060604052336000806101000a81548173ffffffffffffffffffffffffffffffffffffffff021916908373ffffffffffffffffffffffffffffffffffffffff16021790555061330c806100536000396000f30060606040526004361061015f576000357c0100000000000000000000000000000000000000000000000000000000900463ffffffff16806318046ae11461022457806327ed00ee146102cd5780632859b54a146102f65780632916435b1461030b5780632b2b12c5146103895780632e1a7d4d14610446578063365b98b21461046957806339b1c511146104d15780633c8d830d146105735780633ef39e2a146105db57806360903be61461063057806369c212f6146107135780636ed6da9e146107985780636f9fb98a1461080757806373c443ef14610830578063807d80451461084557806383197ef0146108b65780638da5cb5b146108cb57806395c5fed414610920578063b366c5d214610a03578063b852204314610b6c578063cf021c8a14610cae578063dff3b49714610d18578063e0574e3f14610d65578063eed0e87e14610dc5578063eeef26dd14610e54578063f2fde38b14610fb2575b6000341115610222577fe1fffcc4923d04b559f4d29a8bfc6cda04eb5b0d3c460751c2402c5c5cc9109c3334604051808373ffffffffffffffffffffffffffffffffffffffff1673ffffffffffffffffffffffffffffffffffffffff1681526020018281526020019250505060405180910390a17fe8d947d7ebdd7b8b8fa2ad2022c7591418ac32d8c29c5f8a8fc9de52ffa540923073ffffffffffffffffffffffffffffffffffffffff16316040518082815260200191505060405180910390a15b005b341561022f57600080fd5b61027f600480803590602001908201803590602001908080601f01602080910402602001604051908101604052809392919081815260200183838082843782019150505050505091905050610feb565b60405180866000191660001916815260200185600019166000191681526020018460001916600019168152602001831515151581526020018281526020019550505050505060405180910390f35b34156102d857600080fd5b6102e0611101565b6040518082815260200191505060405180910390f35b341561030157600080fd5b610309611195565b005b341561031657600080fd5b610342600480803573ffffffffffffffffffffffffffffffffffffffff169060200190919050506112b5565b604051808560001916600019168152602001846000191660001916815260200183600019166000191681526020018215151515815260200194505050505060405180910390f35b341561039457600080fd5b610430600480803590602001908201803590602001908080601f0160208091040260200160405190810160405280939291908181526020018383808284378201915050505050509190803590602001908201803590602001908080601f016020809104026020016040519081016040528093929190818152602001838380828437820191505050505050919080359060200190919050506113ce565b6040518082815260200191505060405180910390f35b341561045157600080fd5b61046760048080359060200190919050506114f0565b005b341561047457600080fd5b61048a60048080359060200190919050506116a2565b604051808560001916600019168152602001846000191660001916815260200183600019166000191681526020018215151515815260200194505050505060405180910390f35b34156104dc57600080fd5b61052c600480803590602001908201803590602001908080601f016020809104026020016040519081016040528093929190818152602001838380828437820191505050505050919050506116ee565b604051808560001916600019168152602001846000191660001916815260200183600019166000191681526020018215151515815260200194505050505060405180910390f35b341561057e57600080fd5b6105946004808035906020019091905050611801565b604051808560001916600019168152602001846000191660001916815260200183600019166000191681526020018215151515815260200194505050505060405180910390f35b34156105e657600080fd5b6105fc600480803590602001909190505061184d565b6040518084600019166000191681526020018360001916600019168152602001828152602001935050505060405180910390f35b341561063b57600080fd5b610711600480803590602001908201803590602001908080601f0160208091040260200160405190810160405280939291908181526020018383808284378201915050505050509190803590602001908201803590602001908080601f0160208091040260200160405190810160405280939291908181526020018383808284378201915050505050509190803590602001908201803590602001908080601f016020809104026020016040519081016040528093929190818152602001838380828437820191505050505050919050506118d5565b005b341561071e57600080fd5b61074a600480803573ffffffffffffffffffffffffffffffffffffffff16906020019091905050611c15565b60405180866000191660001916815260200185600019166000191681526020018460001916600019168152602001831515151581526020018281526020019550505050505060405180910390f35b34156107a357600080fd5b6107b96004808035906020019091905050611d47565b60405180866000191660001916815260200185600019166000191681526020018460001916600019168152602001831515151581526020018281526020019550505050505060405180910390f35b341561081257600080fd5b61081a611e07565b6040518082815260200191505060405180910390f35b341561083b57600080fd5b610843611e81565b005b341561085057600080fd5b6108a0600480803590602001908201803590602001908080601f01602080910402602001604051908101604052809392919081815260200183838082843782019150505050505091905050611fa1565b6040518082815260200191505060405180910390f35b34156108c157600080fd5b6108c9611fce565b005b34156108d657600080fd5b6108de61204b565b604051808273ffffffffffffffffffffffffffffffffffffffff1673ffffffffffffffffffffffffffffffffffffffff16815260200191505060405180910390f35b341561092b57600080fd5b610a01600480803590602001908201803590602001908080601f0160208091040260200160405190810160405280939291908181526020018383808284378201915050505050509190803590602001908201803590602001908080601f0160208091040260200160405190810160405280939291908181526020018383808284378201915050505050509190803590602001908201803590602001908080601f01602080910402602001604051908101604052809392919081815260200183838082843782019150505050505091905050612070565b005b3415610a0e57600080fd5b610b6a600480803590602001908201803590602001908080601f0160208091040260200160405190810160405280939291908181526020018383808284378201915050505050509190803590602001908201803590602001908080601f0160208091040260200160405190810160405280939291908181526020018383808284378201915050505050509190803590602001908201803590602001908080601f0160208091040260200160405190810160405280939291908181526020018383808284378201915050505050509190803590602001908201803590602001908080601f0160208091040260200160405190810160405280939291908181526020018383808284378201915050505050509190803590602001908201803590602001908080601f016020809104026020016040519081016040528093929190818152602001838380828437820191505050505050919050506123e2565b005b3415610b7757600080fd5b610b7f6125a5565b6040518080602001806020018060200180602001858103855289818151815260200191508051906020019060200280838360005b83811015610bce578082015181840152602081019050610bb3565b50505050905001858103845288818151815260200191508051906020019060200280838360005b83811015610c10578082015181840152602081019050610bf5565b50505050905001858103835287818151815260200191508051906020019060200280838360005b83811015610c52578082015181840152602081019050610c37565b50505050905001858103825286818151815260200191508051906020019060200280838360005b83811015610c94578082015181840152602081019050610c79565b505050509050019850505050505050505060405180910390f35b3415610cb957600080fd5b610cc16127f2565b6040518080602001828103825283818151815260200191508051906020019060200280838360005b83811015610d04578082015181840152602081019050610ce9565b505050509050019250505060405180910390f35b3415610d2357600080fd5b610d4f600480803573ffffffffffffffffffffffffffffffffffffffff169060200190919050506128af565b6040518082815260200191505060405180910390f35b3415610d7057600080fd5b610d866004808035906020019091905050612945565b60405180856000191660001916815260200184600019166000191681526020018315151515815260200182815260200194505050505060405180910390f35b3415610dd057600080fd5b610e20600480803590602001908201803590602001908080601f01602080910402602001604051908101604052809392919081815260200183838082843782019150505050505091905050612991565b6040518084600019166000191681526020018360001916600019168152602001828152602001935050505060405180910390f35b610fb0600480803590602001908201803590602001908080601f0160208091040260200160405190810160405280939291908181526020018383808284378201915050505050509190803590602001908201803590602001908080601f0160208091040260200160405190810160405280939291908181526020018383808284378201915050505050509190803590602001908201803590602001908080601f0160208091040260200160405190810160405280939291908181526020018383808284378201915050505050509190803590602001908201803590602001908080601f0160208091040260200160405190810160405280939291908181526020018383808284378201915050505050509190803590602001908201803590602001908080601f01602080910402602001604051908101604052809392919081815260200183838082843782019150505050505091905050612a6f565b005b3415610fbd57600080fd5b610fe9600480803573ffffffffffffffffffffffffffffffffffffffff16906020019091905050612c05565b005b6000806000806000806004600061100189612d5a565b60001916600019168152602001908152602001600020549050600060038281548110151561102b57fe5b906000526020600020905050602060ff1611151561104857600080fd5b6003805490508110151561105b57600080fd5b60038181548110151561106a57fe5b90600052602060002090600402016000015460038281548110151561108b57fe5b9060005260206000209060040201600101546003838154811015156110ac57fe5b9060005260206000209060040201600201546003848154811015156110cd57fe5b906000526020600020906004020160030160009054906101000a900460ff1684955095509550955095505091939590929450565b600080600560003373ffffffffffffffffffffffffffffffffffffffff1673ffffffffffffffffffffffffffffffffffffffff1681526020019081526020016000205411151561115057600080fd5b600560003373ffffffffffffffffffffffffffffffffffffffff1673ffffffffffffffffffffffffffffffffffffffff16815260200190815260200160002054905090565b600080600860003373ffffffffffffffffffffffffffffffffffffffff1673ffffffffffffffffffffffffffffffffffffffff16815260200190815260200160002054905060016006828154811015156111eb57fe5b906000526020600020905050602060ff1611151561120857600080fd5b600860003373ffffffffffffffffffffffffffffffffffffffff1673ffffffffffffffffffffffffffffffffffffffff168152602001908152602001600020549150600160068381548110151561125b57fe5b906000526020600020905050602060ff1611151561127857600080fd5b600060068381548110151561128957fe5b906000526020600020906004020160030160006101000a81548160ff0219169083151502179055505050565b6000806000806000600860008773ffffffffffffffffffffffffffffffffffffffff1673ffffffffffffffffffffffffffffffffffffffff168152602001908152602001600020549050600160068281548110151561131057fe5b906000526020600020905050602060ff1611151561132d57600080fd5b60068181548110151561133c57fe5b90600052602060002090600402016000015460068281548110151561135d57fe5b90600052602060002090600402016001015460068381548110151561137e57fe5b90600052602060002090600402016002015460068481548110151561139f57fe5b906000526020600020906004020160030160009054906101000a900460ff169450945094509450509193509193565b6000806000600260006113e088612d5a565b600019166000191681526020019081526020016000205414151561140357600080fd5b60009050600180805480600101828161141c919061312d565b916000526020600020906004020160006080604051908101604052806114418b612d5a565b6000191681526020016114538a612d5a565b600019168152602001600115158152602001888152509091909150600082015181600001906000191690556020820151816001019060001916905560408201518160020160006101000a81548160ff02191690831515021790555060608201518160030155505003905080600260006114cb88612d5a565b6000191660001916815260200190815260200160002081905550809150509392505050565b6000809054906101000a900473ffffffffffffffffffffffffffffffffffffffff1673ffffffffffffffffffffffffffffffffffffffff163373ffffffffffffffffffffffffffffffffffffffff1614151561154b57600080fd5b60003073ffffffffffffffffffffffffffffffffffffffff163111151561157157600080fd5b60008111151561158057600080fd5b803073ffffffffffffffffffffffffffffffffffffffff1631101515156115a657600080fd5b3373ffffffffffffffffffffffffffffffffffffffff166108fc829081150290604051600060405180830381858888f1935050505015156115e657600080fd5b7f884edad9ce6fa2440d8a54cc123490eb96d2768479d49ff9c7366125a94243643382604051808373ffffffffffffffffffffffffffffffffffffffff1673ffffffffffffffffffffffffffffffffffffffff1681526020018281526020019250505060405180910390a17fe8d947d7ebdd7b8b8fa2ad2022c7591418ac32d8c29c5f8a8fc9de52ffa540923073ffffffffffffffffffffffffffffffffffffffff16316040518082815260200191505060405180910390a150565b6003818154811015156116b157fe5b90600052602060002090600402016000915090508060000154908060010154908060020154908060030160009054906101000a900460ff16905084565b60008060008060008061170087612d8b565b11151561170c57600080fd5b6007600061171988612d5a565b60001916600019168152602001908152602001600020549050600160068281548110151561174357fe5b906000526020600020905050602060ff1611151561176057600080fd5b60068181548110151561176f57fe5b90600052602060002090600402016000015460068281548110151561179057fe5b9060005260206000209060040201600101546006838154811015156117b157fe5b9060005260206000209060040201600201546006848154811015156117d257fe5b906000526020600020906004020160030160009054906101000a900460ff169450945094509450509193509193565b60068181548110151561181057fe5b90600052602060002090600402016000915090508060000154908060010154908060020154908060030160009054906101000a900460ff16905084565b60008060006001805490508410151561186557600080fd5b60018481548110151561187457fe5b90600052602060002090600402016000015460018581548110151561189557fe5b9060005260206000209060040201600101546001868154811015156118b657fe5b9060005260206000209060040201600301549250925092509193909250565b600080600560003373ffffffffffffffffffffffffffffffffffffffff1673ffffffffffffffffffffffffffffffffffffffff168152602001908152602001600020549050600160038281548110151561192b57fe5b906000526020600020905050602060ff1611151561194857600080fd5b6000600560003373ffffffffffffffffffffffffffffffffffffffff1673ffffffffffffffffffffffffffffffffffffffff1681526020019081526020016000205411151561199657600080fd5b61199f336128af565b91506119aa85612d5a565b6003838154811015156119b957fe5b906000526020600020906004020160000181600019169055506119db84612d5a565b6003838154811015156119ea57fe5b90600052602060002090600402016001018160001916905550611a0c83612d5a565b600383815481101515611a1b57fe5b906000526020600020906004020160020181600019169055508160046000611a4286612d5a565b60001916600019168152602001908152602001600020819055507fd3923f0b3b1cec0036b68d0c3f17abc063fe21182d951342a1300cd3f98564dd8286868633604051808681526020018060200180602001806020018573ffffffffffffffffffffffffffffffffffffffff1673ffffffffffffffffffffffffffffffffffffffff168152602001848103845288818151815260200191508051906020019080838360005b83811015611b02578082015181840152602081019050611ae7565b50505050905090810190601f168015611b2f5780820380516001836020036101000a031916815260200191505b50848103835287818151815260200191508051906020019080838360005b83811015611b68578082015181840152602081019050611b4d565b50505050905090810190601f168015611b955780820380516001836020036101000a031916815260200191505b50848103825286818151815260200191508051906020019080838360005b83811015611bce578082015181840152602081019050611bb3565b50505050905090810190601f168015611bfb5780820380516001836020036101000a031916815260200191505b509850505050505050505060405180910390a15050505050565b600080600080600080600560008873ffffffffffffffffffffffffffffffffffffffff1673ffffffffffffffffffffffffffffffffffffffff1681526020019081526020016000205490506000600382815481101515611c7157fe5b906000526020600020905050602060ff16111515611c8e57600080fd5b60038054905081101515611ca157600080fd5b600381815481101515611cb057fe5b906000526020600020906004020160000154600382815481101515611cd157fe5b906000526020600020906004020160010154600383815481101515611cf257fe5b906000526020600020906004020160020154600384815481101515611d1357fe5b906000526020600020906004020160030160009054906101000a900460ff1684955095509550955095505091939590929450565b600080600080600060038054905086101515611d6257600080fd5b600386815481101515611d7157fe5b906000526020600020906004020160000154600387815481101515611d9257fe5b906000526020600020906004020160010154600388815481101515611db357fe5b906000526020600020906004020160020154600389815481101515611dd457fe5b906000526020600020906004020160030160009054906101000a900460ff16899450945094509450945091939590929450565b60008060009054906101000a900473ffffffffffffffffffffffffffffffffffffffff1673ffffffffffffffffffffffffffffffffffffffff163373ffffffffffffffffffffffffffffffffffffffff16141515611e6457600080fd5b3073ffffffffffffffffffffffffffffffffffffffff1631905090565b600080600860003373ffffffffffffffffffffffffffffffffffffffff1673ffffffffffffffffffffffffffffffffffffffff1681526020019081526020016000205490506001600682815481101515611ed757fe5b906000526020600020905050602060ff16111515611ef457600080fd5b600860003373ffffffffffffffffffffffffffffffffffffffff1673ffffffffffffffffffffffffffffffffffffffff1681526020019081526020016000205491506001600683815481101515611f4757fe5b906000526020600020905050602060ff16111515611f6457600080fd5b6001600683815481101515611f7557fe5b906000526020600020906004020160030160006101000a81548160ff0219169083151502179055505050565b600060046000611fb084612d5a565b60001916600019168152602001908152602001600020549050919050565b6000809054906101000a900473ffffffffffffffffffffffffffffffffffffffff1673ffffffffffffffffffffffffffffffffffffffff163373ffffffffffffffffffffffffffffffffffffffff1614151561202957600080fd5b6120493073ffffffffffffffffffffffffffffffffffffffff16316114f0565b565b6000809054906101000a900473ffffffffffffffffffffffffffffffffffffffff1681565b6000806004600061208085612d5a565b60001916600019168152602001908152602001600020541415156120a357600080fd5b6000600560003373ffffffffffffffffffffffffffffffffffffffff1673ffffffffffffffffffffffffffffffffffffffff168152602001908152602001600020541415156120f157600080fd5b6000905060016003805480600101828161210b919061315f565b916000526020600020906004020160006080604051908101604052806121308a612d5a565b60001916815260200161214289612d5a565b60001916815260200161215488612d5a565b60001916815260200160011515815250909190915060008201518160000190600019169055602082015181600101906000191690556040820151816002019060001916905560608201518160030160006101000a81548160ff021916908315150217905550505003905080600460006121cc85612d5a565b600019166000191681526020019081526020016000208190555080600560003373ffffffffffffffffffffffffffffffffffffffff1673ffffffffffffffffffffffffffffffffffffffff168152602001908152602001600020819055507f023a8bc2c2a7585292c8d76a6c38d4001ebdb3df730965277bc4d0e94f2647518185858533604051808681526020018060200180602001806020018573ffffffffffffffffffffffffffffffffffffffff1673ffffffffffffffffffffffffffffffffffffffff168152602001848103845288818151815260200191508051906020019080838360005b838110156122d05780820151818401526020810190506122b5565b50505050905090810190601f1680156122fd5780820380516001836020036101000a031916815260200191505b50848103835287818151815260200191508051906020019080838360005b8381101561233657808201518184015260208101905061231b565b50505050905090810190601f1680156123635780820380516001836020036101000a031916815260200191505b50848103825286818151815260200191508051906020019080838360005b8381101561239c578082015181840152602081019050612381565b50505050905090810190601f1680156123c95780820380516001836020036101000a031916815260200191505b509850505050505050505060405180910390a150505050565b600080600860003373ffffffffffffffffffffffffffffffffffffffff1673ffffffffffffffffffffffffffffffffffffffff168152602001908152602001600020549050600160068281548110151561243857fe5b906000526020600020905050602060ff1611151561245557600080fd5b600860003373ffffffffffffffffffffffffffffffffffffffff1673ffffffffffffffffffffffffffffffffffffffff16815260200190815260200160002054915060016006838154811015156124a857fe5b906000526020600020905050602060ff161115156124c557600080fd5b6124ce87612d5a565b6006838154811015156124dd57fe5b906000526020600020906004020160000181600019169055506124ff86612d5a565b60068381548110151561250e57fe5b9060005260206000209060040201600101816000191690555061253083612d5a565b60068381548110151561253f57fe5b90600052602060002090600402016002018160001916905550600160068381548110151561256957fe5b906000526020600020906004020160030160006101000a81548160ff02191690831515021790555061259c8585856118d5565b50505050505050565b6125ad613191565b6125b5613191565b6125bd613191565b6125c56131a5565b6125cd613191565b6125d5613191565b6125dd613191565b6125e56131a5565b600080600380549050101515156125fb57600080fd5b60038054905060405180591061260e5750595b908082528060200260200182016040525094506003805490506040518059106126345750595b9080825280602002602001820160405250935060038054905060405180591061265a5750595b908082528060200260200182016040525092506003805490506040518059106126805750595b90808252806020026020018201604052509150600090505b600160038054905003811115156127db576003818154811015156126b857fe5b90600052602060002090600402016000015485828151811015156126d857fe5b9060200190602002019060001916908160001916815250506003818154811015156126ff57fe5b906000526020600020906004020160010154848281518110151561271f57fe5b90602001906020020190600019169081600019168152505060038181548110151561274657fe5b906000526020600020906004020160020154838281518110151561276657fe5b90602001906020020190600019169081600019168152505060038181548110151561278d57fe5b906000526020600020906004020160030160009054906101000a900460ff1682828151811015156127ba57fe5b90602001906020020190151590811515815250508080600101915050612698565b848484849850985098509850505050505090919293565b6127fa613191565b612802613191565b6000806001805490501015151561281857600080fd5b60018054905060405180591061282b5750595b90808252806020026020018201604052509150600090505b6001808054905003811115156128a75760018181548110151561286257fe5b906000526020600020906004020160000154828281518110151561288257fe5b9060200190602002019060001916908160001916815250508080600101915050612843565b819250505090565b600080600560008473ffffffffffffffffffffffffffffffffffffffff1673ffffffffffffffffffffffffffffffffffffffff168152602001908152602001600020541115156128fe57600080fd5b600560008373ffffffffffffffffffffffffffffffffffffffff1673ffffffffffffffffffffffffffffffffffffffff168152602001908152602001600020549050919050565b60018181548110151561295457fe5b90600052602060002090600402016000915090508060000154908060010154908060020160009054906101000a900460ff16908060030154905084565b600080600080600260006129a487612d5a565b6000191660001916815260200190815260200160002054905060006001828154811015156129ce57fe5b906000526020600020905050602060ff161115156129eb57600080fd5b600180549050811015156129fe57600080fd5b600181815481101515612a0d57fe5b906000526020600020906004020160000154600182815481101515612a2e57fe5b906000526020600020906004020160010154600183815481101515612a4f57fe5b906000526020600020906004020160030154935093509350509193909250565b600080612a7b87612d8b565b111515612a8757600080fd5b600060076000612a9689612d5a565b6000191660001916815260200190815260200160002054141515612ab957600080fd5b60009050600160068054806001018281612ad391906131b9565b91600052602060002090600402016000608060405190810160405280612af88c612d5a565b600019168152602001612b0a8b612d5a565b600019168152602001612b1c88612d5a565b60001916815260200160011515815250909190915060008201518160000190600019169055602082015181600101906000191690556040820151816002019060001916905560608201518160030160006101000a81548160ff02191690831515021790555050500390508060076000612b9489612d5a565b600019166000191681526020019081526020016000208190555080600860003373ffffffffffffffffffffffffffffffffffffffff1673ffffffffffffffffffffffffffffffffffffffff16815260200190815260200160002081905550612bfd8484846118d5565b505050505050565b6000809054906101000a900473ffffffffffffffffffffffffffffffffffffffff1673ffffffffffffffffffffffffffffffffffffffff163373ffffffffffffffffffffffffffffffffffffffff16141515612c6057600080fd5b600073ffffffffffffffffffffffffffffffffffffffff168173ffffffffffffffffffffffffffffffffffffffff1614151515612c9c57600080fd5b8073ffffffffffffffffffffffffffffffffffffffff166000809054906101000a900473ffffffffffffffffffffffffffffffffffffffff1673ffffffffffffffffffffffffffffffffffffffff167f8be0079c531659141344cd1fd0a4f28419497f9722a3daafe3b4186f6b6457e060405160405180910390a3806000806101000a81548173ffffffffffffffffffffffffffffffffffffffff021916908373ffffffffffffffffffffffffffffffffffffffff16021790555050565b6000612d646131eb565b829050600081511415612d7d5760006001029150612d85565b602083015191505b50919050565b600080612d966131eb565b600091508390505b80518210156131265760007f01000000000000000000000000000000000000000000000000000000000000000260078284815181101515612ddb57fe5b9060200101517f010000000000000000000000000000000000000000000000000000000000000090047f0100000000000000000000000000000000000000000000000000000000000000027effffffffffffffffffffffffffffffffffffffffffffffffffffffffffffff19169060020a90047effffffffffffffffffffffffffffffffffffffffffffffffffffffffffffff19161415612e8157600182019150613119565b60067f01000000000000000000000000000000000000000000000000000000000000000260058284815181101515612eb557fe5b9060200101517f010000000000000000000000000000000000000000000000000000000000000090047f0100000000000000000000000000000000000000000000000000000000000000027effffffffffffffffffffffffffffffffffffffffffffffffffffffffffffff19169060020a90047effffffffffffffffffffffffffffffffffffffffffffffffffffffffffffff19161415612f5b57600282019150613118565b600e7f01000000000000000000000000000000000000000000000000000000000000000260048284815181101515612f8f57fe5b9060200101517f010000000000000000000000000000000000000000000000000000000000000090047f0100000000000000000000000000000000000000000000000000000000000000027effffffffffffffffffffffffffffffffffffffffffffffffffffffffffffff19169060020a90047effffffffffffffffffffffffffffffffffffffffffffffffffffffffffffff1916141561303557600382019150613117565b601e7f0100000000000000000000000000000000000000000000000000000000000000026003828481518110151561306957fe5b9060200101517f010000000000000000000000000000000000000000000000000000000000000090047f0100000000000000000000000000000000000000000000000000000000000000027effffffffffffffffffffffffffffffffffffffffffffffffffffffffffffff19169060020a90047effffffffffffffffffffffffffffffffffffffffffffffffffffffffffffff1916141561310f57600482019150613116565b6001820191505b5b5b5b8280600101935050612d9e565b5050919050565b81548183558181151161315a5760040281600402836000526020600020918201910161315991906131ff565b5b505050565b81548183558181151161318c5760040281600402836000526020600020918201910161318b919061324a565b5b505050565b602060405190810160405280600081525090565b602060405190810160405280600081525090565b8154818355818115116131e6576004028160040283600052602060002091820191016131e59190613295565b5b505050565b602060405190810160405280600081525090565b61324791905b808211156132435760008082016000905560018201600090556002820160006101000a81549060ff0219169055600382016000905550600401613205565b5090565b90565b61329291905b8082111561328e57600080820160009055600182016000905560028201600090556003820160006101000a81549060ff021916905550600401613250565b5090565b90565b6132dd91905b808211156132d957600080820160009055600182016000905560028201600090556003820160006101000a81549060ff02191690555060040161329b565b5090565b905600a165627a7a72305820d70a14f5cae278c3328d69c816877579ece384d698466ae69ef2119443b3bb160029",
  "source": "pragma solidity ^0.4.19;\r\n\r\nimport \"./Ownable.sol\";\r\nimport \"./Credentials.sol\";\r\nimport \"./Users.sol\";\r\n\r\ncontract MicroCredential is Ownable,Credentials,Users {\r\n\r\n    // Events\r\n    event Deposit(address _from, uint value);\r\n    event Withdraw(address _to, uint _amount);\r\n    event Balance(uint _remainingBalance);\r\n\r\n    //  Make sure the address resolves a valid contract\r\n    modifier onlyAgencyOwner() {\r\n        uint id = agencyIdByAddress[msg.sender];\r\n        require(agencies[id].agencyName.length > 1);\r\n        _;\r\n    }\r\n\r\n    // variables and such\r\n    struct Agency {\r\n        bytes32 agencyName;\r\n        bytes32 website;\r\n        bytes32 email;\r\n        bool isActive;\r\n    }\r\n\r\n    // Mappings and Variables\r\n    Agency[] public agencies;\r\n    mapping(bytes32 => uint) internal agencyIdByName;\r\n    mapping(address => uint) internal agencyIdByAddress;\r\n\r\n    // What would I do in a constructor.  \r\n    // Still don't have a good purpose for this.\r\n\r\n    // Purpose  : Fallback Function\r\n    function() public payable {\r\n        if (msg.value > 0) {\r\n            emit Deposit(msg.sender, msg.value);\r\n            emit Balance(address(this).balance);\r\n        }\r\n    }\r\n\r\n    // Purpose  : For the owner to withdraw some funds.\r\n    function withdraw(uint _amount) public onlyOwner {\r\n        require(address(this).balance > 0);\r\n        require(_amount > 0);\r\n        require(address(this).balance >= _amount);\r\n        address(msg.sender).transfer(_amount);\r\n        emit Withdraw(msg.sender, _amount);\r\n        emit Balance(address(this).balance);\r\n    }\r\n\r\n    // Purpose  : Set the agency basic info.  Can only by done by the agency owner \r\n    function updateAgencyInfo(string _agencyName, string _website, string _firstName, string _lastName, string _email) \r\n        public onlyAgencyOwner {\r\n        //require(_agencyName.length > 0);\r\n        uint id = agencyIdByAddress[msg.sender];\r\n        require(agencies[id].agencyName.length > 1);\r\n        \r\n        agencies[id].agencyName = stringToBytes32(_agencyName);\r\n        agencies[id].website = stringToBytes32(_website);\r\n        agencies[id].email = stringToBytes32(_email);\r\n        agencies[id].isActive = true;\r\n\r\n        updateUser(_firstName, _lastName, _email);\r\n    }\r\n\r\n    // Purpose  : Need an 'iniitalize' because the first time, because it's public and payable.\r\n    //          : It needs to be payable or people will create these willy nilly.\r\n    function registerAgency(string _agencyName, string _website, string _firstName, string _lastName, string _email) \r\n        public payable { \r\n        require(utfStringLength(_agencyName) > 0);\r\n        require(agencyIdByName[stringToBytes32(_agencyName)] == 0);\r\n        uint id = 0;\r\n        id = agencies.push(Agency(stringToBytes32(_agencyName), stringToBytes32(_website),stringToBytes32(_email),true))-1;\r\n        agencyIdByName[stringToBytes32(_agencyName)] = id;\r\n        agencyIdByAddress[msg.sender] = id;\r\n        \r\n        updateUser(_firstName, _lastName, _email);\r\n    }\r\n\r\n    // Purpose  : Get the agency basic info\r\n    function getAgencyInfo(string _agencyName) view public returns (bytes32, bytes32, bytes32, bool) {\r\n        require(utfStringLength(_agencyName) > 0);\r\n        uint id = agencyIdByName[stringToBytes32(_agencyName)];\r\n        require(agencies[id].agencyName.length > 1);\r\n        return (agencies[id].agencyName, agencies[id].website, agencies[id].email,agencies[id].isActive);\r\n    }\r\n\r\n    // Purpose  : Get the agency basic info\r\n    function getAgencyInfoByAddress(address _address) view public returns (bytes32, bytes32, bytes32, bool) {\r\n        uint id = agencyIdByAddress[_address];\r\n        require(agencies[id].agencyName.length > 1);\r\n        return (agencies[id].agencyName, agencies[id].website, agencies[id].email,agencies[id].isActive);\r\n    }\r\n\r\n    // Purpose  : To Make the contract inactive and return funds to owner\r\n    function setAgencyInactive() public onlyAgencyOwner {\r\n        uint id = agencyIdByAddress[msg.sender];\r\n        require(agencies[id].agencyName.length > 1);\r\n        agencies[id].isActive = false;\r\n    }\r\n\r\n    // Purpose  : Used when an agency becomes active again\r\n    // To Do    : This will probably have to clear some queues, \r\n    //            reset credential statii, etc.\r\n    function setAgencyActive() public onlyAgencyOwner {\r\n        uint id = agencyIdByAddress[msg.sender];\r\n        require(agencies[id].agencyName.length > 1);\r\n        agencies[id].isActive = true;\r\n    }\r\n\r\n    // Purpose  : Get the contract balance\r\n    function getContractBalance() public onlyOwner view returns (uint) {\r\n        return address(this).balance;\r\n    }\r\n\r\n    // Purpsoe  : Owners with draw all pirl from contract.  Shutting contract down.\r\n    function destroy() public onlyOwner {\r\n        withdraw(address(this).balance);\r\n    }\r\n\r\n}",
  "sourcePath": "D:\\GitHub\\pirl-project01\\truffle\\contracts\\MicroCredential.sol",
  "compiler": {
    "name": "solc",
    "version": "0.4.21+commit.dfe3193c.Emscripten.clang"
  },
  "schemaVersion": "2.0.0",
  "updatedAt": "2018-05-15T02:01:10.233Z"
}