{
  "contractName": "UserSubmissions",
  "abi": [
    {
      "constant": true,
      "inputs": [
        {
          "name": "",
          "type": "uint256"
        }
      ],
      "name": "submissions",
      "outputs": [
        {
          "name": "userId",
          "type": "uint256"
        },
        {
          "name": "agencyId",
          "type": "uint256"
        },
        {
          "name": "credentialId",
          "type": "uint256"
        },
        {
          "name": "fileIds",
          "type": "bytes32"
        },
        {
          "name": "status",
          "type": "bytes32"
        }
      ],
      "payable": false,
      "stateMutability": "view",
      "type": "function"
    },
    {
      "anonymous": false,
      "inputs": [
        {
          "indexed": false,
          "name": "userSubmissionId",
          "type": "uint256"
        },
        {
          "indexed": false,
          "name": "userId",
          "type": "uint256"
        },
        {
          "indexed": false,
          "name": "agencyId",
          "type": "uint256"
        },
        {
          "indexed": false,
          "name": "credentialId",
          "type": "uint256"
        },
        {
          "indexed": false,
          "name": "fileIds",
          "type": "string"
        },
        {
          "indexed": false,
          "name": "status",
          "type": "string"
        }
      ],
      "name": "NewSubmission",
      "type": "event"
    },
    {
      "anonymous": false,
      "inputs": [
        {
          "indexed": false,
          "name": "userSubmissionId",
          "type": "uint256"
        },
        {
          "indexed": false,
          "name": "userId",
          "type": "uint256"
        },
        {
          "indexed": false,
          "name": "agencyId",
          "type": "uint256"
        },
        {
          "indexed": false,
          "name": "credentialId",
          "type": "uint256"
        },
        {
          "indexed": false,
          "name": "fileIds",
          "type": "string"
        },
        {
          "indexed": false,
          "name": "status",
          "type": "string"
        }
      ],
      "name": "UpdateSubmission",
      "type": "event"
    },
    {
      "constant": false,
      "inputs": [
        {
          "name": "_userId",
          "type": "uint256"
        },
        {
          "name": "_agencyId",
          "type": "uint256"
        },
        {
          "name": "_credentialId",
          "type": "uint256"
        },
        {
          "name": "_fileIds",
          "type": "string"
        },
        {
          "name": "_status",
          "type": "string"
        }
      ],
      "name": "addSubmission",
      "outputs": [],
      "payable": true,
      "stateMutability": "payable",
      "type": "function"
    },
    {
      "constant": false,
      "inputs": [
        {
          "name": "_submissionId",
          "type": "uint256"
        },
        {
          "name": "_status",
          "type": "string"
        }
      ],
      "name": "updateStatus",
      "outputs": [],
      "payable": false,
      "stateMutability": "nonpayable",
      "type": "function"
    },
    {
      "constant": false,
      "inputs": [
        {
          "name": "_submissionId",
          "type": "uint256"
        },
        {
          "name": "_fileIds",
          "type": "string"
        }
      ],
      "name": "updateFileIds",
      "outputs": [],
      "payable": false,
      "stateMutability": "nonpayable",
      "type": "function"
    },
    {
      "constant": true,
      "inputs": [
        {
          "name": "_submissionId",
          "type": "uint256"
        }
      ],
      "name": "getSubmissionById",
      "outputs": [
        {
          "name": "",
          "type": "uint256"
        },
        {
          "name": "",
          "type": "uint256"
        },
        {
          "name": "",
          "type": "uint256"
        },
        {
          "name": "",
          "type": "bytes32"
        },
        {
          "name": "",
          "type": "bytes32"
        }
      ],
      "payable": false,
      "stateMutability": "view",
      "type": "function"
    },
    {
      "constant": true,
      "inputs": [
        {
          "name": "_agencyId",
          "type": "uint256"
        }
      ],
      "name": "getSubmissionListByAgencyId",
      "outputs": [
        {
          "name": "",
          "type": "bytes32[]"
        },
        {
          "name": "",
          "type": "uint256[]"
        }
      ],
      "payable": false,
      "stateMutability": "view",
      "type": "function"
    },
    {
      "constant": true,
      "inputs": [
        {
          "name": "_userId",
          "type": "uint256"
        }
      ],
      "name": "getSubmissionListByUserId",
      "outputs": [
        {
          "name": "",
          "type": "bytes32[]"
        },
        {
          "name": "",
          "type": "uint256[]"
        }
      ],
      "payable": false,
      "stateMutability": "view",
      "type": "function"
    }
  ],
  "bytecode": "0x608060405234801561001057600080fd5b5061154b806100206000396000f300608060405260043610610083576000357c0100000000000000000000000000000000000000000000000000000000900463ffffffff1680632c0046b31461008857806355d97239146100f5578063916b23e214610168578063997339f914610232578063a0c8506b146102f2578063ad73349e146103bc578063d1b34dd814610429575b600080fd5b34801561009457600080fd5b506100b36004803603810190808035906020019092919050505061049c565b60405180868152602001858152602001848152602001836000191660001916815260200182600019166000191681526020019550505050505060405180910390f35b34801561010157600080fd5b5061016660048036038101908080359060200190929190803590602001908201803590602001908080601f016020809104026020016040519081016040528093929190818152602001838380828437820191505050505050919291929050505061056e565b005b34801561017457600080fd5b50610193600480360381019080803590602001909291905050506107a8565b604051808060200180602001838103835285818151815260200191508051906020019060200280838360005b838110156101da5780820151818401526020810190506101bf565b50505050905001838103825284818151815260200191508051906020019060200280838360005b8381101561021c578082015181840152602081019050610201565b5050505090500194505050505060405180910390f35b6102f0600480360381019080803590602001909291908035906020019092919080359060200190929190803590602001908201803590602001908080601f0160208091040260200160405190810160405280939291908181526020018383808284378201915050505050509192919290803590602001908201803590602001908080601f0160208091040260200160405190810160405280939291908181526020018383808284378201915050505050509192919290505050610904565b005b3480156102fe57600080fd5b5061031d60048036038101908080359060200190929190505050610bc6565b604051808060200180602001838103835285818151815260200191508051906020019060200280838360005b83811015610364578082015181840152602081019050610349565b50505050905001838103825284818151815260200191508051906020019060200280838360005b838110156103a657808201518184015260208101905061038b565b5050505090500194505050505060405180910390f35b3480156103c857600080fd5b506103e760048036038101908080359060200190929190505050610d22565b60405180868152602001858152602001848152602001836000191660001916815260200182600019166000191681526020019550505050505060405180910390f35b34801561043557600080fd5b5061049a60048036038101908080359060200190929190803590602001908201803590602001908080601f0160208091040260200160405190810160405280939291908181526020018383808284378201915050505050509192919290505050610d67565b005b60008060008060008080549050861015156104b657600080fd5b6000868154811015156104c557fe5b9060005260206000209060050201600001546000878154811015156104e657fe5b90600052602060002090600502016001015460008881548110151561050757fe5b90600052602060002090600502016002015460008981548110151561052857fe5b90600052602060002090600502016003015460008a81548110151561054957fe5b9060005260206000209060050201600401549450945094509450945091939590929450565b600061057982610f5c565b11151561058557600080fd5b60008211151561059457600080fd5b600080838154811015156105a457fe5b9060005260206000209060050201600001541115156105c257600080fd5b6105cb816112f8565b6000838154811015156105da57fe5b906000526020600020906005020160030181600019169055507ffac2492c829bca1a059223f5ece30366ee475cbed25366f6cd085036a20b3abd8260008481548110151561062457fe5b90600052602060002090600502016000015460008581548110151561064557fe5b90600052602060002090600502016001015460008681548110151561066657fe5b906000526020600020906005020160020154856106a260008981548110151561068b57fe5b906000526020600020906005020160040154611323565b604051808781526020018681526020018581526020018481526020018060200180602001838103835285818151815260200191508051906020019080838360005b838110156106fe5780820151818401526020810190506106e3565b50505050905090810190601f16801561072b5780820380516001836020036101000a031916815260200191505b50838103825284818151815260200191508051906020019080838360005b83811015610764578082015181840152602081019050610749565b50505050905090810190601f1680156107915780820380516001836020036101000a031916815260200191505b509850505050505050505060405180910390a15050565b60608060608060008060016000888152602001908152602001600020546040519080825280602002602001820160405280156107f35781602001602082028038833980820191505090505b50935060016000888152602001908152602001600020546040519080825280602002602001820160405280156108385781602001602082028038833980820191505090505b50925060009150600090505b600160008054905003811115156108f5578660008281548110151561086557fe5b90600052602060002090600502016000015414156108e85760008181548110151561088c57fe5b90600052602060002090600502016004015484838151811015156108ac57fe5b9060200190602002019060001916908160001916815250508083838151811015156108d357fe5b90602001906020020181815250506001820191505b8080600101915050610844565b83839550955050505050915091565b6000808511151561091457600080fd5b60008611151561092357600080fd5b60008411151561093257600080fd5b6001600060a06040519081016040528089815260200188815260200187815260200161095d876112f8565b60001916815260200161096f866112f8565b6000191681525090806001815401808255809150509060018203906000526020600020906005020160009091929091909150600082015181600001556020820151816001015560408201518160020155606082015181600301906000191690556080820151816004019060001916905550505050600160008054905003905060018060008881526020019081526020016000206000828254019250508190556001600088815260200190815260200160002081905550600160026000878152602001908152602001600020600082825401925050819055600260008781526020019081526020016000208190555060016003600086815260200190815260200160002060008282540192505081905560036000868152602001908152602001600020819055507fe2ef8cb20df168cc7b9490eb9369f70e2e8786b1c20da582d4796b8b7882883e818787878787604051808781526020018681526020018581526020018481526020018060200180602001838103835285818151815260200191508051906020019080838360005b83811015610b18578082015181840152602081019050610afd565b50505050905090810190601f168015610b455780820380516001836020036101000a031916815260200191505b50838103825284818151815260200191508051906020019080838360005b83811015610b7e578082015181840152602081019050610b63565b50505050905090810190601f168015610bab5780820380516001836020036101000a031916815260200191505b509850505050505050505060405180910390a1505050505050565b6060806060806000806002600088815260200190815260200160002054604051908082528060200260200182016040528015610c115781602001602082028038833980820191505090505b5093506002600088815260200190815260200160002054604051908082528060200260200182016040528015610c565781602001602082028038833980820191505090505b50925060009150600090505b60016000805490500381111515610d135786600082815481101515610c8357fe5b9060005260206000209060050201600101541415610d0657600081815481101515610caa57fe5b9060005260206000209060050201600401548483815181101515610cca57fe5b906020019060200201906000191690816000191681525050808383815181101515610cf157fe5b90602001906020020181815250506001820191505b8080600101915050610c62565b83839550955050505050915091565b600081815481101515610d3157fe5b90600052602060002090600502016000915090508060000154908060010154908060020154908060030154908060040154905085565b600082111515610d7657600080fd5b610d7f816112f8565b600083815481101515610d8e57fe5b906000526020600020906005020160040181600019169055507ffac2492c829bca1a059223f5ece30366ee475cbed25366f6cd085036a20b3abd82600084815481101515610dd857fe5b906000526020600020906005020160000154600085815481101515610df957fe5b906000526020600020906005020160010154600086815481101515610e1a57fe5b906000526020600020906005020160020154610e55600088815481101515610e3e57fe5b906000526020600020906005020160030154611323565b86604051808781526020018681526020018581526020018481526020018060200180602001838103835285818151815260200191508051906020019080838360005b83811015610eb2578082015181840152602081019050610e97565b50505050905090810190601f168015610edf5780820380516001836020036101000a031916815260200191505b50838103825284818151815260200191508051906020019080838360005b83811015610f18578082015181840152602081019050610efd565b50505050905090810190601f168015610f455780820380516001836020036101000a031916815260200191505b509850505050505050505060405180910390a15050565b6000806060600091508390505b80518210156112f15760007f01000000000000000000000000000000000000000000000000000000000000000260078284815181101515610fa657fe5b9060200101517f010000000000000000000000000000000000000000000000000000000000000090047f0100000000000000000000000000000000000000000000000000000000000000027effffffffffffffffffffffffffffffffffffffffffffffffffffffffffffff19169060020a90047effffffffffffffffffffffffffffffffffffffffffffffffffffffffffffff1916141561104c576001820191506112e4565b60067f0100000000000000000000000000000000000000000000000000000000000000026005828481518110151561108057fe5b9060200101517f010000000000000000000000000000000000000000000000000000000000000090047f0100000000000000000000000000000000000000000000000000000000000000027effffffffffffffffffffffffffffffffffffffffffffffffffffffffffffff19169060020a90047effffffffffffffffffffffffffffffffffffffffffffffffffffffffffffff19161415611126576002820191506112e3565b600e7f0100000000000000000000000000000000000000000000000000000000000000026004828481518110151561115a57fe5b9060200101517f010000000000000000000000000000000000000000000000000000000000000090047f0100000000000000000000000000000000000000000000000000000000000000027effffffffffffffffffffffffffffffffffffffffffffffffffffffffffffff19169060020a90047effffffffffffffffffffffffffffffffffffffffffffffffffffffffffffff19161415611200576003820191506112e2565b601e7f0100000000000000000000000000000000000000000000000000000000000000026003828481518110151561123457fe5b9060200101517f010000000000000000000000000000000000000000000000000000000000000090047f0100000000000000000000000000000000000000000000000000000000000000027effffffffffffffffffffffffffffffffffffffffffffffffffffffffffffff19169060020a90047effffffffffffffffffffffffffffffffffffffffffffffffffffffffffffff191614156112da576004820191506112e1565b6001820191505b5b5b5b8280600101935050610f69565b5050919050565b60006060829050600081511415611315576000600102915061131d565b602083015191505b50919050565b6060806000806000606060206040519080825280601f01601f1916602001820160405280156113615781602001602082028038833980820191505090505b50945060009350600092505b602083101561142b578260080260020a876001900402600102915060007f010000000000000000000000000000000000000000000000000000000000000002827effffffffffffffffffffffffffffffffffffffffffffffffffffffffffffff191614151561141e578185858151811015156113e557fe5b9060200101907effffffffffffffffffffffffffffffffffffffffffffffffffffffffffffff1916908160001a90535083806001019450505b828060010193505061136d565b836040519080825280601f01601f19166020018201604052801561145e5781602001602082028038833980820191505090505b509050600092505b8383101561151257848381518110151561147c57fe5b9060200101517f010000000000000000000000000000000000000000000000000000000000000090047f01000000000000000000000000000000000000000000000000000000000000000281848151811015156114d557fe5b9060200101907effffffffffffffffffffffffffffffffffffffffffffffffffffffffffffff1916908160001a9053508280600101935050611466565b80955050505050509190505600a165627a7a72305820e08a173f11618dbb742037ff9d1a126dedb604205709ed877eb97166f5ec7d100029",
  "source": "pragma solidity ^0.4.23;\r\n\r\ncontract UserSubmissions {\r\n\r\n    //Events\r\n    event NewSubmission(\r\n    uint userSubmissionId,\r\n    uint userId, \r\n    uint agencyId,\r\n    uint credentialId,\r\n    string fileIds,\r\n    string status);\r\n\r\n    event UpdateSubmission(\r\n    uint userSubmissionId,\r\n    uint userId, \r\n    uint agencyId,\r\n    uint credentialId,\r\n    string fileIds,\r\n    string status);\r\n\r\n    // Structs\r\n    struct Submission {\r\n        uint userId; \r\n        uint agencyId;\r\n        uint credentialId;\r\n        bytes32 fileIds;\r\n        bytes32 status;\r\n    }\r\n\r\n    Submission[] public submissions;\r\n\r\n    mapping(uint => uint) internal submissionCountByUserId;\r\n    mapping(uint => uint) internal submissionCountByAgencyId;\r\n    mapping(uint => uint) internal submissionCountByCredentialId;\r\n\r\n    // Purpose  : To create a submission.  Files can be attached afterward.\r\n    function addSubmission(\r\n        uint _userId, \r\n        uint _agencyId, \r\n        uint _credentialId, \r\n        string _fileIds,\r\n        string _status) \r\n        public payable {\r\n\r\n        require(_agencyId > 0);\r\n        require(_userId > 0);\r\n        require(_credentialId > 0);\r\n\r\n        submissions.push(Submission(\r\n            _userId,\r\n            _agencyId, \r\n            _credentialId,\r\n            stringToBytes32(_fileIds),\r\n            stringToBytes32(_status)\r\n            ))-1;\r\n\r\n        uint _id = submissions.length-1;\r\n\r\n        submissionCountByUserId[_userId] = submissionCountByUserId[_userId] += 1;\r\n        submissionCountByAgencyId[_agencyId] = submissionCountByAgencyId[_agencyId] += 1;\r\n        submissionCountByCredentialId[_credentialId] = submissionCountByCredentialId[_credentialId] += 1;\r\n\r\n        emit NewSubmission(_id, _userId, _agencyId, _credentialId, _fileIds, _status);\r\n    }\r\n\r\n    // Purpose  : To update a submission. Only files and statuss can be updated\r\n    // To Do    : Put some security on this.\r\n    function updateStatus(\r\n        uint _submissionId, \r\n        string _status) public {\r\n        \r\n        require(_submissionId > 0);\r\n        //require(submissions[submissionId].userId > 0);\r\n\r\n        submissions[_submissionId].status = stringToBytes32(_status);\r\n\r\n        emit UpdateSubmission(\r\n            _submissionId,\r\n            submissions[_submissionId].userId, \r\n            submissions[_submissionId].agencyId, \r\n            submissions[_submissionId].credentialId, \r\n            bytes32ToString(submissions[_submissionId].fileIds),\r\n            _status);\r\n    }\r\n\r\n    // Purpose  : To update a submission. Only files and statuss can be updated\r\n    // To Do    : Put some security on this.\r\n    function updateFileIds(\r\n        uint _submissionId, \r\n        string _fileIds) public {\r\n        require(utfStringLength(_fileIds) > 0);\r\n        require(_submissionId > 0);\r\n        require(submissions[_submissionId].userId > 0);\r\n\r\n        submissions[_submissionId].fileIds = stringToBytes32(_fileIds);\r\n\r\n        emit UpdateSubmission(\r\n            _submissionId,\r\n            submissions[_submissionId].userId, \r\n            submissions[_submissionId].agencyId, \r\n            submissions[_submissionId].credentialId, \r\n            _fileIds, \r\n            bytes32ToString(submissions[_submissionId].status));\r\n    }\r\n\r\n    // Purpose  : To retrieve a credential by the id\r\n    function getSubmissionById(uint _submissionId) public view returns (uint, uint, uint, bytes32, bytes32) {\r\n        require(_submissionId < submissions.length);\r\n        return (submissions[_submissionId].userId, \r\n            submissions[_submissionId].agencyId, \r\n            submissions[_submissionId].credentialId, \r\n            submissions[_submissionId].fileIds, \r\n            submissions[_submissionId].status\r\n        ); \r\n    }\r\n\r\n    function getSubmissionListByAgencyId(uint _agencyId) public view returns (bytes32[],  uint[]) {\r\n        bytes32[] memory  statuses = new bytes32[](submissionCountByAgencyId[_agencyId]);\r\n        uint[] memory  submissionIds = new uint[](submissionCountByAgencyId[_agencyId]);\r\n        uint index = 0;\r\n        for (uint i = 0; i <= submissions.length-1; i++) {\r\n            if (submissions[i].agencyId == _agencyId) {\r\n                statuses[index] = submissions[i].status;\r\n                submissionIds[index] = i;\r\n                index += 1;\r\n            }\r\n        }\r\n        return (statuses, submissionIds);\r\n    }\r\n\r\n    function getSubmissionListByUserId(uint _userId) public view returns (bytes32[],  uint[]) {\r\n        bytes32[] memory  statuses = new bytes32[](submissionCountByUserId[_userId]);\r\n        uint[] memory  submissionIds = new uint[](submissionCountByUserId[_userId]);\r\n        uint index = 0;\r\n        for (uint i = 0; i <= submissions.length-1; i++) {\r\n            if (submissions[i].userId == _userId) {\r\n                statuses[index] = submissions[i].status;\r\n                submissionIds[index] = i;\r\n                index += 1;\r\n            }\r\n        }\r\n        return (statuses, submissionIds);\r\n    }\r\n\r\n    function bytes32ToString(bytes32 x) internal pure returns (string) {\r\n        bytes memory bytesString = new bytes(32);\r\n        uint charCount = 0;\r\n        for (uint j = 0; j < 32; j++) {\r\n            byte char = byte(bytes32(uint(x) * 2 ** (8 * j)));\r\n            if (char != 0) {\r\n                bytesString[charCount] = char;\r\n                charCount++;\r\n            }\r\n        }\r\n        bytes memory bytesStringTrimmed = new bytes(charCount);\r\n        for (j = 0; j < charCount; j++) {\r\n            bytesStringTrimmed[j] = bytesString[j];\r\n        }\r\n        return string(bytesStringTrimmed);\r\n    }\r\n\r\n    function stringToBytes32(string memory source) internal pure returns (bytes32 result) {\r\n        bytes memory tempEmptyStringTest = bytes(source);\r\n        if (tempEmptyStringTest.length == 0) {\r\n            return 0x0;\r\n        }\r\n        assembly {result := mload(add(source, 32))}\r\n    }\r\n\r\n    function utfStringLength(string str) pure internal\r\n    returns (uint length)\r\n    {\r\n        uint i=0;\r\n        bytes memory string_rep = bytes(str);\r\n\r\n        while (i<string_rep.length)\r\n        {\r\n            if (string_rep[i]>>7==0)\r\n                i+=1;\r\n            else if (string_rep[i]>>5==0x6)\r\n                i+=2;\r\n            else if (string_rep[i]>>4==0xE)\r\n                i+=3;\r\n            else if (string_rep[i]>>3==0x1E)\r\n                i+=4;\r\n            else\r\n                //For safety\r\n                i+=1;\r\n\r\n            length++;\r\n        }\r\n    }\r\n\r\n}",
  "sourcePath": "D:\\GitHub\\pirl-project01\\truffle\\contracts\\UserSubmissions.sol",
  "compiler": {
    "name": "solc",
    "version": "0.4.23+commit.124ca40d.Emscripten.clang"
  },
  "schemaVersion": "2.0.0",
  "updatedAt": "2018-05-21T01:58:33.397Z"
}