{
  "contractName": "UserSubmissions",
  "abi": [
    {
      "constant": true,
      "inputs": [],
      "name": "owner",
      "outputs": [
        {
          "name": "",
          "type": "address"
        }
      ],
      "payable": false,
      "stateMutability": "view",
      "type": "function"
    },
    {
      "constant": true,
      "inputs": [
        {
          "name": "",
          "type": "uint256"
        }
      ],
      "name": "submissions",
      "outputs": [
        {
          "name": "userId",
          "type": "uint256"
        },
        {
          "name": "agencyId",
          "type": "uint256"
        },
        {
          "name": "credentialId",
          "type": "uint256"
        },
        {
          "name": "fileIds",
          "type": "bytes32"
        },
        {
          "name": "status",
          "type": "bytes32"
        }
      ],
      "payable": false,
      "stateMutability": "view",
      "type": "function"
    },
    {
      "inputs": [],
      "payable": false,
      "stateMutability": "nonpayable",
      "type": "constructor"
    },
    {
      "payable": true,
      "stateMutability": "payable",
      "type": "fallback"
    },
    {
      "anonymous": false,
      "inputs": [
        {
          "indexed": false,
          "name": "userSubmissionId",
          "type": "uint256"
        },
        {
          "indexed": false,
          "name": "userId",
          "type": "uint256"
        },
        {
          "indexed": false,
          "name": "agencyId",
          "type": "uint256"
        },
        {
          "indexed": false,
          "name": "credentialId",
          "type": "uint256"
        },
        {
          "indexed": false,
          "name": "fileIds",
          "type": "string"
        },
        {
          "indexed": false,
          "name": "status",
          "type": "string"
        }
      ],
      "name": "NewSubmission",
      "type": "event"
    },
    {
      "anonymous": false,
      "inputs": [
        {
          "indexed": false,
          "name": "userSubmissionId",
          "type": "uint256"
        },
        {
          "indexed": false,
          "name": "userId",
          "type": "uint256"
        },
        {
          "indexed": false,
          "name": "agencyId",
          "type": "uint256"
        },
        {
          "indexed": false,
          "name": "credentialId",
          "type": "uint256"
        },
        {
          "indexed": false,
          "name": "fileIds",
          "type": "string"
        },
        {
          "indexed": false,
          "name": "status",
          "type": "string"
        }
      ],
      "name": "UpdateSubmission",
      "type": "event"
    },
    {
      "anonymous": false,
      "inputs": [
        {
          "indexed": false,
          "name": "_from",
          "type": "address"
        },
        {
          "indexed": false,
          "name": "value",
          "type": "uint256"
        }
      ],
      "name": "DepositUserSubmissions",
      "type": "event"
    },
    {
      "anonymous": false,
      "inputs": [
        {
          "indexed": false,
          "name": "_to",
          "type": "address"
        },
        {
          "indexed": false,
          "name": "_amount",
          "type": "uint256"
        }
      ],
      "name": "WithdrawUserSubmissions",
      "type": "event"
    },
    {
      "anonymous": false,
      "inputs": [
        {
          "indexed": false,
          "name": "_remainingBalance",
          "type": "uint256"
        }
      ],
      "name": "BalanceUserSubmissions",
      "type": "event"
    },
    {
      "constant": false,
      "inputs": [
        {
          "name": "_amount",
          "type": "uint256"
        }
      ],
      "name": "withdraw",
      "outputs": [],
      "payable": false,
      "stateMutability": "nonpayable",
      "type": "function"
    },
    {
      "constant": false,
      "inputs": [
        {
          "name": "_userId",
          "type": "uint256"
        },
        {
          "name": "_agencyId",
          "type": "uint256"
        },
        {
          "name": "_credentialId",
          "type": "uint256"
        },
        {
          "name": "_fileIds",
          "type": "string"
        },
        {
          "name": "_status",
          "type": "string"
        }
      ],
      "name": "addSubmission",
      "outputs": [],
      "payable": true,
      "stateMutability": "payable",
      "type": "function"
    },
    {
      "constant": false,
      "inputs": [
        {
          "name": "_submissionId",
          "type": "uint256"
        },
        {
          "name": "_status",
          "type": "string"
        }
      ],
      "name": "updateStatus",
      "outputs": [],
      "payable": false,
      "stateMutability": "nonpayable",
      "type": "function"
    },
    {
      "constant": false,
      "inputs": [
        {
          "name": "_submissionId",
          "type": "uint256"
        },
        {
          "name": "_fileIds",
          "type": "string"
        }
      ],
      "name": "updateFileIds",
      "outputs": [],
      "payable": false,
      "stateMutability": "nonpayable",
      "type": "function"
    },
    {
      "constant": true,
      "inputs": [
        {
          "name": "_submissionId",
          "type": "uint256"
        }
      ],
      "name": "getSubmissionById",
      "outputs": [
        {
          "name": "",
          "type": "uint256"
        },
        {
          "name": "",
          "type": "uint256"
        },
        {
          "name": "",
          "type": "uint256"
        },
        {
          "name": "",
          "type": "bytes32"
        },
        {
          "name": "",
          "type": "bytes32"
        }
      ],
      "payable": false,
      "stateMutability": "view",
      "type": "function"
    },
    {
      "constant": true,
      "inputs": [
        {
          "name": "_agencyId",
          "type": "uint256"
        }
      ],
      "name": "getSubmissionListByAgencyId",
      "outputs": [
        {
          "name": "",
          "type": "bytes32[]"
        },
        {
          "name": "",
          "type": "uint256[]"
        }
      ],
      "payable": false,
      "stateMutability": "view",
      "type": "function"
    },
    {
      "constant": true,
      "inputs": [
        {
          "name": "_userId",
          "type": "uint256"
        }
      ],
      "name": "getSubmissionListByUserId",
      "outputs": [
        {
          "name": "",
          "type": "bytes32[]"
        },
        {
          "name": "",
          "type": "uint256[]"
        }
      ],
      "payable": false,
      "stateMutability": "view",
      "type": "function"
    },
    {
      "constant": false,
      "inputs": [],
      "name": "destroy",
      "outputs": [],
      "payable": false,
      "stateMutability": "nonpayable",
      "type": "function"
    }
  ],
  "bytecode": "0x60806040523480156200001157600080fd5b50336000806101000a81548173ffffffffffffffffffffffffffffffffffffffff021916908373ffffffffffffffffffffffffffffffffffffffff160217905550620000b7600080600060206040519081016040528060008152506040805190810160405280600481526020017f726f6f7400000000000000000000000000000000000000000000000000000000815250620000bd640100000000026401000000009004565b6200039e565b600060018060a060405190810160405280898152602001888152602001878152602001620000fa8762000371640100000000026401000000009004565b6000191681526020016200011d8662000371640100000000026401000000009004565b6000191681525090806001815401808255809150509060018203906000526020600020906005020160009091929091909150600082015181600001556020820151816001015560408201518160020155606082015181600301906000191690556080820151816004019060001916905550500390506001600260008881526020019081526020016000206000828254019250508190556002600088815260200190815260200160002081905550600160036000878152602001908152602001600020600082825401925050819055600360008781526020019081526020016000208190555060016004600086815260200190815260200160002060008282540192505081905560046000868152602001908152602001600020819055507fe2ef8cb20df168cc7b9490eb9369f70e2e8786b1c20da582d4796b8b7882883e818787878787604051808781526020018681526020018581526020018481526020018060200180602001838103835285818151815260200191508051906020019080838360005b83811015620002bf578082015181840152602081019050620002a2565b50505050905090810190601f168015620002ed5780820380516001836020036101000a031916815260200191505b50838103825284818151815260200191508051906020019080838360005b83811015620003285780820151818401526020810190506200030b565b50505050905090810190601f168015620003565780820380516001836020036101000a031916815260200191505b509850505050505050505060405180910390a1505050505050565b6000606082905060008151141562000390576000600102915062000398565b602083015191505b50919050565b6114d680620003ae6000396000f3006080604052600436106100a4576000357c0100000000000000000000000000000000000000000000000000000000900463ffffffff1680632c0046b3146101695780632e1a7d4d146101d657806355d972391461020357806383197ef0146102765780638da5cb5b1461028d578063916b23e2146102e4578063997339f9146103ae578063a0c8506b1461046e578063ad73349e14610538578063d1b34dd8146105a5575b6000341115610167577f05e1525f034b2dbc605cd6a68d38dcc42c1107e983ae685c08e7236586ef11c73334604051808373ffffffffffffffffffffffffffffffffffffffff1673ffffffffffffffffffffffffffffffffffffffff1681526020018281526020019250505060405180910390a17f56861758b85b6989aab229887848fce8230ac8716c00e083cc55ddaa842fd1823073ffffffffffffffffffffffffffffffffffffffff16316040518082815260200191505060405180910390a15b005b34801561017557600080fd5b5061019460048036038101908080359060200190929190505050610618565b60405180868152602001858152602001848152602001836000191660001916815260200182600019166000191681526020019550505050505060405180910390f35b3480156101e257600080fd5b50610201600480360381019080803590602001909291905050506106d8565b005b34801561020f57600080fd5b5061027460048036038101908080359060200190929190803590602001908201803590602001908080601f0160208091040260200160405190810160405280939291908181526020018383808284378201915050505050509192919290505050610891565b005b34801561028257600080fd5b5061028b610a77565b005b34801561029957600080fd5b506102a2610af4565b604051808273ffffffffffffffffffffffffffffffffffffffff1673ffffffffffffffffffffffffffffffffffffffff16815260200191505060405180910390f35b3480156102f057600080fd5b5061030f60048036038101908080359060200190929190505050610b19565b604051808060200180602001838103835285818151815260200191508051906020019060200280838360005b8381101561035657808201518184015260208101905061033b565b50505050905001838103825284818151815260200191508051906020019060200280838360005b8381101561039857808201518184015260208101905061037d565b5050505090500194505050505060405180910390f35b61046c600480360381019080803590602001909291908035906020019092919080359060200190929190803590602001908201803590602001908080601f0160208091040260200160405190810160405280939291908181526020018383808284378201915050505050509192919290803590602001908201803590602001908080601f0160208091040260200160405190810160405280939291908181526020018383808284378201915050505050509192919290505050610c74565b005b34801561047a57600080fd5b5061049960048036038101908080359060200190929190505050610f00565b604051808060200180602001838103835285818151815260200191508051906020019060200280838360005b838110156104e05780820151818401526020810190506104c5565b50505050905001838103825284818151815260200191508051906020019060200280838360005b83811015610522578082015181840152602081019050610507565b5050505090500194505050505060405180910390f35b34801561054457600080fd5b5061056360048036038101908080359060200190929190505050611058565b60405180868152602001858152602001848152602001836000191660001916815260200182600019166000191681526020019550505050505060405180910390f35b3480156105b157600080fd5b5061061660048036038101908080359060200190929190803590602001908201803590602001908080601f016020809104026020016040519081016040528093929190818152602001838380828437820191505050505050919291929050505061109d565b005b600080600080600060018681548110151561062f57fe5b90600052602060002090600502016000015460018781548110151561065057fe5b90600052602060002090600502016001015460018881548110151561067157fe5b90600052602060002090600502016002015460018981548110151561069257fe5b90600052602060002090600502016003015460018a8154811015156106b357fe5b9060005260206000209060050201600401549450945094509450945091939590929450565b6000809054906101000a900473ffffffffffffffffffffffffffffffffffffffff1673ffffffffffffffffffffffffffffffffffffffff163373ffffffffffffffffffffffffffffffffffffffff1614151561073357600080fd5b60003073ffffffffffffffffffffffffffffffffffffffff163111151561075957600080fd5b60008111151561076857600080fd5b803073ffffffffffffffffffffffffffffffffffffffff16311015151561078e57600080fd5b3373ffffffffffffffffffffffffffffffffffffffff166108fc829081150290604051600060405180830381858888f193505050501580156107d4573d6000803e3d6000fd5b507feec77e926f0e784c5d174e0ecee117cd8a8a0f707f869d103c78b91587b2abd73382604051808373ffffffffffffffffffffffffffffffffffffffff1673ffffffffffffffffffffffffffffffffffffffff1681526020018281526020019250505060405180910390a17f56861758b85b6989aab229887848fce8230ac8716c00e083cc55ddaa842fd1823073ffffffffffffffffffffffffffffffffffffffff16316040518082815260200191505060405180910390a150565b61089a81611283565b6001838154811015156108a957fe5b906000526020600020906005020160030181600019169055507ffac2492c829bca1a059223f5ece30366ee475cbed25366f6cd085036a20b3abd826001848154811015156108f357fe5b90600052602060002090600502016000015460018581548110151561091457fe5b90600052602060002090600502016001015460018681548110151561093557fe5b9060005260206000209060050201600201548561097160018981548110151561095a57fe5b9060005260206000209060050201600401546112ae565b604051808781526020018681526020018581526020018481526020018060200180602001838103835285818151815260200191508051906020019080838360005b838110156109cd5780820151818401526020810190506109b2565b50505050905090810190601f1680156109fa5780820380516001836020036101000a031916815260200191505b50838103825284818151815260200191508051906020019080838360005b83811015610a33578082015181840152602081019050610a18565b50505050905090810190601f168015610a605780820380516001836020036101000a031916815260200191505b509850505050505050505060405180910390a15050565b6000809054906101000a900473ffffffffffffffffffffffffffffffffffffffff1673ffffffffffffffffffffffffffffffffffffffff163373ffffffffffffffffffffffffffffffffffffffff16141515610ad257600080fd5b610af23073ffffffffffffffffffffffffffffffffffffffff16316106d8565b565b6000809054906101000a900473ffffffffffffffffffffffffffffffffffffffff1681565b6060806060806000806002600088815260200190815260200160002054604051908082528060200260200182016040528015610b645781602001602082028038833980820191505090505b5093506002600088815260200190815260200160002054604051908082528060200260200182016040528015610ba95781602001602082028038833980820191505090505b50925060009150600090505b600180805490500381111515610c655786600182815481101515610bd557fe5b9060005260206000209060050201600001541415610c5857600181815481101515610bfc57fe5b9060005260206000209060050201600401548483815181101515610c1c57fe5b906020019060200201906000191690816000191681525050808383815181101515610c4357fe5b90602001906020020181815250506001820191505b8080600101915050610bb5565b83839550955050505050915091565b600060018060a060405190810160405280898152602001888152602001878152602001610ca087611283565b600019168152602001610cb286611283565b6000191681525090806001815401808255809150509060018203906000526020600020906005020160009091929091909150600082015181600001556020820151816001015560408201518160020155606082015181600301906000191690556080820151816004019060001916905550500390506001600260008881526020019081526020016000206000828254019250508190556002600088815260200190815260200160002081905550600160036000878152602001908152602001600020600082825401925050819055600360008781526020019081526020016000208190555060016004600086815260200190815260200160002060008282540192505081905560046000868152602001908152602001600020819055507fe2ef8cb20df168cc7b9490eb9369f70e2e8786b1c20da582d4796b8b7882883e818787878787604051808781526020018681526020018581526020018481526020018060200180602001838103835285818151815260200191508051906020019080838360005b83811015610e52578082015181840152602081019050610e37565b50505050905090810190601f168015610e7f5780820380516001836020036101000a031916815260200191505b50838103825284818151815260200191508051906020019080838360005b83811015610eb8578082015181840152602081019050610e9d565b50505050905090810190601f168015610ee55780820380516001836020036101000a031916815260200191505b509850505050505050505060405180910390a1505050505050565b6060806060806000806003600088815260200190815260200160002054604051908082528060200260200182016040528015610f4b5781602001602082028038833980820191505090505b5093506003600088815260200190815260200160002054604051908082528060200260200182016040528015610f905781602001602082028038833980820191505090505b50925060009150600090505b6001805490508110156110495786600182815481101515610fb957fe5b906000526020600020906005020160010154141561103c57600181815481101515610fe057fe5b906000526020600020906005020160040154848381518110151561100057fe5b90602001906020020190600019169081600019168152505080838381518110151561102757fe5b90602001906020020181815250506001820191505b8080600101915050610f9c565b83839550955050505050915091565b60018181548110151561106757fe5b90600052602060002090600502016000915090508060000154908060010154908060020154908060030154908060040154905085565b6110a681611283565b6001838154811015156110b557fe5b906000526020600020906005020160040181600019169055507ffac2492c829bca1a059223f5ece30366ee475cbed25366f6cd085036a20b3abd826001848154811015156110ff57fe5b90600052602060002090600502016000015460018581548110151561112057fe5b90600052602060002090600502016001015460018681548110151561114157fe5b90600052602060002090600502016002015461117c60018881548110151561116557fe5b9060005260206000209060050201600301546112ae565b86604051808781526020018681526020018581526020018481526020018060200180602001838103835285818151815260200191508051906020019080838360005b838110156111d95780820151818401526020810190506111be565b50505050905090810190601f1680156112065780820380516001836020036101000a031916815260200191505b50838103825284818151815260200191508051906020019080838360005b8381101561123f578082015181840152602081019050611224565b50505050905090810190601f16801561126c5780820380516001836020036101000a031916815260200191505b509850505050505050505060405180910390a15050565b600060608290506000815114156112a057600060010291506112a8565b602083015191505b50919050565b6060806000806000606060206040519080825280601f01601f1916602001820160405280156112ec5781602001602082028038833980820191505090505b50945060009350600092505b60208310156113b6578260080260020a876001900402600102915060007f010000000000000000000000000000000000000000000000000000000000000002827effffffffffffffffffffffffffffffffffffffffffffffffffffffffffffff19161415156113a95781858581518110151561137057fe5b9060200101907effffffffffffffffffffffffffffffffffffffffffffffffffffffffffffff1916908160001a90535083806001019450505b82806001019350506112f8565b836040519080825280601f01601f1916602001820160405280156113e95781602001602082028038833980820191505090505b509050600092505b8383101561149d57848381518110151561140757fe5b9060200101517f010000000000000000000000000000000000000000000000000000000000000090047f010000000000000000000000000000000000000000000000000000000000000002818481518110151561146057fe5b9060200101907effffffffffffffffffffffffffffffffffffffffffffffffffffffffffffff1916908160001a90535082806001019350506113f1565b80955050505050509190505600a165627a7a723058203d2b2398a2796e64c5323475379a465b991be40985990c21427dc0f90629b4f60029",
  "source": "pragma solidity ^0.4.23;\r\n\r\ncontract UserSubmissions  {\r\n\r\n    //Events\r\n    event NewSubmission(\r\n    uint userSubmissionId,\r\n    uint userId, \r\n    uint agencyId,\r\n    uint credentialId,\r\n    string fileIds,\r\n    string status);\r\n\r\n    event UpdateSubmission(\r\n    uint userSubmissionId,\r\n    uint userId, \r\n    uint agencyId,\r\n    uint credentialId,\r\n    string fileIds,\r\n    string status);\r\n\r\n    event DepositUserSubmissions(address _from, uint value);\r\n    event WithdrawUserSubmissions(address _to, uint _amount);\r\n    event BalanceUserSubmissions(uint _remainingBalance);\r\n\r\n    // Structs\r\n    struct Submission {\r\n        uint userId; \r\n        uint agencyId;\r\n        uint credentialId;\r\n        bytes32 fileIds;\r\n        bytes32 status;\r\n    }\r\n\r\n    address public owner;\r\n    Submission[] public submissions;\r\n\r\n    mapping(uint => uint) internal submissionCountByUserId;\r\n    mapping(uint => uint) internal submissionCountByAgencyId;\r\n    mapping(uint => uint) internal submissionCountByCredentialId;\r\n\r\n    modifier onlyOwner() {\r\n        require(msg.sender == owner);\r\n        _;\r\n    }\r\n\r\n    constructor() public {\r\n        owner = msg.sender;\r\n        addSubmission(0,0,0,\"\",\"root\");\r\n    }\r\n\r\n    // Purpose  : Fallback Function\r\n    function() public payable {\r\n        if (msg.value > 0) {\r\n            emit DepositUserSubmissions(msg.sender, msg.value);\r\n            emit BalanceUserSubmissions(address(this).balance);\r\n        }\r\n    }\r\n\r\n    // Purpose  : For the owner to withdraw some funds.\r\n    function withdraw(uint _amount) public onlyOwner {\r\n        require(address(this).balance > 0);\r\n        require(_amount > 0);\r\n        require(address(this).balance >= _amount);\r\n        address(msg.sender).transfer(_amount);\r\n        emit WithdrawUserSubmissions(msg.sender, _amount);\r\n        emit BalanceUserSubmissions(address(this).balance);\r\n    }\r\n\r\n    // Purpose  : To create a submission.  Files can be attached afterward.\r\n    function addSubmission(\r\n        uint _userId, \r\n        uint _agencyId, \r\n        uint _credentialId, \r\n        string _fileIds,\r\n        string _status) \r\n        public payable {\r\n\r\n        //require(_agencyId > 0);\r\n        //require(_userId > 0);\r\n        //require(_credentialId > 0);\r\n\r\n        uint _id = submissions.push(Submission(\r\n            _userId,\r\n            _agencyId, \r\n            _credentialId,\r\n            stringToBytes32(_fileIds),\r\n            stringToBytes32(_status)\r\n            ))-1;\r\n\r\n        submissionCountByUserId[_userId] = submissionCountByUserId[_userId] += 1;\r\n        submissionCountByAgencyId[_agencyId] = submissionCountByAgencyId[_agencyId] += 1;\r\n        submissionCountByCredentialId[_credentialId] = submissionCountByCredentialId[_credentialId] += 1;\r\n\r\n        emit NewSubmission(_id, _userId, _agencyId, _credentialId, _fileIds, _status);\r\n    }\r\n\r\n    // Purpose  : To update a submission. Only files and statuss can be updated\r\n    // To Do    : Put some security on this.\r\n    function updateStatus(\r\n        uint _submissionId, \r\n        string _status) public {\r\n        \r\n        //require(_submissionId > 0);\r\n        //require(submissions[submissionId].userId > 0);\r\n\r\n        submissions[_submissionId].status = stringToBytes32(_status);\r\n\r\n        emit UpdateSubmission(\r\n            _submissionId,\r\n            submissions[_submissionId].userId, \r\n            submissions[_submissionId].agencyId, \r\n            submissions[_submissionId].credentialId, \r\n            bytes32ToString(submissions[_submissionId].fileIds),\r\n            _status);\r\n    }\r\n\r\n    // Purpose  : To update a submission. Only files and statuss can be updated\r\n    // To Do    : Put some security on this.\r\n    function updateFileIds(\r\n        uint _submissionId, \r\n        string _fileIds) public {\r\n        //require(utfStringLength(_fileIds) > 0);\r\n        //require(_submissionId > 0);\r\n        //require(submissions[_submissionId].userId > 0);\r\n\r\n        submissions[_submissionId].fileIds = stringToBytes32(_fileIds);\r\n\r\n        emit UpdateSubmission(\r\n            _submissionId,\r\n            submissions[_submissionId].userId, \r\n            submissions[_submissionId].agencyId, \r\n            submissions[_submissionId].credentialId, \r\n            _fileIds, \r\n            bytes32ToString(submissions[_submissionId].status));\r\n    }\r\n\r\n    // Purpose  : To retrieve a credential by the id\r\n    function getSubmissionById(uint _submissionId) public view returns (uint, uint, uint, bytes32, bytes32) {\r\n        //require(_submissionId < submissions.length);\r\n        return (submissions[_submissionId].userId, \r\n            submissions[_submissionId].agencyId, \r\n            submissions[_submissionId].credentialId, \r\n            submissions[_submissionId].fileIds, \r\n            submissions[_submissionId].status\r\n        ); \r\n    }\r\n\r\n    function getSubmissionListByAgencyId(uint _agencyId) public view returns (bytes32[],  uint[]) {\r\n        bytes32[] memory  statuses = new bytes32[](submissionCountByAgencyId[_agencyId]);\r\n        uint[] memory  submissionIds = new uint[](submissionCountByAgencyId[_agencyId]);\r\n        uint index = 0;\r\n        for (uint i = 0; i < submissions.length; i++) {\r\n            if (submissions[i].agencyId == _agencyId) {\r\n                statuses[index] = submissions[i].status;\r\n                submissionIds[index] = i;\r\n                index += 1;\r\n            }\r\n        }\r\n        return (statuses, submissionIds);\r\n    }\r\n\r\n    function getSubmissionListByUserId(uint _userId) public view returns (bytes32[],  uint[]) {\r\n        bytes32[] memory  statuses = new bytes32[](submissionCountByUserId[_userId]);\r\n        uint[] memory  submissionIds = new uint[](submissionCountByUserId[_userId]);\r\n        uint index = 0;\r\n        for (uint i = 0; i <= submissions.length-1; i++) {\r\n            if (submissions[i].userId == _userId) {\r\n                statuses[index] = submissions[i].status;\r\n                submissionIds[index] = i;\r\n                index += 1;\r\n            }\r\n        }\r\n        return (statuses, submissionIds);\r\n    }\r\n\r\n    function bytes32ToString(bytes32 x) internal pure returns (string) {\r\n        bytes memory bytesString = new bytes(32);\r\n        uint charCount = 0;\r\n        for (uint j = 0; j < 32; j++) {\r\n            byte char = byte(bytes32(uint(x) * 2 ** (8 * j)));\r\n            if (char != 0) {\r\n                bytesString[charCount] = char;\r\n                charCount++;\r\n            }\r\n        }\r\n        bytes memory bytesStringTrimmed = new bytes(charCount);\r\n        for (j = 0; j < charCount; j++) {\r\n            bytesStringTrimmed[j] = bytesString[j];\r\n        }\r\n        return string(bytesStringTrimmed);\r\n    }\r\n\r\n    function stringToBytes32(string memory source) internal pure returns (bytes32 result) {\r\n        bytes memory tempEmptyStringTest = bytes(source);\r\n        if (tempEmptyStringTest.length == 0) {\r\n            return 0x0;\r\n        }\r\n        assembly {result := mload(add(source, 32))}\r\n    }\r\n\r\n    // function utfStringLength(string str) pure internal\r\n    // returns (uint length)\r\n    // {\r\n    //     uint i=0;\r\n    //     bytes memory string_rep = bytes(str);\r\n\r\n    //     while (i<string_rep.length)\r\n    //     {\r\n    //         if (string_rep[i]>>7==0)\r\n    //             i+=1;\r\n    //         else if (string_rep[i]>>5==0x6)\r\n    //             i+=2;\r\n    //         else if (string_rep[i]>>4==0xE)\r\n    //             i+=3;\r\n    //         else if (string_rep[i]>>3==0x1E)\r\n    //             i+=4;\r\n    //         else\r\n    //             //For safety\r\n    //             i+=1;\r\n\r\n    //         length++;\r\n    //     }\r\n    // }\r\n\r\n    // Purpose  : Owners with draw all pirl from contract.  Shutting contract down.\r\n    function destroy() public onlyOwner {\r\n        withdraw(address(this).balance);\r\n    }\r\n\r\n}",
  "sourcePath": "C:\\Development\\PIRL\\MicroCredentials\\truffle\\contracts\\UserSubmissions.sol",
  "compiler": {
    "name": "solc",
    "version": "0.4.24+commit.e67f0147.Emscripten.clang"
  },
  "schemaVersion": "2.0.0",
  "updatedAt": "2018-05-25T00:39:03.688Z"
}