{
  "contractName": "Users",
  "abi": [
    {
      "constant": true,
      "inputs": [
        {
          "name": "",
          "type": "uint256"
        }
      ],
      "name": "users",
      "outputs": [
        {
          "name": "firstName",
          "type": "bytes32"
        },
        {
          "name": "lastName",
          "type": "bytes32"
        },
        {
          "name": "email",
          "type": "bytes32"
        },
        {
          "name": "isActive",
          "type": "bool"
        }
      ],
      "payable": false,
      "stateMutability": "view",
      "type": "function"
    },
    {
      "anonymous": false,
      "inputs": [
        {
          "indexed": false,
          "name": "id",
          "type": "uint256"
        },
        {
          "indexed": false,
          "name": "firstName",
          "type": "string"
        },
        {
          "indexed": false,
          "name": "lastName",
          "type": "string"
        },
        {
          "indexed": false,
          "name": "email",
          "type": "string"
        },
        {
          "indexed": false,
          "name": "userAddress",
          "type": "address"
        }
      ],
      "name": "NewUser",
      "type": "event"
    },
    {
      "anonymous": false,
      "inputs": [
        {
          "indexed": false,
          "name": "id",
          "type": "uint256"
        },
        {
          "indexed": false,
          "name": "firstName",
          "type": "string"
        },
        {
          "indexed": false,
          "name": "lastName",
          "type": "string"
        },
        {
          "indexed": false,
          "name": "email",
          "type": "string"
        },
        {
          "indexed": false,
          "name": "userAddress",
          "type": "address"
        }
      ],
      "name": "UpdateUser",
      "type": "event"
    },
    {
      "constant": false,
      "inputs": [
        {
          "name": "_firstName",
          "type": "string"
        },
        {
          "name": "_lastName",
          "type": "string"
        },
        {
          "name": "_email",
          "type": "string"
        }
      ],
      "name": "addUser",
      "outputs": [],
      "payable": false,
      "stateMutability": "nonpayable",
      "type": "function"
    },
    {
      "constant": false,
      "inputs": [
        {
          "name": "_firstName",
          "type": "string"
        },
        {
          "name": "_lastName",
          "type": "string"
        },
        {
          "name": "_email",
          "type": "string"
        }
      ],
      "name": "updateUser",
      "outputs": [],
      "payable": false,
      "stateMutability": "nonpayable",
      "type": "function"
    },
    {
      "constant": true,
      "inputs": [
        {
          "name": "_email",
          "type": "string"
        }
      ],
      "name": "getIdByEmail",
      "outputs": [
        {
          "name": "",
          "type": "uint256"
        }
      ],
      "payable": false,
      "stateMutability": "view",
      "type": "function"
    },
    {
      "constant": true,
      "inputs": [
        {
          "name": "_address",
          "type": "address"
        }
      ],
      "name": "getIdByAddress",
      "outputs": [
        {
          "name": "",
          "type": "uint256"
        }
      ],
      "payable": false,
      "stateMutability": "view",
      "type": "function"
    },
    {
      "constant": true,
      "inputs": [],
      "name": "getMyId",
      "outputs": [
        {
          "name": "",
          "type": "uint256"
        }
      ],
      "payable": false,
      "stateMutability": "view",
      "type": "function"
    },
    {
      "constant": true,
      "inputs": [
        {
          "name": "_id",
          "type": "uint256"
        }
      ],
      "name": "getUserById",
      "outputs": [
        {
          "name": "",
          "type": "bytes32"
        },
        {
          "name": "",
          "type": "bytes32"
        },
        {
          "name": "",
          "type": "bytes32"
        },
        {
          "name": "",
          "type": "bool"
        },
        {
          "name": "",
          "type": "uint256"
        }
      ],
      "payable": false,
      "stateMutability": "view",
      "type": "function"
    },
    {
      "constant": true,
      "inputs": [
        {
          "name": "_email",
          "type": "string"
        }
      ],
      "name": "getUserByEmail",
      "outputs": [
        {
          "name": "",
          "type": "bytes32"
        },
        {
          "name": "",
          "type": "bytes32"
        },
        {
          "name": "",
          "type": "bytes32"
        },
        {
          "name": "",
          "type": "bool"
        },
        {
          "name": "",
          "type": "uint256"
        }
      ],
      "payable": false,
      "stateMutability": "view",
      "type": "function"
    },
    {
      "constant": true,
      "inputs": [
        {
          "name": "_address",
          "type": "address"
        }
      ],
      "name": "getUserByAddress",
      "outputs": [
        {
          "name": "",
          "type": "bytes32"
        },
        {
          "name": "",
          "type": "bytes32"
        },
        {
          "name": "",
          "type": "bytes32"
        },
        {
          "name": "",
          "type": "bool"
        },
        {
          "name": "",
          "type": "uint256"
        }
      ],
      "payable": false,
      "stateMutability": "view",
      "type": "function"
    },
    {
      "constant": true,
      "inputs": [],
      "name": "getUserList",
      "outputs": [
        {
          "name": "",
          "type": "bytes32[]"
        },
        {
          "name": "",
          "type": "bytes32[]"
        },
        {
          "name": "",
          "type": "bytes32[]"
        },
        {
          "name": "",
          "type": "bool[]"
        }
      ],
      "payable": false,
      "stateMutability": "view",
      "type": "function"
    },
    {
      "constant": true,
      "inputs": [
        {
          "name": "_address",
          "type": "address"
        }
      ],
      "name": "addressIsUser",
      "outputs": [
        {
          "name": "",
          "type": "bool"
        }
      ],
      "payable": false,
      "stateMutability": "view",
      "type": "function"
    }
  ],
  "bytecode": "0x6080604052600060035534801561001557600080fd5b506119f6806100256000396000f3006080604052600436106100af576000357c0100000000000000000000000000000000000000000000000000000000900463ffffffff16806318046ae1146100b457806327ed00ee14610169578063365b98b21461019457806360903be61461020657806369c212f6146102fb5780636ed6da9e1461038a578063807d80451461040357806395c5fed414610480578063b852204314610575578063df97cda3146106b9578063dff3b49714610714575b600080fd5b3480156100c057600080fd5b5061011b600480360381019080803590602001908201803590602001908080601f016020809104026020016040519081016040528093929190818152602001838380828437820191505050505050919291929050505061076b565b60405180866000191660001916815260200185600019166000191681526020018460001916600019168152602001831515151581526020018281526020019550505050505060405180910390f35b34801561017557600080fd5b5061017e610880565b6040518082815260200191505060405180910390f35b3480156101a057600080fd5b506101bf60048036038101908080359060200190929190505050610914565b604051808560001916600019168152602001846000191660001916815260200183600019166000191681526020018215151515815260200194505050505060405180910390f35b34801561021257600080fd5b506102f9600480360381019080803590602001908201803590602001908080601f0160208091040260200160405190810160405280939291908181526020018383808284378201915050505050509192919290803590602001908201803590602001908080601f0160208091040260200160405190810160405280939291908181526020018383808284378201915050505050509192919290803590602001908201803590602001908080601f0160208091040260200160405190810160405280939291908181526020018383808284378201915050505050509192919290505050610960565b005b34801561030757600080fd5b5061033c600480360381019080803573ffffffffffffffffffffffffffffffffffffffff169060200190929190505050610cee565b60405180866000191660001916815260200185600019166000191681526020018460001916600019168152602001831515151581526020018281526020019550505050505060405180910390f35b34801561039657600080fd5b506103b560048036038101908080359060200190929190505050610e1c565b60405180866000191660001916815260200185600019166000191681526020018460001916600019168152602001831515151581526020018281526020019550505050505060405180910390f35b34801561040f57600080fd5b5061046a600480360381019080803590602001908201803590602001908080601f0160208091040260200160405190810160405280939291908181526020018383808284378201915050505050509192919290505050610ed9565b6040518082815260200191505060405180910390f35b34801561048c57600080fd5b50610573600480360381019080803590602001908201803590602001908080601f0160208091040260200160405190810160405280939291908181526020018383808284378201915050505050509192919290803590602001908201803590602001908080601f0160208091040260200160405190810160405280939291908181526020018383808284378201915050505050509192919290803590602001908201803590602001908080601f0160208091040260200160405190810160405280939291908181526020018383808284378201915050505050509192919290505050610f4e565b005b34801561058157600080fd5b5061058a6112d5565b6040518080602001806020018060200180602001858103855289818151815260200191508051906020019060200280838360005b838110156105d95780820151818401526020810190506105be565b50505050905001858103845288818151815260200191508051906020019060200280838360005b8381101561061b578082015181840152602081019050610600565b50505050905001858103835287818151815260200191508051906020019060200280838360005b8381101561065d578082015181840152602081019050610642565b50505050905001858103825286818151815260200191508051906020019060200280838360005b8381101561069f578082015181840152602081019050610684565b505050509050019850505050505050505060405180910390f35b3480156106c557600080fd5b506106fa600480360381019080803573ffffffffffffffffffffffffffffffffffffffff16906020019092919050505061151c565b604051808215151515815260200191505060405180910390f35b34801561072057600080fd5b50610755600480360381019080803573ffffffffffffffffffffffffffffffffffffffff16906020019092919050505061156d565b6040518082815260200191505060405180910390f35b6000806000806000806001600061078189611603565b60001916600019168152602001908152602001600020549050600080828154811015156107aa57fe5b906000526020600020905050602060ff161115156107c757600080fd5b600080549050811015156107da57600080fd5b6000818154811015156107e957fe5b90600052602060002090600402016000015460008281548110151561080a57fe5b90600052602060002090600402016001015460008381548110151561082b57fe5b90600052602060002090600402016002015460008481548110151561084c57fe5b906000526020600020906004020160030160009054906101000a900460ff1684955095509550955095505091939590929450565b600080600260003373ffffffffffffffffffffffffffffffffffffffff1673ffffffffffffffffffffffffffffffffffffffff168152602001908152602001600020541115156108cf57600080fd5b600260003373ffffffffffffffffffffffffffffffffffffffff1673ffffffffffffffffffffffffffffffffffffffff16815260200190815260200160002054905090565b60008181548110151561092357fe5b90600052602060002090600402016000915090508060000154908060010154908060020154908060030160009054906101000a900460ff16905084565b600080600260003373ffffffffffffffffffffffffffffffffffffffff1673ffffffffffffffffffffffffffffffffffffffff16815260200190815260200160002054905060016000828154811015156109b657fe5b906000526020600020905050602060ff161115156109d357600080fd5b6000600260003373ffffffffffffffffffffffffffffffffffffffff1673ffffffffffffffffffffffffffffffffffffffff16815260200190815260200160002054111515610a2157600080fd5b6004610a2c8461162e565b111515610a3857600080fd5b600260003373ffffffffffffffffffffffffffffffffffffffff1673ffffffffffffffffffffffffffffffffffffffff168152602001908152602001600020549150610a8385611603565b600083815481101515610a9257fe5b90600052602060002090600402016000018160001916905550610ab484611603565b600083815481101515610ac357fe5b90600052602060002090600402016001018160001916905550610ae583611603565b600083815481101515610af457fe5b906000526020600020906004020160020181600019169055508160016000610b1b86611603565b60001916600019168152602001908152602001600020819055507fd3923f0b3b1cec0036b68d0c3f17abc063fe21182d951342a1300cd3f98564dd8286868633604051808681526020018060200180602001806020018573ffffffffffffffffffffffffffffffffffffffff1673ffffffffffffffffffffffffffffffffffffffff168152602001848103845288818151815260200191508051906020019080838360005b83811015610bdb578082015181840152602081019050610bc0565b50505050905090810190601f168015610c085780820380516001836020036101000a031916815260200191505b50848103835287818151815260200191508051906020019080838360005b83811015610c41578082015181840152602081019050610c26565b50505050905090810190601f168015610c6e5780820380516001836020036101000a031916815260200191505b50848103825286818151815260200191508051906020019080838360005b83811015610ca7578082015181840152602081019050610c8c565b50505050905090810190601f168015610cd45780820380516001836020036101000a031916815260200191505b509850505050505050505060405180910390a15050505050565b600080600080600080600260008873ffffffffffffffffffffffffffffffffffffffff1673ffffffffffffffffffffffffffffffffffffffff16815260200190815260200160002054905060008082815481101515610d4957fe5b906000526020600020905050602060ff16111515610d6657600080fd5b60035481101515610d7657600080fd5b600081815481101515610d8557fe5b906000526020600020906004020160000154600082815481101515610da657fe5b906000526020600020906004020160010154600083815481101515610dc757fe5b906000526020600020906004020160020154600084815481101515610de857fe5b906000526020600020906004020160030160009054906101000a900460ff1684955095509550955095505091939590929450565b600080600080600060035486101515610e3457600080fd5b600086815481101515610e4357fe5b906000526020600020906004020160000154600087815481101515610e6457fe5b906000526020600020906004020160010154600088815481101515610e8557fe5b906000526020600020906004020160020154600089815481101515610ea657fe5b906000526020600020906004020160030160009054906101000a900460ff16899450945094509450945091939590929450565b600080610ee58361162e565b111515610ef157600080fd5b600060016000610f0085611603565b6000191660001916815260200190815260200160002054111515610f2357600080fd5b60016000610f3084611603565b60001916600019168152602001908152602001600020549050919050565b60008060016000610f5e85611603565b6000191660001916815260200190815260200160002054141515610f8157600080fd5b6000600260003373ffffffffffffffffffffffffffffffffffffffff1673ffffffffffffffffffffffffffffffffffffffff16815260200190815260200160002054141515610fcf57600080fd5b6000905060016000608060405190810160405280610fec88611603565b600019168152602001610ffe87611603565b60001916815260200161101086611603565b600019168152602001600115158152509080600181540180825580915050906001820390600052602060002090600402016000909192909190915060008201518160000190600019169055602082015181600101906000191690556040820151816002019060001916905560608201518160030160006101000a81548160ff021916908315150217905550505003905080600160006110ae85611603565b600019166000191681526020019081526020016000208190555080600260003373ffffffffffffffffffffffffffffffffffffffff1673ffffffffffffffffffffffffffffffffffffffff1681526020019081526020016000208190555060016003600082825401925050819055507f023a8bc2c2a7585292c8d76a6c38d4001ebdb3df730965277bc4d0e94f2647518185858533604051808681526020018060200180602001806020018573ffffffffffffffffffffffffffffffffffffffff1673ffffffffffffffffffffffffffffffffffffffff168152602001848103845288818151815260200191508051906020019080838360005b838110156111c35780820151818401526020810190506111a8565b50505050905090810190601f1680156111f05780820380516001836020036101000a031916815260200191505b50848103835287818151815260200191508051906020019080838360005b8381101561122957808201518184015260208101905061120e565b50505050905090810190601f1680156112565780820380516001836020036101000a031916815260200191505b50848103825286818151815260200191508051906020019080838360005b8381101561128f578082015181840152602081019050611274565b50505050905090810190601f1680156112bc5780820380516001836020036101000a031916815260200191505b509850505050505050505060405180910390a150505050565b606080606080606080606080600080600354101515156112f457600080fd5b6003546040519080825280602002602001820160405280156113255781602001602082028038833980820191505090505b5094506003546040519080825280602002602001820160405280156113595781602001602082028038833980820191505090505b50935060035460405190808252806020026020018201604052801561138d5781602001602082028038833980820191505090505b5092506003546040519080825280602002602001820160405280156113c15781602001602082028038833980820191505090505b509150600090505b600354811015611505576000818154811015156113e257fe5b906000526020600020906004020160000154858281518110151561140257fe5b90602001906020020190600019169081600019168152505060008181548110151561142957fe5b906000526020600020906004020160010154848281518110151561144957fe5b90602001906020020190600019169081600019168152505060008181548110151561147057fe5b906000526020600020906004020160020154838281518110151561149057fe5b9060200190602002019060001916908160001916815250506000818154811015156114b757fe5b906000526020600020906004020160030160009054906101000a900460ff1682828151811015156114e457fe5b906020019060200201901515908115158152505080806001019150506113c9565b848484849850985098509850505050505090919293565b600080600260008473ffffffffffffffffffffffffffffffffffffffff1673ffffffffffffffffffffffffffffffffffffffff16815260200190815260200160002054905060008111915050919050565b600080600260008473ffffffffffffffffffffffffffffffffffffffff1673ffffffffffffffffffffffffffffffffffffffff168152602001908152602001600020541115156115bc57600080fd5b600260008373ffffffffffffffffffffffffffffffffffffffff1673ffffffffffffffffffffffffffffffffffffffff168152602001908152602001600020549050919050565b600060608290506000815114156116205760006001029150611628565b602083015191505b50919050565b6000806060600091508390505b80518210156119c35760007f0100000000000000000000000000000000000000000000000000000000000000026007828481518110151561167857fe5b9060200101517f010000000000000000000000000000000000000000000000000000000000000090047f0100000000000000000000000000000000000000000000000000000000000000027effffffffffffffffffffffffffffffffffffffffffffffffffffffffffffff19169060020a90047effffffffffffffffffffffffffffffffffffffffffffffffffffffffffffff1916141561171e576001820191506119b6565b60067f0100000000000000000000000000000000000000000000000000000000000000026005828481518110151561175257fe5b9060200101517f010000000000000000000000000000000000000000000000000000000000000090047f0100000000000000000000000000000000000000000000000000000000000000027effffffffffffffffffffffffffffffffffffffffffffffffffffffffffffff19169060020a90047effffffffffffffffffffffffffffffffffffffffffffffffffffffffffffff191614156117f8576002820191506119b5565b600e7f0100000000000000000000000000000000000000000000000000000000000000026004828481518110151561182c57fe5b9060200101517f010000000000000000000000000000000000000000000000000000000000000090047f0100000000000000000000000000000000000000000000000000000000000000027effffffffffffffffffffffffffffffffffffffffffffffffffffffffffffff19169060020a90047effffffffffffffffffffffffffffffffffffffffffffffffffffffffffffff191614156118d2576003820191506119b4565b601e7f0100000000000000000000000000000000000000000000000000000000000000026003828481518110151561190657fe5b9060200101517f010000000000000000000000000000000000000000000000000000000000000090047f0100000000000000000000000000000000000000000000000000000000000000027effffffffffffffffffffffffffffffffffffffffffffffffffffffffffffff19169060020a90047effffffffffffffffffffffffffffffffffffffffffffffffffffffffffffff191614156119ac576004820191506119b3565b6001820191505b5b5b5b828060010193505061163b565b50509190505600a165627a7a72305820162990a3c1542afc8fb480de9e6fc4bc2940bbc5078be802707a3c819d69a8f60029",
  "source": "pragma solidity ^0.4.19;\r\n\r\nimport \"./MyUtils.sol\";\r\n\r\ncontract Users is MyUtils {\r\n\r\n    // Events\r\n    event NewUser(uint id, string firstName, string lastName, string email, address userAddress);\r\n    event UpdateUser(uint id, string firstName, string lastName, string email, address userAddress);\r\n\r\n\r\n    //  Make sure the address resolves a valid contract\r\n    modifier onlyUserOwner() {\r\n        uint id = userIdByAddress[msg.sender];\r\n        require(users[id].firstName.length > 1);\r\n        _;\r\n    }\r\n\r\n    // Structs\r\n    struct User {\r\n        bytes32 firstName;\r\n        bytes32 lastName;\r\n        bytes32 email;\r\n        bool isActive;\r\n    }\r\n\r\n    User[] public users;\r\n    mapping(bytes32 => uint) internal userIdByEmail;\r\n    mapping(address => uint) internal userIdByAddress;\r\n    uint userCount = 0;\r\n\r\n    // Purpose  : User adds their own account\r\n    function addUser(string _firstName, string _lastName, string _email) public {\r\n        require(userIdByEmail[stringToBytes32(_email)] == 0);\r\n        require(userIdByAddress[msg.sender] == 0);\r\n        uint id = 0;\r\n        id = users.push(User(stringToBytes32(_firstName), stringToBytes32(_lastName),stringToBytes32(_email), true))-1;\r\n        userIdByEmail[stringToBytes32(_email)] = id;\r\n        userIdByAddress[msg.sender] = id;\r\n        userCount += 1;\r\n        emit NewUser(id, _firstName,_lastName, _email, msg.sender);\r\n    }\r\n\r\n    // Purpose  : To update user about a person\r\n    function updateUser(string _firstName, string _lastName, string _email) onlyUserOwner public {\r\n        require(userIdByAddress[msg.sender] > 0);\r\n        require(utfStringLength(_email) > 4);\r\n        uint id = userIdByAddress[msg.sender];\r\n        users[id].firstName = stringToBytes32(_firstName);\r\n        users[id].lastName = stringToBytes32(_lastName);\r\n        users[id].email = stringToBytes32(_email);\r\n        userIdByEmail[stringToBytes32(_email)] = id;\r\n        emit UpdateUser(id, _firstName, _lastName, _email, msg.sender);\r\n    }\r\n\r\n    // Purpose  : To retrieve a users id via email\r\n    function getIdByEmail(string _email) public view returns (uint) {\r\n        require(utfStringLength(_email) > 0);\r\n        require(userIdByEmail[stringToBytes32(_email)] > 0);\r\n        return userIdByEmail[stringToBytes32(_email)];\r\n    }\r\n\r\n    // Purpose  : To retrieve a users id via email\r\n    function getIdByAddress(address _address) public view returns (uint) {\r\n        require(userIdByAddress[_address] > 0);\r\n        return userIdByAddress[_address];\r\n    }\r\n\r\n    // Purpose  : To retrieve a users id via email\r\n    function getMyId() public view returns (uint) {\r\n        require(userIdByAddress[msg.sender] > 0);\r\n        return userIdByAddress[msg.sender];\r\n    }\r\n\r\n    // Purpose  : To retrieve a credential by the id\r\n    function getUserById(uint _id) public view returns (bytes32, bytes32, bytes32, bool, uint) {\r\n        require(_id < userCount);\r\n        return (users[_id].firstName, users[_id].lastName, users[_id].email, users[_id].isActive, _id); \r\n    }\r\n\r\n    function getUserByEmail(string _email) public view returns  (bytes32, bytes32, bytes32, bool, uint) {\r\n        uint _id = userIdByEmail[stringToBytes32(_email)];\r\n        require(users[_id].email.length > 0);\r\n        require(_id < users.length);\r\n        return (users[_id].firstName, users[_id].lastName, users[_id].email, users[_id].isActive, _id); \r\n    }\r\n\r\n    function getUserByAddress(address _address) public view returns (bytes32, bytes32, bytes32, bool, uint) {\r\n        uint _id = userIdByAddress[_address];\r\n        require(users[_id].email.length > 0);\r\n        require(_id < userCount);\r\n        return (users[_id].firstName, users[_id].lastName, users[_id].email, users[_id].isActive, _id); \r\n    }\r\n\r\n    function getUserList() public view returns (bytes32[], bytes32[], bytes32[], bool[]) {\r\n        require(userCount >= 0);\r\n        bytes32[] memory firstNames = new bytes32[](userCount);\r\n        bytes32[] memory lastNames = new bytes32[](userCount);\r\n        bytes32[] memory emails = new bytes32[](userCount);\r\n        bool[] memory isActives = new bool[](userCount);\r\n        for (uint i = 0; i < userCount; i++) {\r\n            firstNames[i] = users[i].firstName;\r\n            lastNames[i] = users[i].lastName;\r\n            emails[i] = users[i].email;\r\n            isActives[i] = users[i].isActive;\r\n        }\r\n        return (firstNames, lastNames, emails, isActives);\r\n    }\r\n\r\n    // Purpose  : Determines if the address is a user\r\n    function addressIsUser(address _address) public view returns (bool) {\r\n        uint id = userIdByAddress[_address];\r\n        return (id > 0);\r\n    }\r\n\r\n}",
  "sourcePath": "D:\\GitHub\\pirl-project01\\truffle\\contracts\\Users.sol",
  "compiler": {
    "name": "solc",
    "version": "0.4.23+commit.124ca40d.Emscripten.clang"
  },
  "schemaVersion": "2.0.0",
  "updatedAt": "2018-05-20T14:59:01.589Z"
}