{
  "contractName": "Users",
  "abi": [
    {
      "constant": true,
      "inputs": [
        {
          "name": "",
          "type": "uint256"
        }
      ],
      "name": "users",
      "outputs": [
        {
          "name": "firstName",
          "type": "bytes32"
        },
        {
          "name": "lastName",
          "type": "bytes32"
        },
        {
          "name": "email",
          "type": "bytes32"
        },
        {
          "name": "isActive",
          "type": "bool"
        }
      ],
      "payable": false,
      "stateMutability": "view",
      "type": "function"
    },
    {
      "anonymous": false,
      "inputs": [
        {
          "indexed": false,
          "name": "id",
          "type": "uint256"
        },
        {
          "indexed": false,
          "name": "firstName",
          "type": "string"
        },
        {
          "indexed": false,
          "name": "lastName",
          "type": "string"
        },
        {
          "indexed": false,
          "name": "email",
          "type": "string"
        },
        {
          "indexed": false,
          "name": "userAddress",
          "type": "address"
        }
      ],
      "name": "NewUser",
      "type": "event"
    },
    {
      "anonymous": false,
      "inputs": [
        {
          "indexed": false,
          "name": "id",
          "type": "uint256"
        },
        {
          "indexed": false,
          "name": "firstName",
          "type": "string"
        },
        {
          "indexed": false,
          "name": "lastName",
          "type": "string"
        },
        {
          "indexed": false,
          "name": "email",
          "type": "string"
        },
        {
          "indexed": false,
          "name": "userAddress",
          "type": "address"
        }
      ],
      "name": "UpdateUser",
      "type": "event"
    },
    {
      "constant": false,
      "inputs": [
        {
          "name": "_firstName",
          "type": "string"
        },
        {
          "name": "_lastName",
          "type": "string"
        },
        {
          "name": "_email",
          "type": "string"
        }
      ],
      "name": "addUser",
      "outputs": [],
      "payable": false,
      "stateMutability": "nonpayable",
      "type": "function"
    },
    {
      "constant": false,
      "inputs": [
        {
          "name": "_firstName",
          "type": "string"
        },
        {
          "name": "_lastName",
          "type": "string"
        },
        {
          "name": "_email",
          "type": "string"
        }
      ],
      "name": "updateUser",
      "outputs": [],
      "payable": false,
      "stateMutability": "nonpayable",
      "type": "function"
    },
    {
      "constant": true,
      "inputs": [
        {
          "name": "_email",
          "type": "string"
        }
      ],
      "name": "getIdByEmail",
      "outputs": [
        {
          "name": "",
          "type": "uint256"
        }
      ],
      "payable": false,
      "stateMutability": "view",
      "type": "function"
    },
    {
      "constant": true,
      "inputs": [
        {
          "name": "_address",
          "type": "address"
        }
      ],
      "name": "getIdByAddress",
      "outputs": [
        {
          "name": "",
          "type": "uint256"
        }
      ],
      "payable": false,
      "stateMutability": "view",
      "type": "function"
    },
    {
      "constant": true,
      "inputs": [],
      "name": "getMyId",
      "outputs": [
        {
          "name": "",
          "type": "uint256"
        }
      ],
      "payable": false,
      "stateMutability": "view",
      "type": "function"
    },
    {
      "constant": true,
      "inputs": [
        {
          "name": "_id",
          "type": "uint256"
        }
      ],
      "name": "getUserById",
      "outputs": [
        {
          "name": "",
          "type": "bytes32"
        },
        {
          "name": "",
          "type": "bytes32"
        },
        {
          "name": "",
          "type": "bytes32"
        },
        {
          "name": "",
          "type": "bool"
        },
        {
          "name": "",
          "type": "uint256"
        }
      ],
      "payable": false,
      "stateMutability": "view",
      "type": "function"
    },
    {
      "constant": true,
      "inputs": [
        {
          "name": "_email",
          "type": "string"
        }
      ],
      "name": "getUserByEmail",
      "outputs": [
        {
          "name": "",
          "type": "bytes32"
        },
        {
          "name": "",
          "type": "bytes32"
        },
        {
          "name": "",
          "type": "bytes32"
        },
        {
          "name": "",
          "type": "bool"
        },
        {
          "name": "",
          "type": "uint256"
        }
      ],
      "payable": false,
      "stateMutability": "view",
      "type": "function"
    },
    {
      "constant": true,
      "inputs": [
        {
          "name": "_address",
          "type": "address"
        }
      ],
      "name": "getUserByAddress",
      "outputs": [
        {
          "name": "",
          "type": "bytes32"
        },
        {
          "name": "",
          "type": "bytes32"
        },
        {
          "name": "",
          "type": "bytes32"
        },
        {
          "name": "",
          "type": "bool"
        },
        {
          "name": "",
          "type": "uint256"
        }
      ],
      "payable": false,
      "stateMutability": "view",
      "type": "function"
    },
    {
      "constant": true,
      "inputs": [],
      "name": "getUserList",
      "outputs": [
        {
          "name": "",
          "type": "bytes32[]"
        },
        {
          "name": "",
          "type": "bytes32[]"
        },
        {
          "name": "",
          "type": "bytes32[]"
        },
        {
          "name": "",
          "type": "bool[]"
        }
      ],
      "payable": false,
      "stateMutability": "view",
      "type": "function"
    },
    {
      "constant": true,
      "inputs": [
        {
          "name": "_address",
          "type": "address"
        }
      ],
      "name": "addressIsUser",
      "outputs": [
        {
          "name": "",
          "type": "bool"
        }
      ],
      "payable": false,
      "stateMutability": "view",
      "type": "function"
    }
  ],
  "bytecode": "0x6080604052600060035534801561001557600080fd5b506115c4806100256000396000f3006080604052600436106100af576000357c0100000000000000000000000000000000000000000000000000000000900463ffffffff16806318046ae1146100b457806327ed00ee14610169578063365b98b21461019457806360903be61461020657806369c212f6146102fb5780636ed6da9e1461038a578063807d80451461040357806395c5fed414610480578063b852204314610575578063df97cda3146106b9578063dff3b49714610714575b600080fd5b3480156100c057600080fd5b5061011b600480360381019080803590602001908201803590602001908080601f016020809104026020016040519081016040528093929190818152602001838380828437820191505050505050919291929050505061076b565b60405180866000191660001916815260200185600019166000191681526020018460001916600019168152602001831515151581526020018281526020019550505050505060405180910390f35b34801561017557600080fd5b5061017e610880565b6040518082815260200191505060405180910390f35b3480156101a057600080fd5b506101bf60048036038101908080359060200190929190505050610914565b604051808560001916600019168152602001846000191660001916815260200183600019166000191681526020018215151515815260200194505050505060405180910390f35b34801561021257600080fd5b506102f9600480360381019080803590602001908201803590602001908080601f0160208091040260200160405190810160405280939291908181526020018383808284378201915050505050509192919290803590602001908201803590602001908080601f0160208091040260200160405190810160405280939291908181526020018383808284378201915050505050509192919290803590602001908201803590602001908080601f0160208091040260200160405190810160405280939291908181526020018383808284378201915050505050509192919290505050610960565b005b34801561030757600080fd5b5061033c600480360381019080803573ffffffffffffffffffffffffffffffffffffffff169060200190929190505050610ca0565b60405180866000191660001916815260200185600019166000191681526020018460001916600019168152602001831515151581526020018281526020019550505050505060405180910390f35b34801561039657600080fd5b506103b560048036038101908080359060200190929190505050610dce565b60405180866000191660001916815260200185600019166000191681526020018460001916600019168152602001831515151581526020018281526020019550505050505060405180910390f35b34801561040f57600080fd5b5061046a600480360381019080803590602001908201803590602001908080601f0160208091040260200160405190810160405280939291908181526020018383808284378201915050505050509192919290505050610e8b565b6040518082815260200191505060405180910390f35b34801561048c57600080fd5b50610573600480360381019080803590602001908201803590602001908080601f0160208091040260200160405190810160405280939291908181526020018383808284378201915050505050509192919290803590602001908201803590602001908080601f0160208091040260200160405190810160405280939291908181526020018383808284378201915050505050509192919290803590602001908201803590602001908080601f0160208091040260200160405190810160405280939291908181526020018383808284378201915050505050509192919290505050610eb8565b005b34801561058157600080fd5b5061058a61123f565b6040518080602001806020018060200180602001858103855289818151815260200191508051906020019060200280838360005b838110156105d95780820151818401526020810190506105be565b50505050905001858103845288818151815260200191508051906020019060200280838360005b8381101561061b578082015181840152602081019050610600565b50505050905001858103835287818151815260200191508051906020019060200280838360005b8381101561065d578082015181840152602081019050610642565b50505050905001858103825286818151815260200191508051906020019060200280838360005b8381101561069f578082015181840152602081019050610684565b505050509050019850505050505050505060405180910390f35b3480156106c557600080fd5b506106fa600480360381019080803573ffffffffffffffffffffffffffffffffffffffff169060200190929190505050611486565b604051808215151515815260200191505060405180910390f35b34801561072057600080fd5b50610755600480360381019080803573ffffffffffffffffffffffffffffffffffffffff1690602001909291905050506114d7565b6040518082815260200191505060405180910390f35b600080600080600080600160006107818961156d565b60001916600019168152602001908152602001600020549050600080828154811015156107aa57fe5b906000526020600020905050602060ff161115156107c757600080fd5b600080549050811015156107da57600080fd5b6000818154811015156107e957fe5b90600052602060002090600402016000015460008281548110151561080a57fe5b90600052602060002090600402016001015460008381548110151561082b57fe5b90600052602060002090600402016002015460008481548110151561084c57fe5b906000526020600020906004020160030160009054906101000a900460ff1684955095509550955095505091939590929450565b600080600260003373ffffffffffffffffffffffffffffffffffffffff1673ffffffffffffffffffffffffffffffffffffffff168152602001908152602001600020541115156108cf57600080fd5b600260003373ffffffffffffffffffffffffffffffffffffffff1673ffffffffffffffffffffffffffffffffffffffff16815260200190815260200160002054905090565b60008181548110151561092357fe5b90600052602060002090600402016000915090508060000154908060010154908060020154908060030160009054906101000a900460ff16905084565b600080600260003373ffffffffffffffffffffffffffffffffffffffff1673ffffffffffffffffffffffffffffffffffffffff16815260200190815260200160002054905060016000828154811015156109b657fe5b906000526020600020905050602060ff161115156109d357600080fd5b6000600260003373ffffffffffffffffffffffffffffffffffffffff1673ffffffffffffffffffffffffffffffffffffffff16815260200190815260200160002054111515610a2157600080fd5b610a2a336114d7565b9150610a358561156d565b600083815481101515610a4457fe5b90600052602060002090600402016000018160001916905550610a668461156d565b600083815481101515610a7557fe5b90600052602060002090600402016001018160001916905550610a978361156d565b600083815481101515610aa657fe5b906000526020600020906004020160020181600019169055508160016000610acd8661156d565b60001916600019168152602001908152602001600020819055507fd3923f0b3b1cec0036b68d0c3f17abc063fe21182d951342a1300cd3f98564dd8286868633604051808681526020018060200180602001806020018573ffffffffffffffffffffffffffffffffffffffff1673ffffffffffffffffffffffffffffffffffffffff168152602001848103845288818151815260200191508051906020019080838360005b83811015610b8d578082015181840152602081019050610b72565b50505050905090810190601f168015610bba5780820380516001836020036101000a031916815260200191505b50848103835287818151815260200191508051906020019080838360005b83811015610bf3578082015181840152602081019050610bd8565b50505050905090810190601f168015610c205780820380516001836020036101000a031916815260200191505b50848103825286818151815260200191508051906020019080838360005b83811015610c59578082015181840152602081019050610c3e565b50505050905090810190601f168015610c865780820380516001836020036101000a031916815260200191505b509850505050505050505060405180910390a15050505050565b600080600080600080600260008873ffffffffffffffffffffffffffffffffffffffff1673ffffffffffffffffffffffffffffffffffffffff16815260200190815260200160002054905060008082815481101515610cfb57fe5b906000526020600020905050602060ff16111515610d1857600080fd5b60035481101515610d2857600080fd5b600081815481101515610d3757fe5b906000526020600020906004020160000154600082815481101515610d5857fe5b906000526020600020906004020160010154600083815481101515610d7957fe5b906000526020600020906004020160020154600084815481101515610d9a57fe5b906000526020600020906004020160030160009054906101000a900460ff1684955095509550955095505091939590929450565b600080600080600060035486101515610de657600080fd5b600086815481101515610df557fe5b906000526020600020906004020160000154600087815481101515610e1657fe5b906000526020600020906004020160010154600088815481101515610e3757fe5b906000526020600020906004020160020154600089815481101515610e5857fe5b906000526020600020906004020160030160009054906101000a900460ff16899450945094509450945091939590929450565b600060016000610e9a8461156d565b60001916600019168152602001908152602001600020549050919050565b60008060016000610ec88561156d565b6000191660001916815260200190815260200160002054141515610eeb57600080fd5b6000600260003373ffffffffffffffffffffffffffffffffffffffff1673ffffffffffffffffffffffffffffffffffffffff16815260200190815260200160002054141515610f3957600080fd5b6000905060016000608060405190810160405280610f568861156d565b600019168152602001610f688761156d565b600019168152602001610f7a8661156d565b600019168152602001600115158152509080600181540180825580915050906001820390600052602060002090600402016000909192909190915060008201518160000190600019169055602082015181600101906000191690556040820151816002019060001916905560608201518160030160006101000a81548160ff021916908315150217905550505003905080600160006110188561156d565b600019166000191681526020019081526020016000208190555080600260003373ffffffffffffffffffffffffffffffffffffffff1673ffffffffffffffffffffffffffffffffffffffff1681526020019081526020016000208190555060016003600082825401925050819055507f023a8bc2c2a7585292c8d76a6c38d4001ebdb3df730965277bc4d0e94f2647518185858533604051808681526020018060200180602001806020018573ffffffffffffffffffffffffffffffffffffffff1673ffffffffffffffffffffffffffffffffffffffff168152602001848103845288818151815260200191508051906020019080838360005b8381101561112d578082015181840152602081019050611112565b50505050905090810190601f16801561115a5780820380516001836020036101000a031916815260200191505b50848103835287818151815260200191508051906020019080838360005b83811015611193578082015181840152602081019050611178565b50505050905090810190601f1680156111c05780820380516001836020036101000a031916815260200191505b50848103825286818151815260200191508051906020019080838360005b838110156111f95780820151818401526020810190506111de565b50505050905090810190601f1680156112265780820380516001836020036101000a031916815260200191505b509850505050505050505060405180910390a150505050565b6060806060806060806060806000806003541015151561125e57600080fd5b60035460405190808252806020026020018201604052801561128f5781602001602082028038833980820191505090505b5094506003546040519080825280602002602001820160405280156112c35781602001602082028038833980820191505090505b5093506003546040519080825280602002602001820160405280156112f75781602001602082028038833980820191505090505b50925060035460405190808252806020026020018201604052801561132b5781602001602082028038833980820191505090505b509150600090505b60035481101561146f5760008181548110151561134c57fe5b906000526020600020906004020160000154858281518110151561136c57fe5b90602001906020020190600019169081600019168152505060008181548110151561139357fe5b90600052602060002090600402016001015484828151811015156113b357fe5b9060200190602002019060001916908160001916815250506000818154811015156113da57fe5b90600052602060002090600402016002015483828151811015156113fa57fe5b90602001906020020190600019169081600019168152505060008181548110151561142157fe5b906000526020600020906004020160030160009054906101000a900460ff16828281518110151561144e57fe5b90602001906020020190151590811515815250508080600101915050611333565b848484849850985098509850505050505090919293565b600080600260008473ffffffffffffffffffffffffffffffffffffffff1673ffffffffffffffffffffffffffffffffffffffff16815260200190815260200160002054905060008111915050919050565b600080600260008473ffffffffffffffffffffffffffffffffffffffff1673ffffffffffffffffffffffffffffffffffffffff1681526020019081526020016000205411151561152657600080fd5b600260008373ffffffffffffffffffffffffffffffffffffffff1673ffffffffffffffffffffffffffffffffffffffff168152602001908152602001600020549050919050565b6000606082905060008151141561158a5760006001029150611592565b602083015191505b509190505600a165627a7a7230582022a7e148212e2b010d091f20f84e08985d52e502c2a810246a5d2366b5b074640029",
  "source": "pragma solidity ^0.4.19;\r\n\r\nimport \"./myutils.sol\";\r\n\r\ncontract Users is MyUtils {\r\n\r\n    // Events\r\n    event NewUser(uint id, string firstName, string lastName, string email, address userAddress);\r\n    event UpdateUser(uint id, string firstName, string lastName, string email, address userAddress);\r\n\r\n\r\n    //  Make sure the address resolves a valid contract\r\n    modifier onlyUserOwner() {\r\n        uint id = userIdByAddress[msg.sender];\r\n        require(users[id].firstName.length > 1);\r\n        _;\r\n    }\r\n\r\n    // Structs\r\n    struct User {\r\n        bytes32 firstName;\r\n        bytes32 lastName;\r\n        bytes32 email;\r\n        bool isActive;\r\n    }\r\n\r\n    User[] public users;\r\n    mapping(bytes32 => uint) internal userIdByEmail;\r\n    mapping(address => uint) internal userIdByAddress;\r\n    uint userCount = 0;\r\n    // Purpose  : Add a root user to solve the issue when\r\n    //            the mapping resolves to 0 when it can't\r\n    //            find a value.\r\n    //constructor() internal {\r\n    //    addUser(\"root\",\"user\",\"mmurphy384@yahoo.com\");\r\n   // }\r\n\r\n    // Purpose  : User adds their own account\r\n    function addUser(string _firstName, string _lastName, string _email) public {\r\n        require(userIdByEmail[stringToBytes32(_email)] == 0);\r\n        require(userIdByAddress[msg.sender] == 0);\r\n        uint id = 0;\r\n        id = users.push(User(stringToBytes32(_firstName), stringToBytes32(_lastName),stringToBytes32(_email), true))-1;\r\n        userIdByEmail[stringToBytes32(_email)] = id;\r\n        userIdByAddress[msg.sender] = id;\r\n        userCount += 1;\r\n        emit NewUser(id, _firstName,_lastName, _email, msg.sender);\r\n    }\r\n\r\n    // Purpose  : To update user about a person\r\n    function updateUser(string _firstName, string _lastName, string _email) onlyUserOwner public {\r\n        require(userIdByAddress[msg.sender] > 0);\r\n        //require(_email.length > 4);\r\n        uint id = getIdByAddress(msg.sender);\r\n        users[id].firstName = stringToBytes32(_firstName);\r\n        users[id].lastName = stringToBytes32(_lastName);\r\n        users[id].email = stringToBytes32(_email);\r\n        userIdByEmail[stringToBytes32(_email)] = id;\r\n        emit UpdateUser(id, _firstName, _lastName, _email, msg.sender);\r\n    }\r\n\r\n    // Purpose  : To retrieve a users id via email\r\n    function getIdByEmail(string _email) public view returns (uint) {\r\n        //require(_email.length > 0);\r\n        //require(userIdByEmail[stringToBytes32(_email)] > 0);\r\n        return userIdByEmail[stringToBytes32(_email)];\r\n    }\r\n\r\n    // Purpose  : To retrieve a users id via email\r\n    function getIdByAddress(address _address) public view returns (uint) {\r\n        require(userIdByAddress[_address] > 0);\r\n        return userIdByAddress[_address];\r\n    }\r\n\r\n    // Purpose  : To retrieve a users id via email\r\n    function getMyId() public view returns (uint) {\r\n        require(userIdByAddress[msg.sender] > 0);\r\n        return userIdByAddress[msg.sender];\r\n    }\r\n\r\n    // Purpose  : To retrieve a credential by the id\r\n    function getUserById(uint _id) public view returns (bytes32, bytes32, bytes32, bool, uint) {\r\n        require(_id < userCount);\r\n        return (users[_id].firstName, users[_id].lastName, users[_id].email, users[_id].isActive, _id); \r\n    }\r\n\r\n    function getUserByEmail(string _email) public view returns  (bytes32, bytes32, bytes32, bool, uint) {\r\n        uint _id = userIdByEmail[stringToBytes32(_email)];\r\n        require(users[_id].email.length > 0);\r\n        require(_id < users.length);\r\n        return (users[_id].firstName, users[_id].lastName, users[_id].email, users[_id].isActive, _id); \r\n    }\r\n\r\n    function getUserByAddress(address _address) public view returns (bytes32, bytes32, bytes32, bool, uint) {\r\n        uint _id = userIdByAddress[_address];\r\n        require(users[_id].email.length > 0);\r\n        require(_id < userCount);\r\n        return (users[_id].firstName, users[_id].lastName, users[_id].email, users[_id].isActive, _id); \r\n    }\r\n\r\n    function getUserList() public view returns (bytes32[], bytes32[], bytes32[], bool[]) {\r\n        require(userCount >= 0);\r\n        bytes32[] memory firstNames = new bytes32[](userCount);\r\n        bytes32[] memory lastNames = new bytes32[](userCount);\r\n        bytes32[] memory emails = new bytes32[](userCount);\r\n        bool[] memory isActives = new bool[](userCount);\r\n        for (uint i = 0; i < userCount; i++) {\r\n            firstNames[i] = users[i].firstName;\r\n            lastNames[i] = users[i].lastName;\r\n            emails[i] = users[i].email;\r\n            isActives[i] = users[i].isActive;\r\n        }\r\n        return (firstNames, lastNames, emails, isActives);\r\n    }\r\n\r\n    // Purpose  : Determines if the address is a user\r\n    function addressIsUser(address _address) public view returns (bool) {\r\n        uint id = userIdByAddress[_address];\r\n        return (id > 0);\r\n    }\r\n\r\n}",
  "sourcePath": "D:\\GitHub\\pirl-project01\\truffle\\contracts\\Users.sol",
  "compiler": {
    "name": "solc",
    "version": "0.4.23+commit.124ca40d.Emscripten.clang"
  },
  "schemaVersion": "2.0.0",
  "updatedAt": "2018-05-19T00:06:03.991Z"
}