{
  "contractName": "UserSubmissions",
  "abi": [
    {
      "constant": true,
      "inputs": [
        {
          "name": "",
          "type": "uint256"
        }
      ],
      "name": "submissions",
      "outputs": [
        {
          "name": "userId",
          "type": "uint256"
        },
        {
          "name": "agencyId",
          "type": "uint256"
        },
        {
          "name": "credentialId",
          "type": "uint256"
        },
        {
          "name": "fileIds",
          "type": "bytes32"
        },
        {
          "name": "status",
          "type": "bytes32"
        }
      ],
      "payable": false,
      "stateMutability": "view",
      "type": "function"
    },
    {
      "anonymous": false,
      "inputs": [
        {
          "indexed": false,
          "name": "userSubmissionId",
          "type": "uint256"
        },
        {
          "indexed": false,
          "name": "userId",
          "type": "uint256"
        },
        {
          "indexed": false,
          "name": "agencyId",
          "type": "uint256"
        },
        {
          "indexed": false,
          "name": "credentialId",
          "type": "uint256"
        },
        {
          "indexed": false,
          "name": "fileIds",
          "type": "string"
        },
        {
          "indexed": false,
          "name": "status",
          "type": "string"
        }
      ],
      "name": "NewSubmission",
      "type": "event"
    },
    {
      "anonymous": false,
      "inputs": [
        {
          "indexed": false,
          "name": "userSubmissionId",
          "type": "uint256"
        },
        {
          "indexed": false,
          "name": "userId",
          "type": "uint256"
        },
        {
          "indexed": false,
          "name": "agencyId",
          "type": "uint256"
        },
        {
          "indexed": false,
          "name": "credentialId",
          "type": "uint256"
        },
        {
          "indexed": false,
          "name": "fileIds",
          "type": "string"
        },
        {
          "indexed": false,
          "name": "status",
          "type": "string"
        }
      ],
      "name": "UpdateSubmission",
      "type": "event"
    },
    {
      "constant": false,
      "inputs": [
        {
          "name": "_userId",
          "type": "uint256"
        },
        {
          "name": "_agencyId",
          "type": "uint256"
        },
        {
          "name": "_credentialId",
          "type": "uint256"
        },
        {
          "name": "_fileIds",
          "type": "string"
        },
        {
          "name": "_status",
          "type": "string"
        }
      ],
      "name": "addSubmission",
      "outputs": [],
      "payable": true,
      "stateMutability": "payable",
      "type": "function"
    },
    {
      "constant": false,
      "inputs": [
        {
          "name": "_submissionId",
          "type": "uint256"
        },
        {
          "name": "_status",
          "type": "string"
        }
      ],
      "name": "updateStatus",
      "outputs": [],
      "payable": false,
      "stateMutability": "nonpayable",
      "type": "function"
    },
    {
      "constant": false,
      "inputs": [
        {
          "name": "_submissionId",
          "type": "uint256"
        },
        {
          "name": "_fileIds",
          "type": "string"
        }
      ],
      "name": "updateFileIds",
      "outputs": [],
      "payable": false,
      "stateMutability": "nonpayable",
      "type": "function"
    },
    {
      "constant": true,
      "inputs": [
        {
          "name": "_submissionId",
          "type": "uint256"
        }
      ],
      "name": "getUserSubmissionById",
      "outputs": [
        {
          "name": "",
          "type": "uint256"
        },
        {
          "name": "",
          "type": "uint256"
        },
        {
          "name": "",
          "type": "uint256"
        },
        {
          "name": "",
          "type": "bytes32"
        },
        {
          "name": "",
          "type": "bytes32"
        }
      ],
      "payable": false,
      "stateMutability": "view",
      "type": "function"
    }
  ],
  "bytecode": "0x608060405234801561001057600080fd5b506110e9806100206000396000f30060806040526004361061006d576000357c0100000000000000000000000000000000000000000000000000000000900463ffffffff16806355d97239146100725780638d1962a9146100e5578063997339f914610152578063ad73349e14610212578063d1b34dd81461027f575b600080fd5b34801561007e57600080fd5b506100e360048036038101908080359060200190929190803590602001908201803590602001908080601f01602080910402602001604051908101604052809392919081815260200183838082843782019150505050505091929192905050506102f2565b005b3480156100f157600080fd5b506101106004803603810190808035906020019092919050505061052c565b60405180868152602001858152602001848152602001836000191660001916815260200182600019166000191681526020019550505050505060405180910390f35b610210600480360381019080803590602001909291908035906020019092919080359060200190929190803590602001908201803590602001908080601f0160208091040260200160405190810160405280939291908181526020018383808284378201915050505050509192919290803590602001908201803590602001908080601f01602080910402602001604051908101604052809392919081815260200183838082843782019150505050505091929192905050506105fe565b005b34801561021e57600080fd5b5061023d600480360381019080803590602001909291905050506108c0565b60405180868152602001858152602001848152602001836000191660001916815260200182600019166000191681526020019550505050505060405180910390f35b34801561028b57600080fd5b506102f060048036038101908080359060200190929190803590602001908201803590602001908080601f0160208091040260200160405190810160405280939291908181526020018383808284378201915050505050509192919290505050610905565b005b60006102fd82610afa565b11151561030957600080fd5b60008211151561031857600080fd5b6000808381548110151561032857fe5b90600052602060002090600502016000015411151561034657600080fd5b61034f81610e96565b60008381548110151561035e57fe5b906000526020600020906005020160030181600019169055507ffac2492c829bca1a059223f5ece30366ee475cbed25366f6cd085036a20b3abd826000848154811015156103a857fe5b9060005260206000209060050201600001546000858154811015156103c957fe5b9060005260206000209060050201600101546000868154811015156103ea57fe5b9060005260206000209060050201600201548561042660008981548110151561040f57fe5b906000526020600020906005020160040154610ec1565b604051808781526020018681526020018581526020018481526020018060200180602001838103835285818151815260200191508051906020019080838360005b83811015610482578082015181840152602081019050610467565b50505050905090810190601f1680156104af5780820380516001836020036101000a031916815260200191505b50838103825284818151815260200191508051906020019080838360005b838110156104e85780820151818401526020810190506104cd565b50505050905090810190601f1680156105155780820380516001836020036101000a031916815260200191505b509850505050505050505060405180910390a15050565b600080600080600080805490508610151561054657600080fd5b60008681548110151561055557fe5b90600052602060002090600502016000015460008781548110151561057657fe5b90600052602060002090600502016001015460008881548110151561059757fe5b9060005260206000209060050201600201546000898154811015156105b857fe5b90600052602060002090600502016003015460008a8154811015156105d957fe5b9060005260206000209060050201600401549450945094509450945091939590929450565b6000808511151561060e57600080fd5b60008611151561061d57600080fd5b60008411151561062c57600080fd5b6001600060a06040519081016040528089815260200188815260200187815260200161065787610e96565b60001916815260200161066986610e96565b6000191681525090806001815401808255809150509060018203906000526020600020906005020160009091929091909150600082015181600001556020820151816001015560408201518160020155606082015181600301906000191690556080820151816004019060001916905550505050600160008054905003905060018060008881526020019081526020016000206000828254019250508190556001600088815260200190815260200160002081905550600160026000878152602001908152602001600020600082825401925050819055600260008781526020019081526020016000208190555060016003600086815260200190815260200160002060008282540192505081905560036000868152602001908152602001600020819055507fe2ef8cb20df168cc7b9490eb9369f70e2e8786b1c20da582d4796b8b7882883e818787878787604051808781526020018681526020018581526020018481526020018060200180602001838103835285818151815260200191508051906020019080838360005b838110156108125780820151818401526020810190506107f7565b50505050905090810190601f16801561083f5780820380516001836020036101000a031916815260200191505b50838103825284818151815260200191508051906020019080838360005b8381101561087857808201518184015260208101905061085d565b50505050905090810190601f1680156108a55780820380516001836020036101000a031916815260200191505b509850505050505050505060405180910390a1505050505050565b6000818154811015156108cf57fe5b90600052602060002090600502016000915090508060000154908060010154908060020154908060030154908060040154905085565b60008211151561091457600080fd5b61091d81610e96565b60008381548110151561092c57fe5b906000526020600020906005020160040181600019169055507ffac2492c829bca1a059223f5ece30366ee475cbed25366f6cd085036a20b3abd8260008481548110151561097657fe5b90600052602060002090600502016000015460008581548110151561099757fe5b9060005260206000209060050201600101546000868154811015156109b857fe5b9060005260206000209060050201600201546109f36000888154811015156109dc57fe5b906000526020600020906005020160030154610ec1565b86604051808781526020018681526020018581526020018481526020018060200180602001838103835285818151815260200191508051906020019080838360005b83811015610a50578082015181840152602081019050610a35565b50505050905090810190601f168015610a7d5780820380516001836020036101000a031916815260200191505b50838103825284818151815260200191508051906020019080838360005b83811015610ab6578082015181840152602081019050610a9b565b50505050905090810190601f168015610ae35780820380516001836020036101000a031916815260200191505b509850505050505050505060405180910390a15050565b6000806060600091508390505b8051821015610e8f5760007f01000000000000000000000000000000000000000000000000000000000000000260078284815181101515610b4457fe5b9060200101517f010000000000000000000000000000000000000000000000000000000000000090047f0100000000000000000000000000000000000000000000000000000000000000027effffffffffffffffffffffffffffffffffffffffffffffffffffffffffffff19169060020a90047effffffffffffffffffffffffffffffffffffffffffffffffffffffffffffff19161415610bea57600182019150610e82565b60067f01000000000000000000000000000000000000000000000000000000000000000260058284815181101515610c1e57fe5b9060200101517f010000000000000000000000000000000000000000000000000000000000000090047f0100000000000000000000000000000000000000000000000000000000000000027effffffffffffffffffffffffffffffffffffffffffffffffffffffffffffff19169060020a90047effffffffffffffffffffffffffffffffffffffffffffffffffffffffffffff19161415610cc457600282019150610e81565b600e7f01000000000000000000000000000000000000000000000000000000000000000260048284815181101515610cf857fe5b9060200101517f010000000000000000000000000000000000000000000000000000000000000090047f0100000000000000000000000000000000000000000000000000000000000000027effffffffffffffffffffffffffffffffffffffffffffffffffffffffffffff19169060020a90047effffffffffffffffffffffffffffffffffffffffffffffffffffffffffffff19161415610d9e57600382019150610e80565b601e7f01000000000000000000000000000000000000000000000000000000000000000260038284815181101515610dd257fe5b9060200101517f010000000000000000000000000000000000000000000000000000000000000090047f0100000000000000000000000000000000000000000000000000000000000000027effffffffffffffffffffffffffffffffffffffffffffffffffffffffffffff19169060020a90047effffffffffffffffffffffffffffffffffffffffffffffffffffffffffffff19161415610e7857600482019150610e7f565b6001820191505b5b5b5b8280600101935050610b07565b5050919050565b60006060829050600081511415610eb35760006001029150610ebb565b602083015191505b50919050565b6060806000806000606060206040519080825280601f01601f191660200182016040528015610eff5781602001602082028038833980820191505090505b50945060009350600092505b6020831015610fc9578260080260020a876001900402600102915060007f010000000000000000000000000000000000000000000000000000000000000002827effffffffffffffffffffffffffffffffffffffffffffffffffffffffffffff1916141515610fbc57818585815181101515610f8357fe5b9060200101907effffffffffffffffffffffffffffffffffffffffffffffffffffffffffffff1916908160001a90535083806001019450505b8280600101935050610f0b565b836040519080825280601f01601f191660200182016040528015610ffc5781602001602082028038833980820191505090505b509050600092505b838310156110b057848381518110151561101a57fe5b9060200101517f010000000000000000000000000000000000000000000000000000000000000090047f010000000000000000000000000000000000000000000000000000000000000002818481518110151561107357fe5b9060200101907effffffffffffffffffffffffffffffffffffffffffffffffffffffffffffff1916908160001a9053508280600101935050611004565b80955050505050509190505600a165627a7a72305820b4be40ef165569ae72ad60655cbe585730365af474619386ac4b2d71b84e6e930029",
  "source": "pragma solidity ^0.4.23;\r\n\r\ncontract UserSubmissions {\r\n\r\n    //Events\r\n    event NewSubmission(\r\n    uint userSubmissionId,\r\n    uint userId, \r\n    uint agencyId,\r\n    uint credentialId,\r\n    string fileIds,\r\n    string status);\r\n\r\n    event UpdateSubmission(\r\n    uint userSubmissionId,\r\n    uint userId, \r\n    uint agencyId,\r\n    uint credentialId,\r\n    string fileIds,\r\n    string status);\r\n\r\n    // Structs\r\n    struct Submission {\r\n        uint userId; \r\n        uint agencyId;\r\n        uint credentialId;\r\n        bytes32 fileIds;\r\n        bytes32 status;\r\n    }\r\n\r\n    Submission[] public submissions;\r\n\r\n    mapping(uint => uint) internal submissionCountByUserId;\r\n    mapping(uint => uint) internal submissionCountByAgencyId;\r\n    mapping(uint => uint) internal submissionCountByCredentialId;\r\n\r\n    // Purpose  : To create a submission.  Files can be attached afterward.\r\n    function addSubmission(\r\n        uint _userId, \r\n        uint _agencyId, \r\n        uint _credentialId, \r\n        string _fileIds,\r\n        string _status) \r\n        public payable {\r\n\r\n        require(_agencyId > 0);\r\n        require(_userId > 0);\r\n        require(_credentialId > 0);\r\n\r\n        submissions.push(Submission(\r\n            _userId,\r\n            _agencyId, \r\n            _credentialId,\r\n            stringToBytes32(_fileIds),\r\n            stringToBytes32(_status)\r\n            ))-1;\r\n\r\n        uint _id = submissions.length-1;\r\n\r\n        submissionCountByUserId[_userId] = submissionCountByUserId[_userId] += 1;\r\n        submissionCountByAgencyId[_agencyId] = submissionCountByAgencyId[_agencyId] += 1;\r\n        submissionCountByCredentialId[_credentialId] = submissionCountByCredentialId[_credentialId] += 1;\r\n\r\n        emit NewSubmission(_id, _userId, _agencyId, _credentialId, _fileIds, _status);\r\n    }\r\n\r\n    // Purpose  : To update a submission. Only files and statuss can be updated\r\n    // To Do    : Put some security on this.\r\n    function updateStatus(\r\n        uint _submissionId, \r\n        string _status) public {\r\n        \r\n        require(_submissionId > 0);\r\n        //require(submissions[submissionId].userId > 0);\r\n\r\n        submissions[_submissionId].status = stringToBytes32(_status);\r\n\r\n        emit UpdateSubmission(\r\n            _submissionId,\r\n            submissions[_submissionId].userId, \r\n            submissions[_submissionId].agencyId, \r\n            submissions[_submissionId].credentialId, \r\n            bytes32ToString(submissions[_submissionId].fileIds),\r\n            _status);\r\n    }\r\n\r\n    // Purpose  : To update a submission. Only files and statuss can be updated\r\n    // To Do    : Put some security on this.\r\n    function updateFileIds(\r\n        uint _submissionId, \r\n        string _fileIds) public {\r\n        require(utfStringLength(_fileIds) > 0);\r\n        require(_submissionId > 0);\r\n        require(submissions[_submissionId].userId > 0);\r\n\r\n        submissions[_submissionId].fileIds = stringToBytes32(_fileIds);\r\n\r\n        emit UpdateSubmission(\r\n            _submissionId,\r\n            submissions[_submissionId].userId, \r\n            submissions[_submissionId].agencyId, \r\n            submissions[_submissionId].credentialId, \r\n            _fileIds, \r\n            bytes32ToString(submissions[_submissionId].status));\r\n    }\r\n\r\n    // Purpose  : To retrieve a credential by the id\r\n    function getUserSubmissionById(uint _submissionId) public view returns (uint, uint, uint, bytes32, bytes32) {\r\n        require(_submissionId < submissions.length);\r\n        return (submissions[_submissionId].userId, \r\n            submissions[_submissionId].agencyId, \r\n            submissions[_submissionId].credentialId, \r\n            submissions[_submissionId].fileIds, \r\n            submissions[_submissionId].status\r\n        ); \r\n    }\r\n\r\n    // function getFileListByAgencyId(uint _agencyId) public view returns (bytes32[], uint[]) {\r\n    //     bytes32[] memory  names = new bytes32[](fileCountByAgencyId[_agencyId]);\r\n    //     uint[] memory  ids = new uint[](fileCountByAgencyId[_agencyId]);\r\n    //     uint index = 0;\r\n    //     for (uint i = 0; i <= files.length-1; i++) {\r\n    //         if (files[i].agencyId == _agencyId) {\r\n    //             names[index] = files[i].name;\r\n    //             ids[index] = i;\r\n    //             index += 1;\r\n    //         }\r\n    //     }\r\n    //     return (names,ids);\r\n    // }\r\n\r\n    // function getFileListByUserId(uint _userId) public view returns (bytes32[], uint[]) {\r\n    //     bytes32[] memory  names = new bytes32[](fileCountByUserId[_userId]);\r\n    //     uint[] memory  ids = new uint[](fileCountByUserId[_userId]);\r\n    //     uint index = 0;\r\n    //     for (uint i = 0; i <= files.length-1; i++) {\r\n    //         if (files[i].userId == _userId) {\r\n    //             names[index] = files[i].name;\r\n    //             ids[index] = i;\r\n    //             index += 1;\r\n    //         }\r\n    //     }\r\n    //     return (names,ids);\r\n    // }\r\n\r\n    // function getFileListByUserSubmissionId(uint _userSubmissionId) public view returns (bytes32[], uint[]) {\r\n    //     bytes32[] memory  names = new bytes32[](fileCountByUserSubmissionId[_userSubmissionId]);\r\n    //     uint[] memory  ids = new uint[](fileCountByUserSubmissionId[_userSubmissionId]);\r\n    //     uint index = 0;\r\n    //     for (uint i = 0; i <= files.length-1; i++) {\r\n    //         if (files[i].userId == _userSubmissionId) {\r\n    //             names[index] = files[i].name;\r\n    //             ids[index] = i;\r\n    //             index += 1;\r\n    //         }\r\n    //     }\r\n    //     return (names,ids);\r\n    // }\r\n\r\n    function bytes32ToString(bytes32 x) internal pure returns (string) {\r\n        bytes memory bytesString = new bytes(32);\r\n        uint charCount = 0;\r\n        for (uint j = 0; j < 32; j++) {\r\n            byte char = byte(bytes32(uint(x) * 2 ** (8 * j)));\r\n            if (char != 0) {\r\n                bytesString[charCount] = char;\r\n                charCount++;\r\n            }\r\n        }\r\n        bytes memory bytesStringTrimmed = new bytes(charCount);\r\n        for (j = 0; j < charCount; j++) {\r\n            bytesStringTrimmed[j] = bytesString[j];\r\n        }\r\n        return string(bytesStringTrimmed);\r\n    }\r\n\r\n    function stringToBytes32(string memory source) internal pure returns (bytes32 result) {\r\n        bytes memory tempEmptyStringTest = bytes(source);\r\n        if (tempEmptyStringTest.length == 0) {\r\n            return 0x0;\r\n        }\r\n        assembly {result := mload(add(source, 32))}\r\n    }\r\n\r\n    function utfStringLength(string str) pure internal\r\n    returns (uint length)\r\n    {\r\n        uint i=0;\r\n        bytes memory string_rep = bytes(str);\r\n\r\n        while (i<string_rep.length)\r\n        {\r\n            if (string_rep[i]>>7==0)\r\n                i+=1;\r\n            else if (string_rep[i]>>5==0x6)\r\n                i+=2;\r\n            else if (string_rep[i]>>4==0xE)\r\n                i+=3;\r\n            else if (string_rep[i]>>3==0x1E)\r\n                i+=4;\r\n            else\r\n                //For safety\r\n                i+=1;\r\n\r\n            length++;\r\n        }\r\n    }\r\n\r\n}",
  "sourcePath": "D:\\GitHub\\pirl-project01\\truffle\\contracts\\UserSubmissions.sol",
  "compiler": {
    "name": "solc",
    "version": "0.4.23+commit.124ca40d.Emscripten.clang"
  },
  "schemaVersion": "2.0.0",
  "updatedAt": "2018-05-20T14:59:01.586Z"
}