{
  "contractName": "Users",
  "abi": [
    {
      "constant": true,
      "inputs": [
        {
          "name": "",
          "type": "uint256"
        }
      ],
      "name": "users",
      "outputs": [
        {
          "name": "firstName",
          "type": "bytes32"
        },
        {
          "name": "lastName",
          "type": "bytes32"
        },
        {
          "name": "email",
          "type": "bytes32"
        },
        {
          "name": "isActive",
          "type": "bool"
        }
      ],
      "payable": false,
      "stateMutability": "view",
      "type": "function"
    },
    {
      "anonymous": false,
      "inputs": [
        {
          "indexed": false,
          "name": "id",
          "type": "uint256"
        },
        {
          "indexed": false,
          "name": "firstName",
          "type": "string"
        },
        {
          "indexed": false,
          "name": "lastName",
          "type": "string"
        },
        {
          "indexed": false,
          "name": "email",
          "type": "string"
        },
        {
          "indexed": false,
          "name": "userAddress",
          "type": "address"
        }
      ],
      "name": "NewUser",
      "type": "event"
    },
    {
      "anonymous": false,
      "inputs": [
        {
          "indexed": false,
          "name": "id",
          "type": "uint256"
        },
        {
          "indexed": false,
          "name": "firstName",
          "type": "string"
        },
        {
          "indexed": false,
          "name": "lastName",
          "type": "string"
        },
        {
          "indexed": false,
          "name": "email",
          "type": "string"
        },
        {
          "indexed": false,
          "name": "userAddress",
          "type": "address"
        }
      ],
      "name": "UpdateUser",
      "type": "event"
    },
    {
      "constant": false,
      "inputs": [
        {
          "name": "_firstName",
          "type": "string"
        },
        {
          "name": "_lastName",
          "type": "string"
        },
        {
          "name": "_email",
          "type": "string"
        }
      ],
      "name": "addUser",
      "outputs": [],
      "payable": false,
      "stateMutability": "nonpayable",
      "type": "function"
    },
    {
      "constant": false,
      "inputs": [
        {
          "name": "_firstName",
          "type": "string"
        },
        {
          "name": "_lastName",
          "type": "string"
        },
        {
          "name": "_email",
          "type": "string"
        }
      ],
      "name": "updateUser",
      "outputs": [],
      "payable": false,
      "stateMutability": "nonpayable",
      "type": "function"
    },
    {
      "constant": true,
      "inputs": [
        {
          "name": "_email",
          "type": "string"
        }
      ],
      "name": "getIdByEmail",
      "outputs": [
        {
          "name": "",
          "type": "uint256"
        }
      ],
      "payable": false,
      "stateMutability": "view",
      "type": "function"
    },
    {
      "constant": true,
      "inputs": [
        {
          "name": "_address",
          "type": "address"
        }
      ],
      "name": "getIdByAddress",
      "outputs": [
        {
          "name": "",
          "type": "uint256"
        }
      ],
      "payable": false,
      "stateMutability": "view",
      "type": "function"
    },
    {
      "constant": true,
      "inputs": [],
      "name": "getMyId",
      "outputs": [
        {
          "name": "",
          "type": "uint256"
        }
      ],
      "payable": false,
      "stateMutability": "view",
      "type": "function"
    },
    {
      "constant": true,
      "inputs": [
        {
          "name": "_id",
          "type": "uint256"
        }
      ],
      "name": "getUserById",
      "outputs": [
        {
          "name": "",
          "type": "bytes32"
        },
        {
          "name": "",
          "type": "bytes32"
        },
        {
          "name": "",
          "type": "bytes32"
        },
        {
          "name": "",
          "type": "bool"
        },
        {
          "name": "",
          "type": "uint256"
        }
      ],
      "payable": false,
      "stateMutability": "view",
      "type": "function"
    },
    {
      "constant": true,
      "inputs": [
        {
          "name": "_email",
          "type": "string"
        }
      ],
      "name": "getUserByEmail",
      "outputs": [
        {
          "name": "",
          "type": "bytes32"
        },
        {
          "name": "",
          "type": "bytes32"
        },
        {
          "name": "",
          "type": "bytes32"
        },
        {
          "name": "",
          "type": "bool"
        },
        {
          "name": "",
          "type": "uint256"
        }
      ],
      "payable": false,
      "stateMutability": "view",
      "type": "function"
    },
    {
      "constant": true,
      "inputs": [
        {
          "name": "_address",
          "type": "address"
        }
      ],
      "name": "getUserByAddress",
      "outputs": [
        {
          "name": "",
          "type": "bytes32"
        },
        {
          "name": "",
          "type": "bytes32"
        },
        {
          "name": "",
          "type": "bytes32"
        },
        {
          "name": "",
          "type": "bool"
        },
        {
          "name": "",
          "type": "uint256"
        }
      ],
      "payable": false,
      "stateMutability": "view",
      "type": "function"
    },
    {
      "constant": true,
      "inputs": [],
      "name": "getUserList",
      "outputs": [
        {
          "name": "",
          "type": "bytes32[]"
        },
        {
          "name": "",
          "type": "bytes32[]"
        },
        {
          "name": "",
          "type": "bytes32[]"
        },
        {
          "name": "",
          "type": "bool[]"
        }
      ],
      "payable": false,
      "stateMutability": "view",
      "type": "function"
    }
  ],
  "bytecode": "0x6060604052341561000f57600080fd5b61155a8061001e6000396000f3006060604052600436106100a4576000357c0100000000000000000000000000000000000000000000000000000000900463ffffffff16806318046ae1146100a957806327ed00ee14610152578063365b98b21461017b57806360903be6146101e357806369c212f6146102c65780636ed6da9e1461034b578063807d8045146103ba57806395c5fed41461042b578063b85220431461050e578063dff3b49714610650575b600080fd5b34156100b457600080fd5b610104600480803590602001908201803590602001908080601f0160208091040260200160405190810160405280939291908181526020018383808284378201915050505050509190505061069d565b60405180866000191660001916815260200185600019166000191681526020018460001916600019168152602001831515151581526020018281526020019550505050505060405180910390f35b341561015d57600080fd5b6101656107b2565b6040518082815260200191505060405180910390f35b341561018657600080fd5b61019c6004808035906020019091905050610846565b604051808560001916600019168152602001846000191660001916815260200183600019166000191681526020018215151515815260200194505050505060405180910390f35b34156101ee57600080fd5b6102c4600480803590602001908201803590602001908080601f0160208091040260200160405190810160405280939291908181526020018383808284378201915050505050509190803590602001908201803590602001908080601f0160208091040260200160405190810160405280939291908181526020018383808284378201915050505050509190803590602001908201803590602001908080601f01602080910402602001604051908101604052809392919081815260200183838082843782019150505050505091905050610892565b005b34156102d157600080fd5b6102fd600480803573ffffffffffffffffffffffffffffffffffffffff16906020019091905050610bd2565b60405180866000191660001916815260200185600019166000191681526020018460001916600019168152602001831515151581526020018281526020019550505050505060405180910390f35b341561035657600080fd5b61036c6004808035906020019091905050610d03565b60405180866000191660001916815260200185600019166000191681526020018460001916600019168152602001831515151581526020018281526020019550505050505060405180910390f35b34156103c557600080fd5b610415600480803590602001908201803590602001908080601f01602080910402602001604051908101604052809392919081815260200183838082843782019150505050505091905050610dc2565b6040518082815260200191505060405180910390f35b341561043657600080fd5b61050c600480803590602001908201803590602001908080601f0160208091040260200160405190810160405280939291908181526020018383808284378201915050505050509190803590602001908201803590602001908080601f0160208091040260200160405190810160405280939291908181526020018383808284378201915050505050509190803590602001908201803590602001908080601f01602080910402602001604051908101604052809392919081815260200183838082843782019150505050505091905050610def565b005b341561051957600080fd5b610521611161565b6040518080602001806020018060200180602001858103855289818151815260200191508051906020019060200280838360005b83811015610570578082015181840152602081019050610555565b50505050905001858103845288818151815260200191508051906020019060200280838360005b838110156105b2578082015181840152602081019050610597565b50505050905001858103835287818151815260200191508051906020019060200280838360005b838110156105f45780820151818401526020810190506105d9565b50505050905001858103825286818151815260200191508051906020019060200280838360005b8381101561063657808201518184015260208101905061061b565b505050509050019850505050505050505060405180910390f35b341561065b57600080fd5b610687600480803573ffffffffffffffffffffffffffffffffffffffff169060200190919050506113ae565b6040518082815260200191505060405180910390f35b600080600080600080600160006106b389611444565b60001916600019168152602001908152602001600020549050600080828154811015156106dc57fe5b906000526020600020905050602060ff161115156106f957600080fd5b6000805490508110151561070c57600080fd5b60008181548110151561071b57fe5b90600052602060002090600402016000015460008281548110151561073c57fe5b90600052602060002090600402016001015460008381548110151561075d57fe5b90600052602060002090600402016002015460008481548110151561077e57fe5b906000526020600020906004020160030160009054906101000a900460ff1684955095509550955095505091939590929450565b600080600260003373ffffffffffffffffffffffffffffffffffffffff1673ffffffffffffffffffffffffffffffffffffffff1681526020019081526020016000205411151561080157600080fd5b600260003373ffffffffffffffffffffffffffffffffffffffff1673ffffffffffffffffffffffffffffffffffffffff16815260200190815260200160002054905090565b60008181548110151561085557fe5b90600052602060002090600402016000915090508060000154908060010154908060020154908060030160009054906101000a900460ff16905084565b600080600260003373ffffffffffffffffffffffffffffffffffffffff1673ffffffffffffffffffffffffffffffffffffffff16815260200190815260200160002054905060016000828154811015156108e857fe5b906000526020600020905050602060ff1611151561090557600080fd5b6000600260003373ffffffffffffffffffffffffffffffffffffffff1673ffffffffffffffffffffffffffffffffffffffff1681526020019081526020016000205411151561095357600080fd5b61095c336113ae565b915061096785611444565b60008381548110151561097657fe5b9060005260206000209060040201600001816000191690555061099884611444565b6000838154811015156109a757fe5b906000526020600020906004020160010181600019169055506109c983611444565b6000838154811015156109d857fe5b9060005260206000209060040201600201816000191690555081600160006109ff86611444565b60001916600019168152602001908152602001600020819055507fd3923f0b3b1cec0036b68d0c3f17abc063fe21182d951342a1300cd3f98564dd8286868633604051808681526020018060200180602001806020018573ffffffffffffffffffffffffffffffffffffffff1673ffffffffffffffffffffffffffffffffffffffff168152602001848103845288818151815260200191508051906020019080838360005b83811015610abf578082015181840152602081019050610aa4565b50505050905090810190601f168015610aec5780820380516001836020036101000a031916815260200191505b50848103835287818151815260200191508051906020019080838360005b83811015610b25578082015181840152602081019050610b0a565b50505050905090810190601f168015610b525780820380516001836020036101000a031916815260200191505b50848103825286818151815260200191508051906020019080838360005b83811015610b8b578082015181840152602081019050610b70565b50505050905090810190601f168015610bb85780820380516001836020036101000a031916815260200191505b509850505050505050505060405180910390a15050505050565b600080600080600080600260008873ffffffffffffffffffffffffffffffffffffffff1673ffffffffffffffffffffffffffffffffffffffff16815260200190815260200160002054905060008082815481101515610c2d57fe5b906000526020600020905050602060ff16111515610c4a57600080fd5b60008054905081101515610c5d57600080fd5b600081815481101515610c6c57fe5b906000526020600020906004020160000154600082815481101515610c8d57fe5b906000526020600020906004020160010154600083815481101515610cae57fe5b906000526020600020906004020160020154600084815481101515610ccf57fe5b906000526020600020906004020160030160009054906101000a900460ff1684955095509550955095505091939590929450565b6000806000806000808054905086101515610d1d57600080fd5b600086815481101515610d2c57fe5b906000526020600020906004020160000154600087815481101515610d4d57fe5b906000526020600020906004020160010154600088815481101515610d6e57fe5b906000526020600020906004020160020154600089815481101515610d8f57fe5b906000526020600020906004020160030160009054906101000a900460ff16899450945094509450945091939590929450565b600060016000610dd184611444565b60001916600019168152602001908152602001600020549050919050565b60008060016000610dff85611444565b6000191660001916815260200190815260200160002054141515610e2257600080fd5b6000600260003373ffffffffffffffffffffffffffffffffffffffff1673ffffffffffffffffffffffffffffffffffffffff16815260200190815260200160002054141515610e7057600080fd5b60009050600160008054806001018281610e8a9190611475565b91600052602060002090600402016000608060405190810160405280610eaf8a611444565b600019168152602001610ec189611444565b600019168152602001610ed388611444565b60001916815260200160011515815250909190915060008201518160000190600019169055602082015181600101906000191690556040820151816002019060001916905560608201518160030160006101000a81548160ff02191690831515021790555050500390508060016000610f4b85611444565b600019166000191681526020019081526020016000208190555080600260003373ffffffffffffffffffffffffffffffffffffffff1673ffffffffffffffffffffffffffffffffffffffff168152602001908152602001600020819055507f023a8bc2c2a7585292c8d76a6c38d4001ebdb3df730965277bc4d0e94f2647518185858533604051808681526020018060200180602001806020018573ffffffffffffffffffffffffffffffffffffffff1673ffffffffffffffffffffffffffffffffffffffff168152602001848103845288818151815260200191508051906020019080838360005b8381101561104f578082015181840152602081019050611034565b50505050905090810190601f16801561107c5780820380516001836020036101000a031916815260200191505b50848103835287818151815260200191508051906020019080838360005b838110156110b557808201518184015260208101905061109a565b50505050905090810190601f1680156110e25780820380516001836020036101000a031916815260200191505b50848103825286818151815260200191508051906020019080838360005b8381101561111b578082015181840152602081019050611100565b50505050905090810190601f1680156111485780820380516001836020036101000a031916815260200191505b509850505050505050505060405180910390a150505050565b6111696114a7565b6111716114a7565b6111796114a7565b6111816114bb565b6111896114a7565b6111916114a7565b6111996114a7565b6111a16114bb565b600080600080549050101515156111b757600080fd5b6000805490506040518059106111ca5750595b908082528060200260200182016040525094506000805490506040518059106111f05750595b908082528060200260200182016040525093506000805490506040518059106112165750595b9080825280602002602001820160405250925060008054905060405180591061123c5750595b90808252806020026020018201604052509150600090505b600160008054905003811115156113975760008181548110151561127457fe5b906000526020600020906004020160000154858281518110151561129457fe5b9060200190602002019060001916908160001916815250506000818154811015156112bb57fe5b90600052602060002090600402016001015484828151811015156112db57fe5b90602001906020020190600019169081600019168152505060008181548110151561130257fe5b906000526020600020906004020160020154838281518110151561132257fe5b90602001906020020190600019169081600019168152505060008181548110151561134957fe5b906000526020600020906004020160030160009054906101000a900460ff16828281518110151561137657fe5b90602001906020020190151590811515815250508080600101915050611254565b848484849850985098509850505050505090919293565b600080600260008473ffffffffffffffffffffffffffffffffffffffff1673ffffffffffffffffffffffffffffffffffffffff168152602001908152602001600020541115156113fd57600080fd5b600260008373ffffffffffffffffffffffffffffffffffffffff1673ffffffffffffffffffffffffffffffffffffffff168152602001908152602001600020549050919050565b600061144e6114cf565b829050600081511415611467576000600102915061146f565b602083015191505b50919050565b8154818355818115116114a2576004028160040283600052602060002091820191016114a191906114e3565b5b505050565b602060405190810160405280600081525090565b602060405190810160405280600081525090565b602060405190810160405280600081525090565b61152b91905b8082111561152757600080820160009055600182016000905560028201600090556003820160006101000a81549060ff0219169055506004016114e9565b5090565b905600a165627a7a72305820d0fc9424f4b59b7099f51be2daa9cb720ff4611f9db30e30a504d55b2ce03c180029",
  "source": "pragma solidity ^0.4.19;\r\n\r\nimport \"./myutils.sol\";\r\n\r\ncontract Users is MyUtils {\r\n\r\n    // Events\r\n    event NewUser(uint id, string firstName, string lastName, string email, address userAddress);\r\n    event UpdateUser(uint id, string firstName, string lastName, string email, address userAddress);\r\n\r\n\r\n    //  Make sure the address resolves a valid contract\r\n    modifier onlyUserOwner() {\r\n        uint id = userIdByAddress[msg.sender];\r\n        require(users[id].firstName.length > 1);\r\n        _;\r\n    }\r\n\r\n    // Structs\r\n    struct User {\r\n        bytes32 firstName;\r\n        bytes32 lastName;\r\n        bytes32 email;\r\n        bool isActive;\r\n    }\r\n\r\n    User[] public users;\r\n    mapping(bytes32 => uint) internal userIdByEmail;\r\n    mapping(address => uint) internal userIdByAddress;\r\n\r\n    // Purpose  : User adds their own account\r\n    function addUser(string _firstName, string _lastName, string _email) public {\r\n        require(userIdByEmail[stringToBytes32(_email)] == 0);\r\n        require(userIdByAddress[msg.sender] == 0);\r\n        //require(_email.length > 4);\r\n        uint id = 0;\r\n        id = users.push(User(stringToBytes32(_firstName), stringToBytes32(_lastName),stringToBytes32(_email), true))-1;\r\n        userIdByEmail[stringToBytes32(_email)] = id;\r\n        userIdByAddress[msg.sender] = id;\r\n        emit NewUser(id, _firstName,_lastName, _email, msg.sender);\r\n    }\r\n\r\n    // Purpose  : To update user about a person\r\n    function updateUser(string _firstName, string _lastName, string _email) onlyUserOwner public {\r\n        require(userIdByAddress[msg.sender] > 0);\r\n        //require(_email.length > 4);\r\n        uint id = getIdByAddress(msg.sender);\r\n        users[id].firstName = stringToBytes32(_firstName);\r\n        users[id].lastName = stringToBytes32(_lastName);\r\n        users[id].email = stringToBytes32(_email);\r\n        userIdByEmail[stringToBytes32(_email)] = id;\r\n        emit UpdateUser(id, _firstName, _lastName, _email, msg.sender);\r\n    }\r\n\r\n    // Purpose  : To retrieve a users id via email\r\n    function getIdByEmail(string _email) public view returns (uint) {\r\n        //require(_email.length > 0);\r\n        //require(userIdByEmail[stringToBytes32(_email)] > 0);\r\n        return userIdByEmail[stringToBytes32(_email)];\r\n    }\r\n\r\n    // Purpose  : To retrieve a users id via email\r\n    function getIdByAddress(address _address) public view returns (uint) {\r\n        require(userIdByAddress[_address] > 0);\r\n        return userIdByAddress[_address];\r\n    }\r\n\r\n    // Purpose  : To retrieve a users id via email\r\n    function getMyId() public view returns (uint) {\r\n        require(userIdByAddress[msg.sender] > 0);\r\n        return userIdByAddress[msg.sender];\r\n    }\r\n\r\n    // Purpose  : To retrieve a credential by the id\r\n    function getUserById(uint _id) public view returns (bytes32, bytes32, bytes32, bool, uint) {\r\n        require(_id < users.length);\r\n        return (users[_id].firstName, users[_id].lastName, users[_id].email, users[_id].isActive, _id); \r\n    }\r\n\r\n    function getUserByEmail(string _email) public view returns  (bytes32, bytes32, bytes32, bool, uint) {\r\n        uint _id = userIdByEmail[stringToBytes32(_email)];\r\n        require(users[_id].email.length > 0);\r\n        require(_id < users.length);\r\n        return (users[_id].firstName, users[_id].lastName, users[_id].email, users[_id].isActive, _id); \r\n    }\r\n\r\n    function getUserByAddress(address _address) public view returns (bytes32, bytes32, bytes32, bool, uint) {\r\n        uint _id = userIdByAddress[_address];\r\n        require(users[_id].email.length > 0);\r\n        require(_id < users.length);\r\n        return (users[_id].firstName, users[_id].lastName, users[_id].email, users[_id].isActive, _id); \r\n    }\r\n\r\n    function getUserList() public view returns (bytes32[], bytes32[], bytes32[], bool[]) {\r\n        require(users.length >= 0);\r\n        bytes32[] memory firstNames = new bytes32[](users.length);\r\n        bytes32[] memory lastNames = new bytes32[](users.length);\r\n        bytes32[] memory emails = new bytes32[](users.length);\r\n        bool[] memory isActives = new bool[](users.length);\r\n        for (uint i = 0; i <= users.length-1; i++) {\r\n            firstNames[i] = users[i].firstName;\r\n            lastNames[i] = users[i].lastName;\r\n            emails[i] = users[i].email;\r\n            isActives[i] = users[i].isActive;\r\n        }\r\n        return (firstNames, lastNames, emails, isActives);\r\n    }\r\n\r\n    // To Do:  Probably need backdoor onlyOwner functions to update a users address,etc.\r\n\r\n    function stringToBytes32(string memory source) internal pure returns (bytes32 result) {\r\n        bytes memory tempEmptyStringTest = bytes(source);\r\n        if (tempEmptyStringTest.length == 0) {\r\n            return 0x0;\r\n        }\r\n        assembly {result := mload(add(source, 32))}\r\n    }\r\n\r\n}",
  "sourcePath": "D:\\GitHub\\pirl-project01\\truffle\\contracts\\Users.sol",
  "compiler": {
    "name": "solc",
    "version": "0.4.21+commit.dfe3193c.Emscripten.clang"
  },
  "schemaVersion": "2.0.0",
  "updatedAt": "2018-05-15T02:01:10.249Z"
}