{
  "contractName": "Users",
  "abi": [
    {
      "constant": true,
      "inputs": [
        {
          "name": "",
          "type": "uint256"
        }
      ],
      "name": "users",
      "outputs": [
        {
          "name": "firstName",
          "type": "bytes32"
        },
        {
          "name": "lastName",
          "type": "bytes32"
        },
        {
          "name": "email",
          "type": "bytes32"
        },
        {
          "name": "isActive",
          "type": "bool"
        }
      ],
      "payable": false,
      "stateMutability": "view",
      "type": "function"
    },
    {
      "anonymous": false,
      "inputs": [
        {
          "indexed": false,
          "name": "id",
          "type": "uint256"
        },
        {
          "indexed": false,
          "name": "firstName",
          "type": "string"
        },
        {
          "indexed": false,
          "name": "lastName",
          "type": "string"
        },
        {
          "indexed": false,
          "name": "email",
          "type": "string"
        },
        {
          "indexed": false,
          "name": "userAddress",
          "type": "address"
        }
      ],
      "name": "NewUser",
      "type": "event"
    },
    {
      "anonymous": false,
      "inputs": [
        {
          "indexed": false,
          "name": "id",
          "type": "uint256"
        },
        {
          "indexed": false,
          "name": "firstName",
          "type": "string"
        },
        {
          "indexed": false,
          "name": "lastName",
          "type": "string"
        },
        {
          "indexed": false,
          "name": "email",
          "type": "string"
        },
        {
          "indexed": false,
          "name": "userAddress",
          "type": "address"
        }
      ],
      "name": "UpdateUser",
      "type": "event"
    },
    {
      "constant": false,
      "inputs": [
        {
          "name": "_firstName",
          "type": "string"
        },
        {
          "name": "_lastName",
          "type": "string"
        },
        {
          "name": "_email",
          "type": "string"
        }
      ],
      "name": "addUser",
      "outputs": [],
      "payable": false,
      "stateMutability": "nonpayable",
      "type": "function"
    },
    {
      "constant": false,
      "inputs": [
        {
          "name": "_firstName",
          "type": "string"
        },
        {
          "name": "_lastName",
          "type": "string"
        },
        {
          "name": "_email",
          "type": "string"
        }
      ],
      "name": "updateUser",
      "outputs": [],
      "payable": false,
      "stateMutability": "nonpayable",
      "type": "function"
    },
    {
      "constant": true,
      "inputs": [
        {
          "name": "_email",
          "type": "string"
        }
      ],
      "name": "getIdByEmail",
      "outputs": [
        {
          "name": "",
          "type": "uint256"
        }
      ],
      "payable": false,
      "stateMutability": "view",
      "type": "function"
    },
    {
      "constant": true,
      "inputs": [
        {
          "name": "_address",
          "type": "address"
        }
      ],
      "name": "getIdByAddress",
      "outputs": [
        {
          "name": "",
          "type": "uint256"
        }
      ],
      "payable": false,
      "stateMutability": "view",
      "type": "function"
    },
    {
      "constant": true,
      "inputs": [],
      "name": "getMyId",
      "outputs": [
        {
          "name": "",
          "type": "uint256"
        }
      ],
      "payable": false,
      "stateMutability": "view",
      "type": "function"
    },
    {
      "constant": true,
      "inputs": [
        {
          "name": "_id",
          "type": "uint256"
        }
      ],
      "name": "getUserById",
      "outputs": [
        {
          "name": "",
          "type": "bytes32"
        },
        {
          "name": "",
          "type": "bytes32"
        },
        {
          "name": "",
          "type": "bytes32"
        },
        {
          "name": "",
          "type": "bool"
        },
        {
          "name": "",
          "type": "uint256"
        }
      ],
      "payable": false,
      "stateMutability": "view",
      "type": "function"
    },
    {
      "constant": true,
      "inputs": [
        {
          "name": "_email",
          "type": "string"
        }
      ],
      "name": "getUserByEmail",
      "outputs": [
        {
          "name": "",
          "type": "bytes32"
        },
        {
          "name": "",
          "type": "bytes32"
        },
        {
          "name": "",
          "type": "bytes32"
        },
        {
          "name": "",
          "type": "bool"
        },
        {
          "name": "",
          "type": "uint256"
        }
      ],
      "payable": false,
      "stateMutability": "view",
      "type": "function"
    },
    {
      "constant": true,
      "inputs": [
        {
          "name": "_address",
          "type": "address"
        }
      ],
      "name": "getUserByAddress",
      "outputs": [
        {
          "name": "",
          "type": "bytes32"
        },
        {
          "name": "",
          "type": "bytes32"
        },
        {
          "name": "",
          "type": "bytes32"
        },
        {
          "name": "",
          "type": "bool"
        },
        {
          "name": "",
          "type": "uint256"
        }
      ],
      "payable": false,
      "stateMutability": "view",
      "type": "function"
    },
    {
      "constant": true,
      "inputs": [],
      "name": "getUserList",
      "outputs": [
        {
          "name": "",
          "type": "bytes32[]"
        },
        {
          "name": "",
          "type": "bytes32[]"
        },
        {
          "name": "",
          "type": "bytes32[]"
        },
        {
          "name": "",
          "type": "bool[]"
        }
      ],
      "payable": false,
      "stateMutability": "view",
      "type": "function"
    }
  ],
  "bytecode": "0x608060405234801561001057600080fd5b50611517806100206000396000f3006080604052600436106100a4576000357c0100000000000000000000000000000000000000000000000000000000900463ffffffff16806318046ae1146100a957806327ed00ee1461015e578063365b98b21461018957806360903be6146101fb57806369c212f6146102f05780636ed6da9e1461037f578063807d8045146103f857806395c5fed414610475578063b85220431461056a578063dff3b497146106ae575b600080fd5b3480156100b557600080fd5b50610110600480360381019080803590602001908201803590602001908080601f0160208091040260200160405190810160405280939291908181526020018383808284378201915050505050509192919290505050610705565b60405180866000191660001916815260200185600019166000191681526020018460001916600019168152602001831515151581526020018281526020019550505050505060405180910390f35b34801561016a57600080fd5b5061017361081a565b6040518082815260200191505060405180910390f35b34801561019557600080fd5b506101b4600480360381019080803590602001909291905050506108ae565b604051808560001916600019168152602001846000191660001916815260200183600019166000191681526020018215151515815260200194505050505060405180910390f35b34801561020757600080fd5b506102ee600480360381019080803590602001908201803590602001908080601f0160208091040260200160405190810160405280939291908181526020018383808284378201915050505050509192919290803590602001908201803590602001908080601f0160208091040260200160405190810160405280939291908181526020018383808284378201915050505050509192919290803590602001908201803590602001908080601f01602080910402602001604051908101604052809392919081815260200183838082843782019150505050505091929192905050506108fa565b005b3480156102fc57600080fd5b50610331600480360381019080803573ffffffffffffffffffffffffffffffffffffffff169060200190929190505050610c3a565b60405180866000191660001916815260200185600019166000191681526020018460001916600019168152602001831515151581526020018281526020019550505050505060405180910390f35b34801561038b57600080fd5b506103aa60048036038101908080359060200190929190505050610d6b565b60405180866000191660001916815260200185600019166000191681526020018460001916600019168152602001831515151581526020018281526020019550505050505060405180910390f35b34801561040457600080fd5b5061045f600480360381019080803590602001908201803590602001908080601f0160208091040260200160405190810160405280939291908181526020018383808284378201915050505050509192919290505050610e2a565b6040518082815260200191505060405180910390f35b34801561048157600080fd5b50610568600480360381019080803590602001908201803590602001908080601f0160208091040260200160405190810160405280939291908181526020018383808284378201915050505050509192919290803590602001908201803590602001908080601f0160208091040260200160405190810160405280939291908181526020018383808284378201915050505050509192919290803590602001908201803590602001908080601f0160208091040260200160405190810160405280939291908181526020018383808284378201915050505050509192919290505050610e57565b005b34801561057657600080fd5b5061057f6111cd565b6040518080602001806020018060200180602001858103855289818151815260200191508051906020019060200280838360005b838110156105ce5780820151818401526020810190506105b3565b50505050905001858103845288818151815260200191508051906020019060200280838360005b838110156106105780820151818401526020810190506105f5565b50505050905001858103835287818151815260200191508051906020019060200280838360005b83811015610652578082015181840152602081019050610637565b50505050905001858103825286818151815260200191508051906020019060200280838360005b83811015610694578082015181840152602081019050610679565b505050509050019850505050505050505060405180910390f35b3480156106ba57600080fd5b506106ef600480360381019080803573ffffffffffffffffffffffffffffffffffffffff16906020019092919050505061142a565b6040518082815260200191505060405180910390f35b6000806000806000806001600061071b896114c0565b600019166000191681526020019081526020016000205490506000808281548110151561074457fe5b906000526020600020905050602060ff1611151561076157600080fd5b6000805490508110151561077457600080fd5b60008181548110151561078357fe5b9060005260206000209060040201600001546000828154811015156107a457fe5b9060005260206000209060040201600101546000838154811015156107c557fe5b9060005260206000209060040201600201546000848154811015156107e657fe5b906000526020600020906004020160030160009054906101000a900460ff1684955095509550955095505091939590929450565b600080600260003373ffffffffffffffffffffffffffffffffffffffff1673ffffffffffffffffffffffffffffffffffffffff1681526020019081526020016000205411151561086957600080fd5b600260003373ffffffffffffffffffffffffffffffffffffffff1673ffffffffffffffffffffffffffffffffffffffff16815260200190815260200160002054905090565b6000818154811015156108bd57fe5b90600052602060002090600402016000915090508060000154908060010154908060020154908060030160009054906101000a900460ff16905084565b600080600260003373ffffffffffffffffffffffffffffffffffffffff1673ffffffffffffffffffffffffffffffffffffffff168152602001908152602001600020549050600160008281548110151561095057fe5b906000526020600020905050602060ff1611151561096d57600080fd5b6000600260003373ffffffffffffffffffffffffffffffffffffffff1673ffffffffffffffffffffffffffffffffffffffff168152602001908152602001600020541115156109bb57600080fd5b6109c43361142a565b91506109cf856114c0565b6000838154811015156109de57fe5b90600052602060002090600402016000018160001916905550610a00846114c0565b600083815481101515610a0f57fe5b90600052602060002090600402016001018160001916905550610a31836114c0565b600083815481101515610a4057fe5b906000526020600020906004020160020181600019169055508160016000610a67866114c0565b60001916600019168152602001908152602001600020819055507fd3923f0b3b1cec0036b68d0c3f17abc063fe21182d951342a1300cd3f98564dd8286868633604051808681526020018060200180602001806020018573ffffffffffffffffffffffffffffffffffffffff1673ffffffffffffffffffffffffffffffffffffffff168152602001848103845288818151815260200191508051906020019080838360005b83811015610b27578082015181840152602081019050610b0c565b50505050905090810190601f168015610b545780820380516001836020036101000a031916815260200191505b50848103835287818151815260200191508051906020019080838360005b83811015610b8d578082015181840152602081019050610b72565b50505050905090810190601f168015610bba5780820380516001836020036101000a031916815260200191505b50848103825286818151815260200191508051906020019080838360005b83811015610bf3578082015181840152602081019050610bd8565b50505050905090810190601f168015610c205780820380516001836020036101000a031916815260200191505b509850505050505050505060405180910390a15050505050565b600080600080600080600260008873ffffffffffffffffffffffffffffffffffffffff1673ffffffffffffffffffffffffffffffffffffffff16815260200190815260200160002054905060008082815481101515610c9557fe5b906000526020600020905050602060ff16111515610cb257600080fd5b60008054905081101515610cc557600080fd5b600081815481101515610cd457fe5b906000526020600020906004020160000154600082815481101515610cf557fe5b906000526020600020906004020160010154600083815481101515610d1657fe5b906000526020600020906004020160020154600084815481101515610d3757fe5b906000526020600020906004020160030160009054906101000a900460ff1684955095509550955095505091939590929450565b6000806000806000808054905086101515610d8557600080fd5b600086815481101515610d9457fe5b906000526020600020906004020160000154600087815481101515610db557fe5b906000526020600020906004020160010154600088815481101515610dd657fe5b906000526020600020906004020160020154600089815481101515610df757fe5b906000526020600020906004020160030160009054906101000a900460ff16899450945094509450945091939590929450565b600060016000610e39846114c0565b60001916600019168152602001908152602001600020549050919050565b60008060016000610e67856114c0565b6000191660001916815260200190815260200160002054141515610e8a57600080fd5b6000600260003373ffffffffffffffffffffffffffffffffffffffff1673ffffffffffffffffffffffffffffffffffffffff16815260200190815260200160002054141515610ed857600080fd5b6000905060016000608060405190810160405280610ef5886114c0565b600019168152602001610f07876114c0565b600019168152602001610f19866114c0565b600019168152602001600115158152509080600181540180825580915050906001820390600052602060002090600402016000909192909190915060008201518160000190600019169055602082015181600101906000191690556040820151816002019060001916905560608201518160030160006101000a81548160ff02191690831515021790555050500390508060016000610fb7856114c0565b600019166000191681526020019081526020016000208190555080600260003373ffffffffffffffffffffffffffffffffffffffff1673ffffffffffffffffffffffffffffffffffffffff168152602001908152602001600020819055507f023a8bc2c2a7585292c8d76a6c38d4001ebdb3df730965277bc4d0e94f2647518185858533604051808681526020018060200180602001806020018573ffffffffffffffffffffffffffffffffffffffff1673ffffffffffffffffffffffffffffffffffffffff168152602001848103845288818151815260200191508051906020019080838360005b838110156110bb5780820151818401526020810190506110a0565b50505050905090810190601f1680156110e85780820380516001836020036101000a031916815260200191505b50848103835287818151815260200191508051906020019080838360005b83811015611121578082015181840152602081019050611106565b50505050905090810190601f16801561114e5780820380516001836020036101000a031916815260200191505b50848103825286818151815260200191508051906020019080838360005b8381101561118757808201518184015260208101905061116c565b50505050905090810190601f1680156111b45780820380516001836020036101000a031916815260200191505b509850505050505050505060405180910390a150505050565b606080606080606080606080600080600080549050101515156111ef57600080fd5b6000805490506040519080825280602002602001820160405280156112235781602001602082028038833980820191505090505b50945060008054905060405190808252806020026020018201604052801561125a5781602001602082028038833980820191505090505b5093506000805490506040519080825280602002602001820160405280156112915781602001602082028038833980820191505090505b5092506000805490506040519080825280602002602001820160405280156112c85781602001602082028038833980820191505090505b509150600090505b60016000805490500381111515611413576000818154811015156112f057fe5b906000526020600020906004020160000154858281518110151561131057fe5b90602001906020020190600019169081600019168152505060008181548110151561133757fe5b906000526020600020906004020160010154848281518110151561135757fe5b90602001906020020190600019169081600019168152505060008181548110151561137e57fe5b906000526020600020906004020160020154838281518110151561139e57fe5b9060200190602002019060001916908160001916815250506000818154811015156113c557fe5b906000526020600020906004020160030160009054906101000a900460ff1682828151811015156113f257fe5b906020019060200201901515908115158152505080806001019150506112d0565b848484849850985098509850505050505090919293565b600080600260008473ffffffffffffffffffffffffffffffffffffffff1673ffffffffffffffffffffffffffffffffffffffff1681526020019081526020016000205411151561147957600080fd5b600260008373ffffffffffffffffffffffffffffffffffffffff1673ffffffffffffffffffffffffffffffffffffffff168152602001908152602001600020549050919050565b600060608290506000815114156114dd57600060010291506114e5565b602083015191505b509190505600a165627a7a723058206306b20af2eb4db8f6f6eab61d9e90fd4f899bbd9ebbd9408bc0411eb5e077dc0029",
  "source": "pragma solidity ^0.4.19;\r\n\r\nimport \"./myutils.sol\";\r\n\r\ncontract Users is MyUtils {\r\n\r\n    // Events\r\n    event NewUser(uint id, string firstName, string lastName, string email, address userAddress);\r\n    event UpdateUser(uint id, string firstName, string lastName, string email, address userAddress);\r\n\r\n\r\n    //  Make sure the address resolves a valid contract\r\n    modifier onlyUserOwner() {\r\n        uint id = userIdByAddress[msg.sender];\r\n        require(users[id].firstName.length > 1);\r\n        _;\r\n    }\r\n\r\n    // Structs\r\n    struct User {\r\n        bytes32 firstName;\r\n        bytes32 lastName;\r\n        bytes32 email;\r\n        bool isActive;\r\n    }\r\n\r\n    User[] public users;\r\n    mapping(bytes32 => uint) internal userIdByEmail;\r\n    mapping(address => uint) internal userIdByAddress;\r\n\r\n    // Purpose  : User adds their own account\r\n    function addUser(string _firstName, string _lastName, string _email) public {\r\n        require(userIdByEmail[stringToBytes32(_email)] == 0);\r\n        require(userIdByAddress[msg.sender] == 0);\r\n        //require(_email.length > 4);\r\n        uint id = 0;\r\n        id = users.push(User(stringToBytes32(_firstName), stringToBytes32(_lastName),stringToBytes32(_email), true))-1;\r\n        userIdByEmail[stringToBytes32(_email)] = id;\r\n        userIdByAddress[msg.sender] = id;\r\n        emit NewUser(id, _firstName,_lastName, _email, msg.sender);\r\n    }\r\n\r\n    // Purpose  : To update user about a person\r\n    function updateUser(string _firstName, string _lastName, string _email) onlyUserOwner public {\r\n        require(userIdByAddress[msg.sender] > 0);\r\n        //require(_email.length > 4);\r\n        uint id = getIdByAddress(msg.sender);\r\n        users[id].firstName = stringToBytes32(_firstName);\r\n        users[id].lastName = stringToBytes32(_lastName);\r\n        users[id].email = stringToBytes32(_email);\r\n        userIdByEmail[stringToBytes32(_email)] = id;\r\n        emit UpdateUser(id, _firstName, _lastName, _email, msg.sender);\r\n    }\r\n\r\n    // Purpose  : To retrieve a users id via email\r\n    function getIdByEmail(string _email) public view returns (uint) {\r\n        //require(_email.length > 0);\r\n        //require(userIdByEmail[stringToBytes32(_email)] > 0);\r\n        return userIdByEmail[stringToBytes32(_email)];\r\n    }\r\n\r\n    // Purpose  : To retrieve a users id via email\r\n    function getIdByAddress(address _address) public view returns (uint) {\r\n        require(userIdByAddress[_address] > 0);\r\n        return userIdByAddress[_address];\r\n    }\r\n\r\n    // Purpose  : To retrieve a users id via email\r\n    function getMyId() public view returns (uint) {\r\n        require(userIdByAddress[msg.sender] > 0);\r\n        return userIdByAddress[msg.sender];\r\n    }\r\n\r\n    // Purpose  : To retrieve a credential by the id\r\n    function getUserById(uint _id) public view returns (bytes32, bytes32, bytes32, bool, uint) {\r\n        require(_id < users.length);\r\n        return (users[_id].firstName, users[_id].lastName, users[_id].email, users[_id].isActive, _id); \r\n    }\r\n\r\n    function getUserByEmail(string _email) public view returns  (bytes32, bytes32, bytes32, bool, uint) {\r\n        uint _id = userIdByEmail[stringToBytes32(_email)];\r\n        require(users[_id].email.length > 0);\r\n        require(_id < users.length);\r\n        return (users[_id].firstName, users[_id].lastName, users[_id].email, users[_id].isActive, _id); \r\n    }\r\n\r\n    function getUserByAddress(address _address) public view returns (bytes32, bytes32, bytes32, bool, uint) {\r\n        uint _id = userIdByAddress[_address];\r\n        require(users[_id].email.length > 0);\r\n        require(_id < users.length);\r\n        return (users[_id].firstName, users[_id].lastName, users[_id].email, users[_id].isActive, _id); \r\n    }\r\n\r\n    function getUserList() public view returns (bytes32[], bytes32[], bytes32[], bool[]) {\r\n        require(users.length >= 0);\r\n        bytes32[] memory firstNames = new bytes32[](users.length);\r\n        bytes32[] memory lastNames = new bytes32[](users.length);\r\n        bytes32[] memory emails = new bytes32[](users.length);\r\n        bool[] memory isActives = new bool[](users.length);\r\n        for (uint i = 0; i <= users.length-1; i++) {\r\n            firstNames[i] = users[i].firstName;\r\n            lastNames[i] = users[i].lastName;\r\n            emails[i] = users[i].email;\r\n            isActives[i] = users[i].isActive;\r\n        }\r\n        return (firstNames, lastNames, emails, isActives);\r\n    }\r\n\r\n    // To Do:  Probably need backdoor onlyOwner functions to update a users address,etc.\r\n\r\n    function stringToBytes32(string memory source) internal pure returns (bytes32 result) {\r\n        bytes memory tempEmptyStringTest = bytes(source);\r\n        if (tempEmptyStringTest.length == 0) {\r\n            return 0x0;\r\n        }\r\n        assembly {result := mload(add(source, 32))}\r\n    }\r\n\r\n}",
  "sourcePath": "D:\\GitHub\\pirl-project01\\truffle\\contracts\\Users.sol",
  "compiler": {
    "name": "solc",
    "version": "0.4.23+commit.124ca40d.Emscripten.clang"
  },
  "schemaVersion": "2.0.0",
  "updatedAt": "2018-05-17T02:08:14.690Z"
}