{
  "contractName": "Users",
  "abi": [
    {
      "constant": true,
      "inputs": [
        {
          "name": "",
          "type": "uint256"
        }
      ],
      "name": "users",
      "outputs": [
        {
          "name": "firstName",
          "type": "bytes32"
        },
        {
          "name": "lastName",
          "type": "bytes32"
        },
        {
          "name": "email",
          "type": "bytes32"
        },
        {
          "name": "isActive",
          "type": "bool"
        }
      ],
      "payable": false,
      "stateMutability": "view",
      "type": "function"
    },
    {
      "constant": true,
      "inputs": [],
      "name": "owner",
      "outputs": [
        {
          "name": "",
          "type": "address"
        }
      ],
      "payable": false,
      "stateMutability": "view",
      "type": "function"
    },
    {
      "inputs": [],
      "payable": false,
      "stateMutability": "nonpayable",
      "type": "constructor"
    },
    {
      "payable": true,
      "stateMutability": "payable",
      "type": "fallback"
    },
    {
      "anonymous": false,
      "inputs": [
        {
          "indexed": false,
          "name": "id",
          "type": "uint256"
        },
        {
          "indexed": false,
          "name": "firstName",
          "type": "string"
        },
        {
          "indexed": false,
          "name": "lastName",
          "type": "string"
        },
        {
          "indexed": false,
          "name": "email",
          "type": "string"
        },
        {
          "indexed": false,
          "name": "userAddress",
          "type": "address"
        }
      ],
      "name": "NewUser",
      "type": "event"
    },
    {
      "anonymous": false,
      "inputs": [
        {
          "indexed": false,
          "name": "id",
          "type": "uint256"
        },
        {
          "indexed": false,
          "name": "firstName",
          "type": "string"
        },
        {
          "indexed": false,
          "name": "lastName",
          "type": "string"
        },
        {
          "indexed": false,
          "name": "email",
          "type": "string"
        },
        {
          "indexed": false,
          "name": "userAddress",
          "type": "address"
        }
      ],
      "name": "UpdateUser",
      "type": "event"
    },
    {
      "anonymous": false,
      "inputs": [
        {
          "indexed": false,
          "name": "from",
          "type": "address"
        },
        {
          "indexed": false,
          "name": "value",
          "type": "uint256"
        }
      ],
      "name": "DepositUsers",
      "type": "event"
    },
    {
      "anonymous": false,
      "inputs": [
        {
          "indexed": false,
          "name": "to",
          "type": "address"
        },
        {
          "indexed": false,
          "name": "amount",
          "type": "uint256"
        }
      ],
      "name": "WithdrawUsers",
      "type": "event"
    },
    {
      "anonymous": false,
      "inputs": [
        {
          "indexed": false,
          "name": "remainingBalance",
          "type": "uint256"
        }
      ],
      "name": "BalanceUsers",
      "type": "event"
    },
    {
      "constant": false,
      "inputs": [
        {
          "name": "_amount",
          "type": "uint256"
        }
      ],
      "name": "withdraw",
      "outputs": [],
      "payable": false,
      "stateMutability": "nonpayable",
      "type": "function"
    },
    {
      "constant": false,
      "inputs": [
        {
          "name": "_firstName",
          "type": "string"
        },
        {
          "name": "_lastName",
          "type": "string"
        },
        {
          "name": "_email",
          "type": "string"
        }
      ],
      "name": "addUser",
      "outputs": [],
      "payable": false,
      "stateMutability": "nonpayable",
      "type": "function"
    },
    {
      "constant": false,
      "inputs": [
        {
          "name": "_firstName",
          "type": "string"
        },
        {
          "name": "_lastName",
          "type": "string"
        },
        {
          "name": "_email",
          "type": "string"
        }
      ],
      "name": "updateUser",
      "outputs": [],
      "payable": false,
      "stateMutability": "nonpayable",
      "type": "function"
    },
    {
      "constant": true,
      "inputs": [
        {
          "name": "_address",
          "type": "address"
        }
      ],
      "name": "getIdByAddress",
      "outputs": [
        {
          "name": "",
          "type": "uint256"
        }
      ],
      "payable": false,
      "stateMutability": "view",
      "type": "function"
    },
    {
      "constant": true,
      "inputs": [],
      "name": "getMyId",
      "outputs": [
        {
          "name": "",
          "type": "uint256"
        }
      ],
      "payable": false,
      "stateMutability": "view",
      "type": "function"
    },
    {
      "constant": true,
      "inputs": [
        {
          "name": "_id",
          "type": "uint256"
        }
      ],
      "name": "getUserById",
      "outputs": [
        {
          "name": "",
          "type": "bytes32"
        },
        {
          "name": "",
          "type": "bytes32"
        },
        {
          "name": "",
          "type": "bytes32"
        },
        {
          "name": "",
          "type": "bool"
        },
        {
          "name": "",
          "type": "uint256"
        }
      ],
      "payable": false,
      "stateMutability": "view",
      "type": "function"
    },
    {
      "constant": true,
      "inputs": [
        {
          "name": "_address",
          "type": "address"
        }
      ],
      "name": "getUserByAddress",
      "outputs": [
        {
          "name": "",
          "type": "bytes32"
        },
        {
          "name": "",
          "type": "bytes32"
        },
        {
          "name": "",
          "type": "bytes32"
        },
        {
          "name": "",
          "type": "bool"
        },
        {
          "name": "",
          "type": "uint256"
        }
      ],
      "payable": false,
      "stateMutability": "view",
      "type": "function"
    },
    {
      "constant": true,
      "inputs": [
        {
          "name": "_address",
          "type": "address"
        }
      ],
      "name": "addressIsUser",
      "outputs": [
        {
          "name": "",
          "type": "bool"
        }
      ],
      "payable": false,
      "stateMutability": "view",
      "type": "function"
    },
    {
      "constant": false,
      "inputs": [],
      "name": "destroy",
      "outputs": [],
      "payable": false,
      "stateMutability": "nonpayable",
      "type": "function"
    }
  ],
  "bytecode": "0x608060405260006004553480156200001657600080fd5b50336000806101000a81548173ffffffffffffffffffffffffffffffffffffffff021916908373ffffffffffffffffffffffffffffffffffffffff160217905550620001126040805190810160405280600481526020017f4d696b65000000000000000000000000000000000000000000000000000000008152506040805190810160405280600681526020017f4d757270687900000000000000000000000000000000000000000000000000008152506040805190810160405280601481526020017f6d6d7572706879333834407961686f6f2e636f6d00000000000000000000000081525062000118640100000000026401000000009004565b6200052b565b600080600260006200013985620004fe640100000000026401000000009004565b60001916600019168152602001908152602001600020541415156200015d57600080fd5b6000600360003373ffffffffffffffffffffffffffffffffffffffff1673ffffffffffffffffffffffffffffffffffffffff16815260200190815260200160002054141515620001ac57600080fd5b60009050600180608060405190810160405280620001d988620004fe640100000000026401000000009004565b600019168152602001620001fc87620004fe640100000000026401000000009004565b6000191681526020016200021f86620004fe640100000000026401000000009004565b600019168152602001600115158152509080600181540180825580915050906001820390600052602060002090600402016000909192909190915060008201518160000190600019169055602082015181600101906000191690556040820151816002019060001916905560608201518160030160006101000a81548160ff02191690831515021790555050500390508060026000620002ce85620004fe640100000000026401000000009004565b600019166000191681526020019081526020016000208190555080600360003373ffffffffffffffffffffffffffffffffffffffff1673ffffffffffffffffffffffffffffffffffffffff1681526020019081526020016000208190555060016004600082825401925050819055507f023a8bc2c2a7585292c8d76a6c38d4001ebdb3df730965277bc4d0e94f2647518185858533604051808681526020018060200180602001806020018573ffffffffffffffffffffffffffffffffffffffff1673ffffffffffffffffffffffffffffffffffffffff168152602001848103845288818151815260200191508051906020019080838360005b83811015620003e5578082015181840152602081019050620003c8565b50505050905090810190601f168015620004135780820380516001836020036101000a031916815260200191505b50848103835287818151815260200191508051906020019080838360005b838110156200044e57808201518184015260208101905062000431565b50505050905090810190601f1680156200047c5780820380516001836020036101000a031916815260200191505b50848103825286818151815260200191508051906020019080838360005b83811015620004b75780820151818401526020810190506200049a565b50505050905090810190601f168015620004e55780820380516001836020036101000a031916815260200191505b509850505050505050505060405180910390a150505050565b600060608290506000815114156200051d576000600102915062000525565b602083015191505b50919050565b611373806200053b6000396000f3006080604052600436106100af576000357c0100000000000000000000000000000000000000000000000000000000900463ffffffff16806327ed00ee146101745780632e1a7d4d1461019f578063365b98b2146101cc57806360903be61461023e57806369c212f6146103335780636ed6da9e146103c257806383197ef01461043b5780638da5cb5b1461045257806395c5fed4146104a9578063df97cda31461059e578063dff3b497146105f9575b6000341115610172577fc22ffba20bef67c7706b6eaacfe1ca14fb7c38ad9089dd6e7804b02efa8c69303334604051808373ffffffffffffffffffffffffffffffffffffffff1673ffffffffffffffffffffffffffffffffffffffff1681526020018281526020019250505060405180910390a17f4067f9c14fed98fcec86364e35c680e2caf75ccc3e19f1e2a5bfa533a3949dbc3073ffffffffffffffffffffffffffffffffffffffff16316040518082815260200191505060405180910390a15b005b34801561018057600080fd5b50610189610650565b6040518082815260200191505060405180910390f35b3480156101ab57600080fd5b506101ca600480360381019080803590602001909291905050506106e4565b005b3480156101d857600080fd5b506101f76004803603810190808035906020019092919050505061089d565b604051808560001916600019168152602001846000191660001916815260200183600019166000191681526020018215151515815260200194505050505060405180910390f35b34801561024a57600080fd5b50610331600480360381019080803590602001908201803590602001908080601f0160208091040260200160405190810160405280939291908181526020018383808284378201915050505050509192919290803590602001908201803590602001908080601f0160208091040260200160405190810160405280939291908181526020018383808284378201915050505050509192919290803590602001908201803590602001908080601f01602080910402602001604051908101604052809392919081815260200183838082843782019150505050505091929192905050506108e9565b005b34801561033f57600080fd5b50610374600480360381019080803573ffffffffffffffffffffffffffffffffffffffff169060200190929190505050610c5f565b60405180866000191660001916815260200185600019166000191681526020018460001916600019168152602001831515151581526020018281526020019550505050505060405180910390f35b3480156103ce57600080fd5b506103ed60048036038101908080359060200190929190505050610d50565b60405180866000191660001916815260200185600019166000191681526020018460001916600019168152602001831515151581526020018281526020019550505050505060405180910390f35b34801561044757600080fd5b50610450610e0d565b005b34801561045e57600080fd5b50610467610e8a565b604051808273ffffffffffffffffffffffffffffffffffffffff1673ffffffffffffffffffffffffffffffffffffffff16815260200191505060405180910390f35b3480156104b557600080fd5b5061059c600480360381019080803590602001908201803590602001908080601f0160208091040260200160405190810160405280939291908181526020018383808284378201915050505050509192919290803590602001908201803590602001908080601f0160208091040260200160405190810160405280939291908181526020018383808284378201915050505050509192919290803590602001908201803590602001908080601f0160208091040260200160405190810160405280939291908181526020018383808284378201915050505050509192919290505050610eaf565b005b3480156105aa57600080fd5b506105df600480360381019080803573ffffffffffffffffffffffffffffffffffffffff169060200190929190505050611235565b604051808215151515815260200191505060405180910390f35b34801561060557600080fd5b5061063a600480360381019080803573ffffffffffffffffffffffffffffffffffffffff169060200190929190505050611286565b6040518082815260200191505060405180910390f35b600080600360003373ffffffffffffffffffffffffffffffffffffffff1673ffffffffffffffffffffffffffffffffffffffff1681526020019081526020016000205411151561069f57600080fd5b600360003373ffffffffffffffffffffffffffffffffffffffff1673ffffffffffffffffffffffffffffffffffffffff16815260200190815260200160002054905090565b6000809054906101000a900473ffffffffffffffffffffffffffffffffffffffff1673ffffffffffffffffffffffffffffffffffffffff163373ffffffffffffffffffffffffffffffffffffffff1614151561073f57600080fd5b60003073ffffffffffffffffffffffffffffffffffffffff163111151561076557600080fd5b60008111151561077457600080fd5b803073ffffffffffffffffffffffffffffffffffffffff16311015151561079a57600080fd5b3373ffffffffffffffffffffffffffffffffffffffff166108fc829081150290604051600060405180830381858888f193505050501580156107e0573d6000803e3d6000fd5b507f42150c4ae8758c0f7394a4803191d66780a62abd8ec3465c1159447555eebda03382604051808373ffffffffffffffffffffffffffffffffffffffff1673ffffffffffffffffffffffffffffffffffffffff1681526020018281526020019250505060405180910390a17f4067f9c14fed98fcec86364e35c680e2caf75ccc3e19f1e2a5bfa533a3949dbc3073ffffffffffffffffffffffffffffffffffffffff16316040518082815260200191505060405180910390a150565b6001818154811015156108ac57fe5b90600052602060002090600402016000915090508060000154908060010154908060020154908060030160009054906101000a900460ff16905084565b600080600360003373ffffffffffffffffffffffffffffffffffffffff1673ffffffffffffffffffffffffffffffffffffffff1681526020019081526020016000205490506001808281548110151561093e57fe5b906000526020600020905050602060ff1611151561095b57600080fd5b6000600360003373ffffffffffffffffffffffffffffffffffffffff1673ffffffffffffffffffffffffffffffffffffffff168152602001908152602001600020541115156109a957600080fd5b600360003373ffffffffffffffffffffffffffffffffffffffff1673ffffffffffffffffffffffffffffffffffffffff1681526020019081526020016000205491506109f48561131c565b600183815481101515610a0357fe5b90600052602060002090600402016000018160001916905550610a258461131c565b600183815481101515610a3457fe5b90600052602060002090600402016001018160001916905550610a568361131c565b600183815481101515610a6557fe5b906000526020600020906004020160020181600019169055508160026000610a8c8661131c565b60001916600019168152602001908152602001600020819055507fd3923f0b3b1cec0036b68d0c3f17abc063fe21182d951342a1300cd3f98564dd8286868633604051808681526020018060200180602001806020018573ffffffffffffffffffffffffffffffffffffffff1673ffffffffffffffffffffffffffffffffffffffff168152602001848103845288818151815260200191508051906020019080838360005b83811015610b4c578082015181840152602081019050610b31565b50505050905090810190601f168015610b795780820380516001836020036101000a031916815260200191505b50848103835287818151815260200191508051906020019080838360005b83811015610bb2578082015181840152602081019050610b97565b50505050905090810190601f168015610bdf5780820380516001836020036101000a031916815260200191505b50848103825286818151815260200191508051906020019080838360005b83811015610c18578082015181840152602081019050610bfd565b50505050905090810190601f168015610c455780820380516001836020036101000a031916815260200191505b509850505050505050505060405180910390a15050505050565b600080600080600080600360008873ffffffffffffffffffffffffffffffffffffffff1673ffffffffffffffffffffffffffffffffffffffff168152602001908152602001600020549050600181815481101515610cb957fe5b906000526020600020906004020160000154600182815481101515610cda57fe5b906000526020600020906004020160010154600183815481101515610cfb57fe5b906000526020600020906004020160020154600184815481101515610d1c57fe5b906000526020600020906004020160030160009054906101000a900460ff1684955095509550955095505091939590929450565b600080600080600060045486101515610d6857600080fd5b600186815481101515610d7757fe5b906000526020600020906004020160000154600187815481101515610d9857fe5b906000526020600020906004020160010154600188815481101515610db957fe5b906000526020600020906004020160020154600189815481101515610dda57fe5b906000526020600020906004020160030160009054906101000a900460ff16899450945094509450945091939590929450565b6000809054906101000a900473ffffffffffffffffffffffffffffffffffffffff1673ffffffffffffffffffffffffffffffffffffffff163373ffffffffffffffffffffffffffffffffffffffff16141515610e6857600080fd5b610e883073ffffffffffffffffffffffffffffffffffffffff16316106e4565b565b6000809054906101000a900473ffffffffffffffffffffffffffffffffffffffff1681565b60008060026000610ebf8561131c565b6000191660001916815260200190815260200160002054141515610ee257600080fd5b6000600360003373ffffffffffffffffffffffffffffffffffffffff1673ffffffffffffffffffffffffffffffffffffffff16815260200190815260200160002054141515610f3057600080fd5b60009050600180608060405190810160405280610f4c8861131c565b600019168152602001610f5e8761131c565b600019168152602001610f708661131c565b600019168152602001600115158152509080600181540180825580915050906001820390600052602060002090600402016000909192909190915060008201518160000190600019169055602082015181600101906000191690556040820151816002019060001916905560608201518160030160006101000a81548160ff0219169083151502179055505050039050806002600061100e8561131c565b600019166000191681526020019081526020016000208190555080600360003373ffffffffffffffffffffffffffffffffffffffff1673ffffffffffffffffffffffffffffffffffffffff1681526020019081526020016000208190555060016004600082825401925050819055507f023a8bc2c2a7585292c8d76a6c38d4001ebdb3df730965277bc4d0e94f2647518185858533604051808681526020018060200180602001806020018573ffffffffffffffffffffffffffffffffffffffff1673ffffffffffffffffffffffffffffffffffffffff168152602001848103845288818151815260200191508051906020019080838360005b83811015611123578082015181840152602081019050611108565b50505050905090810190601f1680156111505780820380516001836020036101000a031916815260200191505b50848103835287818151815260200191508051906020019080838360005b8381101561118957808201518184015260208101905061116e565b50505050905090810190601f1680156111b65780820380516001836020036101000a031916815260200191505b50848103825286818151815260200191508051906020019080838360005b838110156111ef5780820151818401526020810190506111d4565b50505050905090810190601f16801561121c5780820380516001836020036101000a031916815260200191505b509850505050505050505060405180910390a150505050565b600080600360008473ffffffffffffffffffffffffffffffffffffffff1673ffffffffffffffffffffffffffffffffffffffff16815260200190815260200160002054905060008111915050919050565b600080600360008473ffffffffffffffffffffffffffffffffffffffff1673ffffffffffffffffffffffffffffffffffffffff168152602001908152602001600020541115156112d557600080fd5b600360008373ffffffffffffffffffffffffffffffffffffffff1673ffffffffffffffffffffffffffffffffffffffff168152602001908152602001600020549050919050565b600060608290506000815114156113395760006001029150611341565b602083015191505b509190505600a165627a7a72305820797d604da8e4529b2607e68133712d3797b04d96f88c4e48c2c0cae7d0f5d42a0029",
  "source": "pragma solidity ^0.4.19;\r\n\r\ncontract Users  {\r\n\r\n    // Events\r\n    event NewUser(uint id, string firstName, string lastName, string email, address userAddress);\r\n    event UpdateUser(uint id, string firstName, string lastName, string email, address userAddress);\r\n    event DepositUsers(address from, uint value);\r\n    event WithdrawUsers(address to, uint amount);\r\n    event BalanceUsers(uint remainingBalance);\r\n\r\n    //  Make sure the address resolves a valid contract\r\n    modifier onlyUserOwner() {\r\n        uint id = userIdByAddress[msg.sender];\r\n        require(users[id].firstName.length > 1);\r\n        _;\r\n    }\r\n\r\n    // Structs\r\n    struct User {\r\n        bytes32 firstName;\r\n        bytes32 lastName;\r\n        bytes32 email;\r\n        bool isActive;\r\n    }\r\n\r\n    address public owner;\r\n    User[] public users;\r\n    mapping(bytes32 => uint) internal userIdByEmail;\r\n    mapping(address => uint) internal userIdByAddress;\r\n    uint userCount = 0;\r\n\r\n    // Register a root user\r\n    constructor() public {\r\n        owner = msg.sender;\r\n        addUser(\"Mike\",\"Murphy\",\"mmurphy384@yahoo.com\");\r\n    }\r\n\r\n    modifier onlyOwner() {\r\n        require(msg.sender == owner);\r\n        _;\r\n    }\r\n\r\n    // Purpose  : Fallback Function\r\n    function() public payable {\r\n        if (msg.value > 0) {\r\n            emit DepositUsers(msg.sender, msg.value);\r\n            emit BalanceUsers(address(this).balance);\r\n        }\r\n    }\r\n\r\n    // Purpose  : For the owner to withdraw some funds.\r\n    function withdraw(uint _amount) public onlyOwner {\r\n        require(address(this).balance > 0);\r\n        require(_amount > 0);\r\n        require(address(this).balance >= _amount);\r\n        address(msg.sender).transfer(_amount);\r\n        emit WithdrawUsers(msg.sender, _amount);\r\n        emit BalanceUsers(address(this).balance);\r\n    }\r\n\r\n    // Purpose  : User adds their own account\r\n    function addUser(string _firstName, string _lastName, string _email) public {\r\n        require(userIdByEmail[stringToBytes32(_email)] == 0);\r\n        require(userIdByAddress[msg.sender] == 0);\r\n        uint id = 0;\r\n        id = users.push(User(stringToBytes32(_firstName), stringToBytes32(_lastName),stringToBytes32(_email), true))-1;\r\n        userIdByEmail[stringToBytes32(_email)] = id;\r\n        userIdByAddress[msg.sender] = id;\r\n        userCount += 1;\r\n        emit NewUser(id, _firstName,_lastName, _email, msg.sender);\r\n    }\r\n\r\n    // Purpose  : To update user about a person\r\n    function updateUser(string _firstName, string _lastName, string _email) onlyUserOwner public {\r\n        require(userIdByAddress[msg.sender] > 0);\r\n        //require(utfStringLength(_email) > 4);\r\n        uint id = userIdByAddress[msg.sender];\r\n        users[id].firstName = stringToBytes32(_firstName);\r\n        users[id].lastName = stringToBytes32(_lastName);\r\n        users[id].email = stringToBytes32(_email);\r\n        userIdByEmail[stringToBytes32(_email)] = id;\r\n        emit UpdateUser(id, _firstName, _lastName, _email, msg.sender);\r\n    }\r\n\r\n    // Purpose  : To retrieve a users id via email\r\n    // function getIdByEmail(string _email) public view returns (uint) {\r\n    //     //require(utfStringLength(_email) > 0);\r\n    //     require(userIdByEmail[stringToBytes32(_email)] > 0);\r\n    //     return userIdByEmail[stringToBytes32(_email)];\r\n    // }\r\n\r\n    // Purpose  : To retrieve a users id via email\r\n    function getIdByAddress(address _address) public view returns (uint) {\r\n        require(userIdByAddress[_address] > 0);\r\n        return userIdByAddress[_address];\r\n    }\r\n\r\n    // Purpose  : To retrieve a users id via email\r\n    function getMyId() public view returns (uint) {\r\n        require(userIdByAddress[msg.sender] > 0);\r\n        return userIdByAddress[msg.sender];\r\n    }\r\n\r\n    // Purpose  : To retrieve a credential by the id\r\n    function getUserById(uint _id) public view returns (bytes32, bytes32, bytes32, bool, uint) {\r\n        require(_id < userCount);\r\n        return (users[_id].firstName, users[_id].lastName, users[_id].email, users[_id].isActive, _id); \r\n    }\r\n\r\n    // function getUserByEmail(string _email) public view returns  (bytes32, bytes32, bytes32, bool, uint) {\r\n    //     uint _id = userIdByEmail[stringToBytes32(_email)];\r\n    //     require(users[_id].email.length > 0);\r\n    //     require(_id < users.length);\r\n    //     return (users[_id].firstName, users[_id].lastName, users[_id].email, users[_id].isActive, _id); \r\n    // }\r\n\r\n    function getUserByAddress(address _address) public view returns (bytes32, bytes32, bytes32, bool, uint) {\r\n        uint _id = userIdByAddress[_address];\r\n        //require(users[_id].email.length > 0);\r\n        //require(_id < userCount);\r\n        return (users[_id].firstName, users[_id].lastName, users[_id].email, users[_id].isActive, _id); \r\n    }\r\n\r\n    // function getUserList() public view returns (bytes32[], bytes32[], bytes32[], bool[]) {\r\n    //     require(userCount >= 0);\r\n    //     bytes32[] memory firstNames = new bytes32[](userCount);\r\n    //     bytes32[] memory lastNames = new bytes32[](userCount);\r\n    //     bytes32[] memory emails = new bytes32[](userCount);\r\n    //     bool[] memory isActives = new bool[](userCount);\r\n    //     for (uint i = 0; i < userCount; i++) {\r\n    //         firstNames[i] = users[i].firstName;\r\n    //         lastNames[i] = users[i].lastName;\r\n    //         emails[i] = users[i].email;\r\n    //         isActives[i] = users[i].isActive;\r\n    //     }\r\n    //     return (firstNames, lastNames, emails, isActives);\r\n    // }\r\n\r\n    // Purpose  : Determines if the address is a user\r\n    function addressIsUser(address _address) public view returns (bool) {\r\n        uint id = userIdByAddress[_address];\r\n        return (id > 0);\r\n    }\r\n\r\n    // function bytes32ToString(bytes32 x) internal pure returns (string) {\r\n    //     bytes memory bytesString = new bytes(32);\r\n    //     uint charCount = 0;\r\n    //     for (uint j = 0; j < 32; j++) {\r\n    //         byte char = byte(bytes32(uint(x) * 2 ** (8 * j)));\r\n    //         if (char != 0) {\r\n    //             bytesString[charCount] = char;\r\n    //             charCount++;\r\n    //         }\r\n    //     }\r\n    //     bytes memory bytesStringTrimmed = new bytes(charCount);\r\n    //     for (j = 0; j < charCount; j++) {\r\n    //         bytesStringTrimmed[j] = bytesString[j];\r\n    //     }\r\n    //     return string(bytesStringTrimmed);\r\n    // }\r\n\r\n    function stringToBytes32(string memory source) internal pure returns (bytes32 result) {\r\n        bytes memory tempEmptyStringTest = bytes(source);\r\n        if (tempEmptyStringTest.length == 0) {\r\n            return 0x0;\r\n        }\r\n        assembly {result := mload(add(source, 32))}\r\n    }\r\n\r\n    // function utfStringLength(string str) pure internal\r\n    // returns (uint length)\r\n    // {\r\n    //     uint i=0;\r\n    //     bytes memory string_rep = bytes(str);\r\n\r\n    //     while (i<string_rep.length)\r\n    //     {\r\n    //         if (string_rep[i]>>7==0)\r\n    //             i+=1;\r\n    //         else if (string_rep[i]>>5==0x6)\r\n    //             i+=2;\r\n    //         else if (string_rep[i]>>4==0xE)\r\n    //             i+=3;\r\n    //         else if (string_rep[i]>>3==0x1E)\r\n    //             i+=4;\r\n    //         else\r\n    //             //For safety\r\n    //             i+=1;\r\n\r\n    //         length++;\r\n    //     }\r\n    // }\r\n\r\n    // Purpsoe  : Owners with draw all pirl from contract.  Shutting contract down.\r\n    function destroy() public onlyOwner {\r\n        withdraw(address(this).balance);\r\n    }\r\n\r\n}",
  "sourcePath": "D:\\GitHub\\pirl-project01\\truffle\\contracts\\Users.sol",
  "compiler": {
    "name": "solc",
    "version": "0.4.23+commit.124ca40d.Emscripten.clang"
  },
  "schemaVersion": "2.0.0",
  "updatedAt": "2018-05-22T16:50:20.750Z"
}