{
  "contractName": "Users",
  "abi": [
    {
      "constant": true,
      "inputs": [
        {
          "name": "",
          "type": "uint256"
        }
      ],
      "name": "users",
      "outputs": [
        {
          "name": "firstName",
          "type": "bytes32"
        },
        {
          "name": "lastName",
          "type": "bytes32"
        },
        {
          "name": "email",
          "type": "bytes32"
        },
        {
          "name": "isActive",
          "type": "bool"
        }
      ],
      "payable": false,
      "stateMutability": "view",
      "type": "function"
    },
    {
      "anonymous": false,
      "inputs": [
        {
          "indexed": false,
          "name": "name",
          "type": "bytes32"
        },
        {
          "indexed": false,
          "name": "url",
          "type": "bytes32"
        },
        {
          "indexed": false,
          "name": "isActive",
          "type": "bytes32"
        },
        {
          "indexed": false,
          "name": "fee",
          "type": "uint256"
        }
      ],
      "name": "NewUser",
      "type": "event"
    },
    {
      "constant": false,
      "inputs": [
        {
          "name": "_firstName",
          "type": "string"
        },
        {
          "name": "_lastName",
          "type": "string"
        },
        {
          "name": "_email",
          "type": "string"
        }
      ],
      "name": "addUser",
      "outputs": [],
      "payable": false,
      "stateMutability": "nonpayable",
      "type": "function"
    },
    {
      "constant": false,
      "inputs": [
        {
          "name": "_email",
          "type": "string"
        }
      ],
      "name": "getIdByEmail",
      "outputs": [
        {
          "name": "",
          "type": "uint256"
        }
      ],
      "payable": false,
      "stateMutability": "nonpayable",
      "type": "function"
    },
    {
      "constant": false,
      "inputs": [
        {
          "name": "_address",
          "type": "address"
        }
      ],
      "name": "getIdByAddress",
      "outputs": [
        {
          "name": "",
          "type": "uint256"
        }
      ],
      "payable": false,
      "stateMutability": "nonpayable",
      "type": "function"
    },
    {
      "constant": false,
      "inputs": [],
      "name": "getMyId",
      "outputs": [
        {
          "name": "",
          "type": "uint256"
        }
      ],
      "payable": false,
      "stateMutability": "nonpayable",
      "type": "function"
    },
    {
      "constant": true,
      "inputs": [
        {
          "name": "_id",
          "type": "uint256"
        }
      ],
      "name": "getUserById",
      "outputs": [
        {
          "name": "",
          "type": "bytes32"
        },
        {
          "name": "",
          "type": "bytes32"
        },
        {
          "name": "",
          "type": "bytes32"
        },
        {
          "name": "",
          "type": "bool"
        },
        {
          "name": "",
          "type": "uint256"
        }
      ],
      "payable": false,
      "stateMutability": "view",
      "type": "function"
    },
    {
      "constant": true,
      "inputs": [
        {
          "name": "_email",
          "type": "string"
        }
      ],
      "name": "getUserByEmail",
      "outputs": [
        {
          "name": "",
          "type": "bytes32"
        },
        {
          "name": "",
          "type": "bytes32"
        },
        {
          "name": "",
          "type": "bytes32"
        },
        {
          "name": "",
          "type": "bool"
        },
        {
          "name": "",
          "type": "uint256"
        }
      ],
      "payable": false,
      "stateMutability": "view",
      "type": "function"
    },
    {
      "constant": true,
      "inputs": [
        {
          "name": "_address",
          "type": "address"
        }
      ],
      "name": "getUserByAddress",
      "outputs": [
        {
          "name": "",
          "type": "bytes32"
        },
        {
          "name": "",
          "type": "bytes32"
        },
        {
          "name": "",
          "type": "bytes32"
        },
        {
          "name": "",
          "type": "bool"
        },
        {
          "name": "",
          "type": "uint256"
        }
      ],
      "payable": false,
      "stateMutability": "view",
      "type": "function"
    },
    {
      "constant": true,
      "inputs": [],
      "name": "getUserList",
      "outputs": [
        {
          "name": "",
          "type": "bytes32[]"
        },
        {
          "name": "",
          "type": "bytes32[]"
        },
        {
          "name": "",
          "type": "bytes32[]"
        },
        {
          "name": "",
          "type": "bool[]"
        }
      ],
      "payable": false,
      "stateMutability": "view",
      "type": "function"
    }
  ],
  "bytecode": "0x6060604052341561000f57600080fd5b610fab8061001e6000396000f300606060405260043610610099576000357c0100000000000000000000000000000000000000000000000000000000900463ffffffff16806318046ae11461009e57806327ed00ee14610147578063365b98b21461017057806369c212f6146101d85780636ed6da9e1461025d578063807d8045146102cc57806395c5fed41461033d578063b852204314610420578063dff3b49714610562575b600080fd5b34156100a957600080fd5b6100f9600480803590602001908201803590602001908080601f016020809104026020016040519081016040528093929190818152602001838380828437820191505050505050919050506105af565b60405180866000191660001916815260200185600019166000191681526020018460001916600019168152602001831515151581526020018281526020019550505050505060405180910390f35b341561015257600080fd5b61015a6106c4565b6040518082815260200191505060405180910390f35b341561017b57600080fd5b6101916004808035906020019091905050610758565b604051808560001916600019168152602001846000191660001916815260200183600019166000191681526020018215151515815260200194505050505060405180910390f35b34156101e357600080fd5b61020f600480803573ffffffffffffffffffffffffffffffffffffffff169060200190919050506107a4565b60405180866000191660001916815260200185600019166000191681526020018460001916600019168152602001831515151581526020018281526020019550505050505060405180910390f35b341561026857600080fd5b61027e60048080359060200190919050506108d5565b60405180866000191660001916815260200185600019166000191681526020018460001916600019168152602001831515151581526020018281526020019550505050505060405180910390f35b34156102d757600080fd5b610327600480803590602001908201803590602001908080601f01602080910402602001604051908101604052809392919081815260200183838082843782019150505050505091905050610994565b6040518082815260200191505060405180910390f35b341561034857600080fd5b61041e600480803590602001908201803590602001908080601f0160208091040260200160405190810160405280939291908181526020018383808284378201915050505050509190803590602001908201803590602001908080601f0160208091040260200160405190810160405280939291908181526020018383808284378201915050505050509190803590602001908201803590602001908080601f016020809104026020016040519081016040528093929190818152602001838380828437820191505050505050919050506109f2565b005b341561042b57600080fd5b610433610bb2565b6040518080602001806020018060200180602001858103855289818151815260200191508051906020019060200280838360005b83811015610482578082015181840152602081019050610467565b50505050905001858103845288818151815260200191508051906020019060200280838360005b838110156104c45780820151818401526020810190506104a9565b50505050905001858103835287818151815260200191508051906020019060200280838360005b838110156105065780820151818401526020810190506104eb565b50505050905001858103825286818151815260200191508051906020019060200280838360005b8381101561054857808201518184015260208101905061052d565b505050509050019850505050505050505060405180910390f35b341561056d57600080fd5b610599600480803573ffffffffffffffffffffffffffffffffffffffff16906020019091905050610dff565b6040518082815260200191505060405180910390f35b600080600080600080600160006105c589610e95565b60001916600019168152602001908152602001600020549050600080828154811015156105ee57fe5b906000526020600020905050602060ff1611151561060b57600080fd5b6000805490508110151561061e57600080fd5b60008181548110151561062d57fe5b90600052602060002090600402016000015460008281548110151561064e57fe5b90600052602060002090600402016001015460008381548110151561066f57fe5b90600052602060002090600402016002015460008481548110151561069057fe5b906000526020600020906004020160030160009054906101000a900460ff1684955095509550955095505091939590929450565b600080600260003373ffffffffffffffffffffffffffffffffffffffff1673ffffffffffffffffffffffffffffffffffffffff1681526020019081526020016000205411151561071357600080fd5b600260003373ffffffffffffffffffffffffffffffffffffffff1673ffffffffffffffffffffffffffffffffffffffff16815260200190815260200160002054905090565b60008181548110151561076757fe5b90600052602060002090600402016000915090508060000154908060010154908060020154908060030160009054906101000a900460ff16905084565b600080600080600080600260008873ffffffffffffffffffffffffffffffffffffffff1673ffffffffffffffffffffffffffffffffffffffff168152602001908152602001600020549050600080828154811015156107ff57fe5b906000526020600020905050602060ff1611151561081c57600080fd5b6000805490508110151561082f57600080fd5b60008181548110151561083e57fe5b90600052602060002090600402016000015460008281548110151561085f57fe5b90600052602060002090600402016001015460008381548110151561088057fe5b9060005260206000209060040201600201546000848154811015156108a157fe5b906000526020600020906004020160030160009054906101000a900460ff1684955095509550955095505091939590929450565b60008060008060008080549050861015156108ef57600080fd5b6000868154811015156108fe57fe5b90600052602060002090600402016000015460008781548110151561091f57fe5b90600052602060002090600402016001015460008881548110151561094057fe5b90600052602060002090600402016002015460008981548110151561096157fe5b906000526020600020906004020160030160009054906101000a900460ff16899450945094509450945091939590929450565b600080600160006109a485610e95565b60001916600019168152602001908152602001600020541115156109c757600080fd5b600160006109d484610e95565b60001916600019168152602001908152602001600020549050919050565b60008060016000610a0285610e95565b6000191660001916815260200190815260200160002054141515610a2557600080fd5b6000600260003373ffffffffffffffffffffffffffffffffffffffff1673ffffffffffffffffffffffffffffffffffffffff16815260200190815260200160002054141515610a7357600080fd5b60009050600160008054806001018281610a8d9190610ec6565b91600052602060002090600402016000608060405190810160405280610ab28a610e95565b600019168152602001610ac489610e95565b600019168152602001610ad688610e95565b60001916815260200160011515815250909190915060008201518160000190600019169055602082015181600101906000191690556040820151816002019060001916905560608201518160030160006101000a81548160ff02191690831515021790555050500390508060016000610b4e85610e95565b600019166000191681526020019081526020016000208190555080600260003373ffffffffffffffffffffffffffffffffffffffff1673ffffffffffffffffffffffffffffffffffffffff1681526020019081526020016000208190555050505050565b610bba610ef8565b610bc2610ef8565b610bca610ef8565b610bd2610f0c565b610bda610ef8565b610be2610ef8565b610bea610ef8565b610bf2610f0c565b60008060008054905010151515610c0857600080fd5b600080549050604051805910610c1b5750595b90808252806020026020018201604052509450600080549050604051805910610c415750595b90808252806020026020018201604052509350600080549050604051805910610c675750595b90808252806020026020018201604052509250600080549050604051805910610c8d5750595b90808252806020026020018201604052509150600090505b60016000805490500381111515610de857600081815481101515610cc557fe5b9060005260206000209060040201600001548582815181101515610ce557fe5b906020019060200201906000191690816000191681525050600081815481101515610d0c57fe5b9060005260206000209060040201600101548482815181101515610d2c57fe5b906020019060200201906000191690816000191681525050600081815481101515610d5357fe5b9060005260206000209060040201600201548382815181101515610d7357fe5b906020019060200201906000191690816000191681525050600081815481101515610d9a57fe5b906000526020600020906004020160030160009054906101000a900460ff168282815181101515610dc757fe5b90602001906020020190151590811515815250508080600101915050610ca5565b848484849850985098509850505050505090919293565b600080600260008473ffffffffffffffffffffffffffffffffffffffff1673ffffffffffffffffffffffffffffffffffffffff16815260200190815260200160002054111515610e4e57600080fd5b600260008373ffffffffffffffffffffffffffffffffffffffff1673ffffffffffffffffffffffffffffffffffffffff168152602001908152602001600020549050919050565b6000610e9f610f20565b829050600081511415610eb85760006001029150610ec0565b602083015191505b50919050565b815481835581811511610ef357600402816004028360005260206000209182019101610ef29190610f34565b5b505050565b602060405190810160405280600081525090565b602060405190810160405280600081525090565b602060405190810160405280600081525090565b610f7c91905b80821115610f7857600080820160009055600182016000905560028201600090556003820160006101000a81549060ff021916905550600401610f3a565b5090565b905600a165627a7a72305820f40a72ddb61f91f9a26852b0f0e1dccce5bda551611362dc31d6e5a9d3f8632c0029",
  "source": "pragma solidity ^0.4.19;\r\n\r\nimport \"./myutils.sol\";\r\n\r\ncontract Users is MyUtils {\r\n\r\n    // Events\r\n    event NewUser(bytes32 name, bytes32 url,  bytes32 isActive, uint fee);\r\n\r\n    // Structs\r\n    struct User {\r\n        bytes32 firstName;\r\n        bytes32 lastName;\r\n        bytes32 email;\r\n        bool isActive;\r\n    }\r\n\r\n    User[] public users;\r\n    mapping(bytes32 => uint) internal userIdByEmail;\r\n    mapping(address => uint) internal userIdByAddress;\r\n\r\n    // Purpose  : To hold add a credential to the list of available credentials\r\n    function addUser(string _firstName, string _lastName, string _email) public {\r\n        require(userIdByEmail[stringToBytes32(_email)] == 0);\r\n        require(userIdByAddress[msg.sender] == 0);\r\n        //require(_email.length > 4);\r\n        uint id = 0;\r\n        id = users.push(User(stringToBytes32(_firstName), stringToBytes32(_lastName),stringToBytes32(_email), true))-1;\r\n        userIdByEmail[stringToBytes32(_email)] = id;\r\n        userIdByAddress[msg.sender] = id;\r\n    }\r\n\r\n    // Purpose  : To retrieve a users id via email\r\n    function getIdByEmail(string _email) public returns (uint) {\r\n        //require(_email.length > 0);\r\n        require(userIdByEmail[stringToBytes32(_email)] > 0);\r\n        return userIdByEmail[stringToBytes32(_email)];\r\n    }\r\n\r\n    // Purpose  : To retrieve a users id via email\r\n    function getIdByAddress(address _address) public returns (uint) {\r\n        require(userIdByAddress[_address] > 0);\r\n        return userIdByAddress[_address];\r\n    }\r\n\r\n    // Purpose  : To retrieve a users id via email\r\n    function getMyId() public returns (uint) {\r\n        require(userIdByAddress[msg.sender] > 0);\r\n        return userIdByAddress[msg.sender];\r\n    }\r\n\r\n    // Purpose  : To retrieve a credential by the id\r\n    function getUserById(uint _id) public view returns (bytes32, bytes32, bytes32, bool, uint) {\r\n        require(_id < users.length);\r\n        return (users[_id].firstName, users[_id].lastName, users[_id].email, users[_id].isActive, _id); \r\n    }\r\n\r\n    function getUserByEmail(string _email) public view returns  (bytes32, bytes32, bytes32, bool, uint) {\r\n        uint _id = userIdByEmail[stringToBytes32(_email)];\r\n        require(users[_id].email.length > 0);\r\n        require(_id < users.length);\r\n        return (users[_id].firstName, users[_id].lastName, users[_id].email, users[_id].isActive, _id); \r\n    }\r\n\r\n    function getUserByAddress(address _address) public view returns (bytes32, bytes32, bytes32, bool, uint) {\r\n        uint _id = userIdByAddress[_address];\r\n        require(users[_id].email.length > 0);\r\n        require(_id < users.length);\r\n        return (users[_id].firstName, users[_id].lastName, users[_id].email, users[_id].isActive, _id); \r\n    }\r\n\r\n    function getUserList() public view returns (bytes32[], bytes32[], bytes32[], bool[]) {\r\n        require(users.length >= 0);\r\n        bytes32[] memory firstNames = new bytes32[](users.length);\r\n        bytes32[] memory lastNames = new bytes32[](users.length);\r\n        bytes32[] memory emails = new bytes32[](users.length);\r\n        bool[] memory isActives = new bool[](users.length);\r\n        for (uint i = 0; i <= users.length-1; i++) {\r\n            firstNames[i] = users[i].firstName;\r\n            lastNames[i] = users[i].lastName;\r\n            emails[i] = users[i].email;\r\n            isActives[i] = users[i].isActive;\r\n        }\r\n        return (firstNames, lastNames, emails, isActives);\r\n    }\r\n\r\n    function stringToBytes32(string memory source) internal pure returns (bytes32 result) {\r\n        bytes memory tempEmptyStringTest = bytes(source);\r\n        if (tempEmptyStringTest.length == 0) {\r\n            return 0x0;\r\n        }\r\n        assembly {result := mload(add(source, 32))}\r\n    }\r\n\r\n}",
  "sourcePath": "D:\\GitHub\\pirl-project01\\truffle\\contracts\\Users.sol",
  "compiler": {
    "name": "solc",
    "version": "0.4.21+commit.dfe3193c.Emscripten.clang"
  },
  "schemaVersion": "2.0.0",
  "updatedAt": "2018-05-13T01:04:48.472Z"
}