{
  "contractName": "ContractManager",
  "abi": [
    {
      "constant": true,
      "inputs": [
        {
          "name": "",
          "type": "uint256"
        }
      ],
      "name": "contracts",
      "outputs": [
        {
          "name": "",
          "type": "address"
        }
      ],
      "payable": false,
      "stateMutability": "view",
      "type": "function"
    },
    {
      "inputs": [],
      "payable": false,
      "stateMutability": "nonpayable",
      "type": "constructor"
    },
    {
      "constant": true,
      "inputs": [],
      "name": "getContractCount",
      "outputs": [
        {
          "name": "",
          "type": "uint256"
        }
      ],
      "payable": false,
      "stateMutability": "view",
      "type": "function"
    },
    {
      "constant": false,
      "inputs": [
        {
          "name": "_agencyName",
          "type": "string"
        }
      ],
      "name": "newContract",
      "outputs": [
        {
          "name": "",
          "type": "address"
        }
      ],
      "payable": false,
      "stateMutability": "nonpayable",
      "type": "function"
    }
  ],
  "bytecode": "0x6060604052341561000f57600080fd5b600060018190555061051b806100266000396000f300606060405260043610610057576000357c0100000000000000000000000000000000000000000000000000000000900463ffffffff168063293d209e1461005c578063474da79a146100f95780639399869d1461015c575b600080fd5b341561006757600080fd5b6100b7600480803590602001908201803590602001908080601f01602080910402602001604051908101604052809392919081815260200183838082843782019150505050505091905050610185565b604051808273ffffffffffffffffffffffffffffffffffffffff1673ffffffffffffffffffffffffffffffffffffffff16815260200191505060405180910390f35b341561010457600080fd5b61011a60048080359060200190919050506102ca565b604051808273ffffffffffffffffffffffffffffffffffffffff1673ffffffffffffffffffffffffffffffffffffffff16815260200191505060405180910390f35b341561016757600080fd5b61016f610309565b6040518082815260200191505060405180910390f35b60008060016000815480929190600101919050555033836101a4610313565b808373ffffffffffffffffffffffffffffffffffffffff1673ffffffffffffffffffffffffffffffffffffffff16815260200180602001828103825283818151815260200191508051906020019080838360005b838110156102135780820151818401526020810190506101f8565b50505050905090810190601f1680156102405780820380516001836020036101000a031916815260200191505b509350505050604051809103906000f080151561025c57600080fd5b9050600080548060010182816102729190610323565b9160005260206000209001600083909190916101000a81548173ffffffffffffffffffffffffffffffffffffffff021916908373ffffffffffffffffffffffffffffffffffffffff1602179055505080915050919050565b6000818154811015156102d957fe5b90600052602060002090016000915054906101000a900473ffffffffffffffffffffffffffffffffffffffff1681565b6000600154905090565b60405161017b8061037583390190565b81548183558181151161034a57818360005260206000209182019101610349919061034f565b5b505050565b61037191905b8082111561036d576000816000905550600101610355565b5090565b9056006060604052341561000f57600080fd5b60405161017b38038061017b8339810160405280805190602001909190805182019190505081600160006101000a81548173ffffffffffffffffffffffffffffffffffffffff021916908373ffffffffffffffffffffffffffffffffffffffff160217905550806000908051906020019061008b929190610093565b505050610138565b828054600181600116156101000203166002900490600052602060002090601f016020900481019282601f106100d457805160ff1916838001178555610102565b82800160010185558215610102579182015b828111156101015782518255916020019190600101906100e6565b5b50905061010f9190610113565b5090565b61013591905b80821115610131576000816000905550600101610119565b5090565b90565b6035806101466000396000f3006060604052600080fd00a165627a7a723058209e4444333ba660fc0b2d133cd032712f4fafa47e5f266940271a901713c039a50029a165627a7a723058203bda4c9da9463c5d0e1e1b19a430cc0a7e15ffb69cf52701921a76eac0513da50029",
  "source": "pragma solidity ^0.4.19;\r\n\r\n\r\ncontract ContractManager {\r\n\r\n    address[] public contracts;\r\n    uint counter;\r\n\r\n    function ContractManager() public {\r\n        counter = 0;\r\n    }\r\n\r\n    function getContractCount() public constant returns(uint) {\r\n        //return contracts.length;\r\n        return counter;\r\n    }\r\n\r\n    // deploy a new contract\r\n    function newContract(string _agencyName) public returns(address)  {\r\n        counter++; \r\n        MicroCredentialContract c = new MicroCredentialContract(msg.sender,_agencyName);\r\n        contracts.push(c);\r\n        return c;\r\n    }\r\n}\r\n\r\ncontract MicroCredentialContract {\r\n\r\n    event NewContract(address _owner, string _AgencyName);\r\n    event ContractNameChange(address ownerAddress, string oldName, string newName);\r\n\r\n    string agencyName;\r\n    address owner;\r\n\r\n    modifier onlyOwner() {\r\n        require(msg.sender == owner);\r\n        _;\r\n    }\r\n    \r\n    // contructor\r\n    function MicroCredentialContract(address _owner, string _agencyName)  public {\r\n        owner = _owner;\r\n        agencyName = _agencyName;\r\n    }\r\n    \r\n    function SetName(string _newAgencyName) onlyOwner() internal {\r\n        emit ContractNameChange(msg.sender, agencyName, _newAgencyName);\r\n        agencyName = _newAgencyName;\r\n    }\r\n    \r\n}",
  "sourcePath": "D:\\GitHub\\pirl-project01\\dev-sandbox\\mmurphy384\\MyTruffle1\\contracts\\ContractManager.sol",
  "compiler": {
    "name": "solc",
    "version": "0.4.21+commit.dfe3193c.Emscripten.clang"
  },
  "schemaVersion": "2.0.0",
  "updatedAt": "2018-04-18T15:36:57.286Z"
}