{
  "contractName": "ContractManager",
  "abi": [
    {
      "constant": true,
      "inputs": [
        {
          "name": "",
          "type": "uint256"
        }
      ],
      "name": "contracts",
      "outputs": [
        {
          "name": "",
          "type": "address"
        }
      ],
      "payable": false,
      "stateMutability": "view",
      "type": "function"
    },
    {
      "constant": true,
      "inputs": [],
      "name": "getContractCount",
      "outputs": [
        {
          "name": "",
          "type": "uint256"
        }
      ],
      "payable": false,
      "stateMutability": "view",
      "type": "function"
    },
    {
      "constant": true,
      "inputs": [],
      "name": "testShouldReturn99",
      "outputs": [
        {
          "name": "",
          "type": "uint256"
        }
      ],
      "payable": false,
      "stateMutability": "pure",
      "type": "function"
    },
    {
      "constant": false,
      "inputs": [
        {
          "name": "_agencyName",
          "type": "string"
        }
      ],
      "name": "newContract",
      "outputs": [
        {
          "name": "",
          "type": "address"
        }
      ],
      "payable": false,
      "stateMutability": "nonpayable",
      "type": "function"
    }
  ],
  "bytecode": "0x6060604052341561000f57600080fd5b6105488061001e6000396000f300606060405260043610610062576000357c0100000000000000000000000000000000000000000000000000000000900463ffffffff168063293d209e14610067578063474da79a146101045780639399869d14610167578063d395c2aa14610190575b600080fd5b341561007257600080fd5b6100c2600480803590602001908201803590602001908080601f016020809104026020016040519081016040528093929190818152602001838380828437820191505050505050919050506101b9565b604051808273ffffffffffffffffffffffffffffffffffffffff1673ffffffffffffffffffffffffffffffffffffffff16815260200191505060405180910390f35b341561010f57600080fd5b61012560048080359060200190919050506102ec565b604051808273ffffffffffffffffffffffffffffffffffffffff1673ffffffffffffffffffffffffffffffffffffffff16815260200191505060405180910390f35b341561017257600080fd5b61017a61032b565b6040518082815260200191505060405180910390f35b341561019b57600080fd5b6101a3610337565b6040518082815260200191505060405180910390f35b60008033836101c6610340565b808373ffffffffffffffffffffffffffffffffffffffff1673ffffffffffffffffffffffffffffffffffffffff16815260200180602001828103825283818151815260200191508051906020019080838360005b8381101561023557808201518184015260208101905061021a565b50505050905090810190601f1680156102625780820380516001836020036101000a031916815260200191505b509350505050604051809103906000f080151561027e57600080fd5b9050600080548060010182816102949190610350565b9160005260206000209001600083909190916101000a81548173ffffffffffffffffffffffffffffffffffffffff021916908373ffffffffffffffffffffffffffffffffffffffff1602179055505080915050919050565b6000818154811015156102fb57fe5b90600052602060002090016000915054906101000a900473ffffffffffffffffffffffffffffffffffffffff1681565b60008080549050905090565b60006063905090565b60405161017b806103a283390190565b81548183558181151161037757818360005260206000209182019101610376919061037c565b5b505050565b61039e91905b8082111561039a576000816000905550600101610382565b5090565b9056006060604052341561000f57600080fd5b60405161017b38038061017b8339810160405280805190602001909190805182019190505081600160006101000a81548173ffffffffffffffffffffffffffffffffffffffff021916908373ffffffffffffffffffffffffffffffffffffffff160217905550806000908051906020019061008b929190610093565b505050610138565b828054600181600116156101000203166002900490600052602060002090601f016020900481019282601f106100d457805160ff1916838001178555610102565b82800160010185558215610102579182015b828111156101015782518255916020019190600101906100e6565b5b50905061010f9190610113565b5090565b61013591905b80821115610131576000816000905550600101610119565b5090565b90565b6035806101466000396000f3006060604052600080fd00a165627a7a72305820adcfb898b4673ed6750758961ad24b05b8d9a188677aa2438005a015b3d72ea60029a165627a7a72305820b7ab7a0ace2cfb3f37872be0de1d49b94eaa209ab95b8010548018b6ad99674a0029",
  "source": "pragma solidity ^0.4.19;\r\n\r\n\r\ncontract ContractManager {\r\n\r\n    address[] public contracts;\r\n\r\n    function getContractCount() public constant returns(uint) {\r\n        return contracts.length;\r\n    }\r\n\r\n    function testShouldReturn99() public pure returns(uint) {\r\n        return 99;\r\n    }\r\n\r\n    // deploy a new contract\r\n    function newContract(string _agencyName) public returns(address)  {\r\n        MicroCredentialContract c = new MicroCredentialContract(msg.sender,_agencyName);\r\n        contracts.push(c);\r\n        return c;\r\n    }\r\n}\r\n\r\ncontract MicroCredentialContract {\r\n\r\n    event NewContract(address _owner, string _AgencyName);\r\n    event ContractNameChange(address ownerAddress, string oldName, string newName);\r\n\r\n    string agencyName;\r\n    address owner;\r\n\r\n    modifier onlyOwner() {\r\n        require(msg.sender == owner);\r\n        _;\r\n    }\r\n    \r\n    // contructor\r\n    function MicroCredentialContract(address _owner, string _agencyName) public {\r\n        owner = _owner;\r\n        agencyName = _agencyName;\r\n    }\r\n    \r\n    function SetName(string _newAgencyName) onlyOwner() internal {\r\n        emit ContractNameChange(msg.sender, agencyName, _newAgencyName);\r\n        agencyName = _newAgencyName;\r\n    }\r\n    \r\n}",
  "sourcePath": "D:\\GitHub\\playground\\contracts\\ContractManager.sol",
  "compiler": {
    "name": "solc",
    "version": "0.4.21+commit.dfe3193c.Emscripten.clang"
  },
  "schemaVersion": "2.0.0",
  "updatedAt": "2018-04-17T01:36:40.742Z"
}